:020000040800F2
:10000000000A0020A9010008B1010008B30100089E
:10001000B5010008B7010008B901000800000000A0
:10002000000000000000000000000000BB0100080C
:10003000BD01000800000000BF010008F920000811
:10004000C3010008C3010008C3010008C301000880
:10005000C3010008C3010008C3010008C301000870
:10006000C3010008C3010008C30100080519000806
:1000700025190008451900086519000885190008A8
:10008000A5190008C5190008C3010008C30100082C
:10009000C3010008C3010008C3010008C301000830
:1000A000C3010008C3010008C3010008C301000820
:1000B00069210008C3010008C3010008C30100084A
:1000C000C3010008C3010008C3010008C301000800
:1000D000C3010008C3010008C30100083122000861
:1000E000C3010008C3010008C301000800F002F8C2
:1000F00000F04AF80AA090E8000C82448344AAF178
:100100000107DA4501D100F03FF8AFF2090EBAE875
:100110000F0013F0010F18BFFB1A43F0010318473B
:10012000084D0000284D0000103A24BF78C878C15F
:10013000FAD8520724BF30C830C144BF04680C60ED
:10014000704700000023002400250026103A28BF35
:1001500078C1FBD8520728BF30C148BF0B60704739
:10016000642900F08180782900F0BA80002070476F
:100170001FB59DE8030000F01FFC00F045FA1FBD0D
:1001800010B500F0AAFA10BD00F0DEFA1146FFF734
:10019000EFFF03F031F800F0E3FB03B4FFF7F0FFEB
:1001A00003BC00F07BFD0000094880470948004778
:1001B000FEE7FEE7FEE7FEE7FEE7FEE7FEE7FEE717
:1001C000FEE7FEE704480549054A064B7047000074
:1001D00009210008ED00000800040020000A0020AA
:1001E00000060020000600200FB4044910B503AA41
:1001F000029800F0DBF910BC5DF814FBF802002057
:100200002DE9F0410E460446002020622046E168B8
:10021000884730B3252805D0D4E901219047206ACA
:10022000401CF2E7E168204600278847050018D007
:10023000A5F14100192802D820354FF40067324655
:10024000294620462760FFF78BFF40B1012804D0E4
:10025000F61D26F007060836D8E7361DD6E72846ED
:10026000DAE7206ABDE8F0812DE9F0410646002476
:1002700010687529314616A510D0AFF3008000280C
:1002800002DA404213A507E031688A0701D512A5BA
:1002900002E0490704D511A5012401E0AFF3008075
:1002A00000210A2206F1240709E0B0FBF2FCB0FBB2
:1002B000F2F302FB1C00303078541846491C002829
:1002C000F3D123462A463046BDE8F04100F015B987
:1002D000000000002D0000002B00000020000000A6
:1002E00070B504460D4621461068AFF300802188A2
:1002F000090502D50F4A7A4402E00E4A7A440E32CA
:10030000002104F1240305E000F00F060009965DCA
:100310005E54491C0028F7D120780023000704D53B
:10032000702D02D009B1022311322046BDE8704081
:1003300000F0E3B8294A0000032A40F2308010F0B0
:10034000030C00F0158011F8013BBCF1020F624470
:1003500098BF11F801CB00F8013B38BF11F8013B01
:10036000A2F1040298BF00F801CB38BF00F8013BAE
:1003700011F0030300F02580083AC0F0088051F81E
:10038000043B083A51F804CBA0E80810F5E7121D29
:100390005CBF51F8043B40F8043BAFF30080D20748
:1003A00024BF11F8013B11F801CB48BF11F8012B14
:1003B00024BF00F8013B00F801CB48BF00F8012B37
:1003C000704710B5203AC0F00B80B1E81850203AC1
:1003D000A0E81850B1E81850A0E81850BFF4F5AFE5
:1003E0005FEA027C24BFB1E81850A0E8185044BF6F
:1003F00018C918C0BDE810405FEA827C24BF51F8DC
:10040000043B40F8043B08BF7047D20728BF31F8CF
:10041000023B48BF11F8012B28BF20F8023B48BF20
:1004200000F8012B70474FF0000200B513469446C8
:100430009646203922BFA0E80C50A0E80C50B1F13C
:100440002001BFF4F7AF090728BFA0E80C5048BF50
:100450000CC05DF804EB890028BF40F8042B08BFEE
:10046000704748BF20F8022B11F0804F18BF00F8EA
:10047000012B70474FF0013C50F8042B51F8043B1E
:100480009A4221D1A2EB0C03934313EACC1317D168
:1004900050F8042B51F8043B9A4215D1A2EB0C03FF
:1004A000934313EACC130BD150F8042B51F8043BBF
:1004B0009A4209D1A2EB0C03934313EACC13DBD08D
:1004C0004FF00000704700BFD01A01BAB1FA81F1B5
:1004D00001F0180122FA01F0CB40C1F12001DBB29A
:1004E000C0B2C01A2CFA01F3D11A914311EAC31118
:1004F000E6D170477047704770472DE9F0470D46C9
:1005000099469246044600F124080168880604D5FD
:10051000E06921F01001216000E00120A84201DD26
:10052000471B00E00027A1697A1902EB0900081AAD
:10053000A0612078C00602D42046AFF300800026D8
:1005400008E0D4E901211AF806009047206A401C0F
:10055000761C20624E45F4DB2078C0060AD5204682
:10056000AFF3008006E0D4E9012130209047206AF3
:10057000401C2062381EA7F10107F4DC07E0D4E933
:10058000012118F805009047206A401C2062281EAF
:10059000A5F10105F3DC2046AFF3008020780006CA
:1005A00002D50220BDE8F0870120FBE7074B70B5BC
:1005B0000D467B4400F011F80446284600F020F870
:1005C00010B14FF0FF3070BD204670BD1F2C0000F1
:1005D00001694A1C02610878704700B58FB0CDE907
:1005E00001310021059105497944CDE903101146F7
:1005F0006846FFF705FE0FB000BD0000E5FFFFFFF6
:10060000007B00F08000704710B542485421FFF78E
:100610000AFF41485421FFF706FF40485421FFF7E5
:1006200002FF3F493B483C4A3F4B08603D490A6056
:100630003A491960531C0365481C10650120086580
:100640003B48344A39A1784400F0EEF820B93848E4
:1006500078440A3800F08DF937482F4A35A178449C
:1006600000F0E2F820B9344878440A3800F081F903
:1006700032482A4A2FA1784400F0D6F820B92F48F2
:1006800078440A3800F075F940232248DC00002144
:10069000224600F0A5F820B125487844543800F0EF
:1006A00068F91D4822464023002100F099F820B146
:1006B00021487844543800F05CF918482246102349
:1006C000002100F08DF8002806D01C487844BDE8D1
:1006D0001040563800F04DB910BD104870B5006D8F
:1006E00020F001040B4800F015F90B4800F012F956
:1006F0000A4800F00FF909E0206D20F001052046BE
:1007000000F008F9204600F044F82C46002CF3D104
:1007100070BD0000A4020020F80200204C0300205D
:10072000DC000020E0000020E40000207200000057
:10073000C246000077000000B1460000A14600005C
:1007400000487047A00300207546FFF7F9FFAE464A
:1007500005006946534620F00700854618B020B5CD
:10076000FFF730FDBDE820404FF000064FF00007D6
:100770004FF000084FF0000B21F00701AC46ACE849
:10078000C009ACE8C009ACE8C009ACE8C0098D46B6
:10079000704770B50446051F00F0F2F80068002CA1
:1007A00014BF446870BD002C18BFAC423CBF20464B
:1007B0006468F8D301680A18AA4218BF456003D1DB
:1007C0002A6805461144016028684119A1421CBFEE
:1007D0006C6070BD6168696021680844286070BD04
:1007E00070B5C468A50713D0650211D4B2F5807F37
:1007F00009D0B2F5007F06D0B2F5806F08D1012391
:1008000000F1240106E05D1E6FF07F46B54201D382
:10081000012070BD0161C361416024F47061114326
:10082000C160002070BD00002DE9F0410C46074674
:100830001646104600F06EF82078611C61280AD038
:10084000722802D077283CD102E00125002405E07F
:100850000225042402E0082448F2020511F8010BE5
:100860002B2806D0622809D011F8010C74280AD070
:100870000BE045F0030544F00204EFE745F0040502
:1008800044F00104EAE744F010043846214601F040
:100890000FFE411C15D00021316171604FF40071D1
:1008A000F560F1617061200704D530460222002115
:1008B00000F0E0F8306D40F0010030653046BDE8F2
:1008C000F0810020FBE72DE9F0410D460646104C73
:1008D000206DC10704D0410804D020F00104F7E7DF
:1008E00022460EE0542000F096F807000ED0206D4E
:1008F00047F001010843542120653846FFF793FD76
:100900003A4629463046BDE8F0418DE70020D6E75B
:10091000A40200202DE9F04704464FF000094FF0F3
:10092000FF37C568D4E90486A80707D0204600F041
:1009300051F9304601F085FD002802DA3846BDE85D
:10094000F087280502D54046FFF723FF4C212046BB
:10095000FFF769FD206D20F0010020654846EEE7B5
:1009600010B50446AFF300802046BDE81040FFF705
:1009700014BC10B500F078F9BDE8104000F06EB975
:1009800000487047A80300207047704770477047C1
:1009900038B504460A4600206946AFF300800028B7
:1009A00008BF38BD02460099204600F084F90120B6
:1009B00038BD012000F0D3B9F8B5AFF3008005468B
:1009C00000200C46102000BF0646A819A0420DD9F1
:1009D000324669460020AFF30080070008BF00F0F0
:1009E000BEF90098A04218BF0546C419FFF7C8FF1A
:1009F00005600746F01D20F007004619284600F064
:100A000053F9B44208BFF8BDA21B31463868BDE8AF
:100A1000F84000F050B970B50646FFF7B1FF056821
:100A200006F10B0020F00704B4429CBF002070BD0B
:100A30002B466A68BAB11068A04210D304F10801CD
:100A400088423CBF5068586007D351681019416014
:100A50001168091B016058601460101D70BD1346B9
:100A60005268002AE7D121462846FFF791FF002867
:100A7000DED170BD2DE9F041044616460D464769AA
:100A8000007B80072ED0384601F000FD50BB3EB3FE
:100A9000012E02D0022E25D104E0204600F025F9D7
:100AA00005441DE0384601F0DFFCE168002841F014
:100AB0001001E16005DA204600F058F80120BDE899
:100AC000F081C9030BD56268E16A914200D81146F2
:100AD000A26911442269891A814200DD0846054451
:100AE000002D01DA0220EAE7E16A6068E2688142EB
:100AF00006D29103E06203D522F4003141F01002E6
:100B0000A6690027AE4213DCE16A814201D90B4697
:100B100000E0034603EB060C2369ACEB030CAC4589
:100B200006DD814201D98C4600E084469C4505D112
:100B3000A760276042F02000A5620DE0AD1BE669CA
:100B4000AE1B8142A66000D90846C01A281A206050
:100B50005819606022F0200003490840E06000203E
:100B600084F84870ABE70000BFCFD7FFC16821F41D
:100B7000001141F08001C160002181600160704777
:100B80002DE9F047814614460E464FF0FF383248B3
:100B9000D5685769054209D03846A16901F0BCFC07
:100BA000002811DB2C48C0430540E5602B46324647
:100BB0004946384601F0C6FCA16920F00042B21A4D
:100BC00011440028A16103D02046FFF7CFFF404623
:100BD000BDE8F08770B504460569C06A616888425F
:100BE00000D80846E16821F42011E160C90312D55C
:100BF000A84208D02246411B2846FFF7C1FF10B18A
:100C00004FF0FF3070BD0020E562C4E90150E0689C
:100C100020F48030E060002070BD10B50446C0684C
:100C200020F02000E060A16AA06988420DD0204633
:100C3000FFF7D0FFE06820F4405040F01000E06083
:100C4000A06AA0612069E062606044F24001E0684F
:100C50008843E06010BD000010000200002801D0B1
:100C600000F01CB87047000010B5014602A000F06B
:100C70005DF8012010BD00005349475254524544CD
:100C80003A2052656469726563743A2063616E2725
:100C900074206F70656E3A20000000000149182032
:100CA000ABBEFEE72600020000210160C0E9011092
:100CB000704710207047034640688C46002818BFD4
:100CC00088423CBF03464068F8D3186818448842FD
:100CD00007D00CF1030020F00700001D411A521A42
:100CE0000146081D0A60FFF754BD10B50146C268F1
:100CF000900703D0900607D5886A0AE000F03EF816
:100D000001210160881E10BD8B69486818440B6979
:100D1000C01A91F848301BB191F84910401A10BD23
:100D20001103FCD50028FADD401E10BD70B5054644
:100D30000C460A2000E06D1C00F018F835B1287848
:100D40000028F8D102E0641C00F010F814B12078FB
:100D50000028F8D1BDE870400A2000F007B810B5AF
:100D600000F010F8BDE81040FFF778BF08B56946FD
:100D70008DF800000320ABBE08BD704700487047E7
:100D8000A003002010B5012805D0002103A0FFF723
:100D9000CDFF012010BD09A1F8E7000053494752DB
:100DA000544D454D3A204F7574206F66206865613B
:100DB00070206D656D6F7279000000003A20486503
:100DC0006170206D656D6F727920636F72727570DE
:100DD0007465640070B504460D46164616480570E5
:100DE0001648047001201649086000201549087053
:100DF00015490870154908701049087014481549BC
:100E00000860002009E00021134A1154FF21134A11
:100E100011540021124A1154401C2228F3DB00F027
:100E200075FAFF200F4908700348007800F05AFD5A
:100E3000304601F009FC70BD2F0000204500002065
:100E4000A8000020390000203A0000203B000020CC
:100E5000A015FFFF480000201E01002038020020DE
:100E60005A020020440000202DE9F04F95B02021C7
:100E70000DA8FFF7D8FA59A0FFF7B6F9614890F826
:100E800000900025002005E05F49095C08AA115484
:100E9000411C48B24845F7DB002679E05BA0FFF72C
:100EA000A3F908A8845D4FF0000BDA466BE05146C9
:100EB0005DA0FFF799F94FF0000B14205249012271
:100EC0000023CDE90332CDE905100422CDE900234A
:100ED0001A460293234621465748007800F0F8FB53
:100EE00003F0AEF9554908603DE000F04BF900F021
:100EF000CBF9B8B3444800F0A7FB98B3504800784A
:100F0000A04230D14F4800784B49097888422AD115
:100F10004D480078052826D10BF1010000F0FF0BA9
:100F2000584603F0B0FA07460022484B03F0F8FB9E
:100F300019D803F085F907460123022200904048A2
:100F40000178007800F022F900F07CFA00F034FB20
:100F50003B4802782846691CCDB20DA90A544FF0CF
:100F6000030A09E0FFE703F06BF934490968401A06
:100F700042F234118842B8D300BF40F2A46001F0BD
:100F80000DFB0AF1010ABAF1010F90DB701C46B2A9
:100F90004E4583DB002005E00DA9095C1A4A115477
:100FA000411C48B2A842F7DB40F2A4601421164A63
:100FB0000123CDE90432CDE9061000200522CDE958
:100FC000015003460146009203901B4802780078C6
:100FD00000F0C0FB15B0BDE8F08F000072656365DE
:100FE000697665205232207265717565737420616F
:100FF0006E64204920737563636565642052310D0A
:101000000A000000350000207C02002073656E6439
:1010100020523220726565717565737420746F207B
:101020003220686F700D0A007265747279203A2060
:1010300025640D0A000000002F0000203C00002065
:10104000310000203000002034000020000010405B
:101050001A480078022807D018480078052803D0DD
:1010600016480078072827D11548007868B9134832
:101070000078134908701348007813490870134822
:1010800090F900001249087016E00D4800780B49ED
:101090000978884210D10D4890F900000C4991F967
:1010A0000010884208DB07480078074908700748A5
:1010B00090F90000064908707047000034000020D5
:1010C0003B0000203100002039000020AC0000204F
:1010D0003A00002030B587B02348007823490978CA
:1010E000884203D02048007800283AD103F0A8F8BD
:1010F000054600901E480078401CC3B202221B48DF
:1011000001781C48007800F041F800F055FA1A48C0
:101110000078042801D1052408E017480078062843
:1011200004D107241148007814490870002515E0FF
:101130001420124900220392CDE90421CDE9004296
:1011400002920690094803780D4802780748017812
:101150000B48007800F0BCFA681CC5B2052DE7DB2F
:1011600000BF07B030BD0000390000203100002072
:101170003800002032000020340000207C020020D3
:101180002F00002010B501F045FE10BD2DE9F047FD
:1011900005460E4617469846DDF82090002423E0C9
:1011A000384800EBC40090F90000A8421AD168B298
:1011B000344901F8340070B201EBC40148704FFAB1
:1011C00088F0304901EBC401C87078B22D4901EBB9
:1011D000C401887003F034F82A4901EBC401486067
:1011E000BDE8F087601CC4B21F2CD9DB002420E0CE
:1011F000244800EBC4008078C8B968B2214901F8DE
:10120000340070B201EBC40148704FFA88F01D49F8
:1012100001EBC401C87078B21A4901EBC4018870AF
:1012200003F00EF8174901EBC4014860D8E7601CD1
:10123000C4B21F2CDCDB00241FE0124800EBC4000A
:101240008078C0B968B20F4901F8340070B201EB80
:10125000C40148704FFA88F00A4901EBC401C87014
:1012600078B2084901EBC401887002F0E9FF054932
:1012700001EBC4014860601CC4B21F2CDDDB00BF61
:10128000AEE700004001002010B501F093F908B16D
:10129000012010BD0020FCE710B512A0FEF7A4FF4E
:1012A00000F08AF9002414E0144800EBC4008078B0
:1012B00002280CD102F0C4FF104901EBC4014968B7
:1012C0000F4A1144884202D9E0B200F039F8601C9C
:1012D00044B21F2CE8DB0BA0FEF786FF00F06CF990
:1012E00010BD0000636865636B526F7574696E674B
:1012F0005461626C6528290D0A000000400100203D
:1013000040420F0061667465720D0A00002012E011
:1013100000210A4A02EBC0029170FF21074A02EB4A
:10132000C0025170054A02F83010002102EBC002E1
:101330005160411CC8B21F28EADB70474001002001
:1013400070B50446C4F11E03DA00074D631C05EBBB
:10135000C3012B4603EBC400FFF733F800212846F6
:1013600080F8F21070BD00004001002030B5014649
:101370000022002013E00C4B03EBC0039B78022BF0
:101380000BD1094B03EBC00393F900302BB1064B93
:1013900013F830501346521CCD54431C58B21F282A
:1013A000E9DB104630BD00004001002070B5054665
:1013B000002417E00D4800EBC40090F90000A8429B
:1013C0000ED10A4800EBC400807848B102F038FF23
:1013D000064901EBC4014860044800EBC40070BD3D
:1013E000601CC4B21F2CE5DB0020F8E740010020A0
:1013F00001480078704700002F00002010B501F070
:1014000077FE10BD10B501F079FE10BD10B501F0EA
:101410007BFE10BD10B501F07DFE10BD10B501F0D2
:101420007FFE10BD10B501F081FE10BD10B501F0BA
:1014300083FE10BD10B501F085FE10BD10B501F0A2
:1014400087FE10BD10B51848FEF7CEFE174801788C
:1014500017A0FEF7C9FE1C4801781CA0FEF7C4FEC9
:101460002048017820A0FEF7BFFE2648017826A07C
:10147000FEF7BAFE2C4801782CA0FEF7B5FE3148E5
:10148000017831A0FEF7B0FE3548017835A0FEF7AF
:10149000ABFE3A4801783AA0FEF7A6FE3F48017835
:1014A0003FA0FEF7A1FE10BDD84D0008310000207E
:1014B00044475F727848656164657246726F6D205B
:1014C0003A2025640D0A00003000002044475F7276
:1014D00078486561646572546F203A2025640D0A6E
:1014E000000000003200002044475F7278486561C8
:1014F000646572536F75726365203A2025640D0A26
:10150000000000003300002044475F7278486561A6
:1015100064657244657374696E6174696F6E203AB4
:101520002025640D0A0000003400002044475F724B
:101530007848656164657254797065203A20256445
:101540000D0A00003500002044475F72784865614D
:1015500064657244617461203A2025640D0A0000BC
:101560003600002044475F727848656164657246C2
:101570006C616773203A2025640D0A003700002053
:1015800044475F72784865616465725365714E7552
:101590006D203A2025640D0A00000000380000206C
:1015A00044475F7278486561646572486F70203A9D
:1015B0002025640D0A0000003EB5002420E01248FA
:1015C00000EBC4004068104901EBC40191F903101D
:1015D0000D4A02EBC40292F90220CDE900210290EB
:1015E000094800EBC40090F90130074800EBC40043
:1015F00090F90020214605A0FEF7F6FD601CC4B25C
:101600001F2CDCDB3EBD000040010020256420448F
:101610006573743A202564204E65787420486F7095
:101620003A2025642053746174653A20256420486B
:101630006F703A202564204C6173742054696D6585
:101640003A2025640D0A000070B50446204601F0DA
:1016500061F8051E27D0FFF7DDFE14490870FFF77B
:10166000E9FE13490870FFF7E1FE12490870FFF721
:10167000C9FE11490870FFF7E1FE10490870FFF735
:10168000BDFE0F490870FFF7C1FE0E490870FFF755
:10169000C9FE0D490870FFF7C1FE0C490870A5F19D
:1016A0000900C0B270BD0020FCE70000310000203E
:1016B00030000020320000203300002034000020E1
:1016C00035000020360000203700002038000020C0
:1016D0002DE9F05F80460C4615461E460AAF97E896
:1016E000800E0A2F05DB3046FFF760FE08B9BDE823
:1016F000F09F00BF02F0A4FD15490968401AB0F53B
:101700007A7FF7D3404600F0C9F8204600F0DEF8B3
:10171000284600F0D5F8304600F0B4F8384600F01E
:10172000DBF8484600F0A8F8504600F0B1F85846FB
:1017300000F0C0F80E9800F0B7F8DDE90F0101F0F5
:101740003DFA02F07DFD0249086000BFCFE70000CE
:10175000480000202DE9FF4F81B00C4615461E467B
:10176000DDE913890E9F0B2F07DB3046FFF71EFEC6
:1017700018B9002005B0BDE8F08F4FF0000A0198BD
:1017800000F08CF8204600F0A1F8284600F098F808
:10179000304600F077F8384600F09EF80F9800F0D9
:1017A0006BF8119800F086F8129800F07DF8CDF8EB
:1017B0000090002004E018F80010264A1154401C44
:1017C0004845F8DB4FF0000B3EE000BF02F038FD6B
:1017D00021490968401AB0F57A7FF7D359461FA00E
:1017E000FEF702FD1B48009901F0E8F902F028FD20
:1017F0001949086002F024FD824618E0FFF7C2FC98
:10180000FFF742FD98B14046FFF71EFF78B116483A
:101810000078A0420BD11548007815490978884214
:1018200005D1144800780E2801D10120A2E702F06A
:1018300007FDA0EB0A0115988142DFD34FF4FA604F
:1018400000F0ACFE0BF1010BBBF1030FBDDB002080
:1018500090E700009002002048000020726574723A
:1018600079203A202564000031000020300000205B
:101870002F0000203400002010B50446204601F05F
:101880006DFC10BD10B50446204601F06DFC10BD86
:1018900010B50446204601F06DFC10BD10B504469D
:1018A000204601F06DFC10BD10B50446204601F045
:1018B0006DFC10BD10B50446204601F06DFC10BD56
:1018C00010B50446204601F06DFC10BD10B504466D
:1018D000204601F06DFC10BD10B50446204601F015
:1018E0006DFC10BD10B50446204601F06DFC20468D
:1018F000FFF7D4FF0148047010BD00002F00002046
:101900007047000010B50548006800F00F04034858
:1019100044602046FFF7F4FF10BD000000000240C5
:101920007047000010B505480068C0F3031420019B
:10193000024948602046FFF7F3FF10BD0000024057
:101940007047000010B505480068C0F3032420026A
:10195000024948602046FFF7F3FF10BD0000024037
:101960007047000010B505480068C0F30334200339
:10197000024948602046FFF7F3FF10BD0000024017
:101980007047000010B505480068C0F30344200408
:10199000024948602046FFF7F3FF10BD00000240F7
:1019A0007047000010B505480068C0F303542005D7
:1019B000024948602046FFF7F3FF10BD00000240D7
:1019C0007047000010B505480068C0F303642006A6
:1019D000024948602046FFF7F3FF10BD00000240B7
:1019E00008B50420ADF8000003208DF8020018208F
:1019F0008DF8030069461A4800F036F80820ADF863
:101A0000000004208DF803006946154800F02CF80A
:101A10000220ADF8000003208DF8020010208DF8A0
:101A2000030069460E4800F01FF84FF48060ADF8DF
:101A3000000003208DF8020018208DF8030069468D
:101A4000084800F011F84FF40060ADF800000420E1
:101A50008DF803006946034800F006F808BD000051
:101A600000080140000C01402DE9F041024600252C
:101A70000026002000230024002791F803C00CF06A
:101A80000F0591F803C00CF0100CBCF1000F03D04F
:101A900091F802C04CEA050591F800C0BCF1000FB6
:101AA00031D0146800202BE04FF0010C0CFA00F349
:101AB000B1F800C00CEA03069E4220D183004FF02B
:101AC0000F0C0CFA03F7BC4305FA03FC4CEA0404C0
:101AD00091F803C0BCF1280F06D14FF0010C0CFAAD
:101AE00000FCC2F814C00AE091F803C0BCF1480F32
:101AF00005D14FF0010C0CFA00FCC2F810C0401CDC
:101B00000828D1D31460B1F800C0BCF1FF0F34DD58
:101B1000546800202EE000F1080C4FF0010808FA8C
:101B20000CF3B1F800C00CEA03069E4221D18300F9
:101B30004FF00F0C0CFA03F7BC4305FA03FC4CEA18
:101B4000040491F803C0BCF1280F05D100F1080C82
:101B500008FA0CF8C2F8148091F803C0BCF1480FE1
:101B600007D100F1080C4FF0010808FA0CF8C2F890
:101B70001080401C0828CED35460BDE8F081024696
:101B8000002093680B400BB1012000E0002070475B
:101B900041617047016170470A49096801F001011C
:101BA00071B108498039096801F0010141B100BFF4
:101BB0004FF0604109680029FAD04FF06042107080
:101BC00070470000800E00E030B5144800684FF404
:101BD0007A72B0FBF2F1481EB0F1807F00D31BE0B7
:101BE000481E4FF0E022506150170F22002804DBFE
:101BF00013071C0E0A4B1C5406E013071D0E094B5D
:101C000000F00F04241F1D5500BF00204FF0E022FC
:101C100090610720106100BF30BD0000C8000020A7
:101C200000E400E018ED00E000B585B000F06CFACB
:101C30000121042000F04AF80121880300F046F851
:101C40004FF40070ADF8100003208DF8120018203A
:101C50008DF8130004A91348FFF706FF4FF48060C6
:101C6000ADF8100004208DF8130004A90D48FFF70B
:101C7000FBFE4FF4165000900020ADF80400ADF8C4
:101C80000600ADF80800ADF80C000C20ADF80A0015
:101C90006946054800F060FB0121034800F0F3FAB3
:101CA00005B000BD000801400038014029B1064AD6
:101CB000D2690243044BDA6104E0034AD2698243E9
:101CC000014BDA61704700000010024029B1064A5A
:101CD00092690243044B9A6104E0034A9269824389
:101CE000014B9A61704700000010024010B50121BD
:101CF0004FF4C020FFF7DAFF10BD000030B500211F
:101D00000022002400232D4D6D6805F00C0121B147
:101D1000042905D0082923D105E0294D056022E0DA
:101D2000274D05601FE0254D6D6805F47012234DA9
:101D30006D6805F48034022505EB92421CB9214DF3
:101D4000554305600BE01D4D6D6805F400351DB170
:101D50001C4D5543056002E0194D5543056002E0F6
:101D6000174D056000BF00BF144D6D6805F0F00110
:101D70000909154D6B5C0568DD4045600F4D6D68C8
:101D800005F4E061090A104D6B5C4568DD40856033
:101D90000A4D6D6805F46051C90A0B4D6B5C4568CE
:101DA000DD40C560054D6D6805F44041890B074D68
:101DB0006B5CC568B5FBF3F5056130BD00100240F2
:101DC00000127A0000093D00B4000020C400002089
:101DD00070B50025002602213548FFF7DBFE002400
:101DE0000CE03448015D344800F027FB00BF40217F
:101DF000314800F054FA0028F9D0641C0A2CF0DBBA
:101E000002212B48FFF7C4FE02F01AFA2B490860A2
:101E100017E02021284800F042FA78B100BF2021C5
:101E2000254800F03CFA0028F9D0234800F000FBD8
:101E3000C2B22846691CCDB221490A540A2D00D1EC
:101E400007E002F0FDF91D49096801F5FA618842D1
:101E5000DFD300BF1BA0FEF7C7F9002405E0184838
:101E6000015D1DA0FEF7C0F9641C0A2CF7DB1BA066
:101E7000FEF7BAF9002003E01149095C4E40401C0E
:101E80000928F9DB0E48407AB0420DD1002409E060
:101E90000B48005D0A4908550846015D0EA0FEF793
:101EA000A3F9641C0A2CF3DB0CA0FEF79DF970BDAE
:101EB000000801400A010020004400409400002076
:101EC000140100202D2D2D2D2D7265636569766519
:101ED0002D2D2D2D2D0D0A00257820000D0A000036
:101EE00021B1028842F04002028004E002884FF6ED
:101EF000BF731A400280704710B50022028802F4B6
:101F000041520B884C8823438C882343CC8823433D
:101F10000C8923434C8923438C892343CC89234355
:101F20001A430280838B4FF2FF74234083830B8A12
:101F3000038210BD1020014908607047100801405D
:101F400000B587B001210803FFF7C0FE3020ADF8CF
:101F500014000020ADF81000ADF80E00ADF80C0034
:101F6000ADF80800ADF816004FF48270ADF80A0025
:101F70004FF44070ADF8120002A91448FFF7BCFFFF
:101F800001211248FFF7ACFF01210420FFF79EFE5C
:101F9000E020ADF8040018208DF8070003208DF82C
:101FA000060001A90A48FFF75FFD1020ADF8040004
:101FB0008DF8070003208DF8060001A90448FFF7FB
:101FC00053FDFFF7B7FF07B000BD00000030014030
:101FD0000008014001460D48818100BF0B4800897F
:101FE00000F002000028F9D000BF0848008900F086
:101FF00001000028F9D000BF0448008900F08000EB
:102000000028F9D101488089C0B2704700300140F2
:1020100010B500F001F810BD0CB500200190009043
:102020003348006840F480303149086000BF3048D0
:10203000006800F4003000900198401C0190009866
:1020400018B90198B0F5A06FF1D12948006800F4E3
:10205000003010B10120009001E0002000900098B5
:10206000012843D12348006840F01000214908604E
:102070000846006820F0030008600846006840F049
:10208000020008601A4840681949486008464068DC
:1020900048600846406840F48060486008464068F0
:1020A00020F47C1048600846406840F4E81048601E
:1020B0000846006840F08070086000BF0C48006867
:1020C00000F000700028F9D00948406820F00300B3
:1020D000074948600846406840F00200486000BF79
:1020E0000348406800F00C000828F9D10CBD00003E
:1020F000001002400020024002480068401C0149D4
:1021000008607047B000002010B51348006840F028
:1021100001001149086008464068104908400E490E
:102120004860084600680E4908400B4908600846A8
:10213000006820F4802008600846406820F4FE0013
:1021400048604FF41F008860FFF762FF4FF00060A7
:102150000449086010BD0000001002400000FFF8B4
:10216000FFFFF6FE08ED00E010B50121880700F042
:1021700009F818B10121880700F001F810BDCA4321
:102180000282704730B50246002000230024158AE1
:1021900005EA0103958905EA010413B10CB1012098
:1021A00000E0002030BD00001FB54FF41650009035
:1021B0000020ADF80400ADF80600ADF80800ADF859
:1021C0000C000C20ADF80A006946064800F0C4F87F
:1021D0000121044800F057F802210348FFF7D8FC1A
:1021E0001FBD000000440040000801401FB54FF42F
:1021F000165000900020ADF80400ADF80600ADF8D0
:102200000800ADF80C000C20ADF80A00694607483C
:1022100000F0A2F8012240F22551044800F076F8BF
:102220000121024800F02FF81FBD000000480040C7
:1022300010B540F225510A4800F03EF870B140F266
:102240002551074800F010F8054800F0F1F8C4B235
:10225000222C02D101200349087000BF10BD0000EC
:10226000004800408600002010B50022002340F600
:102270006A14A14200D100BF0A1201249440A3B203
:10228000DC43048010BD21B1828942F40052828176
:1022900004E082894DF6FF731A408281704702463E
:1022A0000020B1F5007F00D100BF13880B400BB1B7
:1022B000012000E00020704770B502460024002392
:1022C0000025002040F66A16B14200D100BFC1F3DC
:1022D000421501F01F03012606FA03F3012D02D176
:1022E0009689334006E0022D02D1168A334001E080
:1022F000968A33400C12012606FA04F416883440FC
:1023000013B10CB1012000E0002070BDF0B5034610
:10231000002400260025002040F66A17B94200D1AB
:1023200000BF1846C1F3421401F01F06012707FA47
:1023300006F5012C01D10C3004E0022C01D1103043
:1023400000E014301AB107682F43076002E0076805
:10235000AF430760F0BD00002DE9F04786B00546A9
:102360000E460024A24600BFA1460027B08900B156
:1023700000BF2F462C8A4CF6FF700440F0880443BF
:102380002C82AC894EF6F3100440B08831890843A2
:10239000718908430443AC81AC8A4FF6FF40044086
:1023A000B0890443AC8201A8FFF7A8FC1F4887420C
:1023B00002D1DDF810A001E0DDF80CA0A88900F43E
:1023C000004040B10AEBCA0000EB0A103168490036
:1023D000B0FBF1F807E00AEBCA0000EB0A10316825
:1023E0008900B0FBF1F86420B8FBF0F0040120098B
:1023F000642101FB1089A88900F4004040B132201B
:1024000000EBC900B0FBF1F000F00700044308E066
:10241000322000EB09106421B0FBF1F000F00F0056
:1024200004432C8106B0BDE8F0870000003801406D
:1024300001468888C0F308007047C1F30802828013
:10244000704701466FF40040084420B1012804D0D1
:10245000022806D103E0002070470020FCE700209E
:10246000FAE74FF0FF30F7E701466FF40040084409
:1024700020B1012804D0022806D103E000207047D3
:102480000020FCE70020FAE70020F8E701466FF49F
:102490000040084420B1012804D0022806D103E0FE
:1024A000012070470120FCE70120FAE70020F8E74F
:1024B00070B504460D4614B94FF0FF3070BD20785A
:1024C0003A281AD10EA12046FDF7D4FF10B948F2E0
:1024D0000100F3E70CA12046FDF7CCFF10B948F24C
:1024E0000200EBE70AA12046FDF7C4FF10B948F24D
:1024F0000300E3E74FF0FF30E0E74FF0FF30DDE7A8
:102500003A535444494E00003A5354444F555400F2
:102510003A5354444552520002466FF4004010446E
:1025200020B1012805D0022809D105E04FF0FF3085
:1025300070474FF0FF30FBE74FF0FF30F8E74FF008
:10254000FF30F5E72DE9F04107460C461546984661
:102550006FF40040384420B1012806D002281AD177
:102560000EE04FF0FF30BDE8F08105E014F8016B9C
:10257000304601F085FE6D1E002DF7D10020F2E7F8
:1025800005E014F8016B304601F074FE6D1E002D5D
:10259000F7D10020E7E74FF0FF30E4E700B5014650
:1025A00001F04EFE024600BF01F04AFE801A88424A
:1025B000FAD300BD70B5BD2000F01CFD044604F048
:1025C0000F0501210748FFF7DAFA40B100BF0121EA
:1025D0000448FFF7D4FA0028F9D1012070BD00208B
:1025E000FCE70000000C014010B540210348FFF754
:1025F000CFFA80210148FFF7CBFA10BD000C014053
:1026000010B540210348FFF7C3FA80210148FFF7C6
:10261000C1FA10BD000C014008B541F20100ADF84F
:10262000000004208DF8030069460648FFF71CFAF5
:1026300001210448FFF7AEFA4FF480510148FFF73B
:10264000A9FA08BD000C014010B5044600201B4942
:102650000870AA201A490870BB201A490870CC20BB
:1026600019490870DD2019490870EE2018490870D2
:10267000DD2018490870FF2017490870002017490D
:102680000870FFF7D1FAFFF79FFA00F0E5FBFFF7BC
:10269000C3FF10211248FFF77DFA20211048FFF7F1
:1026A00079FA80210E48FFF773FAFFF7A9FF00F0CF
:1026B00049FA204600F084F910BD00000400002013
:1026C0000E0000200F00002010000020110000204C
:1026D000120000201300002014000020150000202C
:1026E000000801402DE9F041662742F6727000F0C3
:1026F0003DFC064606F0010048B142F6717000F05C
:1027000035FC0446E01BC5B22846BDE8F081002038
:10271000FBE700002DE9F04F9FB0804670A0FDF769
:1027200063FD42F6D77000F021FC041E02D11FB0F9
:10273000BDE8F08FC3E0BF2000F018FC0446092C70
:1027400001DB322C0EDD67A0FDF74EFD214675A0A2
:10275000FDF74AFD6420FFF721FF3A2000F04AFC14
:102760000020E4E7E01C864207D070A0FDF73CFDA6
:102770003A2000F03FFC0020D9E722466946FF20BE
:1027800000F0A0FB02221EA9FF2000F09BFB9DF899
:10279000780001F05BFD694908709DF8790000F050
:1027A0007F099DF8790000F0800A0027002504E0E9
:1027B0001DF805004740681CC5B2601EA842F7DC42
:1027C0001DF80000B8420AD05D48FDF70DFD6420F9
:1027D000FFF7E4FE3A2000F00DFC0020A7E7FFF72A
:1027E00081FF40B255490870084690F9000010F189
:1027F000780F0ADA53A0FDF7F7FC6420FFF7CEFE4E
:102800003A2000F0F7FB002091E75DA0FDF7ECFC1B
:1028100001F016FD4FF47A71B0FBF1FB594641A06F
:10282000FDF7E2FC002509E01DF8051059A0FDF7B1
:10283000DBFC59A0FDF7D8FC681CC5B2A542F3DB50
:1028400027A0FDF7D1FC9DF80000544908709DF8C1
:102850000100534908709DF80200524908709DF824
:102860000300514908709DF80400504908709DF814
:1028700005004F4908709DF806004E4908709DF804
:1028800007004D4908709DF808004C490870A4F1F4
:102890000A020DF109014046FDF74EFD002504E056
:1028A00000200DF80500681CC5B2782DF8DB642007
:1028B000FFF774FE3A2000F09DFB204637E742F612
:1028C000D77000F053FB064609283FF734AF642069
:1028D000FFF764FE3A2000F08DFB002027E70000A0
:1028E0000D0A00002A2A2A2A2A2A2A2A2A2A2A2AD9
:1028F0002A2053697A65204552524F52203A20547B
:102900006F6F2073686F7274206F7220546F6F2026
:102910006C61726765202A2A2A2A2A2A2A2A2A20F2
:102920000000000025640D0A0000000073697A654C
:10293000206D69736D617463680D0A00AC0000203E
:10294000944D00082A2A2A2A2A2A2A2A2A2A2A2AA6
:102950002A207765616B207369676E616C287273DA
:1029600073692062656C6F77207468726573686F35
:102970006C64292A2A2A2A2A2A2A2A2A0D0A0000CD
:102980002D2D2D2D2D726563656976652D2D2D2DCF
:102990002D000000256400002020200005000020FC
:1029A0000600002007000020080000200900002089
:1029B0000A0000200B0000200C0000200D00002069
:1029C00010B504460621002000F054FB062101202A
:1029D00000F050FBB021022000F04CFB402103200E
:1029E00000F048FB0B21082000F044FB89210A205D
:1029F00000F040FB02210B2000F03CFB1C210C20CE
:102A000000F038FB18210D2000F034FBC621102007
:102A100000F030FB1821112000F02CFB05211320C1
:102A200000F028FB5321142000F024FB2021172064
:102A300000F020FB1921182000F01CFBA9211C200C
:102A400000F018FBCF211D2000F014FB00211E20F8
:102A500000F010FB1421212000F00CFB2021282085
:102A600000F008FB4F212B2000F004FBFF212E205B
:102A700000F000FB00214FF43C5000F0FBFA222153
:102A800042F6017000F0F6FA6A2142F60C7000F08E
:102A9000F1FA2D2142F60D7000F0ECFA992142F680
:102AA0000E7000F0E7FA002142F6127000F0E2FA30
:102AB0005F2142F6137000F0DDFA402142F61670F5
:102AC00000F0D8FA0E2142F6177000F0D3FA032175
:102AD00042F6197000F0CEFA332142F61B7000F076
:102AE000C9FA172142F61D7000F0C4FA502142F6CF
:102AF0001F7000F0BFFA6E2142F6207000F0BAFAA3
:102B0000142142F6217000F0B5FAAC2142F6227091
:102B100000F0B0FAB42142F6277000F0ABFA0E21B3
:102B200042F6327000F0A6FA032142F6367000F049
:102B3000A1FA1021262000F09DFA204600F002F9AB
:102B400010BD000010B502211648FFF721F86420DF
:102B5000FFF724FD02211348FFF71CF86420FFF75C
:102B60001DFD10211048FFF713F802E00FA0FDF73C
:102B70003BFB40210C48FFF702F80028F6D130203B
:102B8000FFF728FA02E00CA0FDF72EFB40210648D3
:102B9000FEF7F5FF0028F6D110210348FEF7FAFFF3
:102BA00010BD0000000C0140000801404D49534F8A
:102BB00020310D0A00000000320D0A0070B58AB005
:102BC00006460D464AA0FDF70FFB322D01DD0AB087
:102BD00070BD484800788DF80000474800788DF8AF
:102BE0000100464800788DF80200454800788DF8CD
:102BF0000300444800788DF80400434800788DF8BD
:102C00000500424800788DF80600414800788DF8AC
:102C100007003F480078401C3D4908703D48007857
:102C20008DF80800092406E0A4F10900305C0DF8D5
:102C30000400601CC4B205F109008442F4DB0021E9
:102C40000DF8001000240CE005F109001DF800004B
:102C50001DF80410484005F109010DF80100601C41
:102C6000C4B205F109008442EEDB2B48FDF7BCFA43
:102C70002AA0FDF7B9FAFFF7B7FC002409E01DF818
:102C8000041029A0FDF7B0FA28A0FDF7ADFA601CEA
:102C9000C4B205F10A00A042F1DC25A0FDF7A4FAB8
:102CA00005F10A00C1B23F2000F0E4F905F10A0085
:102CB000C2B269467F2000F0B7F9352000F09AF9DA
:102CC00000BF01211E48FEF75AFF0028F9D000BFBF
:102CD00001211B48FEF753FF0028F9D16420FFF7BC
:102CE0005DFC3B2000F086F9FFF78AFC00BF6EE731
:102CF0000D0A00000E0000200F0000201000002030
:102D000011000020120000201300002014000020F9
:102D100015000020160000204C4D00082020202027
:102D200020202020202000002564000020202000FA
:102D3000202020202020202020200D0A000000003C
:102D4000000C01402DE9F14F88B02F4804900898FD
:102D500001F082FB06462D4A2D4B01F0E3FB0446B1
:102D60000D46049801F0FCFD22462B46CDE90001FA
:102D700001F0BEFA804601F089FA03904FF08240DC
:102D8000039901F0F7FE02904FF08F41029801F095
:102D9000F1FE05464FF0844101F00EFE044601F0BD
:102DA000CDFE834658464FEAEB710BEB11410914F7
:102DB00007914FEAEB710BEB11410914ABEB014AA0
:102DC00050464FEAEA710AEB1161091206914FEA87
:102DD000EA710AEB11610912AAEB0121059107982A
:102DE000C1B242F60C7000F045F90698C1B242F645
:102DF0000D7000F03FF90598C1B242F60E7000F078
:102E000039F909B0BDE8F08F335BD4439A999999A9
:102E10009999893F70B5BD2000F0ECF8044604F0A4
:102E2000700514B9342000F0E5F804F00F0010B17B
:102E30003A2000F0DFF8202D02D1342000F0DAF83B
:102E4000602D02D13A2000F0D5F8702D02D13B2040
:102E500000F0D0F870BD000008B501210920FEF790
:102E600035FFFFF76DF8C220ADF8000010208DF897
:102E7000030003208DF8020069460A48FEF7F4FDBE
:102E80006420FFF78BFB08A0FDF7AEF9102108A026
:102E9000FDF7AAF907A0FDF7A7F9012107A0FDF7A3
:102EA000A3F908BD000C014053535F50494E200068
:102EB000256400000947444F3020000025640D0AB6
:102EC000000000002DE9F04705460E4617464FEA80
:102ED000252905F0FF0AB9F1000F1ED11021224863
:102EE000FEF756FE00BF40211F48FEF748FE0028AF
:102EF000F9D14AF0C0084046FFF76CF8002405E01D
:102F00000020FFF767F83055601CC4B2BC42F7DB05
:102F100010211548FEF73EFE23E0B9F12F0F20D116
:102F200010211148FEF734FE00BF40210E48FEF785
:102F300026FE0028F9D1D04649F0C000FFF74AF834
:102F40004046FFF747F8002405E00020FFF742F86D
:102F50003055601CC4B2BC42F7DB10210248FEF7BA
:102F600019FEBDE8F0870000000801402DE9F0419E
:102F700004462512E0B20746D5B910211C48FEF7D9
:102F800007FE00BF40211A48FEF7F9FD0028F9D1DD
:102F900047F080063046FFF71DF80120FFF71AF8CA
:102FA000804610211248FEF7F5FD4046BDE8F0814D
:102FB0002F2D1BD110210E48FEF7EAFD00BF402146
:102FC0000B48FEF7DCFD0028F9D145F08000FFF743
:102FD00001F83846FEF7FEFF0120FEF7FBFF8046B2
:102FE00010210348FEF7D6FD4046DFE700BFDDE7CE
:102FF0000008014070B5044610210A48FEF7C8FDDC
:1030000000BF40210748FEF7BAFD0028F9D120464D
:10301000FEF7E0FF054610210248FEF7BBFD2846FB
:1030200070BD0000000801402DE9F04105460E4644
:10303000174645F0400810210D48FEF7A9FD00BFD6
:1030400040210B48FEF79BFD0028F9D14046FEF7D2
:10305000C1FF002404E0305DFEF7BCFF601CC4B279
:10306000BC42F8DB10210248FEF794FDBDE8F08178
:10307000000801402DE9F04104460E462512E7B252
:10308000C5B910211948FEF783FD6420FFF786FAC1
:1030900000BF40211548FEF772FD0028F9D13846DF
:1030A000FEF798FF3046FEF795FF10210F48FEF718
:1030B00071FD19E02F2D17D110210C48FEF768FD86
:1030C00000BF40210948FEF75AFD0028F9D12846E3
:1030D000FEF780FF3846FEF77DFF3046FEF77AFFA9
:1030E00010210248FEF756FDBDE8F08100080140BE
:1030F00001480078704700000A000020014800786D
:103100007047000008000020014800787047000068
:103110000B000020014800787047000005000020E7
:1031200001480078704700000D0000200148007839
:10313000704700000C000020014800787047000034
:1031400007000020014800787047000006000020BA
:10315000014800787047000009000020014908700C
:1031600070470000130000200149087070470000FC
:103170001100002001490870704700001400002071
:1031800001490870704700000E00002001490870D6
:1031900070470000160000200149087070470000C9
:1031A0001500002001490870704700001000002041
:1031B00001490870704700000F00002001490870A5
:1031C000704700001200002001490870704700009D
:1031D0000400002070B504460D46E1B20548FFF733
:1031E0002CF900BF40210348FFF759F80028F9D017
:1031F000204670BD003801408EB00F220121002012
:10320000FDF7E8FDFEF7F4F8FB490870FEF76EFDE8
:10321000FEF7E6FBFEF7C8FFFEF7E8FFFDF7B2FF9B
:1032200000F0D3BFF548007868B101F009F8F4491F
:103230000968F44A1144884205D9FEF72DF800F0D8
:10324000FFFFEF49086000F0FBFFEF490968ED4A16
:103250001144884230D9EDA0FCF7C6FF00F0F0FF22
:10326000E949086000200D900C9021E0ED490C9890
:10327000085C02460B90ECA00C99FCF7B5FFE949FD
:103280000C98095C0D9881420EDD0C9841B2E9481A
:103290000170E4490C98085C40B20D9000220C9833
:1032A0000A540120E44908700C98401CC0B20C90EC
:1032B0000C982128DADD00BFFDF764FFFDF7E4FF7D
:1032C0000028ADD0DD48FEF7BFF90028A8D0FEF7F2
:1032D000B1F8DB490870FEF79DF8DA490870FEF78F
:1032E000A5F8D9490870FEF78DF8D8490870FEF79F
:1032F000A5F8D7490870FEF781F8D6490870FEF79F
:1033000085F8D5490870FEF78DF8D4490870FEF7A6
:1033100085F8D3490870CA480078B74909788842C7
:1033200005D0C7480078CF49097888427ED1FEF79A
:1033300089F8C6480078B0490978884277D0C048F3
:103340000078C84909788842F8D0BF4800780D90C5
:10335000C5A0FCF749FF00200C90FEF727F810B934
:10336000FEF72AF90EE11420B44900220392CDE9B8
:10337000042106900E20CDE90002B24802920378A3
:103380009D480278AF4801789B480078FEF7A0F985
:10339000AF480078072803D0AD48007809282FD11E
:1033A00000F04EFF0C900090AD480078401CC0B279
:1033B000034602220B90A3480178A3480078FDF74A
:1033C000E5FE00200C9013E000F03AFF0B909B49C3
:1033D00000900C98401C085C002302220A90994837
:1033E00001780A98FDF7D2FE0C98401CC0B20C90F0
:1033F000984909780C988842E6DBFEF7DDF86EE024
:10340000934800780C2839D192480078002835DD9F
:1034100000F016FF0C90009091480078401CC0B25C
:10342000034602220B908748017801E0FEE3AAE000
:1034300085480078FDF7AAFE00200C9018E000F007
:10344000FFFE0B90009086480078801CC0B20A9066
:103450000C980A307949085C099002227948017871
:10346000DDE90903FDF792FE0C98401CC0B20C90F8
:10347000784909780C988842E1DB30E0744800789C
:103480000D282CD100F0DCFE0C90009074480078E0
:10349000401CC0B2034602220B906A4801786A4879
:1034A0000078FDF773FE00200C9013E000F0C8FEDA
:1034B0000B9000900C980B306049085C00230222AE
:1034C0000A90604801780A98FDF760FE0C98401C4D
:1034D000C0B20C905F4909780C988842E6DB5B48E3
:1034E0000078FDF763FF10B358480078FDF75EFFE2
:1034F00040784FF4FA611422504B0C9058480078F1
:10350000401CC0B2CDE90532079104900020504B19
:103510001B78CDE90030029003904C4803784A486C
:103520000278354800780C99FEF714F950BB0D98D5
:1035300040BB51A0FCF758FE44480078FDF736FF29
:1035400040783E4908700D98FDF730FF40780C90A8
:103550004FF4FA601421394A0023CDE90432CDE951
:103560000610184619461A460F23CDE90032CDE958
:103570000210002003460B901F48027800780C9937
:10358000FEF7E8F84CE63248007860B9FDF7BEFE79
:103590003C4801783CA0FCF727FE3A480078401CE4
:1035A000384908703CE62A480078012822D135487D
:1035B000007800F068FF00223B4BCDE90C0101F0E0
:1035C000AFF817D800202F49087038A0FCF70CFE80
:1035D000FDF7F2FF00F034FE0D900123022200906F
:1035E000184801780078FDF7D1FDFDF7E5FF0020D0
:1035F0000D9082E085E0000098000020A6000020E9
:103600008C000020C02709009000002063686563DB
:103610006B5F7265726F7574696E675F74696D65F3
:1036200000000000E80000202564203A2025640DF9
:103630000A3A200087000020850000207C0200203C
:10364000990000209A0000209B0000209C00002090
:103650009D0000209E0000209F000020A000002070
:10366000A1000020A20000207265636569766520D4
:1036700072656C617900000073656E64204E414391
:103680004B00000080000020726563656976656408
:1036900042726F61646361737441646472657373D1
:1036A000203A202564000000000020407265636518
:1036B00069766520726F77312072657175657374F4
:1036C000000000001420FB4900220392CDE90421F0
:1036D0000690104611460222CDE900210290F648DC
:1036E0000378F6480278F4480178F4480078FDF74A
:1036F000EFFF0D98401CC0B20D900D9805287DDAA3
:10370000E0E7EF48007803281CD10020ED4908705D
:103710001420E84900220392CDE9042106901046C6
:1037200011460E22CDE900210290E3480378E348D8
:103730000278E1480178E1480078FDF7C9FFFDF71C
:1037400093FB6DE5DE480078042808D10020DD49B0
:103750000870DDA0FCF748FDFDF7BCFC60E5D8482B
:103760000078062803D0D648007808287ED10020AB
:10377000D4490870CF480078D0490978884276D07B
:10378000E1A0FCF731FDCB4800780D901420C94929
:1037900000220392CDE904210690104611460E2224
:1037A000CDE900210290C4480378C4480278C24899
:1037B0000178C2480078FDF78BFF00200C90C048CC
:1037C00000780B901421BB4ADD480078401CC0B241
:1037D0000023CDE90330CDE90521B94A1278CDE9BE
:1037E0000023029309930D9B1946B4480078099A67
:1037F000FDF76EFF00F024FD0A90A4E030E2FDF733
:10380000C1FCFDF741FD0028F7D0AA48FDF71CFFD9
:1038100000287DD0FDF7FEFD0D99884278D1FDF797
:1038200009FEA6490978884272D1FDF707FE0728EC
:1038300003D0FDF703FE09286AD1FDF7FBFDC1495E
:103840000870FDF7E7FD9C490870FDF7EFFDBE49E4
:103850000870FDF7D7FDBD490870FDF7EFFD9849E9
:103860000870FDF7CBFDBA49087001E086E1C3E0BE
:10387000FDF7CCFDB7490870FDF7D4FDB6490870D7
:10388000FDF7CCFDAE4908700C98401CC0B20C90FE
:103890000C9800F0F8FD0022B04BCDE9080100F0D3
:1038A0003FFF50D800F0CCFC099001230222009089
:1038B000814801780078FDF769FC0020099013E049
:1038C00000F0BEFC08907B4900900998401C085C01
:1038D000002302220790784801780798FDF756FCEC
:1038E0000998401CC0B20990994909780998884202
:1038F000E6DBFDF7A7FDFDF75FFE00200890FDF772
:1039000055FD40784FF4FA6114226A4B099000E0AB
:1039100019E08B480078401CC0B2CDE90532079110
:10392000049000210122664B1B78CDE9012103910F
:10393000009308910B468448027860480078099902
:10394000FDF708FF08E000F07BFC0A99401A42F2FC
:1039500034118842FFF453AF00BF0C9800F093FD80
:1039600000227E4BCDE9080100F0A0FD43D20B9868
:10397000062820D100200890FDF718FD4078099016
:103980004FF4FA6014214B4A0023CDE90432CDE90B
:103990000610184619461A460723CDE90032CDE92C
:1039A00002100020034608904448027800780999E4
:1039B000FDF7D0FE1FE000200890FDF7F7FC4078EF
:1039C00009904FF4FA6014213A4A0023CDE90432F9
:1039D000CDE90610184619461A460923CDE90032EA
:1039E000CDE90210002003460890344802780078A0
:1039F0000999FDF7AFFEE8E359A0FCF7F5FB304865
:103A00000078062802D1FDF765FBDEE32C4800783C
:103A10000828F0D100F014FC099000904848007884
:103A2000401CC0B203460222089023480178464851
:103A30000078FDF7ABFBFDF7BFFD1F4800781D497F
:103A400008700BA8FDF792FCC0B20A900020099004
:103A500009E00BA90998095C164A401C1154099801
:103A6000401CC0B20990DDE909018842F1DB002069
:103A700009901BE014200F4900220392CDE9042194
:103A80000690114609220A98CDE9002002910020F3
:103A900003460890094802780748017807480078EB
:103AA000FDF716FE0998401CC0B209900998052838
:103AB000E0DB8AE37C0200209A00002098000020CE
:103AC0009D00002080000020726563656976652096
:103AD000523220726F7574696E67207265717565F8
:103AE000737420616E642049206469646E277420B9
:103AF0007375636365737320696E2052312072653C
:103B0000717565737400000072656365697665643C
:103B1000206D756C7469686F70207265717565735E
:103B20007420616E642073656E6420746F20756EFE
:103B3000726F7574696E67204D61737465720000F1
:103B4000A1000020990000209B0000209C00002084
:103B50009E0000209F000020A000002000001040D8
:103B60007265636569766564206D756C746920683B
:103B70006F7020726571756573740000FE4800787F
:103B80000B286ED10020FD4908700D90FDF70EFC4A
:103B9000002868D00120FA4908701420F949002251
:103BA0000392CDE904210690104611460E22CDE97C
:103BB00000210290F4480378F4480278F248017832
:103BC000F2480078FDF784FD00200D9007E0ED49F4
:103BD0000D98095CEE4A11540D98401C0D900D98FB
:103BE0000A28F4DBFEF7F4F800200D9007E0E9491D
:103BF0000D98095CE34A11540D98401C0D900D98E6
:103C00000A28F4DBE448007860B300200D90FDF74B
:103C1000CDFBE2490978491C49B2C17000200C90E3
:103C2000FDF7C4FB40784FF4FA6100E077E214221C
:103C30000D90D4480023CDE90430CDE90621184683
:103C400019461A461323CDE90032CDE902100020AF
:103C500003460C90CD48027800780D99FDF77AFD67
:103C6000B3E2DCE000E0D7E0CD480078F0B300201C
:103C70000D900C9019E0CB490C9801EBC0008078B6
:103C800001280ED10C9811F830200D98411C0A30F3
:103C90000D91BC490A540221C24A0C9802EBC000A3
:103CA00081700C98401CC0B20C900C981F28E2DB6D
:103CB0000020BB4908700B90FDF778FB40780C9012
:103CC0004FF4FA601421AF4A0023CDE90432CDE964
:103CD000061019461A460D98C0B20C23CDE90030E3
:103CE000CDE90221002003460B9000E00AE0A7483E
:103CF000027800780C99FDF72DFD10B90120A84934
:103D0000087062E2A848007848B900200D90FDF7DD
:103D10004DFB90F901009C490978884252D0A34894
:103D20000078984988720BA8FDF720FBC0B20A9072
:103D30000020099009E00BA90998095C0B30914A11
:103D400011540998401CC0B20990DDE9090188426C
:103D5000F1DB4FF4FA6014218A4A0023CDE90432E2
:103D6000CDE9061019461A460D230A98CDE9003010
:103D7000CDE90221002009908C4800780890834802
:103D800002780078DDE90813FDF7E4FC98B100F053
:103D900057FA0990009081480078401CC0B2089002
:103DA000824800780790002006900222DDE9071380
:103DB000FDF7ECF902E000207C49087000217A4808
:103DC000017002E200200D90FDF7F0FA73490978C6
:103DD000491C49B2C17000200C90FDF7E7FA407809
:103DE0000D904FF4FA601421664A0023CDE90432A5
:103DF000CDE90610184619461A460C23CDE90032C3
:103E0000CDE90210002003460C906048027800784B
:103E10000D99FDF79FFCD8E1FDF7CEFBD5E15648A3
:103E200000780A282ED100200D90FDF7BFFA48B384
:103E300000F006FA0D9001231A46009052480178CE
:103E40000078FDF7A3F900200C90FDF7AFFAC078D9
:103E500014214C4A00230D90CDE90330CDE9052112
:103E60000E22CDE9002348480293037847480278A0
:103E70004548017845480078FDF72AFC012048496B
:103E80000870A2E13C48007811285ED100200D9016
:103E9000FDF78CFAF0B314203A4900220392CDE9E1
:103EA00004210690104611460E22CDE90021029011
:103EB000354803783548027833480178334800782C
:103EC000FDF706FC00200D90FDF770FA33490978E4
:103ED000491C49B2C17000200C90FDF767FA407888
:103EE0000D904FF4FA601421264A0023CDE90432E4
:103EF000CDE90610184619461A461223CDE90032BC
:103F0000CDE90210002003460C902048027800788A
:103F10000D9900E019E0FDF71DFC002240F225514B
:103F20002348FEF7F3F921212148FEF786FA00BF66
:103F300040211F48FEF7B3F90028F9D0012240F2D2
:103F400025511B48FEF7E2F93FE10B4800781428A1
:103F500097D100200D90FDF729FA002891D002207A
:103F60000DA900220392CDE90421069010461146C6
:103F70000E22CDE900211DE09D00002080000020E0
:103F8000A60000207C0200209A000020980000205B
:103F90000A0100201401002086000020A10000205A
:103FA00084000020400100208500002087000020C0
:103FB000004800400290864803788648027884488A
:103FC000017884480078FDF783FB00200B90FDF713
:103FD000EDF981490978491C49B2C17000200B9064
:103FE00007E07E490B98095C7D4A11540B98401CF0
:103FF0000B900B980A28F4DBFDF7EAFE00200B90EB
:1040000007E078490B98095C744A11540B98401CDE
:104010000B900B980A28F4DB002240F225517248DD
:10402000FEF774F91F217048FEF707FA00BF402120
:104030006D48FEF734F90028F9D001206B4908706B
:1040400000F0FEF80C9038E020216748FEF727F9D1
:1040500098B300BF20216448FEF721F90028F9D069
:104060006148FEF7E5F9C1B2614801706148007826
:10407000202822D100200A90FDF798F940780B9073
:104080004FF4FA601421554A0023CDE90432CDE9FA
:104090000610184619461A461523CDE90032CDE917
:1040A0000210002003460A904A48027800780B99D3
:1040B000FDF750FB00204D49087000F0C1F80C9945
:1040C000081A41F288318842BED3012240F22551BC
:1040D0004548FEF71BF945480078F8B100200A90E2
:1040E000FDF764F940780B904FF4FA6014213B4AD5
:1040F0000023CDE90432CDE90610184619461A46C8
:104100001523CDE90032CDE90210002003460A90C4
:104110003048027800780B99FDF71CFB55E03648D3
:1041200000782B49097888421BD1344800783449FB
:104130000978884215D12649097891B1314800782B
:10414000401CC0B22F4908700B9000F09CF900226F
:104150002D4BCDE90C0100F0E3FA05D8FCF778FF10
:1041600002E00120274908701948007822490870A8
:104170002348007821490870214800780B2824D171
:104180002249097809BB00200D90FDF70FF990F93D
:10419000031011480078401C814216DD1CA0FCF77A
:1041A00023F81C480A490978405C401C1949084A10
:1041B00012788854084606490978405C02460D90FA
:1041C0000348017814A0FCF70FF8FFF72BB80000A4
:1041D0009A00002098000020A10000207C0200200E
:1041E0000A0100201401002000480040A400002023
:1041F000A5000020A30000208200002083000020F2
:104200009D00002081000020000010409B00002045
:1042100068690000E80000205F72784865616465A5
:104220007246726F6D203A2025640D0A72656365CF
:10423000697665644E756D203A20256400000000A3
:104240000148006870470000B000002001460022CD
:10425000802907DBA1F5807000EBD0735B10663B13
:104260001AB205E0084601EBD0735B10663B1AB248
:1042700050B2704700B503461846FDF78DFC00BDEF
:1042800000B503461846FDF787FC00BD21F000424B
:10429000A2F16052B2F5801F01F0004328BFD2F1B5
:1042A0007F6C0BD95FEA001C43EAC20242EB5070FC
:1042B00018BF704728BF20F001007047B2F5801F7B
:1042C000BCBF184670474FEA410C1CF5001F02D2D4
:1042D000084600F016BD70B500F0CEF90000008968
:1042E000FFF7F6BF4FF00040A0F5800070470000D8
:1042F00010B591EA030F48BF83F0004300F14E82EE
:10430000841A71EB030C05D2121943EB0C03001B4A
:1043100061EB0C01DFF824E14FEA1154A4EB135CCC
:104320001EEA430F18BF9EEA445F73D023EA0E03D0
:10433000DCF1200E21EA045143F4801332D322FA37
:104340000CFE10EB0E0023FA0CFE41EB0E01CCF13B
:10435000200E03FA0EFE10EB0E0051F10001B1F534
:10436000801FCCF1200E32D201EB045112FA0EF272
:10437000BDE8104058BF7047401C38BF5FEA42029A
:1043800018BF7047002814BF20F0010041F1000160
:104390004FEA410313F5001F38BF7047A1F1C04138
:1043A00000F0B8B9012A43EB0302ACF1200CDCF1B8
:1043B0001F0E32BF4FF0000E23FA0CF310EB030078
:1043C00041EB0451B4EB115FD0D0A1EB045101F5E6
:1043D000801149085FEA300001EB04510ED350F11F
:1043E000000038BF12FA0EFE08D1BDE81040C9E740
:1043F000401C38BF5FEA4202CAD1C3E7BDE81040A3
:104400004FEA410313F5001F38BF7047A1F1C041C7
:1044100000F080B99EEA445F08D011EA5E0FBDE863
:10442000104004BF01F0004100207047BDE810407B
:1044300070B500F021F900BF64FBBE3E0000E0FF54
:10444000491058BFC1F140415B1058BFC3F1404310
:104450008B42EFF30080704710F0004248BF4042AB
:10446000B0FA80F310FA03F10AD0C3F11D0303F58B
:1044700080634FEA415002EB035202EBD1217047B7
:104480004FF000007047B0FA80F310FA03F10AD041
:10449000C3F11D0303F580634FEA41504FEA035215
:1044A00002EBD12170474FF00000704751EA030C36
:1044B00017D41CF5801F58BFBCF5801F00F1068083
:1044C000994218BF704708BF9042704707D711F54F
:1044D000801F58BF13F5801F19D499427047894235
:1044E00070471CF5801F08D5BCF5801FF7D58B429F
:1044F00018BF704708BF824270474FF4001C1CEB86
:10450000410F38BF1CEB430F01D28B42704770B58F
:1045100000F0B2F8922449004FF000514FF0805360
:10452000FFF78EBFDFF848C170B51CEA111E1EBF31
:104530001CEA13159EEA0C0F95EA0C0F00F06F8031
:1045400081EA030423EA4C134EEAD47E21EA4C119B
:1045500041F4801143F48013AE44A1FB024CA0FB54
:104560000365AEF17F7E361955EB0C05A1FB034CBC
:104570004CF10003A0FB021C16EB0C06654153F145
:104580000003094218BF46F0010613F4007F0BD167
:104590004FEA03314FEA0530340341EA155140EA4E
:1045A00016506FF003020AE04FEAC3214FEAC5201C
:1045B000F40241EA555140EA56506FF0020202EB14
:1045C0002E4201EB025585EACE710AD05FEA440C17
:1045D00018BF24F0004450F1000041F1000120EA2E
:1045E000D47040F2FE7C624500D270BDA84214BF78
:1045F0004FF080444FF04044002E08BF0024BEF12D
:10460000806FA8BFA1F1C041BDE8704080F28280F8
:104610004FF0000001F1C04101F0004170479EEAF7
:104620000C0F0CEA131518BF95EA0C0F06D04FF0CB
:10463000000081EA030E0EF0004170BD00F01CF88E
:104640008900013E00F007B800F009B84FEA430CBA
:104650005FEA5C5C08D081EA030100F05BB84FEAD6
:10466000410C5FEA5C5CF6D14FF0000001497047F5
:104670000000FF070000F87F0EF1020E2EF0030E7F
:104680005EF8046B364205D4012A43EB030515F5A9
:10469000001F12D8012841EB010C1CF5001F0CD89B
:1046A0000ED14FEAD17C15F5001F0CEB4C0C0CF130
:1046B000020C08BF4CEBD37C04E04FF0080C01E087
:1046C0004FEAD37C0CEB4C0526FA05F606F00706FC
:1046D000B6F1040C06D20EEB860CBDE870404CF02F
:1046E000010C6047DFE80CF0090B02024FF00041BB
:1046F0004FF00000A1F5002170BD194610460128B9
:1047000051EB010418BFD4F5001484BF002001F060
:10471000004170BD0808A0F500114FEA3101704753
:1047200053EA010C17D41CF5801F58BFBCF5801F3D
:1047300000F106808B4218BF704708BF8242704765
:1047400007D713F5801F58BF11F5801F19D48B426E
:1047500070479B4270471CF5801F08D5BCF5801F31
:10476000F7D5994218BF704708BF904270474FF481
:10477000001C1CEB430F38BF1CEB410F01D29942C8
:1047800070470FB40CBC03BCFFF7C1BE10B591EA73
:10479000030F48BF83F000433FF5B2AD841A71EBBD
:1047A000030C07D212198CF0004C43EB0C03001BD6
:1047B00061EB0C01DFF8A4E14FEA1154A4EB135CA8
:1047C0001EEA430F18BF9EEA445F00F0B08023EA60
:1047D0006E03524221EA0451C3EB6E0338BF5B1EE5
:1047E000DCF1200E25D322FA0CFE10EB0E0043FA6A
:1047F0000CFE41EB0E01CCF1200E03FA0EFE10EB85
:104800000E0051F10001CCF1200E29D412FA0EF263
:1048100001EB0451BDE8104058BF7047401C1CBF5D
:10482000B2F1004F704700280CBF491C20F0010076
:10483000704712EB020E43EB030218BF4FF0010E5C
:104840004EEA4202ACF1200CDCF11E0E54D943FAC0
:104850000CFE10EB0E0051F1FF31CCF11E0ED5D540
:104860000EF1010E12FA0EFE404141EB010101EB87
:10487000445C5FEA5C5C10D910EBDE7001EB045124
:1048800038BFBEF1004FBDE8104018BF7047002888
:104890000CBF491C20F00100704730D24FEAD42CE5
:1048A00011F5001124F400641BD0B1FA81F20B3A27
:1048B000A41AA41ED2F12003914030FA03F3194345
:1048C000904001EBCC71002C01EB0451BDE810408D
:1048D000A8BF704701F1C0414FF0000001F0004156
:1048E0007047B0FA80F310FA03F100D110BDE41A5A
:1048F000173C4805C90AE4E701EB045110BD491013
:1049000001EB0451BDE810404FEA300002E04FF0E7
:10491000000170474A0008BF0042F8D0B2F5001FFE
:1049200028BF704701F000414FF0000070479EEA39
:10493000445F07D011EA5E0FBDE8104004BF0021BC
:1049400000207047BDE8104070B5FFF795FE00BF2E
:1049500040DFF63E83F00041104670470000E0FF64
:1049600043004FEAD30C4FEA3C0C43401FBF4007C3
:104970000CF1605113F0FE4F70471CF0006F03D133
:1049800000200CF0004170470CF0004343EA5070E7
:1049900010B540EACC0000F06EF900BF00000092B4
:1049A0004FEA0001FFF7B6BE4FF000414FF00000A4
:1049B000A1F50021704700004FF47F0C1CEAD012D3
:1049C0001EBF1CEAD11392EA0C0F93EA0C0F00F001
:1049D000858090EA010F48BF42F4807240F4000CD9
:1049E00041F400002CF07F4120F07F4000B581426F
:1049F000A2EB03020FF2081CACEB504EC0F100001A
:104A00009EF800E04FEA4E0E00FB0EFC38BF490056
:104A10004FEA2C1C02F5FA020CFB0EF34FEACE1EF5
:104A20004FEA112C4FEAC1210EEB635E42EB2242AA
:104A30000EFB0CFC4FEA1C5300FB03114FEA112C38
:104A40004FEA01310EFB0CFC4FEADC4C00FB0C1171
:104A5000C14228BF09184CEB03335DF804EB10EB9F
:104A6000410143EBC250B2F57C0F38BF704729D5E6
:104A700012F0F00F1CBF00F1C04000F00040704782
:104A8000008182838485868788898B8C8D8E8F9127
:104A90009293959697999A9C9D9FA0A2A3A5A7A84B
:104AA000AAACAEB0B2B3B5B7B9BCBEC0C2C5C7C977
:104AB000CCCED1D4D7D9DCDFE2E6E9ECF0F3F7FADB
:104AC000FE0000004FEA400C0CF1807CBCF17E4FF0
:104AD00028BF7047B0F1C04000F013B990EA010F51
:104AE0000CEAD11348BF42F48072624538BF634577
:104AF00007D213F47F0F16D080EA010000F00040C7
:104B0000704710B500F0B7F8097EFC3E00F005B81C
:104B100080EA010000F00040704780EA010000F0E8
:104B2000004000F0EEB812F47F0F04BF0248704757
:104B300080EA010000F0E5B80000C07F41000B0EE4
:104B4000D3F19E0208D950F400034FEA032323FA5D
:104B500002F048BF4042704710B500F08CF800BF2B
:104B600049922480002070476FF0004282EA2000C2
:104B7000704700004FF47F0C1CEAD0121EBF1CEAE5
:104B8000D11392EA0C0F93EA0C0F00F0478090EAE1
:104B9000010F48BF42F480724FF0004C4CEA0020F5
:104BA0004CEA012102EB0302A0FB0113A2F5000273
:104BB000002918BF43F001035B0028BF4FEA33030D
:104BC00042EB22425FEA132C4CEBC2502EBFBCEBEF
:104BD000436FB2F57C0F70474FEA036CBCF1004F96
:104BE00008BF20F00100B2F57C0F38BF70470BD52D
:104BF00082F0FF0212F5803FC8BF704700F1C0404D
:104C0000D8BF00F00040704700F5000C5FEA4C0C84
:104C100048BF7047B0F1C04000F073B890EA010F90
:104C20000CEAD11348BF42F48072624538BF634535
:104C300004D280EA010000F00040704710B500F097
:104C40001AF800BF8900013E00F007B800F009B86B
:104C50005FEA410C5FEA1C6C08D080EA010000F0BA
:104C600050B85FEA400C5FEA1C6CF6D14FF0004090
:104C7000A0F5800070470EF1020E2EF0030E5EF8D4
:104C8000044B244204D44FEA4102B2F17F4F11D8C1
:104C90004FEA4003B3F17F4F0CD80ED14FEAD07CDE
:104CA000B2F17F4F0CEB4C0C0CF1020C08BF4CEB3B
:104CB000D17C04E04FF0080C01E04FEAD17C0CEB12
:104CC0004C0324FA03F404F00704B4F1040C06D2F4
:104CD0000EEB840CBDE810404CF0010C6047DFE89F
:104CE0000CF0070802024FF00040A0F5800010BD54
:104CF0000846420018BFD2F1807288BF00F0004021
:104D000010BDFF2141EAD050C00570473A535444CA
:104D1000494E003A5354444F5554003A5354444575
:104D2000525200303132333435363738394142430C
:104D30004445464030580030313233343536373808
:104D400039616263646566403078000053656E6463
:104D5000696E67203A2046726F6D202020546F20C4
:104D6000202020536F757263652020446573742082
:104D700054797065204461746120466C61672053EA
:104D800065712320205061796C6F61642E2E2E2E68
:104D9000200D0A002A2A2A2A2A2A2A2A2A2A2A2AE4
:104DA0002A2A2A2A2A2A2A2A2A636865636B7375A3
:104DB0006D204552524F522A2A2A2A2A2A2A2A2A62
:104DC0002A2A2A2A2A2A2A2A2A2A2A2A2A2A2A2A43
:104DD0002A2A2A0D0A0000002D2D2D2D2D2D2D2DD6
:104DE0002D2D2D2D2D2D2D2D2D2D2D2D2D2D2D2DF3
:104DF0002D2D2D2D2D2D2D2D2D2D2D2D2D2D2D2DE3
:104E00002D2D2D2D2D2D2D2D2D2D2D2D2D2D2D2DD2
:104E10002D2D2D2D2D2D2D2D2D2D2D2D2D2D2D2DC2
:104E20002D2D2D2D2D0D0A00484E000800000020CC
:104E3000E800000028010008304F0008E8000020CA
:104E400018090000440100080000000000000000F4
:104E50000000000000000000000000000000000052
:104E60000000000000000000000000000000000042
:104E70000000000000000000000000000000000032
:104E80000000000000000000000000000000000022
:104E90000000000000000000000000000000000012
:104EA0000000000000000000000000000000000002
:104EB00000000000000000000000000000000000F2
:104EC00000000000000000000001FFFF000000FFE4
:104ED00000000000000000000000000000000000D2
:104EE00000000000000000000000FF0001000000C2
:104EF00000000000000000000000000000000000B2
:104F0000010203040102030406070809020406085B
:104F100000A24A0400000000000000000102030497
:104F20000607080900000000000000000000000063
:04000005080001A945
:00000001FF
