:020000040800F2
:10000000F8090020A9010008B1010008B3010008A7
:10001000B5010008B7010008B901000800000000A0
:10002000000000000000000000000000BB0100080C
:10003000BD01000800000000BF0100087D2200088B
:10004000C3010008C3010008C3010008C301000880
:10005000C3010008C3010008C3010008C301000870
:10006000C3010008C3010008C3010008891A000881
:10007000A91A0008C91A0008E91A0008091B000893
:10008000291B0008491B0008C3010008C301000820
:10009000C3010008C3010008C3010008C301000830
:1000A000C3010008C3010008C3010008C301000820
:1000B000ED220008C3010008C3010008C3010008C5
:1000C000C3010008C3010008C3010008C301000800
:1000D000C3010008C3010008C3010008C3010008F0
:1000E000C3010008C3010008C301000800F002F8C2
:1000F00000F04AF80AA090E8000C82448344AAF178
:100100000107DA4501D100F03FF8AFF2090EBAE875
:100110000F0013F0010F18BFFB1A43F0010318473B
:10012000544C0000744C0000103A24BF78C878C1C9
:10013000FAD8520724BF30C830C144BF04680C60ED
:10014000704700000023002400250026103A28BF35
:1001500078C1FBD8520728BF30C148BF0B60704739
:10016000642900F08180782900F0BA80002070476F
:100170001FB59DE8030000F01FFC00F045FA1FBD0D
:1001800010B500F0AAFA10BD00F0DAFA1146FFF738
:10019000EFFF03F071F800F0DFFB03B4FFF7F0FFAF
:1001A00003BC00F07BFD0000094880470948004778
:1001B000FEE7FEE7FEE7FEE7FEE7FEE7FEE7FEE717
:1001C000FEE7FEE704480549054A064B7047000074
:1001D0008D220008ED000008F8030020F809002037
:1001E000F8050020F80500200FB4044910B503AA53
:1001F000029800F0A9F910BC5DF814FBF002002091
:100200002DE9F0410E460446002020622046E168B8
:10021000884730B3252805D0D4E901219047206ACA
:10022000401CF2E7E168204600278847050018D007
:10023000A5F14100192802D820354FF40067324655
:10024000294620462760FFF78BFF40B1012804D0E4
:10025000F61D26F007060836D8E7361DD6E72846ED
:10026000DAE7206ABDE8F0812DE9F0410646002476
:1002700010687529314616A510D0AFF3008000280C
:1002800002DA404213A507E031688A0701D512A5BA
:1002900002E0490704D511A5012401E0AFF3008075
:1002A00000210A2206F1240709E0B0FBF2FCB0FBB2
:1002B000F2F302FB1C00303078541846491C002829
:1002C000F3D123462A463046BDE8F04100F0E3B8BA
:1002D000000000002D0000002B00000020000000A6
:1002E00070B504460D4621461068AFF300802188A2
:1002F000090502D50F4A7A4402E00E4A7A440E32CA
:10030000002104F1240305E000F00F060009965DCA
:100310005E54491C0028F7D120780023000704D53B
:10032000702D02D009B1022311322046BDE8704081
:1003300000F0B1B875490000032A40F2308010F097
:10034000030C00F0158011F8013BBCF1020F624470
:1003500098BF11F801CB00F8013B38BF11F8013B01
:10036000A2F1040298BF00F801CB38BF00F8013BAE
:1003700011F0030300F0FA80083AC0F0088051F849
:10038000043B083A51F804CBA0E80810F5E7121D29
:100390005CBF51F8043B40F8043BAFF30080D20748
:1003A00024BF11F8013B11F801CB48BF11F8012B14
:1003B00024BF00F8013B00F801CB48BF00F8012B37
:1003C00070474FF0000200B5134694469646203918
:1003D00022BFA0E80C50A0E80C50B1F12001BFF4FE
:1003E000F7AF090728BFA0E80C5048BF0CC05DF864
:1003F00004EB890028BF40F8042B08BF704748BFB2
:1004000020F8022B11F0804F18BF00F8012B704725
:100410004FF0013C50F8042B51F8043B9A4221D193
:10042000A2EB0C03934313EACC1317D150F8042B1F
:1004300051F8043B9A4215D1A2EB0C03934313EA03
:10044000CC130BD150F8042B51F8043B9A4209D13C
:10045000A2EB0C03934313EACC13DBD04FF0000064
:10046000704700BFD01A01BAB1FA81F101F018014A
:1004700022FA01F0CB40C1F12001DBB2C0B2C01AB8
:100480002CFA01F3D11A914311EAC311E6D1704756
:100490007047704770472DE9F0470D4699469246E0
:1004A000044600F124080168880604D5E06921F0BB
:1004B0001001216000E00120A84201DD471B00E09F
:1004C0000027A1697A1902EB0900081AA0612078B7
:1004D000C00602D42046AFF30080002608E0D4E92D
:1004E00001211AF806009047206A401C761C206201
:1004F0004E45F4DB2078C0060AD52046AFF30080D5
:1005000006E0D4E9012130209047206A401C206297
:10051000381EA7F10107F4DC07E0D4E9012118F83F
:1005200005009047206A401C2062281EA5F10105A5
:10053000F3DC2046AFF300802078000602D50220CD
:10054000BDE8F0870120FBE7074B70B50D467B4403
:1005500000F043F80446284600F052F810B14FF07E
:10056000FF3070BD204670BD032D000010B5203A4D
:10057000C0F00B80B1E81850203AA0E81850B1E85C
:100580001850A0E81850BFF4F5AF5FEA027C24BF12
:10059000B1E81850A0E8185044BF18C918C0BDE809
:1005A00010405FEA827C24BF51F8043B40F8043BD2
:1005B00008BF7047D20728BF31F8023B48BF11F887
:1005C000012B28BF20F8023B48BF00F8012B7047E1
:1005D00001694A1C02610878704700B58FB0CDE907
:1005E00001310021059105497944CDE903101146F7
:1005F0006846FFF705FE0FB000BD0000E5FFFFFFF6
:10060000007B00F08000704710B542485421FFF78E
:10061000D8FE41485421FFF7D4FE40485421FFF74B
:10062000D0FE3F493B483C4A3F4B08603D490A6089
:100630003A491960531C0365481C10650120086580
:100640003B48344A39A1784400F0EAF820B93848E8
:1006500078440A3800F089F937482F4A35A17844A0
:1006600000F0DEF820B9344878440A3800F07DF90B
:1006700032482A4A2FA1784400F0D2F820B92F48F6
:1006800078440A3800F071F940232248DC00002148
:10069000224600F0A1F820B125487844543800F0F3
:1006A00064F91D4822464023002100F095F820B14E
:1006B00021487844543800F058F91848224610234D
:1006C000002100F089F8002806D01C487844BDE8D5
:1006D0001040563800F049B910BD104870B5006D93
:1006E00020F001040B4800F011F90B4800F00EF95E
:1006F0000A4800F00BF909E0206D20F001052046C2
:1007000000F004F9204600F040F82C46002CF3D10C
:1007100070BD00009C020020F00200204403002075
:10072000EC000020F0000020F40000207200000027
:100730000E46000077000000FD450000ED4500007A
:10074000754600F019F9AE4605006946534620F09B
:100750000700854618B020B5FFF734FDBDE82040FE
:100760004FF000064FF000074FF000084FF0000B6D
:1007700021F00701AC46ACE8C009ACE8C009ACE820
:10078000C009ACE8C0098D46704770B50446051F26
:1007900000F0F6F80068002C14BF446870BD002C0F
:1007A00018BFAC423CBF20466468F8D301680A1801
:1007B000AA4218BF456003D12A680546114401606A
:1007C00028684119A1421CBF6C6070BD61686960F6
:1007D00021680844286070BD70B5C468A50713D0AF
:1007E000650211D4B2F5807F09D0B2F5007F06D042
:1007F000B2F5806F08D1012300F1240106E05D1EEF
:100800006FF07F46B54201D3012070BD0161C36125
:10081000416024F470611143C160002070BD00008C
:100820002DE9F0410C4607461646104600F06EF8DA
:100830002078611C61280AD0722802D077283CD128
:1008400002E00125002405E00225042402E008243A
:1008500048F2020511F8010B2B2806D0622809D0B6
:1008600011F8010C74280AD00BE045F0030544F0A0
:100870000204EFE745F0040544F00104EAE744F020
:1008800010043846214601F055FE411C15D00021C8
:10089000316171604FF40071F560F16170612007A2
:1008A00004D530460222002100F0E4F8306D40F01B
:1008B000010030653046BDE8F0810020FBE72DE9FE
:1008C000F0410D460646104C206DC10704D041088A
:1008D00004D020F00104F7E722460EE0542000F097
:1008E0009AF807000ED0206D47F00101084354210B
:1008F00020653846FFF765FD3A4629463046BDE893
:10090000F0418DE70020D6E79C0200202DE9F0475A
:1009100004464FF000094FF0FF37C568D4E904865C
:10092000A80707D0204600F055F9304601F0CBFD6E
:10093000002802DA3846BDE8F087280502D540468F
:10094000FFF723FF4C212046FFF73BFD206D20F0F1
:10095000010020654846EEE710B50446AFF300807D
:100960002046BDE81040FFF718BC10B500F07CF938
:10097000BDE8104000F072B90048704798030020AD
:1009800000487047A00300207047704770477047C9
:1009900038B504460A4600206946AFF300800028B7
:1009A00008BF38BD02460099204600F084F90120B6
:1009B00038BD012000F0D3B9F8B5AFF3008005468B
:1009C00000200C46102000BF0646A819A0420DD9F1
:1009D000324669460020AFF30080070008BF00F0F0
:1009E000BEF90098A04218BF0546C419FFF7C8FF1A
:1009F00005600746F01D20F007004619284600F064
:100A000053F9B44208BFF8BDA21B31463868BDE8AF
:100A1000F84000F050B970B50646FFF7B1FF056821
:100A200006F10B0020F00704B4429CBF002070BD0B
:100A30002B466A68BAB11068A04210D304F10801CD
:100A400088423CBF5068586007D351681019416014
:100A50001168091B016058601460101D70BD1346B9
:100A60005268002AE7D121462846FFF791FF002867
:100A7000DED170BD2DE9F041044616460D464769AA
:100A8000007B80072ED0384601F042FD50BB3EB3BC
:100A9000012E02D0022E25D104E0204600F025F9D7
:100AA00005441DE0384601F021FDE168002841F0D1
:100AB0001001E16005DA204600F058F80120BDE899
:100AC000F081C9030BD56268E16A914200D81146F2
:100AD000A26911442269891A814200DD0846054451
:100AE000002D01DA0220EAE7E16A6068E2688142EB
:100AF00006D29103E06203D522F4003141F01002E6
:100B0000A6690027AE4213DCE16A814201D90B4697
:100B100000E0034603EB060C2369ACEB030CAC4589
:100B200006DD814201D98C4600E084469C4505D112
:100B3000A760276042F02000A5620DE0AD1BE669CA
:100B4000AE1B8142A66000D90846C01A281A206050
:100B50005819606022F0200003490840E06000203E
:100B600084F84870ABE70000BFCFD7FFC16821F41D
:100B7000001141F08001C160002181600160704777
:100B80002DE9F047814614460E464FF0FF383248B3
:100B9000D5685769054209D03846A16901F0FEFCC5
:100BA000002811DB2C48C0430540E5602B46324647
:100BB0004946384601F008FDA16920F00042B21A0A
:100BC00011440028A16103D02046FFF7CFFF404623
:100BD000BDE8F08770B504460569C06A616888425F
:100BE00000D80846E16821F42011E160C90312D55C
:100BF000A84208D02246411B2846FFF7C1FF10B18A
:100C00004FF0FF3070BD0020E562C4E90150E0689C
:100C100020F48030E060002070BD10B50446C0684C
:100C200020F02000E060A16AA06988420DD0204633
:100C3000FFF7D0FFE06820F4405040F01000E06083
:100C4000A06AA0612069E062606044F24001E0684F
:100C50008843E06010BD000010000200002801D0B1
:100C600000F01CB87047000010B5014602A000F06B
:100C70005DF8012010BD00005349475254524544CD
:100C80003A2052656469726563743A2063616E2725
:100C900074206F70656E3A20000000000149182032
:100CA000ABBEFEE72600020000210160C0E9011092
:100CB000704710207047034640688C46002818BFD4
:100CC00088423CBF03464068F8D3186818448842FD
:100CD00007D00CF1030020F00700001D411A521A42
:100CE0000146081D0A60FFF750BD10B50146C268F5
:100CF000900703D0900607D5886A0AE000F03EF816
:100D000001210160881E10BD8B69486818440B6979
:100D1000C01A91F848301BB191F84910401A10BD23
:100D20001103FCD50028FADD401E10BD70B5054644
:100D30000C460A2000E06D1C00F018F835B1287848
:100D40000028F8D102E0641C00F010F814B12078FB
:100D50000028F8D1BDE870400A2000F007B810B5AF
:100D600000F010F8BDE81040FFF778BF08B56946FD
:100D70008DF800000320ABBE08BD704700487047E7
:100D80009803002010B5012805D0002103A0FFF72B
:100D9000CDFF012010BD09A1F8E7000053494752DB
:100DA000544D454D3A204F7574206F66206865613B
:100DB00070206D656D6F7279000000003A20486503
:100DC0006170206D656D6F727920636F72727570DE
:100DD0007465640070B505460E46144617480670E3
:100DE000174805700220174908600020164908704E
:100DF00016490870164908701149087015481649B7
:100E00000860002009E00021144A1154FF21144A0F
:100E100011540021134A1154401C2228F3DB00F026
:100E20007DFAFF20104908700448007800F01CFE8D
:100E3000204601F04BFC00BF70BD000038000020D0
:100E40005100002034000020420000204300002018
:100E500044000020A015FFFF5400002020010020C6
:100E60004201002064010020500000202DE9F04FD5
:100E700095B020210DA8FFF7A4FA5CA0FFF7B4F904
:100E8000644890F800900025002005E06249095C64
:100E900008AA1154411C48B24845F7DB00267BE004
:100EA0005EA0FFF7A1F908A8845D4FF0000BDA46B9
:100EB0006DE0514660A0FFF797F94FF0000B14204A
:100EC000554901220023CDE90332CDE90510042262
:100ED000CDE900235C48029300781A462346214658
:100EE0005948007800F01EFC03F050F9574908609B
:100EF0003DE000F04FF900F0CFF9B8B3464800F0FC
:100F0000CDFB98B352480078A04230D151480078C8
:100F10004D49097888422AD14F480078052826D1C2
:100F20000BF1010000F0FF0B584603F052FA0746A0
:100F300000224A4B03F09AFB19D803F027F9074621
:100F400001230222009042480178007800F026F93F
:100F500000F0A2FA00F05AFB3D4802782846691CCE
:100F6000CDB20DA90A544FF0030A09E0FFE703F0E0
:100F70000DF936490968401A42F234118842B8D353
:100F800000BF40F2A46001F04BFB0AF1010ABAF184
:100F9000010F8EDB701C46B24E4581DB002005E060
:100FA0000DA9095C1C4A1154411C48B2A842F7DB48
:100FB0004FF4FA601421184A0123CDE90432CDE937
:100FC000061000200522CDE90150009203901E4832
:100FD000007800231C48007819461B4802780078E6
:100FE00000F0E2FB15B0BDE8F08F000072656365AC
:100FF000697665205232207265717565737420615F
:101000006E64204920737563636565642052310DF9
:101010000A0000003E0000208601002073656E6417
:1010200020523220726565717565737420746F206B
:101030003220686F700D0A007265747279203A2050
:1010400025640D0A00000000380000204800002040
:101050003A000020390000203D0000200000104030
:101060001A480078022807D018480078052803D0CD
:1010700016480078072827D11548007868B9134822
:101080000078134908701348007813490870134812
:1010900090F900001249087016E00D4800780B49DD
:1010A0000978884210D10D4890F900000C4991F957
:1010B0000010884208DB0748007807490870074895
:1010C00090F9000006490870704700003D000020BC
:1010D000440000203A000020420000202F000020A1
:1010E0004300002030B587B02348007823490978B1
:1010F000884203D02048007800283AD103F046F80F
:10110000054600901E480078401CC3B202221B48CE
:1011100001781C48007800F041F800F077FA1A488E
:101120000078042801D1052408E017480078062833
:1011300004D107241148007814490870002515E0EF
:101140001420124900220392CDE90421CDE9004286
:1011500002920690094803780D4802780748017802
:101160000B48007800F0DEFA681CC5B2052DE7DBFD
:1011700000BF07B030BD0000420000203A00002050
:10118000410000203B0000203D000020860100209F
:101190003800002010B501F07DFE10BD2DE9F047AC
:1011A00005460E4617469846DDF82090002423E0B9
:1011B000384800EBC40090F90000A8421AD168B288
:1011C000344901F8340070B201EBC40148704FFAA1
:1011D00088F0304901EBC401C87078B22D4901EBA9
:1011E000C401887002F0D2FF2A4901EBC4014860B3
:1011F000BDE8F087601CC4B2052CD9DB002420E0D8
:10120000244800EBC4008078C8B968B2214901F8CD
:10121000340070B201EBC40148704FFA88F01D49E8
:1012200001EBC401C87078B21A4901EBC40188709F
:1012300002F0ACFF174901EBC4014860D8E7601C1D
:10124000C4B2052CDCDB00241FE0124800EBC40014
:101250008078C0B968B20F4901F8340070B201EB70
:10126000C40148704FFA88F00A4901EBC401C87004
:1012700078B2084901EBC401887002F087FF054984
:1012800001EBC4014860601CC4B2052CDDDB00BF6B
:10129000AEE70000F800002010B501F0CDF908B16C
:1012A000012010BD0020FCE710B512A0FEF79CFF46
:1012B00000F0ACF9002414E0144800EBC40080787E
:1012C00002280CD102F062FF104901EBC401496809
:1012D0000F4A1144884202D9E0B200F039F8601C8C
:1012E00044B2052CE8DB0BA0FEF77EFF00F08EF980
:1012F00010BD0000636865636B526F7574696E673B
:101300005461626C6528290D0A000000F800002075
:1013100040420F0061667465720D0A00002012E001
:1013200000210A4A02EBC0029170FF21074A02EB3A
:10133000C0025170054A02F83010002102EBC002D1
:101340005160411CC8B20528EADB7047F800002054
:101350000146084626E0174B421C13F8322003F8DA
:101360003020421C03EBC202527803EBC0035A70D8
:10137000104B421C03EBC202D27803EBC003DA70BD
:101380000C4B421C03EBC202927803EBC0039A7031
:10139000084B421C03EBC202526803EBC0035A60C5
:1013A000421CD0B20528D6DB0023024A82F8223044
:1013B00070470000F800002030B5014600220020F0
:1013C00015E00D4B03EBC0039B78022B0DD10A4BAC
:1013D00003EBC00393F90030084C24782BB1064B83
:1013E00013F830501346521CCD54431C58B20528F4
:1013F000E7DB104630BD0000F80000203800002078
:1014000070B50546002417E00D4800EBC40090F9C4
:101410000000A8420ED10A4800EBC400807848B111
:1014200002F0B4FE064901EBC4014860044800EB39
:10143000C40070BD601CC4B2052CE5DB0020F8E7D9
:10144000F8000020014800787047000038000020B4
:1014500010B501F08DFE10BD10B501F08FFE10BD6E
:1014600010B501F091FE10BD10B501F093FE10BD56
:1014700010B501F095FE10BD10B501F097FE10BD3E
:1014800010B501F099FE10BD10B501F09BFE10BD26
:1014900010B501F09DFE10BD10B51848FEF7A4FE72
:1014A0001748017817A0FEF79FFE1C4801781CA082
:1014B000FEF79AFE2048017820A0FEF795FE264808
:1014C000017826A0FEF790FE2C4801782CA0FEF7AC
:1014D0008BFE3148017831A0FEF786FE3548017851
:1014E00035A0FEF781FE3A4801783AA0FEF77CFE6F
:1014F0003F4801783FA0FEF777FE10BD244D00085D
:101500003A00002044475F7278486561646572461E
:10151000726F6D203A2025640D0A0000390000200A
:1015200044475F7278486561646572546F203A2061
:1015300025640D0A000000003B00002044475F7254
:1015400078486561646572536F75726365203A20EF
:1015500025640D0A000000003C00002044475F7233
:101560007848656164657244657374696E61746915
:101570006F6E203A2025640D0A0000003D00002017
:1015800044475F727848656164657254797065207C
:101590003A2025640D0A00003E00002044475F7297
:1015A0007848656164657244617461203A202564FD
:1015B0000D0A00003F00002044475F7278486561D3
:1015C000646572466C616773203A2025640D0A00D9
:1015D0004000002044475F7278486561646572533B
:1015E00065714E756D203A2025640D0A00000000DB
:1015F0004100002044475F72784865616465724825
:101600006F70203A2025640D0A0000003EB50024CA
:1016100020E0124800EBC4004068104901EBC4010F
:1016200091F903100D4A02EBC40292F90220CDE9B0
:1016300000210290094800EBC40090F901300748EE
:1016400000EBC40090F90020214605A0FEF7CCFD78
:10165000601CC4B2052CDCDB3EBD0000F80000209D
:10166000256420446573743A202564204E6578749F
:1016700020486F703A2025642053746174653A20C5
:10168000256420486F703A202564204C61737420D3
:1016900054696D653A2025640D0A000070B5044652
:1016A000204601F079F8051E27D0FFF7DDFE14492A
:1016B0000870FFF7E9FE13490870FFF7E1FE1249D1
:1016C0000870FFF7C9FE11490870FFF7E1FE1049E5
:1016D0000870FFF7BDFE0F490870FFF7C1FE0E4905
:1016E0000870FFF7C9FE0D490870FFF7C1FE0C49ED
:1016F0000870A5F10900C0B270BD0020FCE7000031
:101700003A000020390000203B0000203C0000206F
:101710003D0000203E0000203F000020400000204F
:10172000410000202DE9F05F80460C4615461E461C
:101730000AAF97E8800E0A2F05DB3046FFF760FE00
:1017400008B9BDE8F09F00BF02F020FD1549096807
:10175000401AB0F57A7FF7D3404600F061F9204691
:1017600000F076F9284600F06DF9304600F04CF9AB
:10177000384600F073F9484600F040F9504600F052
:1017800049F9584600F058F90E9800F04FF9DDE994
:101790000F0101F055FA02F0F9FC0249086000BFA0
:1017A000CFE70000540000202DE9FF4F8BB00E461C
:1017B00017469846DDE91D59189C0B2C07DB40465F
:1017C000FFF71EFE18B900200FB0BDE8F08F4FF0F4
:1017D000000A0B9800F024F9304600F039F9384639
:1017E00000F030F9404600F00FF9204600F036F9DD
:1017F000199800F003F91B9800F01EF91C9800F0EE
:1018000015F9CDF82890002003E0295C6F4A1154A7
:10181000401C4845F9DB4FF0000BD0E000BF02F060
:10182000B5FC6B490968401AB0F57A7FF7D3594681
:1018300068A0FEF7D9FC65480A9901F001FA02F0A8
:10184000A5FC6349086002F0A1FC8246A9E0FFF70D
:10185000A1FCFFF721FD0028F8D02846FFF71EFF66
:101860000028F3D05E480078B042EFD15D480078A0
:101870005D490978884224D15C4800780E280FD051
:101880005A48007802280BD058480078052807D01D
:1018900056480078072803D054480078092810D10A
:1018A000524800780E280AD002F070FC09900123FB
:1018B000022200904A4801780078FFF76FFC01206F
:1018C00082E7032C05D149480078042801D1012082
:1018D0007AE7062C05D145480078062801D1012079
:1018E00072E7424800780C2803D04048007813285B
:1018F00042D10B2C40D13C4800783B490978C9B310
:101900000420002103910E22CDE90415CDE9002128
:1019100002910690324803783348027830480178C3
:1019200031480078FFF7FEFE31480078FFF768FD88
:1019300000B32F480078FFF763FD40784FF4FA6159
:10194000042209902B480078401CC0B2CDE9055212
:10195000079104900020254B1B78CDE900300290C0
:10196000039023480378244802781F480078099997
:10197000FFF71AFF012027E70B2C0AD11B4800783C
:101980000B2804D0194800780D2800D000BF012092
:101990001AE7112C05D115480078122801D1012031
:1019A00012E702F0F3FBA0EB0A0040F2A4618842C8
:1019B000FFF44DAF1F9800F033FE0BF1010BBBF1AC
:1019C000030FFFF62BAF0020FEE600009A01002077
:1019D000540000207265747279203A20256400005A
:1019E0003A00002039000020380000203D0000208F
:1019F0003C000020410000203B00002010B50446C0
:101A0000204601F0EBFB10BD10B50446204601F066
:101A1000EBFB10BD10B50446204601F0EBFB10BDFA
:101A200010B50446204601F0EBFB10BD10B504468E
:101A3000204601F0EBFB10BD10B50446204601F036
:101A4000EBFB10BD10B50446204601F0EBFB10BDCA
:101A500010B50446204601F0EBFB10BD10B504465E
:101A6000204601F0EBFB10BD10B50446204601F006
:101A7000EBFB2046FFF7D4FF0148047010BD0000C7
:101A8000380000207047000010B50548006800F0DD
:101A90000F04034844602046FFF7F4FF10BD000028
:101AA000000002407047000010B505480068C0F310
:101AB00003142001024948602046FFF7F3FF10BDE0
:101AC000000002407047000010B505480068C0F3F0
:101AD00003242002024948602046FFF7F3FF10BDAF
:101AE000000002407047000010B505480068C0F3D0
:101AF00003342003024948602046FFF7F3FF10BD7E
:101B0000000002407047000010B505480068C0F3AF
:101B100003442004024948602046FFF7F3FF10BD4C
:101B2000000002407047000010B505480068C0F38F
:101B300003542005024948602046FFF7F3FF10BD1B
:101B4000000002407047000010B505480068C0F36F
:101B500003642006024948602046FFF7F3FF10BDEA
:101B60000000024008B50420ADF8000003208DF805
:101B7000020018208DF8030069461A4800F036F874
:101B80000820ADF8000004208DF8030069461548D0
:101B900000F02CF80220ADF8000003208DF80200C0
:101BA00010208DF8030069460E4800F01FF84FF42E
:101BB0008060ADF8000003208DF8020018208DF839
:101BC00003006946084800F011F84FF40060ADF8D2
:101BD000000004208DF803006946034800F006F871
:101BE00008BD000000080140000C01402DE9F04153
:101BF000024600250026002000230024002791F83B
:101C000003C00CF00F0591F803C00CF0100CBCF1F0
:101C1000000F03D091F802C04CEA050591F800C00E
:101C2000BCF1000F31D0146800202BE04FF0010C04
:101C30000CFA00F3B1F800C00CEA03069E4220D172
:101C400083004FF00F0C0CFA03F7BC4305FA03FCBA
:101C50004CEA040491F803C0BCF1280F06D14FF000
:101C6000010C0CFA00FCC2F814C00AE091F803C0A1
:101C7000BCF1480F05D14FF0010C0CFA00FCC2F882
:101C800010C0401C0828D1D31460B1F800C0BCF1CA
:101C9000FF0F34DD546800202EE000F1080C4FF0F7
:101CA000010808FA0CF3B1F800C00CEA03069E42E2
:101CB00021D183004FF00F0C0CFA03F7BC4305FA57
:101CC00003FC4CEA040491F803C0BCF1280F05D1D1
:101CD00000F1080C08FA0CF8C2F8148091F803C05F
:101CE000BCF1480F07D100F1080C4FF0010808FAC9
:101CF0000CF8C2F81080401C0828CED35460BDE810
:101D0000F0810246002093680B400BB1012000E0F7
:101D10000020704741617047016170470A490968B6
:101D200001F0010171B108498039096801F0010130
:101D300041B100BF4FF0604109680029FAD04FF06F
:101D40006042107070470000800E00E030B514480B
:101D500000684FF47A72B0FBF2F1481EB0F1807F58
:101D600000D31BE0481E4FF0E022506150170F22B5
:101D7000002804DB13071C0E0A4B1C5406E0130753
:101D80001D0E094B00F00F04241F1D5500BF00203D
:101D90004FF0E02290610720106100BF30BD0000CD
:101DA000D800002000E400E018ED00E000B585B0A8
:101DB00000F06CFA0121042000F04AF801218803A8
:101DC00000F046F84FF40070ADF8100003208DF8D5
:101DD000120018208DF8130004A91348FFF706FF1E
:101DE0004FF48060ADF8100004208DF8130004A9B2
:101DF0000D48FFF7FBFE4FF4165000900020ADF8A1
:101E00000400ADF80600ADF80800ADF80C000C2099
:101E1000ADF80A006946054800F0E0FA01210348E0
:101E200000F0C2FA05B000BD0008014000380140D2
:101E300029B1064AD2690243044BDA6104E0034A3D
:101E4000D2698243014BDA61704700000010024002
:101E500029B1064A92690243044B9A6104E0034A9D
:101E600092698243014B9A61704700000010024062
:101E700010B501214FF4C020FFF7DAFF10BD0000BC
:101E800030B500210022002400232D4D6D6805F09F
:101E90000C0121B1042905D0082923D105E0294DE1
:101EA000056022E0274D05601FE0254D6D6805F4B3
:101EB0007012234D6D6805F48034022505EB9242C3
:101EC0001CB9214D554305600BE01D4D6D6805F4AF
:101ED00000351DB11C4D5543056002E0194D5543B9
:101EE000056002E0174D056000BF00BF144D6D682E
:101EF00005F0F0010909154D6B5C0568DD40456092
:101F00000F4D6D6805F4E061090A104D6B5C456882
:101F1000DD4085600A4D6D6805F46051C90A0B4DBE
:101F20006B5C4568DD40C560054D6D6805F440415A
:101F3000890B074D6B5CC568B5FBF3F5056130BDDA
:101F40000010024000127A0000093D00C400002089
:101F5000D400002070B50025002602213548FFF787
:101F6000DBFE00240CE03448015D344800F0A7FAA1
:101F700000BF4021314800F023FA0028F9D0641C4A
:101F80000A2CF0DB02212B48FFF7C4FE02F0FEF81A
:101F90002B49086017E02021284800F011FA78B199
:101FA00000BF2021254800F00BFA0028F9D0234873
:101FB00000F080FAC2B22846691CCDB221490A5409
:101FC0000A2D00D107E002F0E1F81D49096801F689
:101FD000B8318842DFD300BF1BA0FEF705F900240B
:101FE00005E01848015D1DA0FEF7FEF8641C0A2CF0
:101FF000F7DB1BA0FEF7F8F8002003E01149095CAD
:102000004E40401C0928F9DB0E48407AB0420DD101
:10201000002409E00B48005D0A4908550846015DA7
:102020000EA0FEF7E1F8641C0A2CF3DB0CA0FEF70F
:10203000DBF870BD0008014087020020004400402A
:10204000AC000020910200202D2D2D2D2D726563F6
:10205000656976652D2D2D2D2D0D0A002578200022
:102060000D0A000021B1028842F04002028004E023
:1020700002884FF6BF731A400280704710B50022E5
:10208000028802F441520B884C8823438C882343F6
:10209000CC8823430C8923434C8923438C892343D5
:1020A000CC8923431A430280838B4FF2FF74234071
:1020B00083830B8A038210BD10200149086070479A
:1020C0001008014000B587B001210803FFF7C0FEEA
:1020D0003020ADF814000020ADF81000ADF80E006F
:1020E000ADF80C00ADF80800ADF816004FF48270A2
:1020F000ADF80A004FF44070ADF8120002A9144880
:10210000FFF7BCFF01211248FFF7ACFF01210420BB
:10211000FFF79EFEE020ADF8040018208DF80700C0
:1021200003208DF8060001A90A48FFF75FFD102083
:10213000ADF804008DF8070003208DF8060001A912
:102140000448FFF753FDFFF7B7FF07B000BD0000DD
:10215000003001400008014001460D48818100BF68
:102160000B48008900F002000028F9D000BF0848A1
:10217000008900F001000028F9D000BF0448008960
:1021800000F080000028F9D101488089C0B2704772
:102190000030014010B500F001F810BD0CB5002072
:1021A000019000903348006840F480303149086065
:1021B00000BF3048006800F4003000900198401CD7
:1021C0000190009818B90198B0F5A06FF1D1294895
:1021D000006800F4003010B10120009001E0002000
:1021E00000900098012843D12348006840F0100077
:1021F000214908600846006820F00300086008468E
:10220000006840F0020008601A48406819494860B8
:102210000846406848600846406840F4806048606E
:102220000846406820F47C1048600846406840F446
:10223000E81048600846006840F08070086000BF01
:102240000C48006800F000700028F9D00948406888
:1022500020F00300074948600846406840F002004B
:10226000486000BF0348406800F00C000828F9D11E
:102270000CBD00000010024000200240024800682F
:10228000401C014908607047C000002010B5134889
:10229000006840F001001149086008464068104994
:1022A00008400E494860084600680E4908400B493E
:1022B00008600846006820F48020086008464068EE
:1022C00020F4FE0048604FF41F008860FFF762FFB3
:1022D0004FF000600449086010BD0000001002408B
:1022E0000000FFF8FFFFF6FE08ED00E010B5012149
:1022F000880700F009F818B10121880700F001F8FB
:1023000010BDCA430282704730B502460020002348
:102310000024158A05EA0103958905EA010413B131
:102320000CB1012000E0002030BD00001FB54FF4CB
:10233000165000900020ADF80400ADF80600ADF88E
:102340000800ADF80C000C20ADF80A0069460648FC
:1023500000F044F80121044800F026F80221034867
:10236000FFF7D8FC1FBD00000044004000080140FA
:102370001FB54FF4165000900020ADF80400ADF8E2
:102380000600ADF80800ADF80C000C20ADF80A000E
:102390006946044800F022F80121024800F004F8E0
:1023A0001FBD00000048004021B1828942F4005264
:1023B000828104E082894DF6FF731A408281704762
:1023C00002460020B1F5007F00D100BF13880B400A
:1023D0000BB1012000E00020704700002DE9F0471C
:1023E00086B005460E460024A24600BFA14600273F
:1023F000B08900B100BF2F462C8A4CF6FF70044014
:10240000F08804432C82AC894EF6F3100440B08867
:1024100031890843718908430443AC81AC8A4FF683
:10242000FF400440B0890443AC8201A8FFF728FDB7
:102430001F48874202D1DDF810A001E0DDF80CA0B2
:10244000A88900F4004040B10AEBCA0000EB0A1072
:1024500031684900B0FBF1F807E00AEBCA0000EB75
:102460000A1031688900B0FBF1F86420B8FBF0F085
:1024700004012009642101FB1089A88900F40040AF
:1024800040B1322000EBC900B0FBF1F000F00700D2
:10249000044308E0322000EB09106421B0FBF1F0A6
:1024A00000F00F0004432C8106B0BDE8F087000067
:1024B0000038014001468888C0F308007047C1F326
:1024C00008028280704701466FF40040084420B142
:1024D000012804D0022806D103E000207047002024
:1024E000FCE70020FAE74FF0FF30F7E701466FF412
:1024F0000040084420B1012804D0022806D103E09E
:10250000002070470020FCE70020FAE70020F8E7F1
:1025100001466FF40040084420B1012804D002288D
:1025200006D103E0012070470120FCE70120FAE713
:102530000020F8E770B504460D4614B94FF0FF309F
:1025400070BD20783A281AD10EA12046FDF760FF11
:1025500010B948F20100F3E70CA12046FDF758FF3F
:1025600010B948F20200EBE70AA12046FDF750FF40
:1025700010B948F20300E3E74FF0FF30E0E74FF017
:10258000FF30DDE73A535444494E00003A53544477
:102590004F5554003A5354444552520002466FF48A
:1025A0000040104420B1012805D0022809D105E0DF
:1025B0004FF0FF3070474FF0FF30FBE74FF0FF3038
:1025C000F8E74FF0FF30F5E72DE9F04107460C46FC
:1025D000154698466FF40040384420B1012806D0D3
:1025E00002281AD10EE04FF0FF30BDE8F08105E07F
:1025F00014F8016B304601F0E9FD6D1E002DF7D196
:102600000020F2E705E014F8016B304601F0D8FD38
:102610006D1E002DF7D10020E7E74FF0FF30E4E713
:1026200000B5014601F0B2FD024600BF01F0AEFD6B
:10263000801A8842FAD300BD70B5BD2000F01AFDA3
:10264000044604F00F0501210748FFF75AFB40B18B
:1026500000BF01210448FFF754FB0028F9D10120F5
:1026600070BD0020FCE70000000C014010B54021C7
:102670000348FFF74FFB80210148FFF74BFB10BDDC
:10268000000C014010B540210348FFF743FB8021B7
:102690000148FFF741FB10BD000C014008B541F2B5
:1026A0000100ADF8000004208DF8030069460648DB
:1026B000FFF79CFA01210448FFF72EFB4FF48051ED
:1026C0000148FFF729FB08BD000C014010B5044686
:1026D00000201B490870AA201A490870BB201A491B
:1026E0000870CC2019490870DD2019490870EE20C7
:1026F00018490870DD2018490870FF201749087034
:10270000002017490870FFF751FBFFF71FFB00F08F
:10271000E3FBFFF7C3FF10211248FFF7FDFA20216A
:102720001048FFF7F9FA80210E48FFF7F3FAFFF798
:10273000A9FF00F049FA204600F084F910BD00001E
:10274000040000200E0000200F00002010000020D8
:1027500011000020120000201300002014000020AF
:1027600015000020000801402DE9F041662742F6DF
:10277000727000F03BFC064606F0010048B142F6DC
:10278000717000F033FC0446E01BC5B22846BDE87A
:10279000F0810020FBE700002DE9F04F9FB080465C
:1027A00070A0FDF721FD42F6D77000F01FFC041E5B
:1027B00002D11FB0BDE8F08FC3E0BF2000F016FCCF
:1027C0000446092C01DB322C0EDD67A0FDF70CFD61
:1027D000214675A0FDF708FD6420FFF721FF3A2090
:1027E00000F048FC0020E4E7E01C864207D070A01F
:1027F000FDF7FAFC3A2000F03DFC0020D9E7224624
:102800006946FF2000F09EFB02221EA9FF2000F077
:1028100099FB9DF8780001F0BFFC694908709DF8AC
:10282000790000F07F099DF8790000F0800A002708
:10283000002504E01DF805004740681CC5B2601E75
:10284000A842F7DC1DF80000B8420AD05D48FDF749
:10285000CBFC6420FFF7E4FE3A2000F00BFC0020E4
:10286000A7E7FFF781FF40B255490870084690F985
:10287000000010F1780F0ADA53A0FDF7B5FC6420D0
:10288000FFF7CEFE3A2000F0F5FB002091E75DA0B7
:10289000FDF7AAFC01F07AFC4FF47A71B0FBF1FB72
:1028A000594641A0FDF7A0FC002509E01DF80510E0
:1028B00059A0FDF799FC59A0FDF796FC681CC5B21C
:1028C000A542F3DB27A0FDF78FFC9DF800005449DB
:1028D00008709DF80100534908709DF802005249A4
:1028E00008709DF80300514908709DF80400504994
:1028F00008709DF805004F4908709DF806004E4984
:1029000008709DF807004D4908709DF808004C4973
:102910000870A4F10A020DF109014046FDF70CFD13
:10292000002504E000200DF80500681CC5B2782DD4
:10293000F8DB6420FFF774FE3A2000F09BFB204692
:1029400037E742F6D77000F051FB064609283FF7FB
:1029500034AF6420FFF764FE3A2000F08BFB0020C8
:1029600027E700000D0A00002A2A2A2A2A2A2A2AF2
:102970002A2A2A2A2A2053697A65204552524F5220
:10298000203A20546F6F2073686F7274206F72202A
:10299000546F6F206C61726765202A2A2A2A2A2ABE
:1029A0002A2A2A200000000025640D0A00000000E9
:1029B00073697A65206D69736D617463680D0A00CF
:1029C00017000020E04C00082A2A2A2A2A2A2A2A4C
:1029D0002A2A2A2A2A207765616B207369676E612B
:1029E0006C28727373692062656C6F7720746872EB
:1029F0006573686F6C64292A2A2A2A2A2A2A2A2AB5
:102A00000D0A00002D2D2D2D2D72656365697665EB
:102A10002D2D2D2D2D0000002578000020202000D8
:102A2000050000200600002007000020080000200C
:102A3000090000200A0000200B0000200C000020EC
:102A40000D00002010B504460621002000F052FBC6
:102A50000621012000F04EFBB021022000F04AFBCD
:102A60004021032000F046FB0B21082000F042FB30
:102A700089210A2000F03EFB02210B2000F03AFBE6
:102A80001C210C2000F036FB18210D2000F032FB39
:102A9000C621102000F02EFB1821112000F02AFB87
:102AA0000521132000F026FB5321142000F022FB07
:102AB0002021172000F01EFB1921182000F01AFB1E
:102AC000A9211C2000F016FBCF211D2000F012FBD5
:102AD00000211E2000F00EFB1421212000F00AFB33
:102AE0002021282000F006FB4F212B2000F002FBC4
:102AF000FF212E2000F0FEFA00214FF43C5000F0A0
:102B0000F9FA222142F6017000F0F4FA6A2142F645
:102B10000C7000F0EFFA2D2142F60D7000F0EAFA89
:102B2000992142F60E7000F0E5FA002142F612708B
:102B300000F0E0FA5F2142F6137000F0DBFA40216A
:102B400042F6167000F0D6FA0E2142F6177000F029
:102B5000D1FA032142F6197000F0CCFA332142F683
:102B60001B7000F0C7FA172142F61D7000F0C2FA80
:102B7000502142F61F7000F0BDFA6E2142F620701F
:102B800000F0B8FA142142F6217000F0B3FAAC213B
:102B900042F6227000F0AEFAB42142F6277000F03F
:102BA000A9FA0E2142F6327000F0A4FA032142F68F
:102BB000367000F09FFA1021262000F09BFA204684
:102BC00000F000F910BD000010B502211648FFF713
:102BD000A1F86420FFF724FD02211348FFF79CF8B9
:102BE0006420FFF71DFD10211048FFF793F802E065
:102BF0000FA0FDF7F9FA40210C48FFF782F80028F2
:102C0000F6D13020FFF7A8FA02E00CA0FDF7ECFAAD
:102C100040210648FFF775F80028F6D11021034837
:102C2000FFF77AF810BD0000000C014000080140D9
:102C30004D49534F20310D0A00000000320D0A00AB
:102C400070B58AB006460D4649A0FDF7CDFA322D83
:102C500001DD0AB070BD474800788DF80000464895
:102C600000788DF80100454800788DF8020044484E
:102C700000788DF80300434800788DF8040042483E
:102C800000788DF80500414800788DF8060040492D
:102C90000878411C3E4A11708DF807003D480078C5
:102CA0008DF80800092406E0A4F10900305C0DF855
:102CB0000400601CC4B205F109008442F4DB002169
:102CC0000DF8001000240CE005F109001DF80000CB
:102CD0001DF80410484005F109010DF80100601CC1
:102CE000C4B205F109008442EEDB2B48FDF77CFA03
:102CF0002AA0FDF779FAFFF7B9FC002409E01DF8D6
:102D0000041029A0FDF770FA28A0FDF76DFA601CE9
:102D1000C4B205F10A00A042F1DC25A0FDF764FA77
:102D200005F10A00C1B23F2000F0E4F905F10A0004
:102D3000C2B269467F2000F0B7F9352000F09AF959
:102D400000BF01211E48FEF7DCFF0028F9D000BFBC
:102D500001211B48FEF7D5FF0028F9D16420FFF7B9
:102D60005FFC3B2000F086F9FFF78CFC00BF70E7AA
:102D70000D0A00000E0000200F00002010000020AF
:102D80001100002012000020130000201400002079
:102D90001500002016000020984C0008202020205C
:102DA000202020202020000025640000202020007A
:102DB000202020202020202020200D0A00000000BC
:102DC000000C01402DE9F14F88B02F48049008987D
:102DD00001F0E8FA06462D4A2D4B01F049FB044666
:102DE0000D46049801F062FD22462B46CDE9000114
:102DF00001F024FA804601F0EFF903904FF0824091
:102E0000039901F05DFE02904FF08F41029801F0AE
:102E100057FE05464FF0844101F074FD044601F071
:102E200033FE834658464FEAEB710BEB1141091410
:102E300007914FEAEB710BEB11410914ABEB014A1F
:102E400050464FEAEA710AEB1161091206914FEA06
:102E5000EA710AEB11610912AAEB012105910798A9
:102E6000C1B242F60C7000F045F90698C1B242F6C4
:102E70000D7000F03FF90598C1B242F60E7000F0F7
:102E800039F909B0BDE8F08F335BD4439A99999929
:102E90009999893F70B5BD2000F0ECF8044604F024
:102EA000700514B9342000F0E5F804F00F0010B1FB
:102EB0003A2000F0DFF8202D02D1342000F0DAF8BB
:102EC000602D02D13A2000F0D5F8702D02D13B20C0
:102ED00000F0D0F870BD000008B501210920FEF710
:102EE000B7FFFFF7EFF8C220ADF8000010208DF813
:102EF000030003208DF8020069460A48FEF776FEBB
:102F00006420FFF78DFB08A0FDF76EF9102108A0E3
:102F1000FDF76AF907A0FDF767F9012107A0FDF7A2
:102F200063F908BD000C014053535F50494E200027
:102F3000256400000947444F3020000025640D0A35
:102F4000000000002DE9F04705460E4617464FEAFF
:102F5000252905F0FF0AB9F1000F1ED110212248E2
:102F6000FEF7D8FE00BF40211F48FEF7CAFE00282A
:102F7000F9D14AF0C0084046FFF7EEF8002405E01A
:102F80000020FFF7E9F83055601CC4B2BC42F7DB03
:102F900010211548FEF7C0FE23E0B9F12F0F20D114
:102FA00010211148FEF7B6FE00BF40210E48FEF783
:102FB000A8FE0028F9D1D04649F0C000FFF7CCF8B0
:102FC0004046FFF7C9F8002405E00020FFF7C4F8E9
:102FD0003055601CC4B2BC42F7DB10210248FEF73A
:102FE0009BFEBDE8F0870000000801402DE9F0419C
:102FF00004462512E0B20746D5B910211C48FEF759
:1030000089FE00BF40211A48FEF77BFE0028F9D157
:1030100047F080063046FFF79FF80120FFF79CF845
:10302000804610211248FEF777FE4046BDE8F08149
:103030002F2D1BD110210E48FEF76CFE00BF402142
:103040000B48FEF75EFE0028F9D145F08000FFF73F
:1030500083F83846FFF780F80120FFF77DF88046B7
:1030600010210348FEF758FE4046DFE700BFDDE7CA
:103070000008014070B5044610210A48FEF74AFED8
:1030800000BF40210748FEF73CFE0028F9D120464A
:10309000FFF762F8054610210248FEF73DFE28467C
:1030A00070BD0000000801402DE9F04105460E46C4
:1030B000174645F0400810210D48FEF72BFE00BFD3
:1030C00040210B48FEF71DFE0028F9D14046FFF7CE
:1030D00043F8002404E0305DFFF73EF8601CC4B202
:1030E000BC42F8DB10210248FEF716FEBDE8F08175
:1030F000000801402DE9F04104460E462512E7B2D2
:10310000C5B910211948FEF705FE6420FFF788FABB
:1031100000BF40211548FEF7F4FD0028F9D13846DC
:10312000FFF71AF83046FFF717F810210F48FEF79F
:10313000F3FD19E02F2D17D110210C48FEF7EAFD01
:1031400000BF40210948FEF7DCFD0028F9D12846E0
:10315000FFF702F83846FEF7FFFF3046FEF7FCFFA8
:1031600010210248FEF7D8FDBDE8F08100080140BB
:1031700001480078704700000A00002001480078EC
:1031800070470000080000200148007870470000E8
:103190000B00002001480078704700000500002067
:1031A00001480078704700000D00002001480078B9
:1031B000704700000C0000200148007870470000B4
:1031C000070000200148007870470000060000203A
:1031D000014800787047000009000020014908708C
:1031E000704700001300002001490870704700007C
:1031F00011000020014908707047000014000020F1
:1032000001490870704700000E0000200149087055
:103210007047000016000020014908707047000048
:1032200015000020014908707047000010000020C0
:1032300001490870704700000F0000200149087024
:10324000704700001200002001490870704700001C
:103250000400002070B504460D46E1B20548FFF7B2
:103260002EF900BF40210348FFF7AAF80028F9D043
:10327000204670BD003801408EB00F220121002091
:10328000FDF7A8FDFEF7DEF8FE490870FEF7F0FD39
:10329000FEF768FCFFF74AF8FFF76AF8FDF77AFFD8
:1032A00000F047BF0120F8490870F848007868B17D
:1032B00000F06CFFF6490968F64A1144884205D9C6
:1032C000FDF7F2FF00F062FFF149086000F05EFFD9
:1032D000F14909684EF660221144884232D9EFA0C4
:1032E000FCF782FF00F052FFEB49086000200D90D0
:1032F0000C9021E0EF490C98085C02460B90EEA080
:103300000C99FCF771FFEB490C98095C0D98814210
:103310000EDD0C9841B2EB480170E6490C98085C50
:1033200040B20D9000220C980A540120E649087022
:103330000C98401CC0B20C90E4490C980968884273
:10334000D8DD00BFFDF726FFFDF7A6FF0028A7D0B8
:10335000DF48FEF7A3F90028A2D0FEF795F8DD4973
:103360000870FEF781F8DC490870FEF789F8DB4940
:103370000870FEF771F8DA490870FEF789F8D94944
:103380000870FEF765F8D8490870FEF769F8D74964
:103390000870FEF771F8D6490870FEF769F8D5494C
:1033A0000870CC480078B7490978884205D0C948E8
:1033B0000078D149097888427ED1FEF76DF8C84877
:1033C0000078B0490978884277D0C2480078CA4965
:1033D00009788842F8D0C14800780D90C7A0FCF762
:1033E00003FF00200C90FEF70BF810B9FEF70EF962
:1033F000F4E01420B64900220392CDE9042106909E
:10340000104611460E22CDE900210290B248037801
:103410009C480278B04801789A480078FEF782F913
:10342000B0480078072803D0AE480078092813D1A7
:1034300000F0ACFE0C900090AE480078401CC0B28A
:10344000034602220B90A4480178A4480078FDF7B7
:10345000A5FEFEF7DBF86EE0A24800780C2839D113
:10346000A1480078002835DD00F090FE0C90009017
:10347000A0480078401CC0B2034602220B90964838
:10348000017896480078FDF789FE00200C901BE03B
:1034900000F07CFE0B90009096480078801CC0B233
:1034A0000A900C980A308A49085C099002228A48DE
:1034B0000178DDE9090301E0FEE390E0FDF76EFE2F
:1034C0000C98401CC0B20C90874909780C9888422F
:1034D000DEDB30E0834800780D282CD100F056FE6A
:1034E0000C90009083480078401CC0B20346022232
:1034F0000B907948017879480078FDF74FFE00205D
:103500000C9013E000F042FE0B9000900C980B30F2
:103510006F49085C002302220A906F4801780A98DC
:10352000FDF73CFE0C98401CC0B20C906E49097827
:103530000C988842E6DB6A480078FDF761FF10B31B
:1035400067480078FDF75CFF40784FF4FA61142279
:103550005F4B0C9067480078401CC0B2CDE9053243
:103560000791049000205F4B1B78CDE9003002905A
:1035700003905B48037859480278424800780C99D8
:10358000FEF712F950BB0D9840BB60A0FCF72CFE73
:1035900053480078FDF734FF40784D4908700D9886
:1035A000FDF72EFF40780C904FF4FA601421484A42
:1035B0000023CDE90432CDE90610184619461A4613
:1035C0000F23CDE90032CDE90210002003460B9015
:1035D0002C48027800780C99FEF7E6F860E641483E
:1035E000007860B9FDF79AFE4B4801784BA0FCF7D4
:1035F000FBFD49480078401C4749087050E63948AF
:10360000007801283CD14448007800F0E2FE002216
:103610004A4BCDE90C0101F029F831D800203E4990
:10362000087047A0FCF7E0FDFDF7F0FF00F0AEFDED
:103630000D90012302220090274801780078FDF7C1
:10364000ADFD00200D901AE01420214900220392C4
:10365000CDE904210690114610460222CDE9002052
:1036600002911D480378074802781B4801780548F5
:103670000078FEF757F80D98401CC0B20D906BE033
:103680006EE00000B00000209E000020BE00002080
:10369000A4000020C0270900A8000020636865631B
:1036A0006B5F7265726F7574696E675F74696D6563
:1036B00000000000660200202564203A2025643ABC
:1036C000200000009F0000209D00002074000020CA
:1036D0003E020020B1000020B2000020B300002014
:1036E000B4000020B5000020B6000020B700002084
:1036F000B8000020B9000020BA00002072656365A0
:103700006976652072656C617900000073656E648E
:10371000204E41434B000000980000207265636515
:103720006976656442726F61646361737441646455
:1037300072657373203A2025640000000000204069
:103740007265636569766520726F77312072657185
:1037500075657374000000000D9805287BDA73E727
:10376000FE48007803281CD10020FD490870142071
:10377000FC4900220392CDE904210690104611462F
:103780000E22CDE900210290F7480378F74802782D
:10379000F5480178F5480078FDF7C4FFFDF766FBB2
:1037A0007EE5EE480078042808D10020EC49087036
:1037B000EFA0FCF719FDFDF795FC71E5E7480078EF
:1037C000062803D0E548007808287CD10020E44989
:1037D0000870E4480078E5490978884274D0F4A07C
:1037E000FCF702FDDF4800780D901420DD4900222F
:1037F0000392CDE9042106900E20CDE90002DA48BB
:1038000002920378D9480278D7480178D7480078DF
:10381000FDF788FF00200C90D04800780B90142111
:10382000D04AF1480078401CC0B20023CDE90330F3
:10383000CDE90521C9480078CDE900030293099339
:103840000D9B1946C9480078099AFDF76BFF00F0F7
:103850009DFC0A9088E03EE2FDF79CFCFDF71CFD14
:1038600000287DD0BF48FDF719FF00287CD0FDF768
:10387000FBFD0D99884277D1FDF706FEBB4909781B
:10388000884271D1FDF704FE072803D0FDF700FE42
:10389000092869D1FDF7F8FDD4490870FDF7E4FD6A
:1038A000B1490870FDF7ECFDD1490870FDF7D4FD72
:1038B000D0490870FDF7ECFDA8490870FDF7C8FD78
:1038C000CD49087001E0F0E0A7E0FDF7C9FDCB4964
:1038D0000870FDF7D1FDCA490870FDF7C9FDC2495E
:1038E00008700C98401CC0B20C900C9800F071FD50
:1038F0000022C44BCDE9080100F0B8FE34D800F036
:1039000045FC099001230222009097480178007835
:10391000FDF744FCFDF7C0FDFDF778FE00200890A0
:10392000FDF76EFD40784FF4FA6114228D4B09903B
:10393000AD480078401CC0B2CDE905320791049033
:1039400000200121854B1B78CDE9011003900093E5
:1039500008900346A648027884480078099900E058
:1039600002E0FDF721FF08E000F010FC0A99401A80
:1039700042F234118842FFF46FAF00BF0C9800F0A0
:1039800028FD00229F4BCDE9080100F035FD43D210
:103990000B98062820D100200890FDF731FD4078D3
:1039A00009904FF4FA6014216E4A0023CDE90432E5
:1039B000CDE90610184619461A460723CDE900320C
:1039C000CDE902100020034608906848027800788C
:1039D0000999FDF7E9FE1FE000200890FDF710FDB2
:1039E000407809904FF4FA6014215E4A0023CDE933
:1039F0000432CDE90610184619461A460923CDE9C6
:103A00000032CDE9021000200346089057480278A2
:103A100000780999FDF7C8FE8BE37BA0FCF7E4FB77
:103A20004E480078062802D1FDF75CFB81E34B4845
:103A300000780828F0D100F0A9FB0D9000906A48AA
:103A40000078401CC0B2034602220C904648017820
:103A500067480078FDF7A2FBFDF7D8FD42480078E3
:103A60004049087000200D901BE014203D490022C1
:103A70000392CDE904210690104611460922CDE9B2
:103A800000210290002003460C9038480278364806
:103A9000017836480078FDF745FE0D98401CC0B20D
:103AA0000D900D980528B7DADFE72C4800780B2831
:103AB00051D100202A49087001205A49087000207D
:103AC0000D90FDF79DFC002846D000200D9007E0EA
:103AD00024490D98095C544A11540D98401C0D90CE
:103AE0000D980A28F4DBFEF735FA00200D9007E068
:103AF0004E490D98095C1B4A11540D98401C0D90BD
:103B00000D980A28F4DB4A48007818B300200D907D
:103B1000FDF776FC34490978491C49B2C170002090
:103B20000C90FDF76DFC40780D904FF4FA60142175
:103B30000C4A0023CDE90432CDE906101846194697
:103B40001A461323CDE90032CDE9021000200346C6
:103B50000C906FE075E04CE148E10000B5000020FA
:103B6000980000203E020020B2000020B00000209B
:103B70007265636569766520523220726F7574696B
:103B80006E67207265717565737420616E6420497B
:103B9000206469646E277420737563636573732092
:103BA000696E205231207265717565737400000072
:103BB0007265636569766564206D756C7469686F9C
:103BC00070207265717565737420616E6420736511
:103BD0006E6420746F20756E726F7574696E6720E5
:103BE0004D61737465720000B9000020B1000020BF
:103BF000B3000020B4000020B6000020B700002071
:103C0000B800002000001040726563656976656445
:103C1000206D756C746920686F70207265717565B0
:103C200073740000BE000020870200209102002073
:103C30009E000020FE48027800780D99FDF7B4FD43
:103C400077E2FC480078C0B300200D900C9019E09A
:103C5000F9490C9801EBC000807801280ED10C982E
:103C600011F830200D98411C0A300D91F3490A5487
:103C70000221F14A0C9802EBC00081700C98401CA4
:103C8000C0B20C900C980528E2DB0020E9490870CE
:103C90000B90FDF7B5FB40780C904FF4FA601421BF
:103CA000E64A0023CDE90432CDE9061019461A464A
:103CB0000D98C0B20C2301E0E5E10DE0CDE9003044
:103CC000CDE90221002003460B90D9480278007804
:103CD0000C99FDF769FD2CE2D948007848B900201D
:103CE0000D90FDF78DFB90F90100D64909788842C7
:103CF00052D0D5480078D14988720BA8FDF75CFBFB
:103D0000C0B20A900020099009E00BA90998095C4B
:103D10000B30CA4A11540998401CC0B20990DDE921
:103D200009018842F1DB4FF4FA601421C34A0023F1
:103D3000CDE90432CDE9061019461A460D230A983A
:103D4000CDE90030CDE9022100200990BE4800787D
:103D50000890B74802780078DDE90813FDF724FDE4
:103D600098B100F013FA09900090B8480078401C10
:103D7000C0B20890B4480078079000200690022254
:103D8000DDE90713FDF70AFA02E00020AE490870EA
:103D90000020AB490870CCE100200D90FDF730FB0E
:103DA000AA490978491C49B2C17000200C90FDF75E
:103DB00027FB40780D904FF4FA6014219F4A0023AE
:103DC000CDE90432CDE90610184619461A460C23EF
:103DD000CDE90032CDE90210002003460C90944852
:103DE000027800780D99FDF7DFFCA2E1FDF70EFCEB
:103DF0009FE1974800780A282ED100200D90FDF70A
:103E0000FFFA48B300F0C2F90D9001231A46009062
:103E10008C4801780078FDF7C1F900200C90FDF77F
:103E2000EFFAC0781421854A00230D90CDE90330C4
:103E3000CDE905210E22CDE90023824802930378C3
:103E40007B4802787F48017879480078FDF76AFC62
:103E50000120784908706CE17D48007811283AD13A
:103E600000200D90FDF7CCFAA0B300200D90FDF7D7
:103E7000C7FA76490978491C49B2C17000200C90F4
:103E8000FDF7BEFA40780D904FF4FA6014216B4AAA
:103E90000023CDE90432CDE90610184619461A462A
:103EA0001223CDE90032CDE90210002003460C9028
:103EB0005F48027800780D99FDF776FC212165486E
:103EC000FEF7FDFA00BF40216248FEF779FA0028AC
:103ED000F9D02EE1FFE75E480078142885D1002054
:103EE0000D90FDF78DFA0028B5D002200DA9002213
:103EF0000392CDE904210690104611460E22CDE929
:103F0000002102904F480378494802784D480178D3
:103F100047480078FDF706FC00200B90FDF770FA8B
:103F20004A490978491C49B2C17000200B9007E04A
:103F300042490B98095C484A11540B98401C0B905D
:103F40000B980A28F4DBFEF705F800200B9007E039
:103F500042490B98095C394A11540B98401C0B904C
:103F60000B980A28F4DB1F213A48FEF7A8FA00BF95
:103F700040213848FEF724FA0028F9D001203849BA
:103F8000087000F003F90C9033E020213148FEF76F
:103F900017FA70B300BF20212E48FEF711FA00284F
:103FA000F9D02C48FEF786FA2E49087000200A90B6
:103FB000FDF726FA40784FF4FA610B9014201F4A5F
:103FC0000023CDE90432CDE90601184619461A4608
:103FD0001523CDE90032CDE90210002003460A90F6
:103FE0001348027800780B99FDF7DEFB00211C488E
:103FF000017000F0CBF80C99081A41F28831884220
:10400000C3D31748007878B300200A90FDF7F8F979
:1040100040780B904FF4FA601421084A0023CDE950
:104020000432CDE90610184619461A4615231CE03D
:10403000B00000209C000020B00100203E020020C3
:104040009D000020B20000209F000020B900002049
:10405000B5000020004800408702002091020020A7
:10406000BC000020BD0000200CE0CDE90032CDE90D
:104070000210002003460A902F48027800780B991E
:10408000FDF792FB55E02D4800782D4909788842CC
:104090001BD12C4800782C490978884215D1284931
:1040A000097891B129480078401CC0B227490870AE
:1040B0000B9000F08EF90022254BCDE90C0100F0A9
:1040C000D5FA05D8FCF7CCFF02E001201F490870A3
:1040D0001B480078194908701B4800781949087076
:1040E000194800780B2824D11A49097809BB002007
:1040F0000D90FDF785F990F9031017480078401CE2
:10410000814216DD15A0FCF76FF815480C490978B7
:10411000405C401C12490A4A1278885408460849F3
:104120000978405C02460D90054801780DA0FCF727
:104130005BF8FFF7B7B80000B00000209A0000203D
:10414000B20000209B000020B50000209900002054
:1041500000001040B3000020B90000206869000092
:10416000660200205F727848656164657246726F0E
:104170006D203A2025640D0A726563656976656471
:104180004E756D203A20256400000000014800684B
:1041900070470000C000002001460022802907DB94
:1041A000A1F5807000EBD0735B10663B1AB205E09E
:1041B000084601EBD0735B10663B1AB250B27047F1
:1041C00000B503461846FDF7A9FD00BD00B503463E
:1041D0001846FDF7A3FD00BD21F00042A2F1605298
:1041E000B2F5801F01F0004328BFD2F17F6C0BD9DC
:1041F0005FEA001C43EAC20242EB507018BF7047EE
:1042000028BF20F001007047B2F5801FBCBF1846E0
:1042100070474FEA410C1CF5001F02D2084600F01F
:1042200016BD70B500F0CEF900000089FFF7F6BFAB
:104230004FF00040A0F580007047000010B591EAF3
:10424000030F48BF83F0004300F14E82841A71EBE4
:10425000030C05D2121943EB0C03001B61EB0C019C
:10426000DFF824E14FEA1154A4EB135C1EEA430F7C
:1042700018BF9EEA445F73D023EA0E03DCF1200EE0
:1042800021EA045143F4801332D322FA0CFE10EBDE
:104290000E0023FA0CFE41EB0E01CCF1200E03FAC6
:1042A0000EFE10EB0E0051F10001B1F5801FCCF1B4
:1042B000200E32D201EB045112FA0EF2BDE810408A
:1042C00058BF7047401C38BF5FEA420218BF7047B2
:1042D000002814BF20F0010041F100014FEA410322
:1042E00013F5001F38BF7047A1F1C04100F0B8B905
:1042F000012A43EB0302ACF1200CDCF11F0E32BFAC
:104300004FF0000E23FA0CF310EB030041EB0451C5
:10431000B4EB115FD0D0A1EB045101F58011490835
:104320005FEA300001EB04510ED350F1000038BFBA
:1043300012FA0EFE08D1BDE81040C9E7401C38BF94
:104340005FEA4202CAD1C3E7BDE810404FEA410329
:1043500013F5001F38BF7047A1F1C04100F080B9CC
:104360009EEA445F08D011EA5E0FBDE8104004BF2A
:1043700001F0004100207047BDE8104070B500F02A
:1043800021F900BF64FBBE3E0000E0FF491058BFAA
:10439000C1F140415B1058BFC3F140438B42EFF382
:1043A0000080704710F0004248BF4042B0FA80F3EE
:1043B00010FA03F10AD0C3F11D0303F580634FEA3D
:1043C000415002EB035202EBD12170474FF0000045
:1043D0007047B0FA80F310FA03F10AD0C3F11D035D
:1043E00003F580634FEA41504FEA035202EBD121BB
:1043F00070474FF00000704751EA030C17D41CF5CA
:10440000801F58BFBCF5801F00F10680994218BF7D
:10441000704708BF9042704707D711F5801F58BFFB
:1044200013F5801F19D499427047894270471CF5D3
:10443000801F08D5BCF5801FF7D58B4218BF704789
:1044400008BF824270474FF4001C1CEB410F38BF7D
:104450001CEB430F01D28B42704770B500F0B2F8ED
:10446000922449004FF000514FF08053FFF78EBF68
:10447000DFF848C170B51CEA111E1EBF1CEA1315F7
:104480009EEA0C0F95EA0C0F00F06F8081EA03049E
:1044900023EA4C134EEAD47E21EA4C1141F48011F8
:1044A00043F48013AE44A1FB024CA0FB0365AEF1C4
:1044B0007F7E361955EB0C05A1FB034C4CF1000334
:1044C000A0FB021C16EB0C06654153F100030942E8
:1044D00018BF46F0010613F4007F0BD14FEA0331F9
:1044E0004FEA0530340341EA155140EA16506FF0A7
:1044F00003020AE04FEAC3214FEAC520F40241EA71
:10450000555140EA56506FF0020202EB2E4201EB89
:10451000025585EACE710AD05FEA440C18BF24F038
:10452000004450F1000041F1000120EAD47040F253
:10453000FE7C624500D270BDA84214BF4FF080449B
:104540004FF04044002E08BF0024BEF1806FA8BF8A
:10455000A1F1C041BDE8704080F282804FF00000C0
:1045600001F1C04101F0004170479EEA0C0F0CEAD6
:10457000131518BF95EA0C0F06D04FF0000081EA22
:10458000030E0EF0004170BD00F01CF88900013EE2
:1045900000F007B800F009B84FEA430C5FEA5C5C32
:1045A00008D081EA030100F05BB84FEA410C5FEAF2
:1045B0005C5CF6D14FF00000014970470000FF0736
:1045C0000000F87F0EF1020E2EF0030E5EF8046B71
:1045D000364205D4012A43EB030515F5001F12D816
:1045E000012841EB010C1CF5001F0CD80ED14FEA3D
:1045F000D17C15F5001F0CEB4C0C0CF1020C08BF24
:104600004CEBD37C04E04FF0080C01E04FEAD37C84
:104610000CEB4C0526FA05F606F00706B6F1040C7D
:1046200006D20EEB860CBDE870404CF0010C6047E2
:10463000DFE80CF0090B02024FF000414FF00000E0
:10464000A1F5002170BD19461046012851EB010467
:1046500018BFD4F5001484BF002001F0004170BDE4
:104660000808A0F500114FEA3101704753EA010C28
:1046700017D41CF5801F58BFBCF5801F00F10680C1
:104680008B4218BF704708BF8242704707D713F5A7
:10469000801F58BF11F5801F19D48B4270479B4271
:1046A00070471CF5801F08D5BCF5801FF7D59942CF
:1046B00018BF704708BF904270474FF4001C1CEBB6
:1046C000430F38BF1CEB410F01D2994270470FB422
:1046D0000CBC03BCFFF7C1BE10B591EA030F48BF85
:1046E00083F000433FF5B2AD841A71EB030C07D29F
:1046F00012198CF0004C43EB0C03001B61EB0C0116
:10470000DFF8A4E14FEA1154A4EB135C1EEA430F57
:1047100018BF9EEA445F00F0B08023EA6E03524265
:1047200021EA0451C3EB6E0338BF5B1EDCF1200E9F
:1047300025D322FA0CFE10EB0E0043FA0CFE41EBDF
:104740000E01CCF1200E03FA0EFE10EB0E0051F11B
:104750000001CCF1200E29D412FA0EF201EB045123
:10476000BDE8104058BF7047401C1CBFB2F1004F5D
:10477000704700280CBF491C20F00100704712EB65
:10478000020E43EB030218BF4FF0010E4EEA420245
:10479000ACF1200CDCF11E0E54D943FA0CFE10EBE8
:1047A0000E0051F1FF31CCF11E0ED5D50EF1010EE8
:1047B00012FA0EFE404141EB010101EB445C5FEA5D
:1047C0005C5C10D910EBDE7001EB045138BFBEF118
:1047D000004FBDE8104018BF704700280CBF491CAF
:1047E00020F00100704730D24FEAD42C11F50011AF
:1047F00024F400641BD0B1FA81F20B3AA41AA41E6F
:10480000D2F12003914030FA03F31943904001EBB9
:10481000CC71002C01EB0451BDE81040A8BF7047DB
:1048200001F1C0414FF0000001F000417047B0FAC3
:1048300080F310FA03F100D110BDE41A173C4805CB
:10484000C90AE4E701EB045110BD491001EB045122
:10485000BDE810404FEA300002E04FF00001704721
:104860004A0008BF0042F8D0B2F5001F28BF7047C9
:1048700001F000414FF0000070479EEA445F07D00E
:1048800011EA5E0FBDE8104004BF00210020704710
:10489000BDE8104070B5FFF795FE00BF40DFF63E63
:1048A00083F00041104670470000E0FF43004FEAEC
:1048B000D30C4FEA3C0C43401FBF40070CF1605142
:1048C00013F0FE4F70471CF0006F03D100200CF076
:1048D000004170470CF0004343EA507010B540EAC5
:1048E000CC0000F06EF900BF000000924FEA00011A
:1048F000FFF7B6BE4FF000414FF00000A1F50021D8
:10490000704700004FF47F0C1CEAD0121EBF1CEA57
:10491000D11392EA0C0F93EA0C0F00F0858090EA15
:10492000010F48BF42F4807240F4000C41F40000D3
:104930002CF07F4120F07F4000B58142A2EB0302C2
:104940000FF2081CACEB504EC0F100009EF800E0E6
:104950004FEA4E0E00FB0EFC38BF49004FEA2C1CFC
:1049600002F5FA020CFB0EF34FEACE1E4FEA112CB1
:104970004FEAC1210EEB635E42EB22420EFB0CFCC0
:104980004FEA1C5300FB03114FEA112C4FEA01318F
:104990000EFB0CFC4FEADC4C00FB0C11C14228BFA3
:1049A00009184CEB03335DF804EB10EB410143EBCA
:1049B000C250B2F57C0F38BF704729D512F0F00F06
:1049C0001CBF00F1C04000F00040704700818283AE
:1049D0008485868788898B8C8D8E8F91929395960E
:1049E00097999A9C9D9FA0A2A3A5A7A8AAACAEB098
:1049F000B2B3B5B7B9BCBEC0C2C5C7C9CCCED1D49D
:104A0000D7D9DCDFE2E6E9ECF0F3F7FAFE000000CC
:104A10004FEA400C0CF1807CBCF17E4F28BF704700
:104A2000B0F1C04000F013B990EA010F0CEAD113C5
:104A300048BF42F48072624538BF634507D213F421
:104A40007F0F16D080EA010000F00040704710B5DB
:104A500000F0B7F8097EFC3E00F005B880EA0100DE
:104A600000F00040704780EA010000F0004000F0D4
:104A7000EEB812F47F0F04BF0248704780EA0100CD
:104A800000F0E5B80000C07F41000B0ED3F19E029C
:104A900008D950F400034FEA032323FA02F048BF79
:104AA0004042704710B500F08CF800BF4992248056
:104AB000002070476FF0004282EA2000704700003B
:104AC0004FF47F0C1CEAD0121EBF1CEAD11392EAED
:104AD0000C0F93EA0C0F00F0478090EA010F48BFDB
:104AE00042F480724FF0004C4CEA00204CEA012165
:104AF00002EB0302A0FB0113A2F50002002918BF7C
:104B000043F001035B0028BF4FEA330342EB22422C
:104B10005FEA132C4CEBC2502EBFBCEB436FB2F5D7
:104B20007C0F70474FEA036CBCF1004F08BF20F0C8
:104B30000100B2F57C0F38BF70470BD582F0FF0241
:104B400012F5803FC8BF704700F1C040D8BF00F0E9
:104B50000040704700F5000C5FEA4C0C48BF7047FE
:104B6000B0F1C04000F073B890EA010F0CEAD11325
:104B700048BF42F48072624538BF634504D280EA80
:104B8000010000F00040704710B500F01AF800BFB7
:104B90008900013E00F007B800F009B85FEA410C57
:104BA0005FEA1C6C08D080EA010000F050B85FEAB0
:104BB000400C5FEA1C6CF6D14FF00040A0F580007D
:104BC00070470EF1020E2EF0030E5EF8044B2442E5
:104BD00004D44FEA4102B2F17F4F11D84FEA4003AB
:104BE000B3F17F4F0CD80ED14FEAD07CB2F17F4F9A
:104BF0000CEB4C0C0CF1020C08BF4CEBD17C04E02C
:104C00004FF0080C01E04FEAD17C0CEB4C0324FA86
:104C100003F404F00704B4F1040C06D20EEB840C88
:104C2000BDE810404CF0010C6047DFE80CF00708CD
:104C300002024FF00040A0F5800010BD084642007F
:104C400018BFD2F1807288BF00F0004010BDFF2174
:104C500041EAD050C00570473A535444494E003A97
:104C60005354444F5554003A535444455252003023
:104C70003132333435363738394142434445464082
:104C80003058003031323334353637383961626369
:104C9000646566403078000053656E64696E672015
:104CA0003A2046726F6D202020546F202020205320
:104CB0006F75726365202044657374205479706544
:104CC000204461746120466C616720536571232024
:104CD000205061796C6F61642E2E2E2E200D0A00FB
:104CE0002A2A2A2A2A2A2A2A2A2A2A2A2A2A2A2A24
:104CF0002A2A2A2A2A636865636B73756D204552D8
:104D0000524F522A2A2A2A2A2A2A2A2A2A2A2A2A8E
:104D10002A2A2A2A2A2A2A2A2A2A2A2A2A2A2A0D10
:104D20000A0000002D2D2D2D2D2D2D2D2D2D2D2D5D
:104D30002D2D2D2D2D2D2D2D2D2D2D2D2D2D2D2DA3
:104D40002D2D2D2D2D2D2D2D2D2D2D2D2D2D2D2D93
:104D50002D2D2D2D2D2D2D2D2D2D2D2D2D2D2D2D83
:104D60002D2D2D2D2D2D2D2D2D2D2D2D2D2D2D2D73
:104D70002D0D0A00944D000800000020F8000000EE
:104D8000280100088C4E0008F800002000090000EF
:104D900044010008000000000000000000000000C6
:104DA0000000000000000000000000000000000003
:104DB00000000000000000000000000000000000F3
:104DC00000000000000000000000000000000000E3
:104DD00000000000000000000000000000000000D3
:104DE00000000000000000000000000000000000C3
:104DF00000000000000000000000000000000000B3
:104E000000000000000000000000000000000000A2
:104E10000000000000000000000000000000000092
:104E20000000000000000000000000000001FFFF83
:104E3000000000FF00000000000000000000000073
:104E40000000000000000000000000000000FF0063
:104E50000100000000000000000000000102030447
:104E600001020304060708090204060800A24A0416
:104E7000000000000000000001020304060708090A
:0C4E800000000000000000000000000026
:04000005080001A945
:00000001FF
