:020000040800F2
:10000000A8090020A9010008B1010008B3010008F7
:10001000B5010008B7010008B901000800000000A0
:10002000000000000000000000000000BB0100080C
:10003000BD01000800000000BF010008891700088A
:10004000C3010008C3010008C3010008C301000880
:10005000C3010008C3010008C3010008C301000870
:10006000C3010008C3010008C30100083D100008D7
:100070005D1000087D1000089D100008BD100008EC
:10008000DD100008FD100008C3010008C3010008CE
:10009000C3010008C3010008C3010008C301000830
:1000A000C3010008C3010008C3010008C301000820
:1000B000F9170008C3010008C3010008C3010008C4
:1000C000C3010008C3010008C3010008C301000800
:1000D000C3010008C301000839180008C301000863
:1000E000C3010008C3010008C301000800F002F8C2
:1000F00000F04AF80AA090E8000C82448344AAF178
:100100000107DA4501D100F03FF8AFF2090EBAE875
:100110000F0013F0010F18BFFB1A43F0010318473B
:10012000B4350000D4350000103A24BF78C878C137
:10013000FAD8520724BF30C830C144BF04680C60ED
:10014000704700000023002400250026103A28BF35
:1001500078C1FBD8520728BF30C148BF0B60704739
:10016000642900F08180782900F0BA80002070476F
:100170001FB59DE8030000F021FC00F01FFA1FBD31
:1001800010B500F084FA10BD00F0B4FA1146FFF784
:10019000EFFF02F053FB00F0B9FB03B4FFF7F0FFF1
:1001A00003BC00F07DFD0000094880470948004776
:1001B000FEE7FEE7FEE7FEE7FEE7FEE7FEE7FEE717
:1001C000FEE7FEE704480549054A064B7047000074
:1001D00099170008ED000008A8030020A8090020D6
:1001E000A8050020A80500200FB4044910B503AAF3
:1001F000029800F083F910BC5DF814FBA002002007
:100200002DE9F0410E460446002020622046E168B8
:10021000884730B3252805D0D4E901219047206ACA
:10022000401CF2E7E168204600278847050018D007
:10023000A5F14100192802D820354FF40067324655
:10024000294620462760FFF78BFF40B1012804D0E4
:10025000F61D26F007060836D8E7361DD6E72846ED
:10026000DAE7206ABDE8F0812DE9F0410646002476
:1002700010687529314616A510D0AFF3008000280C
:1002800002DA404213A507E031688A0701D512A5BA
:1002900002E0490704D511A5012401E0AFF3008075
:1002A00000210A2206F1240709E0B0FBF2FCB0FBB2
:1002B000F2F302FB1C00303078541846491C002829
:1002C000F3D123462A463046BDE8F04100F0BDB8E0
:1002D000000000002D0000002B00000020000000A6
:1002E00070B504460D4621461068AFF300802188A2
:1002F000090502D50F4A7A4402E00E4A7A440E32CA
:10030000002104F1240305E000F00F060009965DCA
:100310005E54491C0028F7D120780023000704D53B
:10032000702D02D009B1022311322046BDE8704081
:1003300000F08BB825330000032A40F2308010F023
:10034000030C00F0158011F8013BBCF1020F624470
:1003500098BF11F801CB00F8013B38BF11F8013B01
:10036000A2F1040298BF00F801CB38BF00F8013BAE
:1003700011F0030300F0D480083AC0F0088051F86F
:10038000043B083A51F804CBA0E80810F5E7121D29
:100390005CBF51F8043B40F8043BAFF30080D20748
:1003A00024BF11F8013B11F801CB48BF11F8012B14
:1003B00024BF00F8013B00F801CB48BF00F8012B37
:1003C000704700004FF0013C50F8042B51F8043BFB
:1003D0009A4221D1A2EB0C03934313EACC1317D119
:1003E00050F8042B51F8043B9A4215D1A2EB0C03B0
:1003F000934313EACC130BD150F8042B51F8043B70
:100400009A4209D1A2EB0C03934313EACC13DBD03D
:100410004FF00000704700BFD01A01BAB1FA81F165
:1004200001F0180122FA01F0CB40C1F12001DBB24A
:10043000C0B2C01A2CFA01F3D11A914311EAC311C8
:10044000E6D170477047704770472DE9F0470D4679
:1004500099469246044600F124080168880604D5AE
:10046000E06921F01001216000E00120A84201DDD7
:10047000471B00E00027A1697A1902EB0900081A5E
:10048000A0612078C00602D42046AFF30080002689
:1004900008E0D4E901211AF806009047206A401CC0
:1004A000761C20624E45F4DB2078C0060AD5204633
:1004B000AFF3008006E0D4E9012130209047206AA4
:1004C000401C2062381EA7F10107F4DC07E0D4E9E4
:1004D000012118F805009047206A401C2062281E60
:1004E000A5F10105F3DC2046AFF30080207800067B
:1004F00002D50220BDE8F0870120FBE7074B70B56D
:100500000D467B4400F043F80446284600F052F8BC
:1005100010B14FF0FF3070BD204670BD13230000B6
:1005200010B5203AC0F00B80B1E81850203AA0E88E
:100530001850B1E81850A0E81850BFF4F5AF5FEAC2
:10054000027C24BFB1E81850A0E8185044BF18C975
:1005500018C0BDE810405FEA827C24BF51F8043B1C
:1005600040F8043B08BF7047D20728BF31F8023B70
:1005700048BF11F8012B28BF20F8023B48BF00F804
:10058000012B704701694A1C02610878704700B569
:100590008FB0CDE901310021059105497944CDE9BC
:1005A000031011466846FFF72BFE0FB000BD000098
:1005B000E5FFFFFF007B00F08000704710B5424868
:1005C000542100F0B3F94148542100F0AFF94048FC
:1005D000542100F0ABF93F493B483C4A3F4B08608F
:1005E0003D490A603A491960531C0365481C10656F
:1005F000012008653B48344A39A1784400F0EAF804
:1006000020B9384878440A3800F089F937482F4A29
:1006100035A1784400F0DEF820B9344878440A382F
:1006200000F07DF932482A4A2FA1784400F0D2F830
:1006300020B92F4878440A3800F071F94023224845
:10064000DC000021224600F0A1F820B125487844C2
:10065000543800F064F91D4822464023002100F080
:1006600095F820B121487844543800F058F91848DA
:1006700022461023002100F089F8002806D01C48EB
:100680007844BDE81040563800F049B910BD104814
:1006900070B5006D20F001040B4800F011F90B4813
:1006A00000F00EF90A4800F00BF909E0206D20F087
:1006B0000105204600F004F9204600F040F82C46E1
:1006C000002CF3D170BD00004C020020A0020020DD
:1006D000F4020020880000208C0000209000002000
:1006E000720000000A30000077000000F92F0000BF
:1006F000E92F0000754600F041F9AE460500694655
:10070000534620F00700854618B020B5FFF75AFD84
:10071000BDE820404FF000064FF000074FF0000802
:100720004FF0000B21F00701AC46ACE8C009ACE883
:10073000C009ACE8C009ACE8C0098D46704770B587
:100740000446051F00F01EF90068002C14BF446821
:1007500070BD002C18BFAC423CBF20466468F8D383
:1007600001680A18AA4218BF456003D12A680546E5
:100770001144016028684119A1421CBF6C6070BD22
:100780006168696021680844286070BD70B5C468FC
:10079000A50713D0650211D4B2F5807F09D0B2F558
:1007A000007F06D0B2F5806F08D1012300F124014B
:1007B00006E05D1E6FF07F46B54201D3012070BD9B
:1007C0000161C361416024F470611143C160002084
:1007D00070BD00002DE9F0410C4607461646104654
:1007E00000F06EF82078611C61280AD0722802D0CF
:1007F00077283CD102E00125002405E002250424ED
:1008000002E0082448F2020511F8010B2B2806D05B
:10081000622809D011F8010C74280AD00BE045F0C9
:10082000030544F00204EFE745F0040544F0010439
:10083000EAE744F010043846214601F0F7F9411C7C
:1008400015D00021316171604FF40071F560F161E4
:100850007061200704D530460222002100F00CF917
:10086000306D40F0010030653046BDE8F081002079
:10087000FBE72DE9F0410D460646104C206DC107FF
:1008800004D0410804D020F00104F7E722460EE02E
:10089000542000F0C2F807000ED0206D47F001018F
:1008A000084354212065384600F040F83A4629466E
:1008B0003046BDE8F0418DE70020D6E74C0200202D
:1008C0002DE9F04704464FF000094FF0FF37C568A7
:1008D000D4E90486A80707D0204600F07DF9304609
:1008E00001F06DF9002802DA3846BDE8F0872805E6
:1008F00002D54046FFF723FF4C21204600F016F8B2
:10090000206D20F0010020654846EEE710B5044652
:10091000AFF300802046BDE81040FFF73EBC10B5A5
:1009200000F0A4F9BDE8104000F09AB94FF00002C1
:1009300000B5134694469646203922BFA0E80C50D5
:10094000A0E80C50B1F12001BFF4F7AF090728BFB0
:10095000A0E80C5048BF0CC05DF804EB890028BF2C
:1009600040F8042B08BF704748BF20F8022B11F055
:10097000804F18BF00F8012B7047000000487047F7
:10098000480300200048704750030020704770471C
:100990007047704738B504460A4600206946AFF3F1
:1009A0000080002808BF38BD02460099204600F0AC
:1009B00084F9012038BD012000F0D3B9F8B5AFF3B8
:1009C0000080054600200C46102000BF0646A819EE
:1009D000A0420DD9324669460020AFF300800700DF
:1009E00008BF00F0BEF90098A04218BF0546C41920
:1009F000FFF7C8FF05600746F01D20F00700461905
:100A0000284600F053F9B44208BFF8BDA21B314696
:100A10003868BDE8F84000F050B970B50646FFF7F9
:100A2000B1FF056806F10B0020F00704B4429CBF3B
:100A3000002070BD2B466A68BAB11068A04210D37E
:100A400004F1080188423CBF5068586007D35168E0
:100A5000101941601168091B016058601460101D75
:100A600070BD13465268002AE7D121462846FFF799
:100A700091FF0028DED170BD2DE9F04104461646F5
:100A80000D464769007B80072ED0384601F0BCF840
:100A900050BB3EB3012E02D0022E25D104E02046E9
:100AA00000F025F905441DE0384601F09BF8E168A7
:100AB000002841F01001E16005DA204600F058F806
:100AC0000120BDE8F081C9030BD56268E16A91425B
:100AD00000D81146A26911442269891A814200DDB9
:100AE00008460544002D01DA0220EAE7E16A606861
:100AF000E268814206D29103E06203D522F400311C
:100B000041F01002A6690027AE4213DCE16A81427F
:100B100001D90B4600E0034603EB060C2369ACEB5E
:100B2000030CAC4506DD814201D98C4600E08446C9
:100B30009C4505D1A760276042F02000A5620DE02A
:100B4000AD1BE669AE1B8142A66000D90846C01AFB
:100B5000281A20605819606022F0200003490840DC
:100B6000E060002084F84870ABE70000BFCFD7FFFB
:100B7000C16821F4001141F08001C1600021816051
:100B8000016070472DE9F047814614460E464FF04C
:100B9000FF383248D5685769054209D03846A169FF
:100BA00001F078F8002811DB2C48C0430540E560CF
:100BB0002B4632464946384601F082F8A16920F0BA
:100BC0000042B21A11440028A16103D02046FFF769
:100BD000CFFF4046BDE8F08770B504460569C06A9E
:100BE0006168884200D80846E16821F42011E1607C
:100BF000C90312D5A84208D02246411B2846FFF758
:100C0000C1FF10B14FF0FF3070BD0020E562C4E9B4
:100C10000150E06820F48030E060002070BD10B525
:100C20000446C06820F02000E060A16AA069884204
:100C30000DD02046FFF7D0FFE06820F4405040F090
:100C40001000E060A06AA0612069E062606044F288
:100C50004001E0688843E06010BD00001000020021
:100C6000002801D000F01CB87047000010B5014604
:100C700002A000F05DF8012010BD0000534947526A
:100C8000545245443A2052656469726563743A204F
:100C900063616E2774206F70656E3A20000000005B
:100CA00001491820ABBEFEE72600020000210160CA
:100CB000C0E90110704710207047034640688C4619
:100CC000002818BF88423CBF03464068F8D3186824
:100CD0001844884207D00CF1030020F00700001DE3
:100CE000411A521A0146081D0A60FFF728BD10B5C7
:100CF0000146C268900703D0900607D5886A0AE0CB
:100D000000F03EF801210160881E10BD8B69486823
:100D100018440B69C01A91F848301BB191F849107A
:100D2000401A10BD1103FCD50028FADD401E10BD8D
:100D300070B505460C460A2000E06D1C00F018F85E
:100D400035B128780028F8D102E0641C00F010F8D2
:100D500014B120780028F8D1BDE870400A2000F0D6
:100D600007B810B500F010F8BDE81040FFF778BFE5
:100D700008B569468DF800000320ABBE08BD70477A
:100D8000004870474803002010B5012805D0002115
:100D900003A0FFF7CDFF012010BD09A1F8E7000077
:100DA00053494752544D454D3A204F7574206F6654
:100DB0002068656170206D656D6F727900000000BC
:100DC0003A2048656170206D656D6F727920636FA0
:100DD000727275707465640070B506460D461446EF
:100DE0000020094908700948067000200849087069
:100DF000084809490860284600F010F9204600F02C
:100E0000E1FF0648047070BD24000020250000208A
:100E100026000020A015FFFF280000201E00002053
:100E200010B501F055FB10BD10B500F081FF08B101
:100E3000012010BD0020FCE7014800787047000049
:100E40002500002001480078704700001F000020A6
:100E500010B501F0ABFC10BD10B501F0ADFC10BD3C
:100E600010B501F0AFFC10BD10B501F0B1FC10BD24
:100E700070B50446204600F0F3FF051E12D0FFF7C0
:100E8000E7FF09490870FFF7EBFF08490870FFF713
:100E9000E3FF07490870FFF7E7FF06490870281FBE
:100EA000C0B270BD0020FCE721000020200000201F
:100EB00022000020230000202DE9F04707460C46C1
:100EC00015461E46DDE9088900BF01F04FFE0E49B8
:100ED0000968401AB0F57A7FF7D3384600F086F8F3
:100EE000204600F08FF8284600F086F8304600F0E3
:100EF0008FF84946404601F0E7F901F037FE024914
:100F00000860BDE8F0870000280000202DE9F05FB0
:100F100080460D4616461F46DDE90A9A4FF0000B43
:100F2000404600F063F8284600F06CF8304600F0C8
:100F300063F8384600F06CF84FF4FA600C90002427
:100F40003DE000BF01F012FE1F490968401AB0F5EC
:100F50007A7FF7D321461DA0FFF746F95146484650
:100F600001F0B2F901F002FE1749086001F0FEFD40
:100F7000834618E0FFF754FFFFF756FF98B1484645
:100F8000FFF776FF78B11448007814490978884251
:100F900003D011480078FF2805D111A0FFF724F9EC
:100FA0000120BDE8F09F01F0E1FDA0EB0B0040F255
:100FB000A4618842DED30C9800F0AEFE641C032CC2
:100FC000BFDB0020EDE7000028000020726574728E
:100FD00079203A2025640000200000201F00002016
:100FE000737563636573730D0A00000010B50446E2
:100FF000204601F0F3FB10BD10B50446204601F079
:10100000F3FB10BD10B50446204601F0F3FB10BD04
:1010100010B50446204601F0F3FB10BD10B50446A0
:10102000204601F0F3FB2046FFF7E0FF0148047083
:1010300010BD00001F0000207047000010B50548DB
:10104000006800F00F04034844602046FFF7F4FFF7
:1010500010BD0000000002407047000010B50548B8
:101060000068C0F303142001024948602046FFF7DE
:10107000F3FF10BD000002407047000010B50548A6
:101080000068C0F303242002024948602046FFF7AD
:10109000F3FF10BD000002407047000010B5054886
:1010A0000068C0F303342003024948602046FFF77C
:1010B000F3FF10BD000002407047000010B5054866
:1010C0000068C0F303442004024948602046FFF74B
:1010D000F3FF10BD000002407047000010B5054846
:1010E0000068C0F303542005024948602046FFF71A
:1010F000F3FF10BD000002407047000010B5054826
:101100000068C0F303642006024948602046FFF7E8
:10111000F3FF10BD0000024008B50420ADF8000048
:1011200003208DF8020018208DF8030069460D4851
:1011300000F01AF80820ADF8000004208DF8030034
:101140006946084800F010F80220ADF800000320BE
:101150008DF8020010208DF803006946014800F068
:1011600003F808BD000801402DE9F04102460025C2
:101170000026002000230024002791F803C00CF073
:101180000F0591F803C00CF0100CBCF1000F03D058
:1011900091F802C04CEA050591F800C0BCF1000FBF
:1011A00031D0146800202BE04FF0010C0CFA00F352
:1011B000B1F800C00CEA03069E4220D183004FF034
:1011C0000F0C0CFA03F7BC4305FA03FC4CEA0404C9
:1011D00091F803C0BCF1280F06D14FF0010C0CFAB6
:1011E00000FCC2F814C00AE091F803C0BCF1480F3B
:1011F00005D14FF0010C0CFA00FCC2F810C0401CE5
:101200000828D1D31460B1F800C0BCF1FF0F34DD61
:10121000546800202EE000F1080C4FF0010808FA95
:101220000CF3B1F800C00CEA03069E4221D1830002
:101230004FF00F0C0CFA03F7BC4305FA03FC4CEA21
:10124000040491F803C0BCF1280F05D100F1080C8B
:1012500008FA0CF8C2F8148091F803C0BCF1480FEA
:1012600007D100F1080C4FF0010808FA0CF8C2F899
:101270001080401C0828CED35460BDE8F08102469F
:10128000002093680B400BB1012000E00020704764
:1012900041617047016170470A49096801F0010125
:1012A00071B108498039096801F0010141B100BFFD
:1012B0004FF0604109680029FAD04FF06042107089
:1012C00070470000800E00E030B5144800684FF40D
:1012D0007A72B0FBF2F1481EB0F1807F00D31BE0C0
:1012E000481E4FF0E022506150170F22002804DB07
:1012F00013071C0E0A4B1C5406E013071D0E094B66
:1013000000F00F04241F1D5500BF00204FF0E02205
:1013100090610720106100BF30BD00007400002004
:1013200000E400E018ED00E008B54FF4E06000F0E4
:1013300045F826208DF8000000208DF802000120DD
:101340008DF80300684600F001F808BD70B5002173
:1013500000230F22C47804B3154C246804F4E0641D
:10136000C4F5E064210AC1F10403CA40447804FAD8
:1013700003F184781440214309010E4C0678A155ED
:10138000047804F01F050124AC4005786D11AD0010
:1013900005F1E025C5F8004109E0047804F01F05D7
:1013A0000124AC40044D0678761145F8264070BD06
:1013B0000CED00E000E400E080E100E002490143C0
:1013C000024A1160704700000000FA050CED00E0D1
:1013D00000B585B00121042000F04AF801218803FE
:1013E00000F046F84FF40070ADF8100003208DF8BF
:1013F000120018208DF8130004A91348FFF7B4FE5B
:101400004FF48060ADF8100004208DF8130004A99B
:101410000D48FFF7A9FE4FF4165000900020ADF8DC
:101420000400ADF80600ADF80800ADF80C000C2083
:10143000ADF80A006946054800F04CFB012103485D
:1014400000F0DFFA05B000BD00080140003801409F
:1014500029B1064AD2690243044BDA6104E0034A27
:10146000D2698243014BDA617047000000100240EC
:1014700029B1064A92690243044B9A6104E0034A87
:1014800092698243014B9A6170470000001002404C
:1014900010B501214804FFF7DBFF10BD30B5002176
:1014A0000022002400232D4D6D6805F00C0121B1B0
:1014B000042905D0082923D105E0294D056022E043
:1014C000274D05601FE0254D6D6805F47012234D12
:1014D0006D6805F48034022505EB92421CB9214D5C
:1014E000554305600BE01D4D6D6805F400351DB1D9
:1014F0001C4D5543056002E0194D5543056002E05F
:10150000174D056000BF00BF144D6D6805F0F00178
:101510000909154D6B5C0568DD4045600F4D6D6830
:1015200005F4E061090A104D6B5C4568DD4085609B
:101530000A4D6D6805F46051C90A0B4D6B5C456836
:10154000DD40C560054D6D6805F44041890B074DD0
:101550006B5CC568B5FBF3F5056130BD001002405A
:1015600000127A0000093D00600000207000002099
:1015700021B1028842F04002028004E002884FF666
:10158000BF731A400280704710B50022028802F42F
:1015900041520B884C8823438C882343CC882343B7
:1015A0000C8923434C8923438C892343CC892343CF
:1015B0001A430280838B4FF2FF74234083830B8A8C
:1015C000038210BD102001490860704710080140D7
:1015D00000B587B001210803FFF74AFF3020ADF8BE
:1015E00014000020ADF81000ADF80E00ADF80C00AE
:1015F000ADF80800ADF816004FF48270ADF80A009F
:101600004FF44070ADF8120002A91448FFF7BCFF78
:1016100001211248FFF7ACFF01210420FFF728FF4A
:10162000E020ADF8040018208DF8070003208DF8A5
:10163000060001A90A48FFF797FD1020ADF8040045
:101640008DF8070003208DF8060001A90448FFF774
:101650008BFDFFF7B7FF07B000BD00000030014071
:101660000008014001460D48818100BF0B480089F8
:1016700000F002000028F9D000BF0848008900F0FF
:1016800001000028F9D000BF0448008900F0800064
:101690000028F9D101488089C0B27047003001406C
:1016A00010B500F001F810BD0CB5002001900090BD
:1016B0003348006840F480303149086000BF30484A
:1016C000006800F4003000900198401C01900098E0
:1016D00018B90198B0F5A06FF1D12948006800F45D
:1016E000003010B10120009001E00020009000982F
:1016F000012843D12348006840F0100021490860C8
:101700000846006820F0030008600846006840F0C2
:10171000020008601A484068194948600846406855
:1017200048600846406840F4806048600846406869
:1017300020F47C1048600846406840F4E810486097
:101740000846006840F08070086000BF0C480068E0
:1017500000F000700028F9D00948406820F003002C
:10176000074948600846406840F00200486000BFF2
:101770000348406800F00C000828F9D10CBD0000B7
:10178000001002400020024002480068401C01494D
:10179000086070475C00002010B51348006840F0F6
:1017A00001001149086008464068104908400E4988
:1017B0004860084600680E4908400B490860084622
:1017C000006820F4802008600846406820F4FE008D
:1017D00048604FF41F008860FFF762FF4FF0006021
:1017E0000449086010BD0000001002400000FFF82E
:1017F000FFFFF6FE08ED00E010B50121880700F0BC
:1018000009F818B10121880700F001F810BDCA439A
:101810000282704730B50246002000230024158A5A
:1018200005EA0103958905EA010413B10CB1012011
:1018300000E0002030BD000070B540F225515B484B
:1018400000F0F8F820B340F22551584800F0CAF8EB
:101850005748007880B9554800F0A8F9C4B2D52C93
:1018600001D0C52C07D1524801780078401C504A5D
:101870001070504844540BE04C4800F097F9C1B246
:101880004B4802780078401C494B187049488154F5
:10189000474800780A287DD1002505E04548415D8C
:1018A00045A0FEF7A1FC6D1C0A2DF7DB43A0FEF757
:1018B0009BFC4048807842490870084600784149BE
:1018C0000978884203DD3E4800783E4908700022CE
:1018D00040F22551354800F0D7F802213A48FFF789
:1018E000D9FC002512E03648007800EB8000374A2A
:1018F00002EB4000415D2D4800F05DF900BF402142
:101900002A4800F08AF80028F9D06D1C0A2DEADB7D
:1019100002212D48FFF7BCFC012240F2255123484B
:1019200000F0B2F80024002003E02249095C4C409A
:10193000401C0928F9DB1F48407AA04227D11D48E6
:101940000078D5280FD100200AE01A49095C1C4A0A
:10195000127802EB82021E4B03EB42021154401C30
:101960000A28F2DB13E013480078C5280FD10020C5
:1019700004E01049095C174A1154401C0A28F8DB9E
:1019800001201549087001F0F1F8144908600020A1
:10199000074900E008E0087001F0E8F81049084A3B
:1019A000127841F8220000BF70BD000000440040E2
:1019B0005000002094000020257820000D0A00002F
:1019C000510000204A00002000080140A80000202B
:1019D000480100209E000020480000205400002004
:1019E000E801002010B50022002340F66A14A1424D
:1019F00000D100BF0A1201249440A3B2DC4304804A
:101A000010BD21B1828942F40052828104E08289B2
:101A10004DF6FF731A408281704702460020B1F5EF
:101A2000007F00D100BF13880B400BB1012000E004
:101A30000020704770B502460024002300250020D6
:101A400040F66A16B14200D100BFC1F3421501F061
:101A50001F03012606FA03F3012D02D196893340B4
:101A600006E0022D02D1168A334001E0968A334007
:101A70000C12012606FA04F41688344013B10CB196
:101A8000012000E0002070BDF0B5034600240026D0
:101A90000025002040F66A17B94200D100BF184661
:101AA000C1F3421401F01F06012707FA06F5012CC5
:101AB00001D10C3004E0022C01D1103000E01430D0
:101AC0001AB107682F43076002E00768AF43076059
:101AD000F0BD00002DE9F04786B005460E46002413
:101AE000A24600BFA1460027B08900B100BF2F4623
:101AF0002C8A4CF6FF700440F08804432C82AC8999
:101B00004EF6F3100440B0883189084371890843C8
:101B10000443AC81AC8A4FF6FF400440B0890443D3
:101B2000AC8201A8FFF7BAFC1F48874202D1DDF85A
:101B300010A001E0DDF80CA0A88900F4004040B13D
:101B40000AEBCA0000EB0A1031684900B0FBF1F85B
:101B500007E00AEBCA0000EB0A1031688900B0FB0D
:101B6000F1F86420B8FBF0F004012009642101FBC6
:101B70001089A88900F4004040B1322000EBC90070
:101B8000B0FBF1F000F00700044308E0322000EB66
:101B900009106421B0FBF1F000F00F0004432C8128
:101BA00006B0BDE8F0870000003801400146888893
:101BB000C0F308007047C1F30802828070470146F5
:101BC0006FF40040084420B1012804D0022806D157
:101BD00003E0002070470020FCE70020FAE74FF008
:101BE000FF30F7E701466FF40040084420B10128B8
:101BF00004D0022806D103E0002070470020FCE753
:101C00000020FAE70020F8E701466FF4004008449E
:101C100020B1012804D0022806D103E0012070473A
:101C20000120FCE70120FAE70020F8E770B5044640
:101C30000D4614B94FF0FF3070BD20783A281AD104
:101C40000EA12046FEF7BEFB10B948F20100F3E7F3
:101C50000CA12046FEF7B6FB10B948F20200EBE7F4
:101C60000AA12046FEF7AEFB10B948F20300E3E7F5
:101C70004FF0FF30E0E74FF0FF30DDE73A535444D8
:101C8000494E00003A5354444F5554003A5354447B
:101C90004552520002466FF40040104420B1012822
:101CA00005D0022809D105E04FF0FF3070474FF012
:101CB000FF30FBE74FF0FF30F8E74FF0FF30F5E77C
:101CC0002DE9F04107460C46154698466FF4004052
:101CD000384420B1012806D002281AD10EE04FF076
:101CE000FF30BDE8F08105E014F8016B304600F0EC
:101CF000D5FF6D1E002DF7D10020F2E705E014F8A6
:101D0000016B304600F0C4FF6D1E002DF7D100209E
:101D1000E7E74FF0FF30E4E700B5014600F026FFAB
:101D2000024600BF00F022FF801A8842FAD300BDAD
:101D300070B5BD2000F0BCFC044604F00F05012185
:101D40000748FFF79CFA40B100BF01210448FFF7A4
:101D500096FA0028F9D1012070BD0020FCE70000B0
:101D6000000C014010B540210348FFF791FA802193
:101D70000148FFF78DFA10BD000C014010B540215D
:101D80000348FFF785FA80210148FFF783FA10BD69
:101D9000000C014008B541F20100ADF8000004203C
:101DA0008DF8030069460648FFF7DEF90121044873
:101DB000FFF770FA4FF480510148FFF76BFA08BD46
:101DC000000C014010B50446002013490870AA20F9
:101DD00012490870BB2012490870CC2011490870C4
:101DE000DD201149087000F095FBFFF7D3FF1021AB
:101DF0000E48FFF74FFA20210C48FFF74BFA8021DD
:101E00000A48FFF745FAFFF7B9FF00F021FA20462C
:101E100000F05CF910BD0000040000200900002063
:101E20000A0000200B0000200C00002000080140E8
:101E30002DE9F041662742F6727000F0F5FB064688
:101E400006F0010048B142F6717000F0EDFB044667
:101E5000E01BC5B22846BDE8F0810020FBE700008A
:101E60002DE9F04F9FB0804665A0FEF7BDF942F620
:101E7000D77000F0D9FB041E02D11FB0BDE8F08F6F
:101E8000ADE0BF2000F0D0FB0446042C01DB322C77
:101E90000EDD5CA0FEF7A8F921466AA0FEF7A4F9C2
:101EA0006420FFF739FF3A2000F002FC0020E4E74D
:101EB000E01C864207D065A0FEF796F93A2000F0B4
:101EC000F7FB0020D9E722466946FF2000F058FBC7
:101ED00002221EA9FF2000F053FB9DF8780000F0BD
:101EE0004BFE5E4908709DF8790000F07F099DF86F
:101EF000790000F0800A0027002504E01DF80500A5
:101F00004740681CC5B2601EA842F7DC1DF80000FF
:101F1000B8420AD05248FEF767F96420FFF7FCFE8A
:101F20003A2000F0C5FB0020A7E7FFF781FF40B291
:101F30004A490870084690F9000010F1780F0ADA53
:101F400048A0FEF751F96420FFF7E6FE3A2000F0C2
:101F5000AFFB002091E752A0FEF746F900F006FE25
:101F60004FF47A71B0FBF1FB594636A0FEF73CF90D
:101F7000002509E01DF805104EA0FEF735F94EA02A
:101F8000FEF732F9681CC5B2A542F3DB1CA0FEF7D0
:101F90002BF99DF80000494908709DF80100484957
:101FA00008709DF80200474908709DF803004649F3
:101FB0000870621F01A94046FEF7BEF9002504E043
:101FC00000200DF80500681CC5B2782DF8DB6420F0
:101FD000FFF7A2FE3A2000F06BFB20464DE742F6E9
:101FE000D77000F021FB064604283FF74AAF642073
:101FF000FFF792FE3A2000F05BFB00203DE7000077
:102000000D0A00002A2A2A2A2A2A2A2A2A2A2A2AC1
:102010002A2053697A65204552524F52203A205463
:102020006F6F2073686F7274206F7220546F6F200F
:102030006C61726765202A2A2A2A2A2A2A2A2A20DB
:102040000000000025640D0A0000000073697A6535
:10205000206D69736D617463680D0A000D000020C6
:10206000903600082A2A2A2A2A2A2A2A2A2A2A2AAA
:102070002A207765616B207369676E616C287273C3
:1020800073692062656C6F77207468726573686F1E
:102090006C64292A2A2A2A2A2A2A2A2A0D0A0000B6
:1020A0002D2D2D2D2D726563656976652D2D2D2DB8
:1020B0002D000000257800002020200005000020D1
:1020C00006000020070000200800002010B504468C
:1020D0000621002000F02CFB0621012000F028FB47
:1020E000B021022000F024FB4021032000F020FB5F
:1020F0000B21082000F01CFB89210A2000F018FBAE
:1021000002210B2000F014FB1C210C2000F010FB1E
:1021100018210D2000F00CFBC621102000F008FB58
:102120001821112000F004FB0521132000F000FB12
:102130005321142000F0FCFA2021172000F0F8FAB7
:102140001921182000F0F4FAA9211C2000F0F0FA5F
:10215000CF211D2000F0ECFA00211E2000F0E8FA4B
:102160001421212000F0E4FA2021282000F0E0FAD8
:102170004F212B2000F0DCFAFF212E2000F0D8FAAE
:1021800000214FF43C5000F0D3FA222142F60170B6
:1021900000F0CEFA6A2142F60C7000F0C9FA2D2147
:1021A00042F60D7000F0C4FA992142F60E7000F06C
:1021B000BFFA002142F6127000F0BAFA5F2142F62F
:1021C000137000F0B5FA402142F6167000F0B0FA34
:1021D0000E2142F6177000F0ABFA032142F6197097
:1021E00000F0A6FA332142F61B7000F0A1FA172185
:1021F00042F61D7000F09CFA502142F61F7000F06C
:1022000097FA6E2142F6207000F092FA142142F6FD
:10221000217000F08DFAAC2142F6227000F088FAAD
:10222000B42142F6277000F083FA0E2142F6327094
:1022300000F07EFA032142F6367000F079FA1021A0
:10224000262000F075FA204600F0DAF810BD0000F4
:1022500010B502211648FFF71BF86420FFF75CFD5C
:1022600002211348FFF716F86420FFF755FD1021EF
:102270001048FFF70DF802E00FA0FDF7B5FF402171
:102280000C48FEF7FCFF0028F6D13020FFF7EAF9F2
:1022900002E00CA0FDF7A8FF40210648FEF7EFFF83
:1022A0000028F6D110210348FEF7F4FF10BD00000E
:1022B000000C0140000801404D49534F20310D0AE8
:1022C00000000000320D0A0070B58AB006460D46C7
:1022D0003BA0FDF789FF322D01DD0AB070BD394802
:1022E00000788DF80000384800788DF801003748F4
:1022F00000788DF80200364800788DF80300042439
:1023000005E0201F305C0DF80400601CC4B2281DDD
:102310008442F6DB00210DF8001000240AE0281D9D
:102320001DF800001DF804104840291D0DF801009B
:10233000601CC4B2281D8442F1DB2648FDF754FF1F
:1023400025A0FDF751FFFFF70DFD002409E01DF862
:10235000041024A0FDF748FF23A0FDF745FF601CF3
:10236000C4B2681DA042F2DC20A0FDF73DFF681D4D
:10237000C1B23F2000F0DCF9681DC2B269467F207F
:1023800000F0B0F9352000F093F900BF4FF4805110
:102390001A48FEF774FF0028F8D000BF4FF48051B0
:1023A0001648FEF76CFF0028F8D16420FFF7B4FC54
:1023B0003B2000F07DF9FFF7E1FC00BF8DE7000056
:1023C0000D0A0000090000200A0000200B00002078
:1023D0000C0000204836000820202020202020204B
:1023E0002020000025640000202020002020202044
:1023F0002020202020200D0A00000000000C0140B9
:102400002DE9F14F88B02F480490089800F026FD80
:1024100006462D4A2D4B00F039FD04460D46049822
:1024200000F01CFF22462B46CDE9000100F06EFCB7
:10243000804600F039FC03904FF08240039901F090
:1024400017F802904FF08F41029801F011F80546FD
:102450004FF0844100F02EFF044600F0EDFF83466C
:1024600058464FEAEB710BEB1141091407914FEA03
:10247000EB710BEB11410914ABEB014A50464FEAEB
:10248000EA710AEB1161091206914FEAEA710AEB4F
:1024900011610912AAEB012105910798C1B242F618
:1024A0000C7000F045F90698C1B242F60D7000F0CC
:1024B0003FF90598C1B242F60E7000F039F909B043
:1024C000BDE8F08F335BD4439A9999999999893FE4
:1024D00070B5BD2000F0ECF8044604F0700514B9A6
:1024E000342000F0E5F804F00F0010B13A2000F0BD
:1024F000DFF8202D02D1342000F0DAF8602D02D16F
:102500003A2000F0D5F8702D02D13B2000F0D0F831
:1025100070BD000008B501210920FEF7A9FFFFF7F3
:1025200057F8C220ADF8000010208DF803000320FA
:102530008DF8020069460A48FEF716FE6420FFF790
:10254000EBFB08A0FDF750FE102108A0FDF74CFEA4
:1025500007A0FDF749FE012107A0FDF745FE08BDD4
:10256000000C014053535F50494E20002564000089
:102570000947444F3020000025640D0A0000000088
:102580002DE9F04705460E4617464FEA252905F086
:10259000FF0AB9F1000F1ED110212248FEF778FE84
:1025A00000BF40211F48FEF76AFE0028F9D14AF01B
:1025B000C0084046FFF756F8002405E00020FFF76A
:1025C00051F83055601CC4B2BC42F7DB10211548ED
:1025D000FEF760FE23E0B9F12F0F20D11021114842
:1025E000FEF756FE00BF40210E48FEF748FE0028C9
:1025F000F9D1D04649F0C000FFF734F84046FFF764
:1026000031F8002405E00020FFF72CF83055601C5D
:10261000C4B2BC42F7DB10210248FEF73BFEBDE826
:10262000F0870000000801402DE9F0410446251222
:10263000E0B20746D5B910211C48FEF729FE00BFBD
:1026400040211A48FEF71BFE0028F9D147F080060A
:102650003046FFF707F80120FFF704F88046102105
:102660001248FEF717FE4046BDE8F0812F2D1BD122
:1026700010210E48FEF70CFE00BF40210B48FEF76C
:10268000FEFD0028F9D145F08000FEF7EBFF38464B
:10269000FEF7E8FF0120FEF7E5FF80461021034822
:1026A000FEF7F8FD4046DFE700BFDDE70008014028
:1026B00070B5044610210A48FEF7EAFD00BF40212C
:1026C0000748FEF7DCFD0028F9D12046FEF7CAFFD7
:1026D000054610210248FEF7DDFD284670BD0000CA
:1026E000000801402DE9F04105460E46174645F029
:1026F000400810210D48FEF7CBFD00BF40210B48DC
:10270000FEF7BDFD0028F9D14046FEF7ABFF0024DF
:1027100004E0305DFEF7A6FF601CC4B2BC42F8DBEB
:1027200010210248FEF7B6FDBDE8F0810008014027
:102730002DE9F04104460E462512E7B2C5B9102135
:102740001948FEF7A5FD6420FFF7E6FA00BF402117
:102750001548FEF794FD0028F9D13846FEF782FFB0
:102760003046FEF77FFF10210F48FEF793FD19E07A
:102770002F2D17D110210C48FEF78AFD00BF4021F4
:102780000948FEF77CFD0028F9D12846FEF76AFFCC
:102790003846FEF767FF3046FEF764FF1021024817
:1027A000FEF778FDBDE8F08100080140014800789F
:1027B00070470000050000200148007870470000C5
:1027C0000700002001480078704700000600002044
:1027D0000148007870470000080000200149087097
:1027E0007047000009000020014908707047000090
:1027F0000B00002001490870704700000A0000200B
:1028000001490870704700000C0000200149087061
:10281000704700000400002070B504460D46E1B288
:102820000548FFF7C8F900BF40210348FFF7F5F856
:102830000028F9D0204670BD003801401FB50020A7
:102840004FE0B52100EB8002B84B03F812100021D5
:1028500000EB800203EB4202517000EB800203EBBD
:102860004202907000EB800203EB4202D170032120
:1028700000EB800203EB4202117100EB800203EBDC
:10288000420251711A2100EB800203EB4202917166
:10289000212100EB800203EB4202D171002100EB09
:1028A000800203EB4202117200EB800203EB420252
:1028B000517200BF12E000EB80029C4B03EB42021E
:1028C000527A00EB8003994D05EB43035B5C5A4061
:1028D00000EB800305EB43035A72491C0929EADB2C
:1028E000401C1028ADDBFEF757FFFEF7D1FDFEF7C9
:1028F0001BFDFEF711FCFEF76BFDFEF7E5FC002467
:102900002FE015E020218A48FFF787F801280FD132
:1029100000BF20218648FFF780F80028F9D08448BE
:10292000FFF744F9C2B22046611CCCB203A90A5495
:10293000042CE7DB9DF80C00CA2812D19DF80D305D
:102940005B061A0E9DF80F109DF80E00FEF744FA74
:10295000FEF778FA77490870FEF76EFA7649087044
:1029600000E0CEE700BFFEF75BFADDE0FEF758FAC5
:10297000FEF75AFA00286ED07048FEF779FA002860
:10298000F9D0FEF765FA6E490870FEF769FA6D49ED
:102990000870FEF761FA6C490870FEF765FA6B493A
:1029A00008706948007864490978884253D16748BB
:1029B0000078162850D1142060490E23CDE900106C
:1029C0005D4802785E4801785A480078FEF774FA4C
:1029D000002003E000215E4A1154401C5D49097843
:1029E0008842F7DD002004E05B49095C534A11543A
:1029F000401C0A28F8DB574800785049887200F0DC
:102A0000CFF8002513E05248405D78B9002004E07B
:102A10005149095C494A1154401C0A28F8DB4D48C9
:102A200000784649887200F0BBF804E06D1C494804
:102A300000788542E7DD00BF4FF4FA6014213F4A79
:102A40001B23CDE9002102903B480278012139483F
:102A50000078FEF75BFA3DE03C480078172839D152
:102A6000002004E03549095C304A1154401C0A2812
:102A7000F8DB00F07BF80546142030490E23CDE941
:102A800000102D4802782E4801782A480078FEF779
:102A900013FA00BF31480068A842FBD3002004E0CD
:102AA0002F49095C254A1154401C0A28F8DB4FF4D1
:102AB000FA601421214A1D23CDE9002102901E480D
:102AC0000278FF211B480078FEF720FA00202549F4
:102AD000087000BF2348007830B300F047F822495F
:102AE0000968401A41F2883188421DD9FEF79CF9E5
:102AF000D0B9002004E01A49095C104A1154401C66
:102B00000A28F8DB4FF47A7014210C4A1C23CDE913
:102B10000021029008480278FF2106480078FEF75D
:102B2000F5F900200F49087020E70000A8000020F8
:102B3000004400404B0000204900002038020020E3
:102B40004C0000204D0000204E0000204F000020CF
:102B5000280200204A00002048010020E80100204F
:102B60009E0000204800002054000020014800681A
:102B7000704700005C00002001460022802907DB2E
:102B8000A1F5807000EBD0735B10663B1AB205E0D4
:102B9000084601EBD0735B10663B1AB250B2704727
:102BA0001CB5142030491A23CDE900102F480278B3
:102BB00001212F480078FEF77FF9FFF7D7FF2D4955
:102BC000086047E0FEF72CF9FEF72EF9002841D007
:102BD0002548FEF74DF900283CD0FEF739F9264983
:102BE0000870FEF73DF925490870FEF735F92449CC
:102BF0000870FEF739F923490870214800781B490D
:102C00000978884226D11F480078192822D100214E
:102C1000002003E0144A125C5140401C0928F9DBF3
:102C20001148407A88420FD100200BE00E4A135C15
:102C3000114A1278521E02EB8202134C04EB42023C
:102C40001354401C0A28F1DB012210480A4B1B7860
:102C5000C25400BFFFF78AFF06490968401A42F2D2
:102C600010718842AED31CBD3802002049000020FC
:102C70004B000020580000204C0000204D00002098
:102C80004E0000204F000020A80000202802002055
:102C900000B503461846FEF7FFFA00BD00B503462F
:102CA0001846FEF7F9FA00BD21F00042A2F1605289
:102CB000B2F5801F01F0004328BFD2F17F6C0BD921
:102CC0005FEA001C43EAC20242EB507018BF704733
:102CD00028BF20F001007047B2F5801FBCBF184626
:102CE00070474FEA410C1CF5001F02D2084600F065
:102CF00086BC70B500F074F900000089FFF7F6BFDC
:102D00004FF00040A0F580007047000010B591EA38
:102D1000030F48BF83F0004300F1BE81841A71EBBA
:102D2000030C05D2121943EB0C03001B61EB0C01E1
:102D3000DFF824E14FEA1154A4EB135C1EEA430FC1
:102D400018BF9EEA445F73D023EA0E03DCF1200E25
:102D500021EA045143F4801332D322FA0CFE10EB23
:102D60000E0023FA0CFE41EB0E01CCF1200E03FA0B
:102D70000EFE10EB0E0051F10001B1F5801FCCF1F9
:102D8000200E32D201EB045112FA0EF2BDE81040CF
:102D900058BF7047401C38BF5FEA420218BF7047F7
:102DA000002814BF20F0010041F100014FEA410367
:102DB00013F5001F38BF7047A1F1C04100F05EB9A4
:102DC000012A43EB0302ACF1200CDCF11F0E32BFF1
:102DD0004FF0000E23FA0CF310EB030041EB04510B
:102DE000B4EB115FD0D0A1EB045101F5801149087B
:102DF0005FEA300001EB04510ED350F1000038BF00
:102E000012FA0EFE08D1BDE81040C9E7401C38BFD9
:102E10005FEA4202CAD1C3E7BDE810404FEA41036E
:102E200013F5001F38BF7047A1F1C04100F026B96B
:102E30009EEA445F08D011EA5E0FBDE8104004BF6F
:102E400001F0004100207047BDE8104070B500F06F
:102E5000C7F800BF64FBBE3E0000E0FF10F0004278
:102E600048BF4042B0FA80F310FA03F10AD0C3F130
:102E70001D0303F580634FEA415002EB035202EB5E
:102E8000D12170474FF0000070470000DFF848C1C3
:102E900070B51CEA111E1EBF1CEA13159EEA0C0F2A
:102EA00095EA0C0F00F06F8081EA030423EA4C13CB
:102EB0004EEAD47E21EA4C1141F4801143F4801390
:102EC000AE44A1FB024CA0FB0365AEF17F7E361938
:102ED00055EB0C05A1FB034C4CF10003A0FB021CBD
:102EE00016EB0C06654153F10003094218BF46F08A
:102EF000010613F4007F0BD14FEA03314FEA05308E
:102F0000340341EA155140EA16506FF003020AE01B
:102F10004FEAC3214FEAC520F40241EA555140EA85
:102F200056506FF0020202EB2E4201EB025585EA89
:102F3000CE710AD05FEA440C18BF24F0004450F16F
:102F4000000041F1000120EAD47040F2FE7C6245AD
:102F500000D270BDA84214BF4FF080444FF04044EF
:102F6000002E08BF0024BEF1806FA8BFA1F1C041B0
:102F7000BDE8704080F282804FF0000001F1C04156
:102F800001F0004170479EEA0C0F0CEA131518BFC0
:102F900095EA0C0F06D04FF0000081EA030E0EF008
:102FA000004170BD00F01CF88900013E00F007B838
:102FB00000F009B84FEA430C5FEA5C5C08D081EA94
:102FC000030100F05BB84FEA410C5FEA5C5CF6D1AC
:102FD0004FF00000014970470000FF070000F87F34
:102FE0000EF1020E2EF0030E5EF8046B364205D48D
:102FF000012A43EB030515F5001F12D8012841EB08
:10300000010C1CF5001F0CD80ED14FEAD17C15F530
:10301000001F0CEB4C0C0CF1020C08BF4CEBD37CEA
:1030200004E04FF0080C01E04FEAD37C0CEB4C05B8
:1030300026FA05F606F00706B6F1040C06D20EEBEA
:10304000860CBDE870404CF0010C6047DFE80CF0E6
:10305000090B02024FF000414FF00000A1F50021E2
:1030600070BD19461046012851EB010418BFD4F574
:10307000001484BF002001F0004170BD0808A0F5D5
:1030800000114FEA3101704710B591EA030F48BFB4
:1030900083F000433FF542AE841A71EB030C07D274
:1030A00012198CF0004C43EB0C03001B61EB0C017C
:1030B000DFF8A4E14FEA1154A4EB135C1EEA430FBE
:1030C00018BF9EEA445F00F0B08023EA6E035242CC
:1030D00021EA0451C3EB6E0338BF5B1EDCF1200E06
:1030E00025D322FA0CFE10EB0E0043FA0CFE41EB46
:1030F0000E01CCF1200E03FA0EFE10EB0E0051F182
:103100000001CCF1200E29D412FA0EF201EB045189
:10311000BDE8104058BF7047401C1CBFB2F1004FC3
:10312000704700280CBF491C20F00100704712EBCB
:10313000020E43EB030218BF4FF0010E4EEA4202AB
:10314000ACF1200CDCF11E0E54D943FA0CFE10EB4E
:103150000E0051F1FF31CCF11E0ED5D50EF1010E4E
:1031600012FA0EFE404141EB010101EB445C5FEAC3
:103170005C5C10D910EBDE7001EB045138BFBEF17E
:10318000004FBDE8104018BF704700280CBF491C15
:1031900020F00100704730D24FEAD42C11F5001115
:1031A00024F400641BD0B1FA81F20B3AA41AA41ED5
:1031B000D2F12003914030FA03F31943904001EB20
:1031C000CC71002C01EB0451BDE81040A8BF704742
:1031D00001F1C0414FF0000001F000417047B0FA2A
:1031E00080F310FA03F100D110BDE41A173C480532
:1031F000C90AE4E701EB045110BD491001EB045189
:10320000BDE810404FEA300002E04FF00001704787
:103210004A0008BF0042F8D0B2F5001F28BF70472F
:1032200001F000414FF0000070479EEA445F07D074
:1032300011EA5E0FBDE8104004BF00210020704776
:10324000BDE8104070B5FFF7CBFE00BF40DFF63E93
:1032500083F00041104670470000E0FF43004FEA52
:10326000D30C4FEA3C0C43401FBF40070CF16051A8
:1032700013F0FE4F70471CF0006F03D100200CF0DC
:10328000004170470CF0004343EA507010B540EA2B
:10329000CC0000F06EF900BF000000924FEA000180
:1032A000FFF7ECBE4FF000414FF00000A1F5002108
:1032B000704700004FF47F0C1CEAD0121EBF1CEABE
:1032C000D11392EA0C0F93EA0C0F00F0858090EA7C
:1032D000010F48BF42F4807240F4000C41F400003A
:1032E0002CF07F4120F07F4000B58142A2EB030229
:1032F0000FF2081CACEB504EC0F100009EF800E04D
:103300004FEA4E0E00FB0EFC38BF49004FEA2C1C62
:1033100002F5FA020CFB0EF34FEACE1E4FEA112C17
:103320004FEAC1210EEB635E42EB22420EFB0CFC26
:103330004FEA1C5300FB03114FEA112C4FEA0131F5
:103340000EFB0CFC4FEADC4C00FB0C11C14228BF09
:1033500009184CEB03335DF804EB10EB410143EB30
:10336000C250B2F57C0F38BF704729D512F0F00F6C
:103370001CBF00F1C04000F0004070470081828314
:103380008485868788898B8C8D8E8F919293959674
:1033900097999A9C9D9FA0A2A3A5A7A8AAACAEB0FE
:1033A000B2B3B5B7B9BCBEC0C2C5C7C9CCCED1D403
:1033B000D7D9DCDFE2E6E9ECF0F3F7FAFE00000033
:1033C0004FEA400C0CF1807CBCF17E4F28BF704767
:1033D000B0F1C04000F013B990EA010F0CEAD1132C
:1033E00048BF42F48072624538BF634507D213F488
:1033F0007F0F16D080EA010000F00040704710B542
:1034000000F0B7F8097EFC3E00F005B880EA010044
:1034100000F00040704780EA010000F0004000F03A
:10342000EEB812F47F0F04BF0248704780EA010033
:1034300000F0E5B80000C07F41000B0ED3F19E0202
:1034400008D950F400034FEA032323FA02F048BFDF
:103450004042704710B500F08CF800BF49922480BC
:10346000002070476FF0004282EA200070470000A1
:103470004FF47F0C1CEAD0121EBF1CEAD11392EA53
:103480000C0F93EA0C0F00F0478090EA010F48BF41
:1034900042F480724FF0004C4CEA00204CEA0121CB
:1034A00002EB0302A0FB0113A2F50002002918BFE2
:1034B00043F001035B0028BF4FEA330342EB224293
:1034C0005FEA132C4CEBC2502EBFBCEB436FB2F53E
:1034D0007C0F70474FEA036CBCF1004F08BF20F02F
:1034E0000100B2F57C0F38BF70470BD582F0FF02A8
:1034F00012F5803FC8BF704700F1C040D8BF00F050
:103500000040704700F5000C5FEA4C0C48BF704764
:10351000B0F1C04000F073B890EA010F0CEAD1138B
:1035200048BF42F48072624538BF634504D280EAE6
:10353000010000F00040704710B500F01AF800BF1D
:103540008900013E00F007B800F009B85FEA410CBD
:103550005FEA1C6C08D080EA010000F050B85FEA16
:10356000400C5FEA1C6CF6D14FF00040A0F58000E3
:1035700070470EF1020E2EF0030E5EF8044B24424B
:1035800004D44FEA4102B2F17F4F11D84FEA400311
:10359000B3F17F4F0CD80ED14FEAD07CB2F17F4F00
:1035A0000CEB4C0C0CF1020C08BF4CEBD17C04E092
:1035B0004FF0080C01E04FEAD17C0CEB4C0324FAED
:1035C00003F404F00704B4F1040C06D20EEB840CEF
:1035D000BDE810404CF0010C6047DFE80CF0070834
:1035E00002024FF00040A0F5800010BD08464200E6
:1035F00018BFD2F1807288BF00F0004010BDFF21DB
:1036000041EAD050C00570473A535444494E003AFD
:103610005354444F5554003A535444455252003089
:1036200031323334353637383941424344454640E8
:1036300030580030313233343536373839616263CF
:10364000646566403078000053656E64696E67207B
:103650003A2046726F6D202020546F202020205386
:103660006F757263652020446573742054797065AA
:10367000204461746120466C61672053657123208A
:10368000205061796C6F61642E2E2E2E200D0A0061
:103690002A2A2A2A2A2A2A2A2A2A2A2A2A2A2A2A8A
:1036A0002A2A2A2A2A636865636B73756D2045523E
:1036B000524F522A2A2A2A2A2A2A2A2A2A2A2A2AF5
:1036C0002A2A2A2A2A2A2A2A2A2A2A2A2A2A2A0D77
:1036D0000A000000F43600080000002094000000FA
:1036E0002801000888370008940000201409000011
:1036F000440100080000000000000000000000007D
:1037000000000000000000000000000000000000B9
:1037100000000000000000000000000000000000A9
:103720000000000000000000000000000000000099
:103730000000000000000000000000000000000089
:103740000000000000000000000000000000000079
:103750000000000000000000010203040102030455
:10376000060708090204060800A24A040000000037
:103770000000000001020304060708090000000021
:08378000000000000000000041
:04000005080001A945
:00000001FF
