:020000040800F2
:10000000300E0020A9010008B1010008B30100086A
:10001000B5010008B7010008B901000800000000A0
:10002000000000000000000000000000BB0100080C
:10003000BD01000800000000BF01000841150008D4
:10004000C3010008C3010008C3010008C301000880
:10005000C3010008C3010008C3010008C301000870
:10006000C3010008C3010008C3010008F10D000826
:10007000110E0008310E0008510E0008710E000824
:10008000910E0008B10E0008C3010008C30100086A
:10009000C3010008C3010008C3010008C301000830
:1000A000C3010008C3010008C3010008C301000820
:1000B000B1150008C3010008C3010008C30100080E
:1000C000C3010008C3010008C3010008C301000800
:1000D000C3010008C301000841160008C30100085D
:1000E000C3010008C3010008C301000800F002F8C2
:1000F00000F04AF80AA090E8000C82448344AAF178
:100100000107DA4501D100F03FF8AFF2090EBAE875
:100110000F0013F0010F18BFFB1A43F0010318473B
:100120003429000054290000103A24BF78C878C14F
:10013000FAD8520724BF30C830C144BF04680C60ED
:10014000704700000023002400250026103A28BF35
:1001500078C1FBD8520728BF30C148BF0B60704739
:10016000642900F08180782900F0BA80002070476F
:100170001FB59DE8030000F0A9FB00F0CFF91FBDFB
:1001800010B500F034FA10BD00F068FA1146FFF720
:10019000EFFF01F061FF00F06DFB03B4FFF7F0FF2C
:1001A00003BC00F005FD00000948804709480047EE
:1001B000FEE7FEE7FEE7FEE7FEE7FEE7FEE7FEE717
:1001C000FEE7FEE704480549054A064B7047000074
:1001D00051150008ED00000830080020300E002006
:1001E000300A0020300A00200FB4044910B503AAD9
:1001F000029800F065F910BC5DF814FB2807002098
:100200002DE9F0410E460446002020622046E168B8
:10021000884730B3252805D0D4E901219047206ACA
:10022000401CF2E7E168204600278847050018D007
:10023000A5F14100192802D820354FF40067324655
:10024000294620462760FFF78BFF40B1012804D0E4
:10025000F61D26F007060836D8E7361DD6E72846ED
:10026000DAE7206ABDE8F0812DE9F0410646002476
:1002700010687529314616A510D0AFF3008000280C
:1002800002DA404213A507E031688A0701D512A5BA
:1002900002E0490704D511A5012401E0AFF3008075
:1002A00000210A2206F1240709E0B0FBF2FCB0FBB2
:1002B000F2F302FB1C00303078541846491C002829
:1002C000F3D123462A463046BDE8F04100F09FB8FE
:1002D000000000002D0000002B00000020000000A6
:1002E00070B504460D4621461068AFF300802188A2
:1002F000090502D50F4A7A4402E00E4A7A440E32CA
:10030000002104F1240305E000F00F060009965DCA
:100310005E54491C0028F7D120780023000704D53B
:10032000702D02D009B1022311322046BDE8704081
:1003300000F06DB8312700004FF0000200B5134601
:1003400094469646203922BFA0E80C50A0E80C50F5
:10035000B1F12001BFF4F7AF090728BFA0E80C50A6
:1003600048BF0CC05DF804EB890028BF40F8042B9F
:1003700008BF704748BF20F8022B11F0804F18BF0C
:1003800000F8012B704700004FF0013C50F8042B9F
:1003900051F8043B9A4221D1A2EB0C03934313EA98
:1003A000CC1317D150F8042B51F8043B9A4215D1C5
:1003B000A2EB0C03934313EACC130BD150F8042B9C
:1003C00051F8043B9A4209D1A2EB0C03934313EA80
:1003D000CC13DBD04FF00000704700BFD01A01BA39
:1003E000B1FA81F101F0180122FA01F0CB40C1F11C
:1003F0002001DBB2C0B2C01A2CFA01F3D11A91432A
:1004000011EAC311E6D170477047704770472DE974
:10041000F0470D4699469246044600F124080168CB
:10042000880604D5E06921F01001216000E0012078
:10043000A84201DD471B00E00027A1697A1902EB01
:100440000900081AA0612078C00602D42046AFF344
:100450000080002608E0D4E901211AF80600904740
:10046000206A401C761C20624E45F4DB2078C006D2
:100470000AD52046AFF3008006E0D4E90121302000
:100480009047206A401C2062381EA7F10107F4DC67
:1004900007E0D4E9012118F805009047206A401CC4
:1004A0002062281EA5F10105F3DC2046AFF3008091
:1004B0002078000602D50220BDE8F0870120FBE786
:1004C000074B70B50D467B4400F011F804462846F2
:1004D00000F020F810B14FF0FF3070BD204670BD25
:1004E0006B1B000001694A1C02610878704700B567
:1004F0008FB0CDE901310021059105497944CDE95D
:10050000031011466846FFF77BFE0FB000BD0000E8
:10051000E5FFFFFF007B00F08000704710B5424808
:100520005421FFF709FF41485421FFF705FF4048D8
:100530005421FFF701FF3F493B483C4A3F4B0860CD
:100540003D490A603A491960531C0365481C10650F
:10055000012008653B48344A39A1784400F0EEF8A0
:1005600020B9384878440A3800F08DF937482F4AC6
:1005700035A1784400F0E2F820B9344878440A38CC
:1005800000F081F932482A4A2FA1784400F0D6F8C9
:1005900020B92F4878440A3800F075F940232248E2
:1005A000DC000021224600F0A5F820B1254878445F
:1005B000543800F068F91D4822464023002100F01D
:1005C00099F820B121487844543800F05CF9184873
:1005D00022461023002100F08DF8002806D01C4888
:1005E0007844BDE81040563800F04DB910BD1048B1
:1005F00070B5006D20F001040B4800F015F90B48B0
:1006000000F012F90A4800F00FF909E0206D20F01F
:100610000105204600F008F9204600F044F82C4679
:10062000002CF3D170BD0000D40600202807002064
:100630007C070020D8000020DC000020E000002023
:1006400072000000B624000077000000A52400001E
:100650009524000000487047D00700207546FFF73A
:10066000F9FFAE4605006946534620F0070085466F
:1006700018B020B5FFF7A6FDBDE820404FF00006FA
:100680004FF000074FF000084FF0000B21F007017A
:10069000AC46ACE8C009ACE8C009ACE8C009ACE8BD
:1006A000C0098D46704770B50446051F00F0F2F88A
:1006B0000068002C14BF446870BD002C18BFAC4209
:1006C0003CBF20466468F8D301680A18AA4218BFE4
:1006D000456003D12A680546114401602868411924
:1006E000A1421CBF6C6070BD6168696021680844EC
:1006F000286070BD70B5C468A50713D0650211D419
:10070000B2F5807F09D0B2F5007F06D0B2F5806FD8
:1007100008D1012300F1240106E05D1E6FF07F4641
:10072000B54201D3012070BD0161C361416024F471
:1007300070611143C160002070BD00002DE9F041DF
:100740000C4607461646104600F06EF82078611CED
:1007500061280AD0722802D077283CD102E0012516
:10076000002405E00225042402E0082448F20205E2
:1007700011F8010B2B2806D0622809D011F8010CC2
:1007800074280AD00BE045F0030544F00204EFE7BB
:1007900045F0040544F00104EAE744F0100438464B
:1007A000214601F031F9411C15D000213161716001
:1007B0004FF40071F560F1617061200704D5304697
:1007C0000222002100F0E0F8306D40F001003065B9
:1007D0003046BDE8F0810020FBE72DE9F0410D46F1
:1007E0000646104C206DC10704D0410804D020F00B
:1007F0000104F7E722460EE0542000F096F80700C7
:100800000ED0206D47F00101084354212065384681
:10081000FFF792FD3A4629463046BDE8F0418DE7A4
:100820000020D6E7D40600202DE9F04704464FF01B
:1008300000094FF0FF37C568D4E90486A80707D040
:10084000204600F051F9304601F0A7F8002802DAFE
:100850003846BDE8F087280502D54046FFF723FF5C
:100860004C212046FFF768FD206D20F00100206537
:100870004846EEE710B50446AFF300802046BDE8D9
:100880001040FFF78ABC10B500F078F9BDE81040C1
:1008900000F06EB900487047D807002070477047D5
:1008A0007047704738B504460A4600206946AFF3E2
:1008B0000080002808BF38BD02460099204600F09D
:1008C00084F9012038BD012000F0D3B9F8B5AFF3A9
:1008D0000080054600200C46102000BF0646A819DF
:1008E000A0420DD9324669460020AFF300800700D0
:1008F00008BF00F0BEF90098A04218BF0546C41911
:10090000FFF7C8FF05600746F01D20F007004619F5
:10091000284600F053F9B44208BFF8BDA21B314687
:100920003868BDE8F84000F050B970B50646FFF7EA
:10093000B1FF056806F10B0020F00704B4429CBF2C
:10094000002070BD2B466A68BAB11068A04210D36F
:1009500004F1080188423CBF5068586007D35168D1
:10096000101941601168091B016058601460101D66
:1009700070BD13465268002AE7D121462846FFF78A
:1009800091FF0028DED170BD2DE9F04104461646E6
:100990000D464769007B80072ED0384601F022F8CB
:1009A00050BB3EB3012E02D0022E25D104E02046DA
:1009B00000F025F905441DE0384601F001F8E16832
:1009C000002841F01001E16005DA204600F058F8F7
:1009D0000120BDE8F081C9030BD56268E16A91424C
:1009E00000D81146A26911442269891A814200DDAA
:1009F00008460544002D01DA0220EAE7E16A606852
:100A0000E268814206D29103E06203D522F400310C
:100A100041F01002A6690027AE4213DCE16A814270
:100A200001D90B4600E0034603EB060C2369ACEB4F
:100A3000030CAC4506DD814201D98C4600E08446BA
:100A40009C4505D1A760276042F02000A5620DE01B
:100A5000AD1BE669AE1B8142A66000D90846C01AEC
:100A6000281A20605819606022F0200003490840CD
:100A7000E060002084F84870ABE70000BFCFD7FFEC
:100A8000C16821F4001141F08001C1600021816042
:100A9000016070472DE9F047814614460E464FF03D
:100AA000FF383248D5685769054209D03846A169F0
:100AB00000F0DEFF002811DB2C48C0430540E56054
:100AC0002B4632464946384600F0E8FFA16920F03F
:100AD0000042B21A11440028A16103D02046FFF75A
:100AE000CFFF4046BDE8F08770B504460569C06A8F
:100AF0006168884200D80846E16821F42011E1606D
:100B0000C90312D5A84208D02246411B2846FFF748
:100B1000C1FF10B14FF0FF3070BD0020E562C4E9A5
:100B20000150E06820F48030E060002070BD10B516
:100B30000446C06820F02000E060A16AA0698842F5
:100B40000DD02046FFF7D0FFE06820F4405040F081
:100B50001000E060A06AA0612069E062606044F279
:100B60004001E0688843E06010BD00001000020012
:100B7000002801D000F01CB87047000010B50146F5
:100B800002A000F05DF8012010BD0000534947525B
:100B9000545245443A2052656469726563743A2040
:100BA00063616E2774206F70656E3A20000000004C
:100BB00001491820ABBEFEE72600020000210160BB
:100BC000C0E90110704710207047034640688C460A
:100BD000002818BF88423CBF03464068F8D3186815
:100BE0001844884207D00CF1030020F00700001DD4
:100BF000411A521A0146081D0A60FFF754BD10B58C
:100C00000146C268900703D0900607D5886A0AE0BB
:100C100000F03EF801210160881E10BD8B69486814
:100C200018440B69C01A91F848301BB191F849106B
:100C3000401A10BD1103FCD50028FADD401E10BD7E
:100C400070B505460C460A2000E06D1C00F018F84F
:100C500035B128780028F8D102E0641C00F010F8C3
:100C600014B120780028F8D1BDE870400A2000F0C7
:100C700007B810B500F010F8BDE81040FFF778BFD6
:100C800008B569468DF800000320ABBE08BD70476B
:100C900000487047D007002010B5012805D000217A
:100CA00003A0FFF7CDFF012010BD09A1F8E7000068
:100CB00053494752544D454D3A204F7574206F6645
:100CC0002068656170206D656D6F727900000000AD
:100CD0003A2048656170206D656D6F727920636F91
:100CE000727275707465640070B504460D461646E0
:100CF0001648057016480470012016490860002047
:100D00001549087015490870154908701049087090
:100D1000144815490860002009E00021134A1154C5
:100D2000FF21134A11540021124A1154401C222859
:100D3000F3DB00F027F8FF200F4908700348007824
:100D400000F046F8304600F005FF70BD2F0000208F
:100D500045000020A8000020390000203A000020B3
:100D60003B000020A015FFFF480000204E0500209A
:100D7000680600208A0600204400002010B501F01B
:100D80009DF810BD002012E000210A4A02EBC002CB
:100D90009170FF21074A02EBC0025170054A02F828
:100DA0003010002102EBC0025160411CC8B21F2864
:100DB000EADB7047700500200148007870470000AA
:100DC0002F00002010B50446204601F027F910BD81
:100DD00010B50446204601F027F92046FFF7F2FF40
:100DE0000148047010BD00002F0000207047000073
:100DF00010B50548006800F00F0403484460204621
:100E0000FFF7F4FF10BD0000000002407047000033
:100E100010B505480068C0F303142001024948607A
:100E20002046FFF7F3FF10BD0000024070470000AE
:100E300010B505480068C0F3032420020249486049
:100E40002046FFF7F3FF10BD00000240704700008E
:100E500010B505480068C0F3033420030249486018
:100E60002046FFF7F3FF10BD00000240704700006E
:100E700010B505480068C0F30344200402494860E7
:100E80002046FFF7F3FF10BD00000240704700004E
:100E900010B505480068C0F30354200502494860B6
:100EA0002046FFF7F3FF10BD00000240704700002E
:100EB00010B505480068C0F3036420060249486085
:100EC0002046FFF7F3FF10BD0000024008B50420E4
:100ED000ADF8000003208DF8020018208DF8030003
:100EE00069460D4800F01AF80820ADF8000004200B
:100EF0008DF803006946084800F010F80220ADF8AC
:100F0000000003208DF8020010208DF803006946D0
:100F1000014800F003F808BD000801402DE9F04148
:100F2000024600250026002000230024002791F817
:100F300003C00CF00F0591F803C00CF0100CBCF1CD
:100F4000000F03D091F802C04CEA050591F800C0EB
:100F5000BCF1000F31D0146800202BE04FF0010CE1
:100F60000CFA00F3B1F800C00CEA03069E4220D14F
:100F700083004FF00F0C0CFA03F7BC4305FA03FC97
:100F80004CEA040491F803C0BCF1280F06D14FF0DD
:100F9000010C0CFA00FCC2F814C00AE091F803C07E
:100FA000BCF1480F05D14FF0010C0CFA00FCC2F85F
:100FB00010C0401C0828D1D31460B1F800C0BCF1A7
:100FC000FF0F34DD546800202EE000F1080C4FF0D4
:100FD000010808FA0CF3B1F800C00CEA03069E42BF
:100FE00021D183004FF00F0C0CFA03F7BC4305FA34
:100FF00003FC4CEA040491F803C0BCF1280F05D1AE
:1010000000F1080C08FA0CF8C2F8148091F803C03B
:10101000BCF1480F07D100F1080C4FF0010808FAA5
:101020000CF8C2F81080401C0828CED35460BDE8EC
:10103000F0810246002093680B400BB1012000E0D4
:101040000020704741617047016170470A49096893
:1010500001F0010171B108498039096801F001010D
:1010600041B100BF4FF0604109680029FAD04FF04C
:101070006042107070470000800E00E030B51448E8
:1010800000684FF47A72B0FBF2F1481EB0F1807F35
:1010900000D31BE0481E4FF0E022506150170F2292
:1010A000002804DB13071C0E0A4B1C5406E0130730
:1010B0001D0E094B00F00F04241F1D5500BF00201A
:1010C0004FF0E02290610720106100BF30BD0000AA
:1010D000C400002000E400E018ED00E008B54FF483
:1010E000E06000F045F826208DF8000000208DF823
:1010F000020001208DF80300684600F001F808BDE9
:1011000070B5002100230F22C47804B3154C246865
:1011100004F4E064C4F5E064210AC1F10403CA40A8
:10112000447804FA03F184781440214309010E4CF9
:101130000678A155047804F01F050124AC40057819
:101140006D11AD0005F1E025C5F8004109E0047816
:1011500004F01F050124AC40044D0678761145F8D3
:10116000264070BD0CED00E000E400E080E100E00E
:1011700002490143024A1160704700000000FA056D
:101180000CED00E000B585B000F0E2F9012104208B
:1011900000F04AF80121880300F046F84FF400708F
:1011A000ADF8100003208DF8120018208DF8130000
:1011B00004A91348FFF7B2FE4FF48060ADF81000A9
:1011C00004208DF8130004A90D48FFF7A7FE4FF483
:1011D000165000900020ADF80400ADF80600ADF800
:1011E0000800ADF80C000C20ADF80A00694605486F
:1011F00000F05EFB0121034800F0F1FA05B000BDEC
:10120000000801400038014029B1064AD269024372
:10121000044BDA6104E0034AD2698243014BDA618C
:10122000704700000010024029B1064A926902434B
:10123000044B9A6104E0034A92698243014B9A612C
:10124000704700000010024010B501214804FFF76C
:10125000DBFF10BD30B500210022002400232D4DFE
:101260006D6805F00C0121B1042905D0082923D1AE
:1012700005E0294D056022E0274D05601FE0254D62
:101280006D6805F47012234D6D6805F480340225F5
:1012900005EB92421CB9214D554305600BE01D4DF5
:1012A0006D6805F400351DB11C4D5543056002E025
:1012B000194D5543056002E0174D056000BF00BFA2
:1012C000144D6D6805F0F0010909154D6B5C05685A
:1012D000DD4045600F4D6D6805F4E061090A104D71
:1012E0006B5C4568DD4085600A4D6D6805F46051B2
:1012F000C90A0B4D6B5C4568DD40C560054D6D68E6
:1013000005F44041890B074D6B5CC568B5FBF3F5EF
:10131000056130BD0010024000127A0000093D0056
:10132000AD000020BD00002021B1028842F0400243
:10133000028004E002884FF6BF731A4002807047B3
:1013400010B50022028802F441520B884C882343D6
:101350008C882343CC8823430C8923434C89234323
:101360008C892343CC8923431A430280838B4FF219
:10137000FF74234083830B8A038210BD1020014930
:10138000086070471008014000B587B001210803CC
:10139000FFF74AFF3020ADF814000020ADF8100030
:1013A000ADF80E00ADF80C00ADF80800ADF8160071
:1013B0004FF48270ADF80A004FF44070ADF812009F
:1013C00002A91448FFF7BCFF01211248FFF7ACFF48
:1013D00001210420FFF728FFE020ADF804001820C9
:1013E0008DF8070003208DF8060001A90A48FFF7D1
:1013F00095FD1020ADF804008DF8070003208DF84E
:10140000060001A90448FFF789FDFFF7B7FF07B001
:1014100000BD0000003001400008014001460D48B9
:10142000818100BF0B48008900F002000028F9D03C
:1014300000BF0848008900F001000028F9D000BF73
:101440000448008900F080000028F9D10148808913
:10145000C0B270470030014010B500F001F810BD77
:101460000CB50020019000903348006840F48030B3
:101470003149086000BF3048006800F40030009037
:101480000198401C0190009818B90198B0F5A06F20
:10149000F1D12948006800F4003010B1012000901B
:1014A00001E0002000900098012843D12348006803
:1014B00040F01000214908600846006820F0030051
:1014C00008600846006840F0020008601A4840685A
:1014D000194948600846406848600846406840F43A
:1014E000806048600846406820F47C1048600846E8
:1014F000406840F4E81048600846006840F080709A
:10150000086000BF0C48006800F000700028F9D0A7
:101510000948406820F003000749486008464068D1
:1015200040F00200486000BF0348406800F00C0033
:101530000828F9D10CBD0000001002400020024034
:1015400002480068401C0149086070474C000020B8
:1015500010B51348006840F00100114908600846C2
:101560004068104908400E494860084600680E4926
:1015700008400B4908600846006820F48020086095
:101580000846406820F4FE0048604FF41F00886061
:10159000FFF762FF4FF000600449086010BD0000D3
:1015A000001002400000FFF8FFFFF6FE08ED00E02B
:1015B00010B50121880700F009F818B1012188074A
:1015C00000F001F810BDCA430282704730B50246F0
:1015D000002000230024158A05EA0103958905EA05
:1015E000010413B10CB1012000E0002030BD000067
:1015F0001FB54FF4165000900020ADF80400ADF870
:101600000600ADF80800ADF80C000C20ADF80A009B
:101610006946094800F04CF9012240F2255106487C
:1016200000F020F90121044800F0D9F80221034814
:10163000FFF708FD1FBD0000004400400008014006
:1016400070B540F22551534800F0E2F820B340F263
:101650002551504800F0B4F84F48007880B94D4803
:1016600000F092F9C4B2D52C01D0C52C07D14A485C
:1016700001780078401C484A1070484844540BE0F8
:10168000444800F081F9C1B2434802780078401C18
:10169000414B1870414881543F4800780A2878D15E
:1016A000002505E03D48415D3DA0FEF79DFD6D1C18
:1016B0000A2DF7DB3BA0FEF797FD384880783A49C2
:1016C0000870002240F22551324800F0CBF8022188
:1016D0003648FFF7B9FC002512E03348007800EBEC
:1016E0008000334A02EB4000415D2A4800F051F986
:1016F00000BF4021274800F07EF80028F9D06D1C7B
:101700000A2DEADB02212948FFF79CFC012240F266
:101710002551204800F0A6F80024002003E01F49CE
:10172000095C4C40401C0928F9DB1C48407AA04267
:101730002BD11A480078BD280FD100200AE01749A4
:10174000095C194A127802EB82021A4B03EB42023F
:101750001154401C0A28F2DB17E010480078BE281C
:1017600013D100200AE00D49095C0F4A127802EB00
:101770008202114B03EB42021154401C0A28F2DB97
:1017800001200E49084A1278885400200249087046
:1017900000BF70BD004400409700002044050020B9
:1017A000257820000D0A0000980000200008014064
:1017B000E4000020240200208403002064030020B1
:1017C00010B50022002340F66A14A14200D100BFE8
:1017D0000A1201249440A3B2DC43048010BD21B15D
:1017E000828942F40052828104E082894DF6FF73BF
:1017F0001A408281704702460020B1F5007F00D177
:1018000000BF13880B400BB1012000E0002070479F
:1018100070B50246002400230025002040F66A1619
:10182000B14200D100BFC1F3421501F01F030126F0
:1018300006FA03F3012D02D19689334006E0022D0A
:1018400002D1168A334001E0968A33400C120126F9
:1018500006FA04F41688344013B10CB1012000E0FC
:10186000002070BDF0B503460024002600250020AE
:1018700040F66A17B94200D100BF1846C1F34214BE
:1018800001F01F06012707FA06F5012C01D10C30E3
:1018900004E0022C01D1103000E014301AB10768C6
:1018A0002F43076002E00768AF430760F0BD000008
:1018B0002DE9F04786B005460E460024A24600BF3B
:1018C000A1460027B08900B100BF2F462C8A4CF6F4
:1018D000FF700440F08804432C82AC894EF6F3106C
:1018E0000440B08831890843718908430443AC81BE
:1018F000AC8A4FF6FF400440B0890443AC8201A893
:10190000FFF7A8FC1F48874202D1DDF810A001E0D4
:10191000DDF80CA0A88900F4004040B10AEBCA0031
:1019200000EB0A1031684900B0FBF1F807E00AEB60
:10193000CA0000EB0A1031688900B0FBF1F864209E
:10194000B8FBF0F004012009642101FB1089A8898B
:1019500000F4004040B1322000EBC900B0FBF1F0D0
:1019600000F00700044308E0322000EB0910642176
:10197000B0FBF1F000F00F0004432C8106B0BDE88D
:10198000F08700000038014001468888C0F3080055
:101990007047C1F308028280704701466FF400402F
:1019A000084420B1012804D0022806D103E0002019
:1019B00070470020FCE70020FAE74FF0FF30F7E720
:1019C00001466FF40040084420B1012804D00228E9
:1019D00006D103E0002070470020FCE70020FAE772
:1019E0000020F8E701466FF40040084420B10128C8
:1019F00004D0022806D103E0012070470120FCE753
:101A00000120FAE70020F8E770B504460D4614B946
:101A10004FF0FF3070BD20783A281AD10EA1204631
:101A2000FEF7B2FC10B948F20100F3E70CA1204622
:101A3000FEF7AAFC10B948F20200EBE70AA1204623
:101A4000FEF7A2FC10B948F20300E3E74FF0FF30C5
:101A5000E0E74FF0FF30DDE73A535444494E0000D1
:101A60003A5354444F5554003A535444455252004B
:101A700002466FF40040104420B1012805D002282E
:101A800009D105E04FF0FF3070474FF0FF30FBE722
:101A90004FF0FF30F8E74FF0FF30F5E72DE9F04168
:101AA00007460C46154698466FF40040384420B16E
:101AB000012806D002281AD10EE04FF0FF30BDE811
:101AC000F08105E014F8016B304600F0EDFA6D1E70
:101AD000002DF7D10020F2E705E014F8016B304645
:101AE00000F0DCFA6D1E002DF7D10020E7E74FF083
:101AF000FF30E4E700B5014600F0CAFA024600BF35
:101B000000F0C6FA801A8842FAD300BD10B5402111
:101B10000348FFF797FA80210148FFF795FA10BDB7
:101B2000000C014008B541F20100ADF800000420AE
:101B30008DF8030069460648FFF7F0F901210448D3
:101B4000FFF782FA4FF480510148FFF77DFA08BD94
:101B5000000C014010B5044600201B490870AA2063
:101B60001A490870BB201A490870CC20194908701E
:101B7000DD2019490870EE2018490870DD20184949
:101B80000870FF2017490870002017490870FFF7F8
:101B9000F9FAFFF773FA00F0B3F9FFF7C3FF10216A
:101BA0001248FFF751FA20211048FFF74DFA802123
:101BB0000E48FFF747FAFFF7A9FF00F0DBF82046D1
:101BC00000F016F810BD0000040000200E000020F8
:101BD0000F00002010000020110000201200002043
:101BE0001300002014000020150000200008014010
:101BF00010B504460621002000F0D2F9062101208C
:101C000000F0CEF9B021022000F0CAF940210320F3
:101C100000F0C6F90B21082000F0C2F989210A2042
:101C200000F0BEF902210B2000F0BAF91C210C20B3
:101C300000F0B6F918210D2000F0B2F9C6211020ED
:101C400000F0AEF91821112000F0AAF905211320A7
:101C500000F0A6F95321142000F0A2F9202117204A
:101C600000F09EF91921182000F09AF9A9211C20F2
:101C700000F096F9CF211D2000F092F900211E20DE
:101C800000F08EF91421212000F08AF9202128206B
:101C900000F086F94F212B2000F082F9FF212E2041
:101CA00000F07EF900214FF43C5000F079F9222138
:101CB00042F6017000F074F96A2142F60C7000F0EF
:101CC0006FF92D2142F60D7000F06AF9992142F664
:101CD0000E7000F065F9002142F6127000F060F914
:101CE0005F2142F6137000F05BF9402142F6167056
:101CF00000F056F90E2142F6177000F051F9032159
:101D000042F6197000F04CF9332142F61B7000F0D6
:101D100047F9172142F61D7000F042F9502142F6B2
:101D20001F7000F03DF96E2142F6207000F038F986
:101D3000142142F6217000F033F9AC2142F62270F2
:101D400000F02EF9B42142F6277000F029F90E2197
:101D500042F6327000F024F9032142F6367000F0AA
:101D60001FF91021262000F01BF9204600F03EF854
:101D700010BD000010B502211648FFF763F964207A
:101D8000FFF7B8FE02211348FFF75EF96420FFF762
:101D9000B1FE10211048FFF755F902E00FA0FEF741
:101DA00023FA40210C48FFF744F90028F6D13020EF
:101DB000FFF734FB02E00CA0FEF716FA40210648BC
:101DC000FFF737F90028F6D110210348FFF73CF957
:101DD00010BD0000000C0140000801404D49534F68
:101DE00020310D0A00000000320D0A002DE9F14FEC
:101DF00088B02F480490089800F036FA06462D4A1D
:101E00002D4B00F049FA04460D46049800F02CFCD6
:101E100022462B46CDE9000100F07EF9804600F015
:101E200049F903904FF08240039900F027FD02909A
:101E30004FF08F41029800F021FD05464FF084419C
:101E400000F03EFC044600F0FDFC834658464FEA95
:101E5000EB710BEB1141091407914FEAEB710BEB9E
:101E600011410914ABEB014A50464FEAEA710AEB03
:101E70001161091206914FEAEA710AEB1161091228
:101E8000AAEB012105910798C1B242F60C7000F04F
:101E900087F80698C1B242F60D7000F081F80598F7
:101EA000C1B242F60E7000F07BF809B0BDE8F08FC9
:101EB000335BD4439A9999999999893F70B5BD201C
:101EC00000F054F8044604F0700514B9342000F012
:101ED0004DF804F00F0010B13A2000F047F8202D23
:101EE00002D1342000F042F8602D02D13A2000F0F7
:101EF0003DF8702D02D13B2000F038F870BD000095
:101F000008B501210920FFF78FF9FFF73DFAC2203C
:101F1000ADF8000010208DF8030003208DF80200BA
:101F200069460A48FEF7FAFF6420FFF7E3FD08A0C0
:101F3000FEF75AF9102108A0FEF756F907A0FEF7A0
:101F400053F9012107A0FEF74FF908BD000C01402D
:101F500053535F50494E2000256400000947444F09
:101F60003020000025640D0A0000000070B5044612
:101F700010210A48FFF766F800BF40210748FFF725
:101F800058F80028F9D12046FFF748FA05461021F5
:101F90000248FFF759F8284670BD000000080140CC
:101FA0002DE9F04104460E462512E7B2C5B91021CD
:101FB0001948FFF747F86420FFF79CFD00BF402158
:101FC0001548FFF736F80028F9D13846FFF726FA0A
:101FD0003046FFF723FA10210F48FFF735F819E0D4
:101FE0002F2D17D110210C48FFF72CF800BF4021EE
:101FF0000948FFF71EF80028F9D12846FFF70EFA26
:102000003846FFF70BFA3046FFF708FA102102486E
:10201000FFF71AF8BDE8F081000801400149087097
:10202000704700000E000020014908707047000052
:102030000400002070B504460D46E1B20548FFF7E4
:10204000A8FC00BF40210348FFF7D5FB0028F9D0CA
:10205000204670BD003801400F2200210846FEF7DF
:1020600043FEFEF7A9FE08490870FEF787FEFFF75A
:10207000EBF8FFF733F8FEF729FFFFF7B9FA02E0B4
:1020800002A0FEF7B1F8FBE78400002068690000B9
:1020900001480068704700004C00002000B503466E
:1020A0001846FEF7D3FF00BD00B503461846FEF7FD
:1020B000CDFF00BD21F00042A2F16052B2F5801FB9
:1020C00001F0004328BFD2F17F6C0BD95FEA001CFE
:1020D00043EAC20242EB507018BF704728BF20F09D
:1020E00001007047B2F5801FBCBF184670474FEA29
:1020F000410C1CF5001F02D2084600F086BC70B5EA
:1021000000F074F900000089FFF7F6BF4FF00040BF
:10211000A0F580007047000010B591EA030F48BF9A
:1021200083F0004300F1BE81841A71EB030C05D2E9
:10213000121943EB0C03001B61EB0C01DFF824E1E7
:102140004FEA1154A4EB135C1EEA430F18BF9EEA3A
:10215000445F73D023EA0E03DCF1200E21EA045120
:1021600043F4801332D322FA0CFE10EB0E0023FA54
:102170000CFE41EB0E01CCF1200E03FA0EFE10EB2B
:102180000E0051F10001B1F5801FCCF1200E32D2CA
:1021900001EB045112FA0EF2BDE8104058BF70472F
:1021A000401C38BF5FEA420218BF7047002814BFC6
:1021B00020F0010041F100014FEA410313F5001F37
:1021C00038BF7047A1F1C04100F05EB9012A43EB6E
:1021D0000302ACF1200CDCF11F0E32BF4FF0000EF9
:1021E00023FA0CF310EB030041EB0451B4EB115F45
:1021F000D0D0A1EB045101F5801149085FEA30000D
:1022000001EB04510ED350F1000038BF12FA0EFE5C
:1022100008D1BDE81040C9E7401C38BF5FEA420260
:10222000CAD1C3E7BDE810404FEA410313F5001FD0
:1022300038BF7047A1F1C04100F026B99EEA445F63
:1022400008D011EA5E0FBDE8104004BF01F0004164
:1022500000207047BDE8104070B500F0C7F800BF1F
:1022600064FBBE3E0000E0FF10F0004248BF404269
:10227000B0FA80F310FA03F10AD0C3F11D0303F59D
:1022800080634FEA415002EB035202EBD1217047C9
:102290004FF0000070470000DFF848C170B51CEA3D
:1022A000111E1EBF1CEA13159EEA0C0F95EA0C0FB7
:1022B00000F06F8081EA030423EA4C134EEAD47ED7
:1022C00021EA4C1141F4801143F48013AE44A1FB88
:1022D000024CA0FB0365AEF17F7E361955EB0C0571
:1022E000A1FB034C4CF10003A0FB021C16EB0C06F7
:1022F000654153F10003094218BF46F0010613F48B
:10230000007F0BD14FEA03314FEA0530340341EA35
:10231000155140EA16506FF003020AE04FEAC3215C
:102320004FEAC520F40241EA555140EA56506FF099
:10233000020202EB2E4201EB025585EACE710AD071
:102340005FEA440C18BF24F0004450F1000041F152
:10235000000120EAD47040F2FE7C624500D270BDDC
:10236000A84214BF4FF080444FF04044002E08BFF5
:102370000024BEF1806FA8BFA1F1C041BDE870404C
:1023800080F282804FF0000001F1C04101F0004175
:1023900070479EEA0C0F0CEA131518BF95EA0C0F54
:1023A00006D04FF0000081EA030E0EF0004170BD30
:1023B00000F01CF88900013E00F007B800F009B8F1
:1023C0004FEA430C5FEA5C5C08D081EA030100F04D
:1023D0005BB84FEA410C5FEA5C5CF6D14FF000005D
:1023E000014970470000FF070000F87F0EF1020E60
:1023F0002EF0030E5EF8046B364205D4012A43EB3F
:10240000030515F5001F12D8012841EB010C1CF53E
:10241000001F0CD80ED14FEAD17C15F5001F0CEB34
:102420004C0C0CF1020C08BF4CEBD37C04E04FF0D9
:10243000080C01E04FEAD37C0CEB4C0526FA05F6BC
:1024400006F00706B6F1040C06D20EEB860CBDE8CA
:1024500070404CF0010C6047DFE80CF0090B020201
:102460004FF000414FF00000A1F5002170BD19466A
:102470001046012851EB010418BFD4F5001484BFA5
:10248000002001F0004170BD0808A0F500114FEADE
:102490003101704710B591EA030F48BF83F0004344
:1024A0003FF542AE841A71EB030C07D212198CF07F
:1024B000004C43EB0C03001B61EB0C01DFF8A4E1C3
:1024C0004FEA1154A4EB135C1EEA430F18BF9EEAB7
:1024D000445F00F0B08023EA6E03524221EA0451C7
:1024E000C3EB6E0338BF5B1EDCF1200E25D322FA4E
:1024F0000CFE10EB0E0043FA0CFE41EB0E01CCF18A
:10250000200E03FA0EFE10EB0E0051F10001CCF18B
:10251000200E29D412FA0EF201EB0451BDE810404E
:1025200058BF7047401C1CBFB2F1004F70470028D5
:102530000CBF491C20F00100704712EB020E43EB68
:10254000030218BF4FF0010E4EEA4202ACF1200C1C
:10255000DCF11E0E54D943FA0CFE10EB0E0051F1C3
:10256000FF31CCF11E0ED5D50EF1010E12FA0EFE82
:10257000404141EB010101EB445C5FEA5C5C10D936
:1025800010EBDE7001EB045138BFBEF1004FBDE827
:10259000104018BF704700280CBF491C20F00100F4
:1025A000704730D24FEAD42C11F5001124F40064A6
:1025B0001BD0B1FA81F20B3AA41AA41ED2F1200367
:1025C000914030FA03F31943904001EBCC71002C99
:1025D00001EB0451BDE81040A8BF704701F1C041B4
:1025E0004FF0000001F000417047B0FA80F310FA9C
:1025F00003F100D110BDE41A173C4805C90AE4E70D
:1026000001EB045110BD491001EB0451BDE810402D
:102610004FEA300002E04FF0000170474A0008BF67
:102620000042F8D0B2F5001F28BF704701F000410A
:102630004FF0000070479EEA445F07D011EA5E0F3A
:10264000BDE8104004BF002100207047BDE81040E5
:1026500070B5FFF7CBFE00BF40DFF63E83F00041D0
:10266000104670470000E0FF43004FEAD30C4FEAEA
:102670003C0C43401FBF40070CF1605113F0FE4F6C
:1026800070471CF0006F03D100200CF00041704730
:102690000CF0004343EA507010B540EACC0000F063
:1026A0006EF900BF000000924FEA0001FFF7ECBE98
:1026B0004FF000414FF00000A1F5002170470000ED
:1026C0004FF47F0C1CEAD0121EBF1CEAD11392EA11
:1026D0000C0F93EA0C0F00F0858090EA010F48BFC1
:1026E00042F4807240F4000C41F400002CF07F4171
:1026F00020F07F4000B58142A2EB03020FF2081CDC
:10270000ACEB504EC0F100009EF800E04FEA4E0ED8
:1027100000FB0EFC38BF49004FEA2C1C02F5FA0200
:102720000CFB0EF34FEACE1E4FEA112C4FEAC121EB
:102730000EEB635E42EB22420EFB0CFC4FEA1C5395
:1027400000FB03114FEA112C4FEA01310EFB0CFC88
:102750004FEADC4C00FB0C11C14228BF09184CEBBE
:1027600003335DF804EB10EB410143EBC250B2F5CB
:102770007C0F38BF704729D512F0F00F1CBF00F155
:10278000C04000F0004070470081828384858687C6
:1027900088898B8C8D8E8F919293959697999A9C20
:1027A0009D9FA0A2A3A5A7A8AAACAEB0B2B3B5B78F
:1027B000B9BCBEC0C2C5C7C9CCCED1D4D7D9DCDF65
:1027C000E2E6E9ECF0F3F7FAFE0000004FEA400C15
:1027D0000CF1807CBCF17E4F28BF7047B0F1C04047
:1027E00000F013B990EA010F0CEAD11348BF42F48C
:1027F0008072624538BF634507D213F47F0F16D04D
:1028000080EA010000F00040704710B500F0B7F812
:10281000097EFC3E00F005B880EA010000F00040AF
:10282000704780EA010000F0004000F0EEB812F4BA
:102830007F0F04BF0248704780EA010000F0E5B84E
:102840000000C07F41000B0ED3F19E0208D950F466
:1028500000034FEA032323FA02F048BF40427047C7
:1028600010B500F08CF800BF49922480002070471A
:102870006FF0004282EA2000704700004FF47F0CA6
:102880001CEAD0121EBF1CEAD11392EA0C0F93EA85
:102890000C0F00F0478090EA010F48BF42F48072AD
:1028A0004FF0004C4CEA00204CEA012102EB0302FD
:1028B000A0FB0113A2F50002002918BF43F0010399
:1028C0005B0028BF4FEA330342EB22425FEA132C3E
:1028D0004CEBC2502EBFBCEB436FB2F57C0F704780
:1028E0004FEA036CBCF1004F08BF20F00100B2F5C5
:1028F0007C0F38BF70470BD582F0FF0212F5803F86
:10290000C8BF704700F1C040D8BF00F0004070471A
:1029100000F5000C5FEA4C0C48BF7047B0F1C040B6
:1029200000F073B890EA010F0CEAD11348BF42F4EB
:102930008072624538BF634504D280EA010000F02E
:102940000040704710B500F01AF800BF8900013E42
:1029500000F007B800F009B85FEA410C5FEA1C6CB0
:1029600008D080EA010000F050B85FEA400C5FEA4E
:102970001C6CF6D14FF00040A0F5800070470EF1BE
:10298000020E2EF0030E5EF8044B244204D44FEAEC
:102990004102B2F17F4F11D84FEA4003B3F17F4FAC
:1029A0000CD80ED14FEAD07CB2F17F4F0CEB4C0C1F
:1029B0000CF1020C08BF4CEBD17C04E04FF0080C8A
:1029C00001E04FEAD17C0CEB4C0324FA03F404F051
:1029D0000704B4F1040C06D20EEB840CBDE81040E1
:1029E0004CF0010C6047DFE80CF0070802024FF0E2
:1029F0000040A0F5800010BD0846420018BFD2F18B
:102A0000807288BF00F0004010BDFF2141EAD05025
:102A1000C00570473A535444494E003A5354444F0A
:102A20005554003A535444455252003031323334F5
:102A300035363738394142434445464030580030F6
:102A40003132333435363738396162636465664014
:102A500030780000742A000800000020E400000024
:102A600028010008582B0008E40000204C0D00004D
:102A70004401000800000000000000000000000009
:102A80000000000000000000000000000000000046
:102A90000000000000000000000000000000000036
:102AA0000000000000000000000000000000000026
:102AB0000000000000000000000000000000000016
:102AC0000000000000000000000000000000000006
:102AD00000000000000000000000000000000000F6
:102AE00000000000000000000000000000000000E6
:102AF00000000000000000000000000000000000D6
:102B000000000100000000000101010000000000C1
:102B100000000000000000000000000000000000B5
:102B2000000000000001020304010203040607087C
:102B3000090204060800000000A24A040000000088
:102B4000000000000102030406070809000000005D
:082B500000000000000000007D
:04000005080001A945
:00000001FF
