:020000040800F2
:10000000300E0020BD010008C5010008C70100082E
:10001000C9010008CB010008CD0100080000000064
:10002000000000000000000000000000CF010008F8
:10003000D101000800000000D3010008B536000817
:10004000D7010008D7010008D7010008D701000830
:10005000D7010008D7010008D7010008D701000820
:10006000D7010008D7010008D7010008692F000850
:10007000892F0008A92F0008C92F0008E92F0008C0
:100080000930000829300008D7010008D70100080E
:10009000D7010008D7010008D7010008D7010008E0
:1000A000D7010008D7010008D7010008D7010008D0
:1000B00025370008D7010008D7010008D70100083C
:1000C000D7010008D7010008D7010008D7010008B0
:1000D000D7010008D7010008A9370008D701000898
:1000E000D7010008D7010008D701000800F002F886
:1000F00000F055F80AA090E8000C82448344AAF16D
:100100000107DA4501D100F04AF8AFF2090EBAE86A
:100110000F0013F0010F18BFFB1A43F0010318473B
:10012000E05D0000005E0000103A24BF78C878C18E
:10013000FAD8520724BF30C830C144BF04680C60ED
:10014000704700000023002400250026103A28BF35
:1001500078C1FBD8520728BF30C148BF0B60704739
:10016000662905F0F385642900F08880782900F07D
:10017000C180002070471FB59DE8030000F032FFEA
:1001800000F040FC04000020002105F089F8E06048
:1001900000F050FD1FBD10B500F0B5FD10BD00F022
:1001A000E9FD1146FFF7E7FF04F096FB00F0EEFED5
:1001B00003B4FFF7F0FF03BC01F086F8094880475D
:1001C00009480047FEE7FEE7FEE7FEE7FEE7FEE739
:1001D000FEE7FEE7FEE7FEE704480549054A064B51
:1001E00070470000C5360008ED0000083008002008
:1001F000300E0020300A0020300A00200FB40449DD
:1002000010B503AA029800F0EBFB10BC5DF814FBDC
:10021000240700202DE9F0410E460446002020620C
:100220002046E168884730B3252805D0D4E901216C
:100230009047206A401CF2E7E16820460027884783
:10024000050018D0A5F14100192802D820354FF437
:1002500000673246294620462760FFF781FF40B1FC
:10026000012804D0F61D26F007060836D8E7361D0B
:10027000D6E72846DAE7206ABDE8F0812DE9F041AB
:100280000646002410687529314616A510D0AFF334
:100290000080002802DA404213A507E031688A078F
:1002A00001D512A502E0490704D511A5012401E0FA
:1002B000AFF3008000210A2206F1240709E0B0FB19
:1002C000F2FCB0FBF2F302FB1C003030785418460D
:1002D000491C0028F3D123462A463046BDE8F041A8
:1002E00000F015B9000000002D0000002B000000F8
:1002F0002000000070B504460D4621461068AFF39B
:1003000000802188090502D50F4A7A4402E00E4A8E
:100310007A440E32002104F1240305E000F00F06B8
:100320000009965D5E54491C0028F7D1207800230F
:10033000000704D5702D02D009B1022311322046E6
:10034000BDE8704000F0E3B8595A0000032A40F2BB
:10035000308010F0030C00F0158011F8013BBCF167
:10036000020F624498BF11F801CB00F8013B38BF7F
:1003700011F8013BA2F1040298BF00F801CB38BF8D
:1003800000F8013B11F0030300F02580083AC0F0AB
:10039000088051F8043B083A51F804CBA0E8081053
:1003A000F5E7121D5CBF51F8043B40F8043BAFF386
:1003B0000080D20724BF11F8013B11F801CB48BFE0
:1003C00011F8012B24BF00F8013B00F801CB48BF16
:1003D00000F8012B704710B5203AC0F00B80B1E84F
:1003E0001850203AA0E81850B1E81850A0E818506A
:1003F000BFF4F5AF5FEA027C24BFB1E81850A0E873
:10040000185044BF18C918C0BDE810405FEA827C8C
:1004100024BF51F8043B40F8043B08BF7047D207A3
:1004200028BF31F8023B48BF11F8012B28BF20F844
:10043000023B48BF00F8012B70474FF0000200B5A7
:10044000134694469646203922BFA0E80C50A0E8F7
:100450000C50B1F12001BFF4F7AF090728BFA0E8A5
:100460000C5048BF0CC05DF804EB890028BF40F871
:10047000042B08BF704748BF20F8022B11F0804FB3
:1004800018BF00F8012B70474FF0013C50F8042BC7
:1004900051F8043B9A4221D1A2EB0C03934313EA97
:1004A000CC1317D150F8042B51F8043B9A4215D1C4
:1004B000A2EB0C03934313EACC130BD150F8042B9B
:1004C00051F8043B9A4209D1A2EB0C03934313EA7F
:1004D000CC13DBD04FF00000704700BFD01A01BA38
:1004E000B1FA81F101F0180122FA01F0CB40C1F11B
:1004F0002001DBB2C0B2C01A2CFA01F3D11A914329
:1005000011EAC311E6D170477047704770472DE973
:10051000F0470D4699469246044600F124080168CA
:10052000880604D5E06921F01001216000E0012077
:10053000A84201DD471B00E00027A1697A1902EB00
:100540000900081AA0612078C00602D42046AFF343
:100550000080002608E0D4E901211AF8060090473F
:10056000206A401C761C20624E45F4DB2078C006D1
:100570000AD52046AFF3008006E0D4E901213020FF
:100580009047206A401C2062381EA7F10107F4DC66
:1005900007E0D4E9012118F805009047206A401CC3
:1005A0002062281EA5F10105F3DC2046AFF3008090
:1005B0002078000602D50220BDE8F0870120FBE785
:1005C00070472DE9FF4F0C461E464FF0FF378BB0AA
:1005D000D2E90001DDF860800A908A46C1F30A552D
:1005E00005B93D46002108464FF00000BAF1000F62
:1005F00000F4400005DA00EB80004FF4400101EA0E
:1006000050004FEA9059B9F1010F00DDB9460A9840
:1006100050EA4A000ED044F61050A5F2FF3545438B
:100620002F14B8F1000F1ED07542291E1EDDC9F12E
:1006300000021CE0B8F1010F4FF0000001D03021A2
:1006400003E0F24305E02154401CB042FBDB30469E
:100650000022002121540B99C1F80880C1E9002033
:100660000FB0BDE8F08FBD1B6D1CDEE74A4600DA17
:10067000694206A800F068FA06AB93E8070003ABEE
:1006800083E8070050460A9900F0BAFE8DE807009B
:10069000A0F500501F3800900398002D0ADD42F2AB
:1006A0001F014A460844002303A90390684601F04D
:1006B00023F909E0A0F500504A461F38002303A99A
:1006C0000390684601F02DF98DE807000004000C46
:1006D00003D04FF0FF30410800E01046B8F1000FA2
:1006E00003D00022009215461EE0751E05D400F0CE
:1006F0008DF9303262556D1EF9D5B346012208439B
:1007000002D000227F1C04E02078302801D1002292
:100710007F1E002A099784D01DE0112D07DA00F012
:1007200075F9303262556D1C50EA0102F5D108436B
:1007300002D00098C8B10EE00021681E05E0235CDD
:10074000625C63542254401E491C8142F7DBAB4675
:10075000A81B401E0990002004F80B000B98099A72
:10076000C0F80880C0E9002B7AE711264FF0000896
:1007700057E72DE9F04F88460446D21D22F00701C5
:1007800091B0D1E90001CDE90A0103F0BAF90246BE
:100790000B98C00F01D02D2007E02068810701D5FC
:1007A0002B2002E0202101EAC000032A099001D099
:1007B000072A05DB03464146204600F085F90BE198
:1007C0002078800601D5E06900E00620B8F1650FC9
:1007D000814606D0B8F1660F18D0B8F1670F70D116
:1007E00031E00020B9F1110F009001DB112301E08D
:1007F00009F101030AAA01A90CA8FFF7E2FEDDE94D
:100800000C70002609F10105834647E001204B46A4
:1008100000904FF000470AAA01A90CA8FFF7D1FEEB
:10082000DDE90DB00C995D46002610B909F1010013
:100830000D18B9EB050003D4C0F1FF3609F101052D
:10084000A5EB09002BE0B9F1010F01DA4FF0010926
:100850000020B9F1110F0090484601DD112300E09E
:1008600003460AAA01A90CA8FFF7ABFEDDE90C704C
:100870004D4600268346207800070AD4AB4500DAAF
:100880005D4601A8012D04DD411911F8011C302934
:1008900007D04F4502DA17F1040F04DA012082462F
:1008A0000FE06D1EEEE7002F02DCED1B3E4403E07F
:1008B000781CA84200DD7D1CB81B00F1010A4FF036
:1008C00000472078000703D4AA4501DB4FF0FF3A28
:1008D0000021B7F1004F0DF143088DF8431024D0EB
:1008E00002202B23002F01DA7F422D230A21021E32
:1008F000A0F1010000DC5FB197FBF1FC97FBF1F286
:1009000001FB1C7C17460CF1300C08F801CDEEE71A
:10091000A8F1010003702188090501D5452100E0F7
:100920006521A0F1010800F8011C09980FA9A1EBAD
:100930000807FF1D00B10120411901EBEA70A16910
:100940003844081A401EA0612078C00602D4204610
:10095000AFF30080099828B1D4E901219047206ABB
:10096000401C20622078C00622D52046AFF30080CC
:100970001EE0002E04DBB34502DD01A8805D00E02F
:100980003020D4E901219047206A401C2062761C67
:10099000AAF101005FEA000A0AD100F033F8C0684A
:1009A0000168405CD4E901219047206A401C206224
:1009B000281EA5F10105DCDC07E0D4E9012118F8C7
:1009C000010B9047206A401C2062381EA7F10107E6
:1009D000F3DC2046AFF30080032011B041E60000B5
:1009E000074B70B50D467B4400F05BF80446284683
:1009F00000F01CF910B14FF0FF3070BD204670BD03
:100A0000CB3E000000487047EC07002030B5B0F145
:100A10000A024FEA900E71F100034EEA817EB0EBBC
:100A20000E0061EB91014FEA101E4EEA017E10EBC1
:100A30000E0041EB11114FEA102E4EEA016E10EB41
:100A40000E0041EB11214FEA104E4EEA014E10EB21
:100A50000E0041EB1141401841F100014FEAD00076
:100A600040EA41704FEAD10110EB80054FEA810462
:100A700044EA907444EB01046D1944EB0404521BE6
:100A8000A3414FF0000348BF0A3200D530BD401CDF
:100A900041F1000130BD000001694A1C0261087883
:100AA000704700B58FB0CDE90131002105910549AE
:100AB0007944CDE9031011466846FFF7ABFB0FB050
:100AC00000BD0000E5FFFFFF2DE9F0411F46044691
:100AD00003260168072A01F4006004DB08B116A5AB
:100AE00005E016A503E008B115A500E015A521F065
:100AF00010002060A069C01EA0610FB1401EA0615F
:100B00002046AFF300804FB1D4E901213846904729
:100B1000206A401C2062C01C206206E0206AFAE7BE
:100B2000D4E9012115F8010B9047761EF8D2204632
:100B3000AFF30080BDE8F0814E414E006E616E0063
:100B4000494E4600696E66002DE9F047814616461B
:100B50008AB0354878440DC88DE80D003248784495
:100B6000801C03AC0DC884E80D0041F69B3008449E
:100B7000372190FBF1F290FBF1F5A5F1800501FB27
:100B800012041B3C02D56442012000E00020DFF883
:100B900098A080460027FA44AAF1BE0A0EE0E007BA
:100BA0000AD03246684607EB470101230AEB810170
:100BB00000F0B7FE8DE8070064107F1C002CEED11A
:100BC000194F7F44AE3F19E0E80715D007EB04103A
:100BD0000DF1180A90E80E008AE80E00C068F04295
:100BE00001D1981908903246012306A903A800F004
:100BF00098FE03AB83E807006D10641C002DE3D161
:100C00004FF0010332466946B8F1000F03A802D045
:100C100000F072FE01E000F084FEC9E90001C9F8AD
:100C200008200AB0BDE8F087B4520000007B00F055
:100C30008000704710B542485421FFF7FEFB414841
:100C40005421FFF7FAFB40485421FFF7F6FB3F49D8
:100C50003B483C4A3F4B08603D490A603A491960AD
:100C6000531C0365481C1065012008653B48344A45
:100C700039A1784400F0EEF820B9384878440A38B1
:100C800000F08DF937482F4A35A1784400F0E2F89A
:100C900020B9344878440A3800F081F932482A4AA9
:100CA0002FA1784400F0D6F820B92F4878440A38AC
:100CB00000F075F940232248DC000021224600F0B4
:100CC000A5F820B125487844543800F068F91D484B
:100CD00022464023002100F099F820B121487844B1
:100CE000543800F05CF9184822461023002100F027
:100CF0008DF8002806D01C487844BDE810405638CE
:100D000000F04DB910BD104870B5006D20F0010421
:100D10000B4800F015F90B4800F012F90A4800F0F2
:100D20000FF909E0206D20F00105204600F008F9D8
:100D3000204600F044F82C46002CF3D170BD000092
:100D4000D00600202407002078070020D4000020CF
:100D5000D8000020DC00002072000000DA50000003
:100D600077000000C9500000B950000000487047EB
:100D7000CC0700207546FFF7F9FFAE46050069462F
:100D8000534620F00700854618B020B5FFF724FA37
:100D9000BDE820404FF000064FF000074FF000087C
:100DA0004FF0000B21F00701AC46ACE8C009ACE8FD
:100DB000C009ACE8C009ACE8C0098D46704770B501
:100DC0000446051F00F0F2F80068002C14BF4468C8
:100DD00070BD002C18BFAC423CBF20466468F8D3FD
:100DE00001680A18AA4218BF456003D12A6805465F
:100DF0001144016028684119A1421CBF6C6070BD9C
:100E00006168696021680844286070BD70B5C46875
:100E1000A50713D0650211D4B2F5807F09D0B2F5D1
:100E2000007F06D0B2F5806F08D1012300F12401C4
:100E300006E05D1E6FF07F46B54201D3012070BD14
:100E40000161C361416024F470611143C1600020FD
:100E500070BD00002DE9F0410C46074616461046CD
:100E600000F06EF82078611C61280AD0722802D048
:100E700077283CD102E00125002405E00225042466
:100E800002E0082448F2020511F8010B2B2806D0D5
:100E9000622809D011F8010C74280AD00BE045F043
:100EA000030544F00204EFE745F0040544F00104B3
:100EB000EAE744F010043846214602F06DFE411C7A
:100EC00015D00021316171604FF40071F560F1615E
:100ED0007061200704D530460222002100F0E0F8BE
:100EE000306D40F0010030653046BDE8F0810020F3
:100EF000FBE72DE9F0410D460646104C206DC10779
:100F000004D0410804D020F00104F7E722460EE0A7
:100F1000542000F096F807000ED0206D47F0010134
:100F20000843542120653846FFF787FA3A46294698
:100F30003046BDE8F0418DE70020D6E7D00600201E
:100F40002DE9F04704464FF000094FF0FF37C56820
:100F5000D4E90486A80707D0204600F051F93046AE
:100F600002F0E3FD002802DA3846BDE8F0872805E4
:100F700002D54046FFF723FF4C212046FFF75DFADC
:100F8000206D20F0010020654846EEE710B50446CC
:100F9000AFF300802046BDE81040FFF709B910B557
:100FA00000F078F9BDE8104000F06EB900487047D5
:100FB000D4070020704770477047704738B5044623
:100FC0000A4600206946AFF30080002808BF38BDFC
:100FD00002460099204600F084F9012038BD012026
:100FE00000F0D3B9F8B5AFF30080054600200C46F9
:100FF000102000BF0646A819A0420DD93246694606
:101000000020AFF30080070008BF00F0BEF9009891
:10101000A04218BF0546C419FFF7C8FF0560074680
:10102000F01D20F007004619284600F053F9B4429D
:1010300008BFF8BDA21B31463868BDE8F84000F093
:1010400050B970B50646FFF7B1FF056806F10B0011
:1010500020F00704B4429CBF002070BD2B466A6894
:10106000BAB11068A04210D304F1080188423CBF15
:101070005068586007D35168101941601168091B06
:10108000016058601460101D70BD13465268002A3C
:10109000E7D121462846FFF791FF0028DED170BD39
:1010A0002DE9F041044616460D464769007B80074E
:1010B0002ED0384602F05EFD50BB3EB3012E02D06A
:1010C000022E25D104E0204600F025F905441DE05C
:1010D000384602F03DFDE168002841F01001E16072
:1010E00005DA204600F058F80120BDE8F081C90378
:1010F0000BD56268E16A914200D81146A269114499
:101100002269891A814200DD08460544002D01DA72
:101110000220EAE7E16A6068E268814206D2910350
:10112000E06203D522F4003141F01002A6690027E5
:10113000AE4213DCE16A814201D90B4600E003466E
:1011400003EB060C2369ACEB030CAC4506DD8142D6
:1011500001D98C4600E084469C4505D1A7602760F4
:1011600042F02000A5620DE0AD1BE669AE1B814296
:10117000A66000D90846C01A281A20605819606075
:1011800022F0200003490840E060002084F8487005
:10119000ABE70000BFCFD7FFC16821F4001141F0D9
:1011A0008001C16000218160016070472DE9F04736
:1011B000814614460E464FF0FF383248D5685769CD
:1011C000054209D03846A16902F01AFD002811DB5A
:1011D0002C48C0430540E5602B4632464946384618
:1011E00002F024FDA16920F00042B21A1144002847
:1011F000A16103D02046FFF7CFFF4046BDE8F0874E
:1012000070B504460569C06A6168884200D808461E
:10121000E16821F42011E160C90312D5A84208D089
:101220002246411B2846FFF7C1FF10B14FF0FF30A7
:1012300070BD0020E562C4E90150E06820F4803010
:10124000E060002070BD10B50446C06820F02000AA
:10125000E060A16AA06988420DD02046FFF7D0FF68
:10126000E06820F4405040F01000E060A06AA06107
:101270002069E062606044F24001E0688843E06019
:1012800010BD000010000200002801D000F01CB8C2
:101290007047000010B5014602A000F05DF8012083
:1012A00010BD000053494752545245443A205265FC
:1012B0006469726563743A2063616E2774206F708D
:1012C000656E3A200000000001491820ABBEFEE721
:1012D0002600020000210160C0E9011070471020C3
:1012E0007047034640688C46002818BF88423CBFC0
:1012F00003464068F8D318681844884207D00CF1B8
:10130000030020F00700001D411A521A0146081D73
:101310000A60FFF754BD10B50146C268900703D0BC
:10132000900607D5886A0AE000F03EF801210160C6
:10133000881E10BD8B69486818440B69C01A91F863
:1013400048301BB191F84910401A10BD1103FCD56B
:101350000028FADD401E10BD70B505460C460A2077
:1013600000E06D1C00F018F835B128780028F8D19D
:1013700002E0641C00F010F814B120780028F8D1C5
:10138000BDE870400A2000F007B810B500F010F872
:10139000BDE81040FFF778BF08B569468DF800003A
:1013A0000320ABBE08BD704700487047CC07002043
:1013B00010B5012805D0002103A0FFF7CDFF0120C3
:1013C00010BD09A1F8E7000053494752544D454D5F
:1013D0003A204F7574206F662068656170206D65D6
:1013E0006D6F7279000000003A2048656170206DD1
:1013F000656D6F727920636F7272757074656400C9
:101400005FEA400C08BF91F0000F4FEA8C234FEACF
:10141000C12243EA51514FEA1C5018BF00F5F04079
:101420004FEA300018BF41F000415FEA6C5C00F009
:101430002980BCF1FF3F08BF40F080407047130C8B
:1014400006BF12044FF0100C4FF0000C130E04BF37
:1014500012020CF1080C130F04BF12010CF1040C62
:10146000930F04BF92000CF1020CD30F04BF520083
:101470000CF1010C11464FF00002A0F11F00A0EB8F
:101480000C00704711F0004F08BF704731F0004169
:101490003FF4D5AF0B0C06BF09044FF0100C4FF012
:1014A000000C0B0E04BF09020CF1080C0B0F04BF5B
:1014B00009010CF1040C8B0F04BF89000CF1020C24
:1014C000CB0F04BF49000CF1010CCCF12003A0EBC1
:1014D0000C0022FA03F302FA0CF241EA030100F1D4
:1014E0000100704720F07F4C80EA030023F07F4723
:1014F000ACEB070303F57C5300F0004003F1FF035E
:101500002DE980494FEA154B09B44FEA144325EA07
:101510000B4E24EA03480FF2042606EB1327490872
:101520003E785FEA320203FB0667C7F5000707FB58
:1015300006F64FEA54374FEAD64606F1020607FB95
:10154000066CCCF1005C4FEA1C472CEA074C07FB09
:1015500006F40CFB06F504EB15464FEA961634BF6D
:1015600000204FF000404FEAD13706FB07FC4FEA5E
:101570001C4C0CFB0BF7D21B03FB0CF761EB0701B8
:101580000CFB0EF7B0EB074072EB17420CFB08F7B1
:1015900034BFA2EB0742B2EB074261EB17414FEABF
:1015A0000C444FEA910706FB07FC4FEA1C4C0CFB6E
:1015B0000BF7B0EBC74072EB573203FB0CF734BFAD
:1015C000A2EBC742B2EBC74261EB57310CFB0EF7FF
:1015D000B0EBC70072EB57720CFB08F734BFA2EBFD
:1015E000C702B2EBC70261EB5771039F4FEA8161FB
:1015F00041EA921104EBCC044FEAD1374FEA826200
:1016000006FB07FC42EA90124FEA80604FEA1C4C4E
:101610000CFB0BF7D21B03FB0CF761EB07010CFB78
:101620000EF7B0EB074072EB17420CFB08F734BF24
:10163000A2EB0742B2EB074261EB17414FEA8C5530
:101640004FEA910704EB9C2406FB07FC4FEA1C4C75
:101650000CFB0BF7B0EBC74072EB573203FB0CF7F8
:1016600034BFA2EBC742B2EBC74261EB57310CFB70
:101670000EF7B0EBC70072EB57720CFB08F734BFE4
:10168000A2EBC702B2EBC70261EB577115EB4C2519
:101690004FEA816141EA92114FEA82624FEAD13703
:1016A00042EA901206FB07FC44F100044FEA806016
:1016B0004FEA1C4C0CFB0BF7D21B03FB0CF761EB46
:1016C00007010CFB0EF7B0EB074072EB17420CFB67
:1016D00008F734BFA2EB0742B2EB074261EB1741B8
:1016E00015EB1C154FEA813141EA92414FEA8232F3
:1016F00042EA90424FEA80304FEA0C7644F100040F
:1017000048EA03434EEA0B484FF0000EB2EB080CD8
:1017100071EB030724BF624639464EEB0E0E4FF0C5
:10172000000B0018524149414BEB0B0BB2EB080C7C
:1017300071EB03077BF1000B24BF624639464EEB89
:101740000E0E4FF0000B0018524149414BEB0B0BB2
:10175000B2EB080C71EB03077BF1000B24BF624670
:1017600039464EEB0E0E51EA020718BF46F001064D
:1017700016EB0E7655F1000254F1000103D5BDE8D9
:101780008901BDE80088BDE88901BDE80048B619B7
:10179000524141EB0101A3F10103704780807F7E3C
:1017A0007D7C7B7A797877767675747372717170D7
:1017B0006F6E6E6D6C6C6B6A6A6968686766666589
:1017C0006464636362616160605F5F5E5E5D5D5C17
:1017D0005C5B5B5A5A595958585757565655555588
:1017E0005454535352525251515050504F4F4F4EE8
:1017F0004E4D4D4D4C4C4C4B4B4B4A4A4A49494936
:101800004848484747474746464645454544444477
:10181000444343434342424242414141002B9C46A0
:1018200030D477002BD01CB54FEA370703B44FF004
:1018300010004FF01001BAF1000F06D0BCF1000FFC
:10184000DCBF40F0080040F008014FF000000FBC82
:10185000BDE810400BF1010BBBF1010F08BF5FEABF
:10186000170722BF12F1010211F101014FF00041EF
:1018700043F1000300F0004043EA00007047F9D351
:101880005708D0E746EA064613F1400F4FEA1646DE
:101890001FDD13F1200FDFBF16430A46002120335E
:1018A0005B42BED0C3F1200746EA064602FA07F7BC
:1018B0004FEA164646EA0706C3F1200722FA03F26A
:1018C00001FA07F721FA03F14FF0000342EA070299
:1018D000A7E746EA020646EA06464FEA164646EA01
:1018E0000106BCBF46EA0646360C4FF000034FF037
:1018F00000024FF0000194E72DE9804C9A46934690
:1019000070B491E8380007C831EA400C48BF34EAA7
:10191000430C03D5FFF7E6FDFFF780FFF0BCBDE801
:10192000008C2DE9804C9A46934670B491E83800BB
:1019300007C810F0804F08BF13F0804F03D100F0AC
:1019400005F8FFF76BFFF0BCBDE8008C20F07F4787
:1019500080EA030023F07F4C07EB0C03A3F57C53D4
:1019600000F00040A3F1FE0392F0000F00F0B380FE
:1019700095F0000F00F077802DE901494FEA114002
:101980004FEA144621EA004800FB06FC24EA064719
:1019900008FB06F607FB08F800FB07F718EB0648FC
:1019A0004CEB164C4FEA124B18EB07484FEA154622
:1019B0004CEB174022EA0B4E0BFB06FC25EA0647D0
:1019C0000EFB06F607FB0EFE0BFB07F71EEB064EA3
:1019D0004CEB164C4FF000061EEB074E4CEB174B32
:1019E00018EB0B0840F1000018EB0E0B58EB000849
:1019F00040F100008F1A4FF000013CBFC943661B45
:101A000014BFB5EB040C00213CBFC943F61B4FEAE1
:101A100017444EEA8E0E27EA04454FEA1C4704FBA2
:101A200007622CEA074C05FB07F70CFB05F604FBE5
:101A30000CFC16EB074642EB174216EB0C4642EB4A
:101A40001C421BEB060658EB0202414146EA9E0689
:101A500001D5BDE80189B619524141EB0101A3F15D
:101A60000103BDE801894FEA14454FEA114724EA12
:101A7000054621EA074C05FB07F406FB07F70CFBBC
:101A800006F105FB0CFC11EB074144EB17444FEA50
:101A9000124711EB0C4144EB1C4422EA074C05FBB6
:101AA00007F206FB07F70CFB06F605FB0CFC16EB32
:101AB000074642EB174216EB0C4642EB1C456A18F0
:101AC00054F1000148BF7047B619524141EB010182
:101AD000A3F10103704795F0000F37D04FEA114290
:101AE0004FEA144721EA024624EA074C02FB07F1B9
:101AF00006FB07F70CFB06F402FB0CFC14EB074497
:101B000041EB17414FEA154714EB0C4441EB1C41E4
:101B100025EA074C02FB07F506FB07F70CFB06F668
:101B200002FB0CFC16EB074645EB174516EB0C4683
:101B300045EB1C42121951F1000148BF7047B6191C
:101B4000524141EB0101A3F1010370474FEA1445F3
:101B50004FEA114724EA054621EA074C05FB07F145
:101B600006FB07F70CFB06F24FF0000605FB0CFC2A
:101B700012EB074241EB174112EB0C4251EB1C41B7
:101B800048BF7047921841EB0101A3F10103704770
:101B900030B589B013A0FEF731FB18A0FEF72EFB7D
:101BA00000F074F818490968884219D001A800F0BB
:101BB00055F9C5B2A5B101A9284600F079FB78B165
:101BC00012A0FEF71BFB012406E01C48005D10B9C3
:101BD000E0B200F031FD641C0B4800688442F4DD83
:101BE00009B030BD46726F6D476174657761795495
:101BF0006F4D61737465720D0A0000005B726F7740
:101C0000315D0D0A00000000A4000020524551552E
:101C10004553545F4449524543542D2D2D2D2D2DB0
:101C20002D2D2D2D2D2D2D2D2D2D2D2D2D2D2D2DE4
:101C30002D2D2D2D2D2D2D2D2D0D0A004A05002089
:101C4000F8B50546284600F0F7FCB0B100240EE0D8
:101C500003F000FB06460A4A611C0090505C00231A
:101C600002220849097800F0A9FD601CC4B20648A8
:101C700000788442ECDB0120F8BD0020FCE7000086
:101C8000A806002031000020350000202DE9F04397
:101C900087B04FF0000953A0FEF7B0FA5A48017818
:101CA0005AA0FEF7ABFA002414E014205949002290
:101CB0000392CDE9042100920192029206905248CB
:101CC000037855480278504801785348007801F06D
:101CD00031F8641C0A2CE8DB012479E0E5B2002627
:101CE00014204C4900220392CDE9042106901046AD
:101CF000114601222B46CDE9002102904648027888
:101D00002946007801F016F803F0A4FA4349086068
:101D100000BF4EE000F08CFC00F0CEFD002848D063
:101D20003C4800F0C3FF002843D03D480078A8425B
:101D30003FD13C48007838490978884239D13A483F
:101D40000078022835D1701CC6B2304603F0BBFBC8
:101D500007460022354B03F003FD2AD8314634A054
:101D6000FEF74CFA0022314B32A0FEF747FA03F09F
:101D700071FA074601230222009029480178007871
:101D800000F01CFD00F05EFE21462BA0FEF736FAA7
:101D900001202F4908552048007840B22D490855A8
:101DA00000F00AFF00F050FF09F1010000F0FF0908
:101DB00008E003F04FFA19490968401A42F2341159
:101DC0008842A7D300BF40F2A46001F05BFF641C0F
:101DD00021480068844281DD4FFA89F007B0BDE8F0
:101DE000F083000073656E642062726F61646361EA
:101DF00073742072657175657374206D657373619A
:101E000067650D0A000000004400002025640D0AEB
:101E100000000000A80600202F0000203C00002049
:101E2000310000203000002034000020000010406D
:101E300025640000256600002564206D61737465CB
:101E400072206973203120686F70206E6F646500A6
:101E50004A05002064060020A40000202DE9F04778
:101E600092B0804665A0FEF7C9F9242109A8FEF7C3
:101E7000E4FA002509A9012000F070FA81464946DC
:101E800061A0FEF7BBF90024A2E0002501260EE0C8
:101E90006248805D48B93746394661A0FEF7AEF921
:101EA00064484755681CC5B200BF701CC6B2624882
:101EB00000688642ECDD1DB9002012B0BDE8F08755
:101EC00009A8015D5DA0FEF799F940F2A460142114
:101ED000584A0023CDE90432CDE906100322CDE9AA
:101EE000015309A803930092035D015D57480278EE
:101EF000007800F061FF48B9002009A9095D474A50
:101F0000505409A9095D524A50545FE05BE000F06B
:101F10008FFB00F0D1FC002855D0464800F0C6FEEB
:101F2000002850D04B4800784849097888424AD167
:101F300049480078052846D109A8005D4749097835
:101F4000884240D114203B4900220392CDE904216C
:101F50000690104611460E22CDE9002102903F481E
:101F600003783A4802783D4801783848007800F014
:101F7000E1FE00F067FD00271CE02E48C65D03F07F
:101F800069F9824602231A460090344801783046A7
:101F900000F014FC3148007840B22D4988550120EA
:101FA0001E4988550846825D31462DA0FEF726F968
:101FB000781CC7B22D4800788742DEDB00F0FCFDBC
:101FC00000F042FE00E0A2E700BF00BF601CC4B208
:101FD0004C45FFF65AAF0025012009E00F49095C86
:101FE00021B929466A1CD5B208F80100411CC8B2C3
:101FF000114909688842F1DD68B25EE75B726F776C
:10200000325D0D0A0000000031686F702773206E8A
:10201000756D203A2025640D0A0000004A05002055
:10202000756E72656365697665203A2025640D0AD0
:1020300000000000A8060020A400002073656E6464
:1020400020746F2025640D0A000000002F0000207E
:102050006406002030000020340000203100002001
:102060002564200D0A2564200D0A0000350000209B
:102070002DE9F04192B006467CA0FEF7BFF824217E
:1020800009A8FEF7DAF909A9304600F079FC002426
:1020900005E009A8015D7AA0FEF7B0F8641C30469F
:1020A00000F084FC90F90300A042F2DC304600F01E
:1020B0007DFC90F90300441ED2E009A9085D00F000
:1020C00075FC457840F2A46014216F4A0023CDE9E5
:1020D0000432CDE90610184619461A460B23CDE9FD
:1020E0000032CDE9021009A8035D6848027829464C
:1020F000007800F061FE10BB09A8005D6449095C2E
:1021000009A8005D624A105C401C09AA125D604B80
:102110009854032912DD002009A9095D5D4A505435
:10212000FF2009A9095D5C4A505409A9085DFFF721
:1021300087FD002009A9095D554A505493E009A97B
:10214000085D00F033FCC07801281ED109A9085DA4
:1021500000F02CFC457809A9085D00F027FC4778C1
:102160001420494900220392CDE90421069010462B
:1021700011460E222B46CDE90021029043480278F9
:102180003946007800F0D6FD69E003F063F8434972
:10219000086050E000F04CFA00F08EFB00284AD0B6
:1021A000394800F083FD002845D03D480078374984
:1021B000097888423FD13B4800780F283BD109A9D4
:1021C000085D00F0F3FB477809A9085D00F0EEFB1D
:1021D00090F8018014202C4900220392CDE90421BB
:1021E0000690104611460E223B46CDE90021029092
:1021F000264802784146007800F09CFD2AA0FDF7B1
:10220000FDFF214805782248415D405D401C204A81
:10221000505503290EDD00201E494855FF201E4958
:1022200048552846FFF70CFD00201949485512B0C3
:10223000BDE8F08100BF03F00DF818490968451AA0
:1022400009A9085D00F0B2FB90F9030000EB400023
:1022500040F2A4614843B5EB800F9BD300BF641EDE
:10226000002CBFF62AAF00BF00BFE0E766696E64CE
:102270005F6572726F725F6E6F64650D0A000000B9
:1022800025640D0A00000000A80600202F00002091
:10229000860600204A050020640600203C0000203D
:1022A00030000020340000204E41434B0D0A000056
:1022B0002DE9F0438BB0044688460225242102A86C
:1022C000FEF7BBF8A146012705E01C48C15D1CA034
:1022D000FDF794FF7F1C1B4800688742F5DD1AA0BC
:1022E000FDF78CFF02A9284600F038F8064617A033
:1022F000FDF784FF1EE0002712E00620009018F88A
:102300000700334602AA294600F042F830B1601EA9
:10231000C0B2041E02D10BB0BDE8F083781CC7B276
:102320004F45EADB691CC9B20D46084602A900F018
:1023300015F80646002EDED160B2ECE74A05002013
:1023400025642000A40000200D0A00005B4D554CC0
:1023500054495F484F505D0D0A00000010B5024619
:102360000B46002100200DE0084C04EBC00494F95A
:102370000340944205D1054C14F830405C544C1C89
:10238000E1B2401C1F28EFDB084610BD6C050020A1
:102390002DE9F04F89B00646894617469A4668A04F
:1023A000FDF72CFFB3460024C5E0385DB04200D1F4
:1023B000BFE0385D6949085C00B9BAE0684806705A
:1023C000385D00F0F3FA457840F2A4601421644AC5
:1023D0000023CDE90432CDE906101298CDE90003BF
:1023E000029303933B5D5F4802782946007800F032
:1023F000E3FC48B9002059494855FF205A4948553F
:102400002846FFF71DFC94E002F024FF57490860BE
:102410007CE000F00DF900F04FFA002876D050482B
:1024200000F044FC002871D0514800784D490978EB
:1024300088426BD14F4800784A490978884265D173
:1024400000F000FB1420464900220392CDE904214C
:102450000690104611460E22CDE900210290464812
:10246000037840480278444801783E48007800F0FC
:1024700061FC42480078B0422CD1414800780728DE
:1024800003D03F480078092824D13B480078A8426F
:1024900020D102F0DFFE804600903A480078401CD0
:1024A000C3B20222344801783448007800F086F93B
:1024B0002B48007840B22C4901F80B000120274935
:1024C00001F80B0000F078FB00F0BEFB012009B022
:1024D000BDE8F08F2A4800780F2812D12AA0FDF716
:1024E0008DFE1F4890F8008000201C4901F808006C
:1024F000FF201D4901F808004046FFF7A1FB00201E
:10250000E5E72548007800B911E0FFE702F0A2FEF8
:1025100016490968411A09F10100800000EB4000EA
:1025200040F2A9125043B1EB800FFFF472AF00BF2D
:1025300000BF601CC4B25445FFF637AF0020C6E7A9
:10254000475F726571756573745F706174685F6F02
:102550006E655F62795F6F6E650D0A004A05002047
:10256000A80600202F000020640600203C00002068
:102570003000002033000020310000203200002015
:10258000340000203800002072656365697665209C
:102590004E41434B0D0A00003500002070B5044643
:1025A0000D46164616480570164804700120164957
:1025B0000860002015490870154908701549087011
:1025C00010490870144815490860002009E00021EE
:1025D000134A1154FF21134A11540021124A115475
:1025E000401C2228F3DB00F0B1F9FF200F490870EE
:1025F0000348007800F0A8FC304601F099FB70BD5C
:102600002F00002045000020A400002039000020F9
:102610003A0000203B000020A015FFFF48000020EA
:102620004A050020640600208606002044000020A1
:1026300010B501F05FFF10BD2DE9F0478AB00446E8
:102640004FF0000A00266FE04B48047014204A49FE
:1026500000220392CDE9042106901046114608227B
:102660002346CDE9002102904448027821460078B3
:1026700000F060FB02F0EEFD41490860002749E0F0
:10268000FFF7D6FF00F018F9002843D03D4800F0CE
:102690000DFB00283ED03C480078A0423AD13B4890
:1026A000007836490978884234D1394800780928B9
:1026B00030D1781CC7B2384602F005FF80460022B0
:1026C000344B03F04DF824D800F0BCF925462946D8
:1026D00031A0FDF793FD0120364948552748007881
:1026E00040B23549485502F0B5FD8046012302222B
:1026F000009025480178007800F060F800F05CFA5E
:1027000000F0A2FA03264FF0010A01200AB0BDE84A
:10271000F08700BF02F09EFD19490968401A42F295
:1027200034118842ACD3761C032E8DDBBAF1000F36
:102730001FD10125242101A8FDF77FFE01A928460C
:10274000FFF70CFE064611E00820334601AA294691
:1027500000902046FFF71CFE08B10120D6E7681C58
:10276000C5B201A92846FFF7F9FD0646002EEBD1B8
:1027700000BF0020CAE70000BC0600202F00002098
:102780003C000020A806002031000020300000207E
:1027900034000020000010402564206D61737465D2
:1027A00072206973203120686F70206E6F64650D30
:1027B0000A0000004A050020640600202DE9F047C9
:1027C00005460E4617469846DDF82090002423E083
:1027D000384800EBC40090F90000A8421AD168B252
:1027E000344901F8340070B201EBC40148704FFA6B
:1027F00088F0304901EBC401C87078B22D4901EB73
:10280000C401887002F026FD2A4901EBC40148602A
:10281000BDE8F087601CC4B21F2CD9DB002420E087
:10282000244800EBC4008078C8B968B2214901F897
:10283000340070B201EBC40148704FFA88F01D49B2
:1028400001EBC401C87078B21A4901EBC401887069
:1028500002F000FD174901EBC4014860D8E7601C95
:10286000C4B21F2CDCDB00241FE0124800EBC400C4
:102870008078C0B968B20F4901F8340070B201EB3A
:10288000C40148704FFA88F00A4901EBC401C870CE
:1028900078B2084901EBC401887002F0DBFC0549FD
:1028A00001EBC4014860601CC4B21F2CDDDB00BF1B
:1028B000AEE700006C05002010B501F0EFF908B19B
:1028C000012010BD0020FCE72DE9F84305460E4627
:1028D000012428E018480057A84223D1E0B200F0B4
:1028E00065F890F903703A46314614A0FDF786FC6E
:1028F00002F0B0FC0746E0B200F058F8C078801B48
:1029000000F0FF08284600F051F890F80190E0B27E
:102910004346012249460097FFF750FFE0B2314697
:10292000FFF7D2FF641C084800688442D2DD00F043
:1029300043F9BDE8F88300006406002025640D0A11
:1029400025640D0A00000000A4000020002012E011
:1029500000210A4A02EBC0029170FF21074A02EBF4
:10296000C0025170054A02F83010002102EBC0028B
:102970005160411CC8B21F28EADB70476C0500207B
:1029800070B502460B461046002406E02546661C3C
:10299000F4B258550146034D685C034D2D78A842AA
:1029A000F4D170BD640600202F00002070B50546EC
:1029B000002417E00D4800EBC40090F90000A84285
:1029C0000ED10A4800EBC400807848B102F042FC06
:1029D000064901EBC4014860044800EBC40070BD27
:1029E000601CC4B21F2CE5DB0020F8E76C0500205A
:1029F00001480078704700002F00002010B501F05A
:102A0000E7FE10BD10B501F0E9FE10BD10B501F0F4
:102A1000EBFE10BD10B501F0EDFE10BD10B501F0DC
:102A2000EFFE10BD10B501F0F1FE10BD10B501F0C4
:102A3000F3FE10BD10B501F0F5FE10BD10B501F0AC
:102A4000F7FE10BD10B51848FDF7D8FB1748017800
:102A500017A0FDF7D3FB1C4801781CA0FDF7CEFBA7
:102A60002048017820A0FDF7C9FB2648017826A060
:102A7000FDF7C4FB2C4801782CA0FDF7BFFB3148C3
:102A8000017831A0FDF7BAFB3548017835A0FDF794
:102A9000B5FB3A4801783AA0FDF7B0FB3F48017812
:102AA0003FA0FDF7ABFB10BDB05E00083100002079
:102AB00044475F727848656164657246726F6D2045
:102AC0003A2025640D0A00003000002044475F7260
:102AD00078486561646572546F203A2025640D0A58
:102AE000000000003200002044475F7278486561B2
:102AF000646572536F75726365203A2025640D0A10
:102B0000000000003300002044475F727848656190
:102B100064657244657374696E6174696F6E203A9E
:102B20002025640D0A0000003400002044475F7235
:102B30007848656164657254797065203A2025642F
:102B40000D0A00003500002044475F727848656137
:102B500064657244617461203A2025640D0A0000A6
:102B60003600002044475F727848656164657246AC
:102B70006C616773203A2025640D0A00370000203D
:102B800044475F72784865616465725365714E753C
:102B90006D203A2025640D0A000000003800002056
:102BA00044475F7278486561646572486F70203A87
:102BB0002025640D0A0000003EB5002420E01248E4
:102BC00000EBC4004068104901EBC40191F9031007
:102BD0000D4A02EBC40292F90220CDE900210290D5
:102BE000094800EBC40090F90130074800EBC4002D
:102BF00090F90020214605A0FDF700FB601CC4B23F
:102C00001F2CDCDB3EBD00006C0500202564204449
:102C10006573743A202564204E65787420486F707F
:102C20003A2025642053746174653A202564204855
:102C30006F703A202564204C6173742054696D656F
:102C40003A2025640D0A000010B500210AA0FDF706
:102C5000D5FA01240AE00C48005D28B10B48015761
:102C600022460BA0FDF7CAFA601CC4B20E480068E9
:102C70008442F0DD10BD00007072696E745472659C
:102C8000652025640D0A00004A0500206406002026
:102C900074726565436F6D706F6E656E7420256428
:102CA0002025640D0A000000A400002070B5044631
:102CB000204601F09FF8051E27D0FFF7ABFE144910
:102CC0000870FFF7B7FE13490870FFF7AFFE12490F
:102CD0000870FFF797FE11490870FFF7AFFE104923
:102CE0000870FFF78BFE0F490870FFF78FFE0E4943
:102CF0000870FFF797FE0D490870FFF78FFE0C492B
:102D00000870A5F10900C0B270BD0020FCE700000A
:102D1000310000203000002032000020330000206D
:102D2000340000203500002036000020370000204D
:102D3000380000202DE9F05F80460C4615461E46FF
:102D40000AAF97E8800E0A2F05DB3046FFF72EFE0C
:102D500008B9BDE8F09F00BF02F07CFA1549096888
:102D6000401AB0F57A7FF7D3404600F0C9F8204604
:102D700000F0DEF8284600F0D5F8304600F0B4F850
:102D8000384600F0DBF8484600F0A8F8504600F05E
:102D9000B1F8584600F0C0F80E9800F0B7F8DDE939
:102DA0000F0101F07BFA02F055FA0249086000BFFA
:102DB000CFE70000480000202DE9FF4F81B00C460E
:102DC00015461E46DDE913890E9F0B2F07DB3046A3
:102DD000FFF7ECFD18B9002005B0BDE8F08F4FF00B
:102DE000000A019800F08CF8204600F0A1F828466F
:102DF00000F098F8304600F077F8384600F09EF87A
:102E00000F9800F06BF8119800F086F8129800F017
:102E10007DF8CDF80090002004E018F80010264A54
:102E20001154401C4845F8DB4FF0000B3EE000BF5A
:102E300002F010FA21490968401AB0F57A7FF7D3F9
:102E400059461FA0FDF7DAF91B48009901F026FA50
:102E500002F000FA1949086002F0FCF9824618E015
:102E6000FFF7E6FBFFF728FD98B14046FFF71EFF8E
:102E700078B116480078A0420BD115480078154962
:102E80000978884205D1144800780E2801D1012024
:102E9000A2E702F0DFF9A0EB0A0040F2A461884249
:102EA000DED3159800F0EEFE0BF1010BBBF1030F22
:102EB000BDDB002090E70000BC0600204800002099
:102EC0007265747279203A20256400003100002078
:102ED000300000202F0000203400002010B50446F0
:102EE000204601F0ABFC10BD10B50446204601F0B1
:102EF000ABFC10BD10B50446204601F0ABFC10BD84
:102F000010B50446204601F0ABFC10BD10B50446D8
:102F1000204601F0ABFC10BD10B50446204601F080
:102F2000ABFC10BD10B50446204601F0ABFC10BD53
:102F300010B50446204601F0ABFC10BD10B50446A8
:102F4000204601F0ABFC10BD10B50446204601F050
:102F5000ABFC2046FFF7D4FF0148047010BD000011
:102F60002F0000207047000010B50548006800F0F1
:102F70000F04034844602046FFF7F4FF10BD000033
:102F8000000002407047000010B505480068C0F31B
:102F900003142001024948602046FFF7F3FF10BDEB
:102FA000000002407047000010B505480068C0F3FB
:102FB00003242002024948602046FFF7F3FF10BDBA
:102FC000000002407047000010B505480068C0F3DB
:102FD00003342003024948602046FFF7F3FF10BD89
:102FE000000002407047000010B505480068C0F3BB
:102FF00003442004024948602046FFF7F3FF10BD58
:10300000000002407047000010B505480068C0F39A
:1030100003542005024948602046FFF7F3FF10BD26
:10302000000002407047000010B505480068C0F37A
:1030300003642006024948602046FFF7F3FF10BDF5
:103040000000024008B50420ADF8000003208DF810
:10305000020018208DF8030069460D4800F01AF8A8
:103060000820ADF8000004208DF8030069460848E8
:1030700000F010F80220ADF8000003208DF80200E7
:1030800010208DF803006946014800F003F808BDE0
:10309000000801402DE9F0410246002500260020ED
:1030A00000230024002791F803C00CF00F0591F8CD
:1030B00003C00CF0100CBCF1000F03D091F802C05B
:1030C0004CEA050591F800C0BCF1000F31D014683E
:1030D00000202BE04FF0010C0CFA00F3B1F800C017
:1030E0000CEA03069E4220D183004FF00F0C0CFA2D
:1030F00003F7BC4305FA03FC4CEA040491F803C04F
:10310000BCF1280F06D14FF0010C0CFA00FCC2F8FC
:1031100014C00AE091F803C0BCF1480F05D14FF08C
:10312000010C0CFA00FCC2F810C0401C0828D1D3D6
:103130001460B1F800C0BCF1FF0F34DD546800200A
:103140002EE000F1080C4FF0010808FA0CF3B1F87A
:1031500000C00CEA03069E4221D183004FF00F0C01
:103160000CFA03F7BC4305FA03FC4CEA040491F89B
:1031700003C0BCF1280F05D100F1080C08FA0CF8C7
:10318000C2F8148091F803C0BCF1480F07D100F1D8
:10319000080C4FF0010808FA0CF8C2F81080401C27
:1031A0000828CED35460BDE8F08102460020936821
:1031B0000B400BB1012000E00020704741617047D7
:1031C000016170470A49096801F0010171B10849BC
:1031D0008039096801F0010141B100BF4FF0604141
:1031E00009680029FAD04FF0604210707047000063
:1031F000800E00E030B5144800684FF47A72B0FBDE
:10320000F2F1481EB0F1807F00D31BE0481E4FF062
:10321000E022506150170F22002804DB13071C0E18
:103220000A4B1C5406E013071D0E094B00F00F0457
:10323000241F1D5500BF00204FF0E02290610720A1
:10324000106100BF30BD0000C000002000E400E0BD
:1032500018ED00E008B54FF4E06000F045F82620D6
:103260008DF8000000208DF8020001208DF8030089
:10327000684600F001F808BD70B5002100230F2258
:10328000C47804B3154C246804F4E064C4F5E06425
:10329000210AC1F10403CA40447804FA03F1847896
:1032A0001440214309010E4C0678A155047804F01E
:1032B0001F050124AC4005786D11AD0005F1E02536
:1032C000C5F8004109E0047804F01F050124AC4072
:1032D000044D0678761145F8264070BD0CED00E0EF
:1032E00000E400E080E100E002490143024A11608D
:1032F000704700000000FA050CED00E000B585B055
:103300000121042000F04AF80121880300F046F86A
:103310004FF40070ADF8100003208DF81200182053
:103320008DF8130004A91348FFF7B4FE4FF4806032
:10333000ADF8100004208DF8130004A90D48FFF724
:10334000A9FE4FF4165000900020ADF80400ADF82F
:103350000600ADF80800ADF80C000C20ADF80A002E
:103360006946054800F058FB0121034800F0EBFADC
:1033700005B000BD000801400038014029B1064AEF
:10338000D2690243044BDA6104E0034AD269824302
:10339000014BDA61704700000010024029B1064A73
:1033A00092690243044B9A6104E0034A92698243A2
:1033B000014B9A61704700000010024010B50121D6
:1033C0004804FFF7DBFF10BD30B5002100220024C8
:1033D00000232D4D6D6805F00C0121B1042905D0A5
:1033E000082923D105E0294D056022E0274D05601D
:1033F0001FE0254D6D6805F47012234D6D6805F4CE
:103400008034022505EB92421CB9214D55430560DD
:103410000BE01D4D6D6805F400351DB11C4D554385
:10342000056002E0194D5543056002E0174D056047
:1034300000BF00BF144D6D6805F0F0010909154D7E
:103440006B5C0568DD4045600F4D6D6805F4E0611B
:10345000090A104D6B5C4568DD4085600A4D6D685A
:1034600005F46051C90A0B4D6B5C4568DD40C560D1
:10347000054D6D6805F44041890B074D6B5CC568CF
:10348000B5FBF3F5056130BD0010024000127A0073
:1034900000093D00A9000020B900002021B10288E8
:1034A00042F04002028004E002884FF6BF731A40E7
:1034B0000280704710B50022028802F441520B8846
:1034C0004C8823438C882343CC8823430C89234393
:1034D0004C8923438C892343CC8923431A4302809C
:1034E000838B4FF2FF74234083830B8A038210BDCA
:1034F00010200149086070471008014000B587B0EE
:1035000001210803FFF74AFF3020ADF81400002026
:10351000ADF81000ADF80E00ADF80C00ADF80800E5
:10352000ADF816004FF48270ADF80A004FF4407009
:10353000ADF8120002A91448FFF7BCFF01211248A0
:10354000FFF7ACFF01210420FFF728FFE020ADF8D2
:10355000040018208DF8070003208DF8060001A94B
:103560000A48FFF797FD1020ADF804008DF807001A
:1035700003208DF8060001A90448FFF78BFDFFF733
:10358000B7FF07B000BD0000003001400008014057
:1035900001460D48818100BF0B48008900F0020000
:1035A0000028F9D000BF0848008900F00100002879
:1035B000F9D000BF0448008900F080000028F9D14C
:1035C00001488089C0B270470030014010B500F05A
:1035D00001F810BD0CB50020019000903348006840
:1035E00040F480303149086000BF3048006800F482
:1035F000003000900198401C0190009818B9019883
:10360000B0F5A06FF1D12948006800F4003010B186
:103610000120009001E0002000900098012843D193
:103620002348006840F010002149086008460068FF
:1036300020F0030008600846006840F002000860BF
:103640001A4840681949486008464068486008467A
:10365000406840F4806048600846406820F47C1070
:1036600048600846406840F4E81048600846006832
:1036700040F08070086000BF0C48006800F00070E7
:103680000028F9D00948406820F003000749486045
:103690000846406840F00200486000BF03484068A8
:1036A00000F00C000828F9D10CBD00000010024009
:1036B0000020024002480068401C01490860704731
:1036C0004C00002010B51348006840F0010011497B
:1036D000086008464068104908400E49486008469E
:1036E00000680E4908400B4908600846006820F44D
:1036F000802008600846406820F4FE0048604FF4CF
:103700001F008860FFF762FF4FF000600449086007
:1037100010BD0000001002400000FFF8FFFFF6FEA1
:1037200008ED00E010B50121880700F009F818B194
:103730000121880700F001F810BDCA4302827047DA
:1037400030B50246002000230024158A05EA010353
:10375000958905EA010413B10CB1012000E00020B5
:1037600030BD00001FB54FF4165000900020ADF89A
:103770000400ADF80600ADF80800ADF80C000C2010
:10378000ADF80A006946064800F046F901210448F0
:1037900000F0D9F802210348FFF710FD1FBD00001B
:1037A000004400400008014070B540F225515348E4
:1037B00000F0E2F820B340F22551504800F0B4F890
:1037C0004F48007880B94D4800F092F9C4B2D52C2A
:1037D00001D0C52C07D14A4801780078401C484ADE
:1037E0001070484844540BE0444800F081F9C1B2DD
:1037F000434802780078401C414B1870414881547E
:103800003F4800780A2878D1002505E03D48415D11
:103810003DA0FCF7F3FC6D1C0A2DF7DB3BA0FCF789
:10382000EDFC384880783A490870002240F2255172
:10383000324800F0CBF802213648FFF7C1FC0025E2
:1038400012E03348007800EB8000334A02EB40007E
:10385000415D2A4800F051F900BF4021274800F09F
:103860007EF80028F9D06D1C0A2DEADB02212948D8
:10387000FFF7A4FC012240F22551204800F0A6F8F1
:103880000024002003E01F49095C4C40401C09282B
:10389000F9DB1C48407AA0422BD11A480078BD2899
:1038A0000FD100200AE01749095C194A127802EB8F
:1038B00082021A4B03EB42021154401C0A28F2DB2D
:1038C00017E010480078BE2813D100200AE00D4907
:1038D000095C0F4A127802EB8202114B03EB4202A1
:1038E0001154401C0A28F2DB01200E49084A1278C4
:1038F000885400200249087000BF70BD0044004099
:103900009700002040050020257820000D0A0000C7
:103910009800002000080140E00000202002002064
:10392000800300206003002010B50022002340F631
:103930006A14A14200D100BF0A1201249440A3B22C
:10394000DC43048010BD21B1828942F4005282819F
:1039500004E082894DF6FF731A4082817047024667
:103960000020B1F5007F00D100BF13880B400BB1E0
:10397000012000E00020704770B5024600240023BB
:103980000025002040F66A16B14200D100BFC1F305
:10399000421501F01F03012606FA03F3012D02D19F
:1039A0009689334006E0022D02D1168A334001E0A9
:1039B000968A33400C12012606FA04F41688344025
:1039C00013B10CB1012000E0002070BDF0B503463A
:1039D000002400260025002040F66A17B94200D1D5
:1039E00000BF1846C1F3421401F01F06012707FA71
:1039F00006F5012C01D10C3004E0022C01D110306D
:103A000000E014301AB107682F43076002E007682E
:103A1000AF430760F0BD00002DE9F04786B00546D2
:103A20000E460024A24600BFA1460027B08900B17F
:103A300000BF2F462C8A4CF6FF700440F0880443E8
:103A40002C82AC894EF6F3100440B08831890843CB
:103A5000718908430443AC81AC8A4FF6FF400440AF
:103A6000B0890443AC8201A8FFF7AEFC1F4887422F
:103A700002D1DDF810A001E0DDF80CA0A88900F467
:103A8000004040B10AEBCA0000EB0A10316849005F
:103A9000B0FBF1F807E00AEBCA0000EB0A1031684E
:103AA0008900B0FBF1F86420B8FBF0F004012009B4
:103AB000642101FB1089A88900F4004040B1322044
:103AC00000EBC900B0FBF1F000F00700044308E090
:103AD000322000EB09106421B0FBF1F000F00F0080
:103AE00004432C8106B0BDE8F08700000038014097
:103AF00001468888C0F308007047C1F3080282803D
:103B00007047490050EAC12018BF04204A0D18BF71
:103B100040F0010040F2FF72B2EB515F08BF40F08D
:103B20000200012808BF0520704701466FF40040DD
:103B3000084420B1012804D0022806D103E0002067
:103B400070470020FCE70020FAE74FF0FF30F7E76E
:103B500001466FF40040084420B1012804D0022837
:103B600006D103E0002070470020FCE70020FAE7C0
:103B70000020F8E701466FF40040084420B1012816
:103B800004D0022806D103E0012070470120FCE7A1
:103B90000120FAE70020F8E770B504460D4614B995
:103BA0004FF0FF3070BD20783A281AD10EA1204680
:103BB000FCF76AFC10B948F20100F3E70CA12046BB
:103BC000FCF762FC10B948F20200EBE70AA12046BC
:103BD000FCF75AFC10B948F20300E3E74FF0FF305E
:103BE000E0E74FF0FF30DDE73A535444494E000020
:103BF0003A5354444F5554003A535444455252009A
:103C000002466FF40040104420B1012805D002287C
:103C100009D105E04FF0FF3070474FF0FF30FBE770
:103C20004FF0FF30F8E74FF0FF30F5E72DE9F041B6
:103C300007460C46154698466FF40040384420B1BC
:103C4000012806D002281AD10EE04FF0FF30BDE85F
:103C5000F08105E014F8016B304601F01BFB6D1E8E
:103C6000002DF7D10020F2E705E014F8016B304693
:103C700001F00AFB6D1E002DF7D10020E7E74FF0A1
:103C8000FF30E4E700B5014601F0E4FA024600BF68
:103C900001F0E0FA801A8842FAD300BD70B5BD2069
:103CA00000F018FD044604F00F0501210748FFF756
:103CB0007CFA40B100BF01210448FFF776FA0028E2
:103CC000F9D1012070BD0020FCE70000000C01408C
:103CD00010B540210348FFF771FA80210148FFF732
:103CE0006DFA10BD000C014010B540210348FFF7EC
:103CF00065FA80210148FFF763FA10BD000C01400E
:103D000008B541F20100ADF8000004208DF8030071
:103D100069460648FFF7BEF901210448FFF750FA4B
:103D20004FF480510148FFF74BFA08BD000C0140E9
:103D300010B50446002019490870AA2018490870D7
:103D4000BB2018490870CC2017490870DD2017499E
:103D50000870EE2016490870DD2016490870FF2013
:103D60001549087000201549087000F0E5FBFFF7C1
:103D7000C7FF10211248FFF723FA20211048FFF750
:103D80001FFA80210E48FFF719FAFFF7ADFF00F088
:103D900049FA204600F084F910BD0000040000201C
:103DA0000E0000200F000020100000201100002055
:103DB0001200002013000020140000201500002035
:103DC000000801402DE9F041662742F6727000F0CC
:103DD0003DFC064606F0010048B142F6717000F065
:103DE00035FC0446E01BC5B22846BDE8F081002042
:103DF000FBE700002DE9F04F9FB0804670A0FCF774
:103E0000FDF942F6D77000F021FC041E02D11FB06C
:103E1000BDE8F08FC3E0BF2000F018FC0446092C79
:103E200001DB322C0EDD67A0FCF7E8F9214675A016
:103E3000FCF7E4F96420FFF725FF3A2000F04AFC84
:103E40000020E4E7E01C864207D070A0FCF7D6F91A
:103E50003A2000F03FFC0020D9E722466946FF20C7
:103E600000F0A0FB02221EA9FF2000F09BFB9DF8A2
:103E7000780001F0F5F9694908709DF8790000F0C3
:103E80007F099DF8790000F0800A0027002504E0F2
:103E90001DF805004740681CC5B2601EA842F7DC4B
:103EA0001DF80000B8420AD05D48FCF7A7F964206D
:103EB000FFF7E8FE3A2000F00DFC0020A7E7FFF72F
:103EC00081FF40B255490870084690F9000010F192
:103ED000780F0ADA53A0FCF791F96420FFF7D2FEBD
:103EE0003A2000F0F7FB002091E75DA0FCF786F98F
:103EF00001F0B0F94FF47A71B0FBF1FB594641A0E3
:103F0000FCF77CF9002509E01DF8051059A0FCF725
:103F100075F959A0FCF772F9681CC5B2A542F3DB2C
:103F200027A0FCF76BF99DF80000544908709DF834
:103F30000100534908709DF80200524908709DF82D
:103F40000300514908709DF80400504908709DF81D
:103F500005004F4908709DF806004E4908709DF80D
:103F600007004D4908709DF808004C490870A4F1FD
:103F70000A020DF109014046FCF7E8F9002504E0CA
:103F800000200DF80500681CC5B2782DF8DB642010
:103F9000FFF778FE3A2000F09DFB204637E742F617
:103FA000D77000F053FB064609283FF734AF642072
:103FB000FFF768FE3A2000F08DFB002027E70000A5
:103FC0000D0A00002A2A2A2A2A2A2A2A2A2A2A2AE2
:103FD0002A2053697A65204552524F52203A205484
:103FE0006F6F2073686F7274206F7220546F6F2030
:103FF0006C61726765202A2A2A2A2A2A2A2A2A20FC
:104000000000000025640D0A0000000073697A6555
:10401000206D69736D617463680D0A00A80000204B
:104020006C5E00082A2A2A2A2A2A2A2A2A2A2A2AC6
:104030002A207765616B207369676E616C287273E3
:1040400073692062656C6F77207468726573686F3E
:104050006C64292A2A2A2A2A2A2A2A2A0D0A0000D6
:104060002D2D2D2D2D726563656976652D2D2D2DD8
:104070002D00000025640000202020000500002005
:104080000600002007000020080000200900002092
:104090000A0000200B0000200C0000200D00002072
:1040A00010B504460621002000F054FB0621012033
:1040B00000F050FBB021022000F04CFB4021032017
:1040C00000F048FB0B21082000F044FB89210A2066
:1040D00000F040FB02210B2000F03CFB1C210C20D7
:1040E00000F038FB18210D2000F034FBC621102011
:1040F00000F030FB1821112000F02CFB05211320CB
:1041000000F028FB5321142000F024FB202117206D
:1041100000F020FB1921182000F01CFBA9211C2015
:1041200000F018FBCF211D2000F014FB00211E2001
:1041300000F010FB1421212000F00CFB202128208E
:1041400000F008FB4F212B2000F004FBFF212E2064
:1041500000F000FB00214FF43C5000F0FBFA22215C
:1041600042F6017000F0F6FA6A2142F60C7000F097
:10417000F1FA2D2142F60D7000F0ECFA992142F689
:104180000E7000F0E7FA002142F6127000F0E2FA39
:104190005F2142F6137000F0DDFA402142F61670FE
:1041A00000F0D8FA0E2142F6177000F0D3FA03217E
:1041B00042F6197000F0CEFA332142F61B7000F07F
:1041C000C9FA172142F61D7000F0C4FA502142F6D8
:1041D0001F7000F0BFFA6E2142F6207000F0BAFAAC
:1041E000142142F6217000F0B5FAAC2142F622709B
:1041F00000F0B0FAB42142F6277000F0ABFA0E21BD
:1042000042F6327000F0A6FA032142F6367000F052
:10421000A1FA1021262000F09DFA204600F002F9B4
:1042200010BD000010B502211648FEF7C7FF64203C
:10423000FFF728FD02211348FEF7C2FF6420FFF7B5
:1042400021FD10211048FEF7B9FF02E00FA0FBF797
:10425000D5FF40210C48FEF7A8FF0028F6D13020FA
:10426000FFF796F902E00CA0FBF7C8FF40210648D3
:10427000FEF79BFF0028F6D110210348FEF7A0FFB0
:1042800010BD0000000C0140000801404D49534F93
:1042900020310D0A00000000320D0A0070B58AB00E
:1042A00006460D464AA0FBF7A9FF322D01DD0AB0F4
:1042B00070BD484800788DF80000474800788DF8B8
:1042C0000100464800788DF80200454800788DF8D6
:1042D0000300444800788DF80400434800788DF8C6
:1042E0000500424800788DF80600414800788DF8B6
:1042F00007003F480078401C3D4908703D48007861
:104300008DF80800092406E0A4F10900305C0DF8DE
:104310000400601CC4B205F109008442F4DB0021F2
:104320000DF8001000240CE005F109001DF8000054
:104330001DF80410484005F109010DF80100601C4A
:10434000C4B205F109008442EEDB2B48FBF756FFAF
:104350002AA0FBF753FFFFF7BBFC002409E01DF880
:10436000041029A0FBF74AFF28A0FBF747FF601CB9
:10437000C4B205F10A00A042F1DC25A0FBF73EFF24
:1043800005F10A00C1B23F2000F0E4F905F10A008E
:10439000C2B269467F2000F0B7F9352000F09AF9E3
:1043A00000BF01211E48FEF700FF0028F9D000BF22
:1043B00001211B48FEF7F9FE0028F9D16420FFF720
:1043C00061FC3B2000F086F9FFF78EFC00BF6EE732
:1043D0000D0A00000E0000200F0000201000002039
:1043E0001100002012000020130000201400002003
:1043F0001500002016000020245E00082020202048
:104400002020202020200000256400002020200003
:10441000202020202020202020200D0A0000000045
:10442000000C01402DE9F14F88B02F480490089806
:1044300001F032F806462D4A2D4B01F093F8044660
:104440000D46049801F0ACFA22462B46CDE9000156
:1044500000F06EFF804600F039FF03904FF082407D
:10446000039901F0A7FB02904FF08F41029801F0F1
:10447000A1FB05464FF0844101F0BEFA044601F06D
:104480007DFB834658464FEAEB710BEB1141091453
:1044900007914FEAEB710BEB11410914ABEB014AA9
:1044A00050464FEAEA710AEB1161091206914FEA90
:1044B000EA710AEB11610912AAEB01210591079833
:1044C000C1B242F60C7000F045F90698C1B242F64E
:1044D0000D7000F03FF90598C1B242F60E7000F081
:1044E00039F909B0BDE8F08F335BD4439A999999B3
:1044F0009999893F70B5BD2000F0ECF8044604F0AE
:10450000700514B9342000F0E5F804F00F0010B184
:104510003A2000F0DFF8202D02D1342000F0DAF844
:10452000602D02D13A2000F0D5F8702D02D13B2049
:1045300000F0D0F870BD000008B501210920FEF799
:104540002DFFFEF7DBFFC220ADF8000010208DF834
:10455000030003208DF8020069460A48FEF79AFD21
:104560006420FFF78FFB08A0FBF748FE102108A08E
:10457000FBF744FE07A0FBF741FE012107A0FBF774
:104580003DFE08BD000C014053535F50494E2000D2
:10459000256400000947444F3020000025640D0ABF
:1045A000000000002DE9F04705460E4617464FEA89
:1045B000252905F0FF0AB9F1000F1ED1102122486C
:1045C000FEF7FCFD00BF40211F48FEF7EEFD00286E
:1045D000F9D14AF0C0084046FEF7DAFF002405E0B2
:1045E0000020FEF7D5FF3055601CC4B2BC42F7DB9B
:1045F00010211548FEF7E4FD23E0B9F12F0F20D17B
:1046000010211148FEF7DAFD00BF40210E48FEF7E9
:10461000CCFD0028F9D1D04649F0C000FEF7B8FF24
:104620004046FEF7B5FF002405E00020FEF7B0FF8E
:104630003055601CC4B2BC42F7DB10210248FEF7C3
:10464000BFFDBDE8F0870000000801402DE9F04102
:1046500004462512E0B20746D5B910211C48FEF7E2
:10466000ADFD00BF40211A48FEF79FFD0028F9D19B
:1046700047F080063046FEF78BFF0120FEF788FFEB
:10468000804610211248FEF79BFD4046BDE8F081B0
:104690002F2D1BD110210E48FEF790FD00BF4021A9
:1046A0000B48FEF782FD0028F9D145F08000FEF7A7
:1046B0006FFF3846FEF76CFF0120FEF769FF80466A
:1046C00010210348FEF77CFD4046DFE700BFDDE731
:1046D0000008014070B5044610210A48FEF76EFD3F
:1046E00000BF40210748FEF760FD0028F9D12046B1
:1046F000FEF74EFF054610210248FEF761FD2846F1
:1047000070BD0000000801402DE9F04105460E464D
:10471000174645F0400810210D48FEF74FFD00BF39
:1047200040210B48FEF741FD0028F9D14046FEF735
:104730002FFF002404E0305DFEF72AFF601CC4B2A6
:10474000BC42F8DB10210248FEF73AFDBDE8F081DB
:10475000000801402DE9F04104460E462512E7B25B
:10476000C5B910211948FEF729FD6420FFF78AFA20
:1047700000BF40211548FEF718FD0028F9D1384642
:10478000FEF706FF3046FEF703FF10210F48FEF745
:1047900017FD19E02F2D17D110210C48FEF70EFD43
:1047A00000BF40210948FEF700FD0028F9D1284646
:1047B000FEF7EEFE3846FEF7EBFE3046FEF7E8FE6B
:1047C00010210248FEF7FCFCBDE8F0810008014022
:1047D00001480078704700000A0000200148007876
:1047E0007047000008000020014800787047000072
:1047F0000B000020014800787047000005000020F1
:1048000001480078704700000D0000200148007842
:10481000704700000C00002001480078704700003D
:1048200007000020014800787047000006000020C3
:104830000148007870470000090000200149087015
:104840007047000013000020014908707047000005
:10485000110000200149087070470000140000207A
:1048600001490870704700000E00002001490870DF
:1048700070470000160000200149087070470000D2
:10488000150000200149087070470000100000204A
:1048900001490870704700000F00002001490870AE
:1048A00070470000120000200149087070470000A6
:1048B0000400002070B504460D46E1B20548FFF73C
:1048C0001CF900BF40210348FFF749F80028F9D040
:1048D000204670BD003801408AB0FEF7F3FEFEF7B7
:1048E0000DFDFEF787FCFEF769FDFEF7ABFBFEF75B
:1048F00039FF002635E015E02021FE48FFF72FF8AC
:1049000001280FD100BF2021FA48FFF728F800281E
:10491000F9D0F848FFF7ECF8C2B23046711CCEB2BD
:1049200008A90A54062EE7DB9DF82000CA2818D1F2
:104930009DF82400CB2814D19DF821300124C4EB2C
:104940004303DAB29DF822109DF82100FDF726FE00
:10495000FEF74EF8E84908709DF82500E749086021
:1049600000E0C8E700BF012240F22551E148FFF70F
:104970002DF8FEF76FFCFDF70BF9FDE3FEF764F988
:10498000DF480078B8B900F065FCDE490968DE4A06
:10499000114488420FD90120D9490870DB480078BA
:1049A000401CC0B2D9490870D4490968884202DD68
:1049B0000120D6490870D248007800287ED0002413
:1049C00023E1D348005D002879D0601CD1490870EC
:1049D000002008E004EB8401CF4A02EB4101095CAE
:1049E000CE4A1154401C0A28F4DB00F033FCCC49B9
:1049F0000860CC48C7490978405C002839D0C548D0
:104A00000078FDF7D3FF457840F2A4601421C34A33
:104A10000023CDE90432CDE90610184619461A469E
:104A20001423CDE90032CDE90210BA480378B24828
:104A3000027829460078FEF7BFF9D8B9B548007862
:104A4000FDF7B4FF4578B848415D405D401CB64A6B
:104A5000505503290DDD0020B2494855FF20B349C8
:104A600048552846FDF7ECF80020AF494855FEF7B9
:104A7000EBF8C9E00120AE49087000F0EBFBAD494E
:104A8000086090E0FDF7D4FDFDF716FF0028F8D090
:104A9000A248FEF70BF90028F3D0FDF7CBFF9649AB
:104AA000097888427FD1FDF7C5FFA3490870FDF75B
:104AB000B1FFA2490870FDF7B9FF01E0F5E096E00B
:104AC0009F490870FDF79EFF9E490870FDF7B6FFED
:104AD0009D490870FDF792FF9C490870FDF796FF0D
:104AE0009B490870FDF79EFF9A490870FDF796FFF5
:104AF00099490870FDF7A6FF00208D490870142021
:104B0000864900220392CDE9042106901046114601
:104B10000E22CDE900210290884803787648027879
:104B20008648017874480078FEF704F986480078D2
:104B30000F281BD189A0FBF761FB784805787A48DC
:104B4000415D405D401C784A505503290DDD002031
:104B500074494855FF20754948552846FDF770F8B7
:104B6000002071494855FEF76FF81BE07648007841
:104B7000152817D17B4850F82400694909688842F4
:104B800002D2002062490855002009E06349095C0F
:104B900004EB8402744B03EB42021154411CC8B273
:104BA0000A28F3DB17E000F055FB62490968451A53
:104BB00058480078FDF7FAFE90F9030000EB40003A
:104BC000800040F2A911484341F64C5101EB8000AE
:104BD0008542FFF457AF00BF55480078A0B163A0ED
:104BE000FBF70CFB4B480078FDF742FA0CE0002085
:104BF00008E0002104EB84025B4B03EB42021154FA
:104C0000411CC8B20A28F4DB641C3C48006884429A
:104C1000FFF6D7AE58A0FBF7F1FA3C48017858A050
:104C2000FBF7ECFA394800783A4908703D480978B2
:104C3000405C002839D037480078FDF7B7FE44784B
:104C400040F2A4601421354A0023CDE90432CDE9B5
:104C50000610184619461A461123CDE90032CDE94F
:104C600002102C4803782448027821460078FEF789
:104C7000A3F8D8B927480078FDF798FE44782A4869
:104C8000015D005D401C284A105503290DDD002000
:104C900024490855FF20254908552046FCF7D0FF38
:104CA000002021490855FDF7CFFFF6E001202049FB
:104CB000087000F0CFFA1F490860CAE0FDF7B8FCA1
:104CC000FDF7FAFD00287DD01448FDF7EFFF00281E
:104CD00078D0FDF7AFFE08490978884272D1FDF718
:104CE000A9FE15490870FDF795FE14490870FDF7F7
:104CF0009DFE49E00044004084000020A400002004
:104D0000960000209C000020C0270900950000208C
:104D1000600300208F00002080030020A8060020F0
:104D2000A00000204A05002086060020640600201E
:104D300094000020900000208500002086000020C4
:104D40008700002088000020890000208A000020C1
:104D50008B0000208C0000208D0000204E41434B32
:104D60000D0A0000C0040020E000002074696D6599
:104D70006F7574210D0A00005343414E0D0A000067
:104D800025640D0A00000000FC490870FDF73AFE9A
:104D9000FB490870FDF752FEFA490870FDF72EFE38
:104DA000F9490870FDF732FEF8490870FDF73AFE40
:104DB000F7490870FDF732FEF6490870FDF742FE2C
:104DC000002000E045E0F44908701420F349002277
:104DD0000392CDE904210690104611460E22CDE93A
:104DE00000210290EE480378EE480278EC48017802
:104DF000EC480078FDF79EFFE24800780F281CD1B0
:104E0000AFF2A800FBF7FAF9E4480478E648015D40
:104E1000005D401CE44A105503290DDD0020E349E4
:104E20000855FF20E24908552046FCF709FF0020FD
:104E3000DD490855FDF708FF0AE0D248007812283E
:104E400006D100F007FADB4908600020DA49087053
:104E500017E000F0FFF9D9490968441AD8480078EA
:104E6000FDF7A4FD90F9030000EB4000800040F244
:104E7000A911484340F6C41101EB80008442FFF4BD
:104E80001DAF00BFC448007838B1AFF22010FBF767
:104E9000B5F9CB480078FDF7EBF8CA480078C84967
:104EA000087000200BE0C7490978491E01EB810119
:104EB000C54A02EB4101095CB84A1154401C0A285A
:104EC000F1DBBA48BE490978405C00287ED0BC4876
:104ED0000078FDF76BFD44784FF4FA601421AF4A77
:104EE0000023CDE90432CDE90610184619461A46CA
:104EF0000B23CDE90032CDE90210B1480378A9486F
:104F0000027821460078FDF757FFD8B9AC48007801
:104F1000FDF74CFD4478A448015D005D401CA24AA9
:104F2000105503290DDD0020A0490855FF20A04998
:104F300008552046FCF784FE00209B490855FDF7E4
:104F400083FE6DE100F086F99C49086001209249DA
:104F50000870FDE0FDF76CFBFDF7AEFC0028F8D013
:104F60008E48FDF7A3FE0028F3D0FDF763FD8D49C1
:104F700009788842EDD1FDF75DFD94490870FDF791
:104F800049FD87490870FDF751FD7C490870FDF720
:104F900039FD7B490870FDF751FD7A490870FDF72E
:104FA0002DFD79490870FDF731FD78490870FDF74E
:104FB00039FD77490870FDF731FD76490870FDF736
:104FC00041FD002074490870142000E018E1734985
:104FD00000220392CDE904210690104611460E22CC
:104FE000CDE9002102906E4803786E4802786C4843
:104FF00001786C480078FDF79DFE624800780F2824
:105000001CD1AFF2A820FBF7F9F864480478664891
:10501000015D005D401C644A105503290DDD002030
:1050200062490855FF20624908552046FCF708FEF2
:1050300000205D490855FDF707FE88E000200BE0E1
:1050400056490A5C5F490978491E01EB8101604BB2
:1050500003EB41010A54401C0A28F1DB494800785F
:105060000C2834D100242DE000F0F4F80546434824
:105070000078FDF79BFCC078401CC7B204F10A0120
:10508000464A0095505C3B46022245490978FDF7A7
:1050900095FB012104F10A00404A105C434A115477
:1050A0003648007841B204F10A003C4A105C404A9C
:1050B000115448480068401C46490860FDF77CFDD3
:1050C000601CC4B2304800788442CDDB3FE02D48FC
:1050D00000780D2827D129480078FDF767FC90F962
:1050E000034000F0B7F8054600902A480078401CBD
:1050F000C3B202222A48017820480078FDF75EFBFF
:1051000024480078401C201AC1B21C480078FDF7E2
:10511000DBFB2248807A41B22548184A1278815434
:10512000FDF74AFD13E01748007813280FD12A48ED
:105130000078401CC0B22849087026490968884296
:1051400002DD01202449087001201B4908704AE053
:1051500000F080F819490968441A19480078FDF7E9
:1051600025FC90F9030000EB4000800040F2A911FB
:10517000484340F6C41131E05FE0000087000020A2
:1051800088000020890000208A0000208B00002079
:105190008C0000208D00002094000020A806002034
:1051A0008600002084000020860600204A0500209A
:1051B000640600209C000020960000209000002043
:1051C0008F0000208E00002020020020850000209B
:1051D000E0000020A40000209500002001EB8000EA
:1051E0008442FFF4B7AE00BF15480078C0B1AFF2FB
:1051F0008440FBF703F813480078FCF739FF0FE011
:1052000000200BE0002210490978491E01EB8101C2
:105210000E4B03EB41010A54411CC8B20A28F1DBD2
:1052200009480078401CC0B207490870084909685D
:10523000884202DD012004490870FFF79FBB00008F
:10524000940000208F0000208E000020E00000204D
:10525000A400002001480068704700004C000020B6
:1052600001460022802907DBA1F5807000EBD07396
:105270005B10663B1AB205E0084601EBD0735B1089
:10528000663B1AB250B2704700B503461846FDF7A8
:1052900099FF00BD00B503461846FDF793FF00BD1A
:1052A00010B500290AD00878002807D005487844AE
:1052B000FBF7EAF8002801D0002010BD024878442E
:1052C00010BD0000720C00006A0C000021F00042CA
:1052D000A2F16052B2F5801F01F0004328BFD2F165
:1052E0007F6C0BD95FEA001C43EAC20242EB5070AC
:1052F00018BF704728BF20F001007047B2F5801F2B
:10530000BCBF184670474FEA410C1CF5001F02D283
:10531000084600F016BD70B500F0CEF90000008917
:10532000FFF7F6BF4FF00040A0F580007047000087
:1053300010B591EA030F48BF83F0004300F14E829D
:10534000841A71EB030C05D2121943EB0C03001BFA
:1053500061EB0C01DFF824E14FEA1154A4EB135C7C
:105360001EEA430F18BF9EEA445F73D023EA0E0380
:10537000DCF1200E21EA045143F4801332D322FAE7
:105380000CFE10EB0E0023FA0CFE41EB0E01CCF1EB
:10539000200E03FA0EFE10EB0E0051F10001B1F5E4
:1053A000801FCCF1200E32D201EB045112FA0EF222
:1053B000BDE8104058BF7047401C38BF5FEA42024A
:1053C00018BF7047002814BF20F0010041F1000110
:1053D0004FEA410313F5001F38BF7047A1F1C041E8
:1053E00000F0B8B9012A43EB0302ACF1200CDCF168
:1053F0001F0E32BF4FF0000E23FA0CF310EB030028
:1054000041EB0451B4EB115FD0D0A1EB045101F595
:10541000801149085FEA300001EB04510ED350F1CE
:10542000000038BF12FA0EFE08D1BDE81040C9E7EF
:10543000401C38BF5FEA4202CAD1C3E7BDE8104052
:105440004FEA410313F5001F38BF7047A1F1C04177
:1054500000F080B99EEA445F08D011EA5E0FBDE813
:10546000104004BF01F0004100207047BDE810402B
:1054700070B500F021F900BF64FBBE3E0000E0FF04
:10548000491058BFC1F140415B1058BFC3F14043C0
:105490008B42EFF30080704710F0004248BF40425B
:1054A000B0FA80F310FA03F10AD0C3F11D0303F53B
:1054B00080634FEA415002EB035202EBD121704767
:1054C0004FF000007047B0FA80F310FA03F10AD0F1
:1054D000C3F11D0303F580634FEA41504FEA0352C5
:1054E00002EBD12170474FF00000704751EA030CE6
:1054F00017D41CF5801F58BFBCF5801F00F1068033
:10550000994218BF704708BF9042704707D711F5FE
:10551000801F58BF13F5801F19D4994270478942E4
:1055200070471CF5801F08D5BCF5801FF7D58B424E
:1055300018BF704708BF824270474FF4001C1CEB35
:10554000410F38BF1CEB430F01D28B42704770B53F
:1055500000F0B2F8922449004FF000514FF0805310
:10556000FFF78EBFDFF848C170B51CEA111E1EBFE1
:105570001CEA13159EEA0C0F95EA0C0F00F06F80E1
:1055800081EA030423EA4C134EEAD47E21EA4C114B
:1055900041F4801143F48013AE44A1FB024CA0FB04
:1055A0000365AEF17F7E361955EB0C05A1FB034C6C
:1055B0004CF10003A0FB021C16EB0C06654153F1F5
:1055C0000003094218BF46F0010613F4007F0BD117
:1055D0004FEA03314FEA0530340341EA155140EAFE
:1055E00016506FF003020AE04FEAC3214FEAC520CC
:1055F000F40241EA555140EA56506FF0020202EBC4
:105600002E4201EB025585EACE710AD05FEA440CC6
:1056100018BF24F0004450F1000041F1000120EADD
:10562000D47040F2FE7C624500D270BDA84214BF27
:105630004FF080444FF04044002E08BF0024BEF1DC
:10564000806FA8BFA1F1C041BDE8704080F28280A8
:105650004FF0000001F1C04101F0004170479EEAA7
:105660000C0F0CEA131518BF95EA0C0F06D04FF07B
:10567000000081EA030E0EF0004170BD00F01CF83E
:105680008900013E00F007B800F009B84FEA430C6A
:105690005FEA5C5C08D081EA030100F05BB84FEA86
:1056A000410C5FEA5C5CF6D14FF0000001497047A5
:1056B0000000FF070000F87F0EF1020E2EF0030E2F
:1056C0005EF8046B364205D4012A43EB030515F559
:1056D000001F12D8012841EB010C1CF5001F0CD84B
:1056E0000ED14FEAD17C15F5001F0CEB4C0C0CF1E0
:1056F000020C08BF4CEBD37C04E04FF0080C01E037
:105700004FEAD37C0CEB4C0526FA05F606F00706AB
:10571000B6F1040C06D20EEB860CBDE870404CF0DE
:10572000010C6047DFE80CF0090B02024FF000416A
:105730004FF00000A1F5002170BD19461046012868
:1057400051EB010418BFD4F5001484BF002001F010
:10575000004170BD0808A0F500114FEA3101704703
:1057600053EA010C17D41CF5801F58BFBCF5801FED
:1057700000F106808B4218BF704708BF8242704715
:1057800007D713F5801F58BF11F5801F19D48B421E
:1057900070479B4270471CF5801F08D5BCF5801FE1
:1057A000F7D5994218BF704708BF904270474FF431
:1057B000001C1CEB430F38BF1CEB410F01D2994278
:1057C00070470FB40CBC03BCFFF7C1BE10B591EA23
:1057D000030F48BF83F000433FF5B2AD841A71EB6D
:1057E000030C07D212198CF0004C43EB0C03001B86
:1057F00061EB0C01DFF8A4E14FEA1154A4EB135C58
:105800001EEA430F18BF9EEA445F00F0B08023EA0F
:105810006E03524221EA0451C3EB6E0338BF5B1E94
:10582000DCF1200E25D322FA0CFE10EB0E0043FA19
:105830000CFE41EB0E01CCF1200E03FA0EFE10EB34
:105840000E0051F10001CCF1200E29D412FA0EF213
:1058500001EB0451BDE8104058BF7047401C1CBF0D
:10586000B2F1004F704700280CBF491C20F0010026
:10587000704712EB020E43EB030218BF4FF0010E0C
:105880004EEA4202ACF1200CDCF11E0E54D943FA70
:105890000CFE10EB0E0051F1FF31CCF11E0ED5D5F0
:1058A0000EF1010E12FA0EFE404141EB010101EB37
:1058B000445C5FEA5C5C10D910EBDE7001EB0451D4
:1058C00038BFBEF1004FBDE8104018BF7047002838
:1058D0000CBF491C20F00100704730D24FEAD42C95
:1058E00011F5001124F400641BD0B1FA81F20B3AD7
:1058F000A41AA41ED2F12003914030FA03F31943F5
:10590000904001EBCC71002C01EB0451BDE810403C
:10591000A8BF704701F1C0414FF0000001F0004105
:105920007047B0FA80F310FA03F100D110BDE41A09
:10593000173C4805C90AE4E701EB045110BD4910C2
:1059400001EB0451BDE810404FEA300002E04FF097
:10595000000170474A0008BF0042F8D0B2F5001FAE
:1059600028BF704701F000414FF0000070479EEAE9
:10597000445F07D011EA5E0FBDE8104004BF00216C
:1059800000207047BDE8104070B5FFF795FE00BFDE
:1059900040DFF63E83F00041104670470000E0FF14
:1059A00043004FEAD30C4FEA3C0C43401FBF400773
:1059B0000CF1605113F0FE4F70471CF0006F03D1E3
:1059C00000200CF0004170470CF0004343EA507097
:1059D00010B540EACC0000F06EF900BF0000009264
:1059E0004FEA0001FFF7B6BE4FF000414FF0000054
:1059F000A1F50021704700004FF47F0C1CEAD01283
:105A00001EBF1CEAD11392EA0C0F93EA0C0F00F0B0
:105A1000858090EA010F48BF42F4807240F4000C88
:105A200041F400002CF07F4120F07F4000B581421E
:105A3000A2EB03020FF2081CACEB504EC0F10000C9
:105A40009EF800E04FEA4E0E00FB0EFC38BF490006
:105A50004FEA2C1C02F5FA020CFB0EF34FEACE1EA5
:105A60004FEA112C4FEAC1210EEB635E42EB22425A
:105A70000EFB0CFC4FEA1C5300FB03114FEA112CE8
:105A80004FEA01310EFB0CFC4FEADC4C00FB0C1121
:105A9000C14228BF09184CEB03335DF804EB10EB4F
:105AA000410143EBC250B2F57C0F38BF704729D596
:105AB00012F0F00F1CBF00F1C04000F00040704732
:105AC000008182838485868788898B8C8D8E8F91D7
:105AD0009293959697999A9C9D9FA0A2A3A5A7A8FB
