:020000040800F2
:10000000280E0020A9010008B1010008B301000872
:10001000B5010008B7010008B901000800000000A0
:10002000000000000000000000000000BB0100080C
:10003000BD01000800000000BF010008792C000885
:10004000C3010008C3010008C3010008C301000880
:10005000C3010008C3010008C3010008C301000870
:10006000C3010008C3010008C301000829250008D6
:10007000492500086925000889250008A9250008E8
:10008000C9250008E9250008C3010008C3010008CC
:10009000C3010008C3010008C3010008C301000830
:1000A000C3010008C3010008C3010008C301000820
:1000B000E92C0008C3010008C3010008C3010008BF
:1000C000C3010008C3010008C3010008C301000800
:1000D000C3010008C3010008792D0008C30100080E
:1000E000C3010008C3010008C301000800F002F8C2
:1000F00000F04AF80AA090E8000C82448344AAF178
:100100000107DA4501D100F03FF8AFF2090EBAE875
:100110000F0013F0010F18BFFB1A43F0010318473B
:100120000856000028560000103A24BF78C878C14D
:10013000FAD8520724BF30C830C144BF04680C60ED
:10014000704700000023002400250026103A28BF35
:1001500078C1FBD8520728BF30C148BF0B60704739
:10016000642900F08180782900F0BA80002070476F
:100170001FB59DE8030000F01FFC00F045FA1FBD0D
:1001800010B500F0AAFA10BD00F0DAFA1146FFF738
:10019000EFFF03F077FE00F0DFFB03B4FFF7F0FFA3
:1001A00003BC00F07BFD0000094880470948004778
:1001B000FEE7FEE7FEE7FEE7FEE7FEE7FEE7FEE717
:1001C000FEE7FEE704480549054A064B7047000074
:1001D000892C0008ED00000828080020280E0020C7
:1001E000280A0020280A00200FB4044910B503AAE9
:1001F000029800F0A9F910BC5DF814FB200700205C
:100200002DE9F0410E460446002020622046E168B8
:10021000884730B3252805D0D4E901219047206ACA
:10022000401CF2E7E168204600278847050018D007
:10023000A5F14100192802D820354FF40067324655
:10024000294620462760FFF78BFF40B1012804D0E4
:10025000F61D26F007060836D8E7361DD6E72846ED
:10026000DAE7206ABDE8F0812DE9F0410646002476
:1002700010687529314616A510D0AFF3008000280C
:1002800002DA404213A507E031688A0701D512A5BA
:1002900002E0490704D511A5012401E0AFF3008075
:1002A00000210A2206F1240709E0B0FBF2FCB0FBB2
:1002B000F2F302FB1C00303078541846491C002829
:1002C000F3D123462A463046BDE8F04100F0E3B8BA
:1002D000000000002D0000002B00000020000000A6
:1002E00070B504460D4621461068AFF300802188A2
:1002F000090502D50F4A7A4402E00E4A7A440E32CA
:10030000002104F1240305E000F00F060009965DCA
:100310005E54491C0028F7D120780023000704D53B
:10032000702D02D009B1022311322046BDE8704081
:1003300000F0B1B8C5520000032A40F2308010F03E
:10034000030C00F0158011F8013BBCF1020F624470
:1003500098BF11F801CB00F8013B38BF11F8013B01
:10036000A2F1040298BF00F801CB38BF00F8013BAE
:1003700011F0030300F0FA80083AC0F0088051F849
:10038000043B083A51F804CBA0E80810F5E7121D29
:100390005CBF51F8043B40F8043BAFF30080D20748
:1003A00024BF11F8013B11F801CB48BF11F8012B14
:1003B00024BF00F8013B00F801CB48BF00F8012B37
:1003C00070474FF0000200B5134694469646203918
:1003D00022BFA0E80C50A0E80C50B1F12001BFF4FE
:1003E000F7AF090728BFA0E80C5048BF0CC05DF864
:1003F00004EB890028BF40F8042B08BF704748BFB2
:1004000020F8022B11F0804F18BF00F8012B704725
:100410004FF0013C50F8042B51F8043B9A4221D193
:10042000A2EB0C03934313EACC1317D150F8042B1F
:1004300051F8043B9A4215D1A2EB0C03934313EA03
:10044000CC130BD150F8042B51F8043B9A4209D13C
:10045000A2EB0C03934313EACC13DBD04FF0000064
:10046000704700BFD01A01BAB1FA81F101F018014A
:1004700022FA01F0CB40C1F12001DBB2C0B2C01AB8
:100480002CFA01F3D11A914311EAC311E6D1704756
:100490007047704770472DE9F0470D4699469246E0
:1004A000044600F124080168880604D5E06921F0BB
:1004B0001001216000E00120A84201DD471B00E09F
:1004C0000027A1697A1902EB0900081AA0612078B7
:1004D000C00602D42046AFF30080002608E0D4E92D
:1004E00001211AF806009047206A401C761C206201
:1004F0004E45F4DB2078C0060AD52046AFF30080D5
:1005000006E0D4E9012130209047206A401C206297
:10051000381EA7F10107F4DC07E0D4E9012118F83F
:1005200005009047206A401C2062281EA5F10105A5
:10053000F3DC2046AFF300802078000602D50220CD
:10054000BDE8F0870120FBE7074B70B50D467B4403
:1005500000F043F80446284600F052F810B14FF07E
:10056000FF3070BD204670BD0F39000010B5203A35
:10057000C0F00B80B1E81850203AA0E81850B1E85C
:100580001850A0E81850BFF4F5AF5FEA027C24BF12
:10059000B1E81850A0E8185044BF18C918C0BDE809
:1005A00010405FEA827C24BF51F8043B40F8043BD2
:1005B00008BF7047D20728BF31F8023B48BF11F887
:1005C000012B28BF20F8023B48BF00F8012B7047E1
:1005D00001694A1C02610878704700B58FB0CDE907
:1005E00001310021059105497944CDE903101146F7
:1005F0006846FFF705FE0FB000BD0000E5FFFFFFF6
:10060000007B00F08000704710B542485421FFF78E
:10061000D8FE41485421FFF7D4FE40485421FFF74B
:10062000D0FE3F493B483C4A3F4B08603D490A6089
:100630003A491960531C0365481C10650120086580
:100640003B48344A39A1784400F0EAF820B93848E8
:1006500078440A3800F089F937482F4A35A17844A0
:1006600000F0DEF820B9344878440A3800F07DF90B
:1006700032482A4A2FA1784400F0D2F820B92F48F6
:1006800078440A3800F071F940232248DC00002148
:10069000224600F0A1F820B125487844543800F0F3
:1006A00064F91D4822464023002100F095F820B14E
:1006B00021487844543800F058F91848224610234D
:1006C000002100F089F8002806D01C487844BDE8D5
:1006D0001040563800F049B910BD104870B5006D93
:1006E00020F001040B4800F011F90B4800F00EF95E
:1006F0000A4800F00BF909E0206D20F001052046C2
:1007000000F004F9204600F040F82C46002CF3D10C
:1007100070BD0000CC0600202007002074070020D8
:10072000E4000020E8000020EC000020720000003F
:100730005E4F0000770000004D4F00003D4F00006D
:10074000754600F019F9AE4605006946534620F09B
:100750000700854618B020B5FFF734FDBDE82040FE
:100760004FF000064FF000074FF000084FF0000B6D
:1007700021F00701AC46ACE8C009ACE8C009ACE820
:10078000C009ACE8C0098D46704770B50446051F26
:1007900000F0F6F80068002C14BF446870BD002C0F
:1007A00018BFAC423CBF20466468F8D301680A1801
:1007B000AA4218BF456003D12A680546114401606A
:1007C00028684119A1421CBF6C6070BD61686960F6
:1007D00021680844286070BD70B5C468A50713D0AF
:1007E000650211D4B2F5807F09D0B2F5007F06D042
:1007F000B2F5806F08D1012300F1240106E05D1EEF
:100800006FF07F46B54201D3012070BD0161C36125
:10081000416024F470611143C160002070BD00008C
:100820002DE9F0410C4607461646104600F06EF8DA
:100830002078611C61280AD0722802D077283CD128
:1008400002E00125002405E00225042402E008243A
:1008500048F2020511F8010B2B2806D0622809D0B6
:1008600011F8010C74280AD00BE045F0030544F0A0
:100870000204EFE745F0040544F00104EAE744F020
:1008800010043846214602F05BFC411C15D00021C3
:10089000316171604FF40071F560F16170612007A2
:1008A00004D530460222002100F0E4F8306D40F01B
:1008B000010030653046BDE8F0810020FBE72DE9FE
:1008C000F0410D460646104C206DC10704D041088A
:1008D00004D020F00104F7E722460EE0542000F097
:1008E0009AF807000ED0206D47F00101084354210B
:1008F00020653846FFF765FD3A4629463046BDE893
:10090000F0418DE70020D6E7CC0600202DE9F04726
:1009100004464FF000094FF0FF37C568D4E904865C
:10092000A80707D0204600F055F9304602F0D1FB69
:10093000002802DA3846BDE8F087280502D540468F
:10094000FFF723FF4C212046FFF73BFD206D20F0F1
:10095000010020654846EEE710B50446AFF300807D
:100960002046BDE81040FFF718BC10B500F07CF938
:10097000BDE8104000F072B900487047C807002079
:1009800000487047D0070020704770477047704795
:1009900038B504460A4600206946AFF300800028B7
:1009A00008BF38BD02460099204600F084F90120B6
:1009B00038BD012000F0D3B9F8B5AFF3008005468B
:1009C00000200C46102000BF0646A819A0420DD9F1
:1009D000324669460020AFF30080070008BF00F0F0
:1009E000BEF90098A04218BF0546C419FFF7C8FF1A
:1009F00005600746F01D20F007004619284600F064
:100A000053F9B44208BFF8BDA21B31463868BDE8AF
:100A1000F84000F050B970B50646FFF7B1FF056821
:100A200006F10B0020F00704B4429CBF002070BD0B
:100A30002B466A68BAB11068A04210D304F10801CD
:100A400088423CBF5068586007D351681019416014
:100A50001168091B016058601460101D70BD1346B9
:100A60005268002AE7D121462846FFF791FF002867
:100A7000DED170BD2DE9F041044616460D464769AA
:100A8000007B80072ED0384602F048FB50BB3EB3B7
:100A9000012E02D0022E25D104E0204600F025F9D7
:100AA00005441DE0384602F027FBE168002841F0CC
:100AB0001001E16005DA204600F058F80120BDE899
:100AC000F081C9030BD56268E16A914200D81146F2
:100AD000A26911442269891A814200DD0846054451
:100AE000002D01DA0220EAE7E16A6068E2688142EB
:100AF00006D29103E06203D522F4003141F01002E6
:100B0000A6690027AE4213DCE16A814201D90B4697
:100B100000E0034603EB060C2369ACEB030CAC4589
:100B200006DD814201D98C4600E084469C4505D112
:100B3000A760276042F02000A5620DE0AD1BE669CA
:100B4000AE1B8142A66000D90846C01A281A206050
:100B50005819606022F0200003490840E06000203E
:100B600084F84870ABE70000BFCFD7FFC16821F41D
:100B7000001141F08001C160002181600160704777
:100B80002DE9F047814614460E464FF0FF383248B3
:100B9000D5685769054209D03846A16902F004FBBF
:100BA000002811DB2C48C0430540E5602B46324647
:100BB0004946384602F00EFBA16920F00042B21A05
:100BC00011440028A16103D02046FFF7CFFF404623
:100BD000BDE8F08770B504460569C06A616888425F
:100BE00000D80846E16821F42011E160C90312D55C
:100BF000A84208D02246411B2846FFF7C1FF10B18A
:100C00004FF0FF3070BD0020E562C4E90150E0689C
:100C100020F48030E060002070BD10B50446C0684C
:100C200020F02000E060A16AA06988420DD0204633
:100C3000FFF7D0FFE06820F4405040F01000E06083
:100C4000A06AA0612069E062606044F24001E0684F
:100C50008843E06010BD000010000200002801D0B1
:100C600000F01CB87047000010B5014602A000F06B
:100C70005DF8012010BD00005349475254524544CD
:100C80003A2052656469726563743A2063616E2725
:100C900074206F70656E3A20000000000149182032
:100CA000ABBEFEE72600020000210160C0E9011092
:100CB000704710207047034640688C46002818BFD4
:100CC00088423CBF03464068F8D3186818448842FD
:100CD00007D00CF1030020F00700001D411A521A42
:100CE0000146081D0A60FFF750BD10B50146C268F5
:100CF000900703D0900607D5886A0AE000F03EF816
:100D000001210160881E10BD8B69486818440B6979
:100D1000C01A91F848301BB191F84910401A10BD23
:100D20001103FCD50028FADD401E10BD70B5054644
:100D30000C460A2000E06D1C00F018F835B1287848
:100D40000028F8D102E0641C00F010F814B12078FB
:100D50000028F8D1BDE870400A2000F007B810B5AF
:100D600000F010F8BDE81040FFF778BF08B56946FD
:100D70008DF800000320ABBE08BD704700487047E7
:100D8000C807002010B5012805D0002103A0FFF7F7
:100D9000CDFF012010BD09A1F8E7000053494752DB
:100DA000544D454D3A204F7574206F66206865613B
:100DB00070206D656D6F7279000000003A20486503
:100DC0006170206D656D6F727920636F72727570DE
:100DD000746564002DE9F04192B041A0FFF704FA78
:100DE00045A0FFF701FA00F023FA46490968884256
:100DF00072D00AA800F014FBC7B2002F6CD00AA969
:100E0000384600F055FD002866D03FA0FFF7ECF90A
:100E100001245DE04848005D002858D1E5B247480C
:100E200005704FF4FA601421444A0023CDE90432DE
:100E3000CDE90610184619461A460823CDE90032B6
:100E4000CDE902102B463E4802782946007801F091
:100E5000FBF9D8B101F044F821463AA0FFF7C4F9F4
:100E60000120354908553648007840B236490855C2
:100E700003F034FE06460123022200903348017835
:100E8000007800F0EBFE01F0E5F820E001262421D7
:100E900001A8FFF796FA01A9304600F05FFD8046F1
:100EA00010E00820434601AA31460090284600F091
:100EB0006FFD00B109E001A9304600F04FFD80460A
:100EC000701CC6B2B8F1000FEBD100BF00BF641CAC
:100ED0000C48006884429DDD12B0BDE8F08100003E
:100EE00046726F6D47617465776179546F4D6173B8
:100EF0007465720D0A0000005B726F77315D0D0A38
:100F00000000000034000020524551554553545F05
:100F10004449524543542D2D2D2D2D2D2D2D2D2D54
:100F20002D2D2D2D2D2D2D2D2D2D2D2D2D2D2D2DF1
:100F30002D2D2D2D2D0D0A00180100207E010020E1
:100F400038000020256400003A0100203A0000200B
:100F50002DE9F04F91B004460D4621468FA0FFF7D2
:100F600043F92E46242108A8FFF72BFA204600F06B
:100F70006BFF90F90300A84224D008A9284600F08E
:100F8000EDFCB0F1000A18D00820534608AA294603
:100F90000090204600F0FCFC18B1012011B0BDE823
:100FA000F08F002084490855FF2084490855681CAB
:100FB000C1B22046FFF7CCFF04E08148FFF714F9E7
:100FC0000020EBE7A1E008A9284600F0C7FC824614
:100FD000002D71D17B4804700020814605E07949DD
:100FE000095C794A1154411CC8B21428F7D34FF058
:100FF000000B6FE01420744900220392CDE9042114
:1010000006901046114608222346CDE900210290A1
:101010006E4802782146007801F0D4F803F05EFDB6
:101020006B4908604FF0000948E000F013FE00F043
:1010300093FE002842D0634801F080F800283DD09C
:1010400064480078A04239D1634800785F49097844
:10105000884233D16148007809282FD109F1010075
:1010600000F0FF09484603F05CFE074600225C4B97
:1010700003F0A4FF21D800F033FF2746394659A0DA
:10108000FFF7B2F801204C49C8555048007840B2EB
:101090004A49C85503F022FD8046012302220090F0
:1010A0004C480178007800F0D9FD00F0D3FF01F042
:1010B00019F84FF0030B0AE01BE000BF03F00EFD30
:1010C00043490968401A42F234118842ADD300BF47
:1010D0000BF1010BBBF1030F8CDB484603F021FE43
:1010E000074600223E4B03F02FFE01D2681EC5B218
:1010F0000EE00820534608AA29460090204600F03A
:1011000047FC00B104E0681EC5B2002DBFF65BAF1E
:1011100000BF681C50B9002027490855FF20274907
:101120000855701CC1B22046FFF712FF2248005D2F
:1011300018B9214632A0FFF757F808A9304600F049
:101140000DFC824601271CE01C48C057A04217D165
:1011500007F0FF080020184901F80800FF20174990
:1011600001F80800404600F06FFE90F803904946F1
:101170004046FFF7EDFE0020274901F8080000BFB8
:101180007F1C264800688742DEDD214624A0FFF749
:101190002BF800F0A7FF012000E70000475F64691B
:1011A00073636F7665724E657750617468203A207C
:1011B00025640D0A00000000180100203A010020FB
:1011C000745600087E0100209201002038000020A3
:1011D000480000203A000020390000203D00002097
:1011E000000010402564206D61737465722069737E
:1011F000203120686F70206E6F64650D0A0000005A
:1012000025642D7468206E6F646520697320657293
:10121000726F720D0A0000005C0100203400002093
:1012200025640D0A77686572653F0D0A00000000AD
:101230002DE9F04788B04FF0000A5AA0FEF7D4FF1E
:101240006148017861A0FEF7CFFF002414E014206C
:10125000604900220392CDE904210092019202929A
:101260000690594803785C480278574801785A48F4
:10127000007800F0A7FF641C0A2CE8DB012487E05B
:10128000E5B20026B1467EE0494654A0FEF7ACFF29
:101290001420504900220392CDE904210690104603
:1012A000114601222B46CDE9002102904A480278DE
:1012B0002946007800F086FF03F010FC4A490860D8
:1012C000002650E000F0C6FC00F046FD00284AD0A1
:1012D000404800F033FF002845D044480078A84239
:1012E00041D1434800783C49097888423BD1414884
:1012F0000078022837D1701CC6B2304603F011FDC9
:10130000074600223C4B03F059FE2CD8314635A04D
:10131000FEF76AFF0022384B32A0FEF765FF03F0AC
:10132000DDFB074601230222009030480178007857
:1013300000F094FC00F0D4FD214630A0FEF754FFED
:101340000120344908552448007840B232490855F4
:1013500000F080FE00F0C6FE0AF1010000F0FF0A76
:101360004FF0030908E003F0B9FB1F490968401A70
:1013700042F234118842A5D300BF40F2A46001F0CC
:1013800055FF09F10109B9F1010FFFF67DAF641CAA
:101390002248006884427FF773AF4FFA8AF008B0A2
:1013A000BDE8F08773656E642062726F616463618B
:1013B00073742072657175657374206D65737361E4
:1013C00067650D0A000000005000002025640D0A2A
:1013D000000000007E010020380000207265747259
:1013E00079203A2025640000480000203A000020BF
:1013F000390000203D000020000010402564206DD1
:101400006173746572206973203120686F70206E7B
:101410006F646500180100203A01002034000020AC
:101420002DE9F04F91B080466FA0FEF7DDFE24213C
:1014300008A8FEF7C6FF002508A9012000F08EFAD3
:10144000814649466BA0FEF7CFFE0024B6E000259A
:10145000012605E06C48815D6CA0FEF7C5FE761C98
:101460006B4800688642F5DD6AA0FEF7BDFE0126E6
:101470000EE06548805D48B93746394666A0FEF7FC
:10148000B3FE6A484755681CC5B200BF701CC6B29F
:101490005F4800688642ECDD1DB9002011B0BDE850
:1014A000F08F08A8015D62A0FEF79EFE4FF4FA607F
:1014B00014215E4A0023CDE90432CDE9061003224F
:1014C000CDE9015308A803930092035D015D5C48D8
:1014D0000278007800F0B8FE48B9002008A9095D3C
:1014E000494A505408A9095D564A505464E060E0E6
:1014F00000F0B0FB00F030FC00285AD04B4800F060
:101500001DFE002855D0504800784D490978884282
:101510004FD14E48007805284BD108A8005D4C49B2
:101520000978884245D11420404900220392CDE930
:1015300004210690104611460E22CDE900210290AA
:10154000434803783E480278414801783C48007897
:1015500000F038FE00F0C4FC4FF0000A20E03348F1
:1015600010F80A6003F0BAFA834602231A46009084
:1015700037480178304600F071FB37463448007830
:1015800040B23049C85501201F49C8550846C25DC0
:10159000394630A0FEF728FE0AF1010000F0FF0AEC
:1015A0002F4800788245DADB00F054FD00F09AFD08
:1015B00000E09DE700BF00BF601CC4B24C45FFF6D1
:1015C00046AF0025012009E00F49095C21B92946F1
:1015D0006A1CD5B208F80100411CC8B20C49096860
:1015E0008842F1DD68B259E75B726F77325D0D0AB0
:1015F0000000000031686F702773206E756D203A0F
:101600002025640D0A000000180100202564200038
:10161000340000200D0A0000756E726563656976FE
:1016200065203A2025640D0A000000007E0100209C
:1016300073656E6420746F2025640D0A000000003D
:10164000380000203A010020390000203D00002031
:101650003A0000202564200D0A2564200D0A0000B0
:101660003E0000202DE9F04192B006467FA0FEF733
:10167000BBFD242109A8FEF7A4FE09A9304600F00D
:10168000CDFB002405E009A8015D7DA0FEF7ACFDBF
:10169000641C304600F0D8FB90F90300A042F2DC55
:1016A000304600F0D1FB90F90300441ED8E009A9B0
:1016B000085D00F0C9FB45784FF4FA601421724AC6
:1016C0000023CDE90432CDE90610184619461A4622
:1016D0000B23CDE90032CDE9021009A8035D6B4868
:1016E00002782946007800F0AFFD20BB09A9095D0A
:1016F000674A505C411C09AA125D654B9954022847
:1017000018DD002009A9095D624A5054FF2009A98B
:10171000095D614A505409A9085D00F095FBC57840
:1017200009A9085D2946FFF713FC002009A9095DF6
:10173000574A505497E009A9085D00F085FBC0782E
:1017400001281ED109A9085D00F07EFB457809A992
:10175000085D00F079FB477814204B490022039282
:10176000CDE904210690104611460E222B46CDE904
:1017700000210290454802783946007800F022FDA9
:101780006DE003F0ABF94549086054E000F062FAFF
:1017900000F0E2FA00284ED03B4800F0CFFC0028D1
:1017A00049D03F48007839490978884243D13D48BB
:1017B00000780F283FD109A9085D00F045FB477864
:1017C00009A9085D00F040FB90F8018014202E4923
:1017D00000220392CDE904210690104611460E2204
:1017E0003B46CDE900210290284802784146007826
:1017F00000F0E8FC2CA0FEF7F7FC2348057824490C
:10180000485D411C224A5155022813DD0020214920
:101810004855FF2020494855284600F015FBC77859
:1018200039462846FFF794FB00201949485512B065
:10183000BDE8F08100BF03F051F918490968451A65
:1018400009A9085D00F000FB90F9030000EB4000DF
:1018500040F2A4614843B5EB800F97D300BF641EEC
:10186000002CBFF624AF00BF00BFE0E766696E64DE
:101870005F6572726F725F6E6F64650D0A000000C3
:1018800025640D0A000000007E01002038000020C1
:101890005C010020180100203A01002048000020CF
:1018A000390000203D0000204E41434B0D0A00004E
:1018B0002DE9F0438BB0044688460225242102A876
:1018C000FEF77FFDA146012705E01C48C15D1CA075
:1018D000FEF78AFC7F1C1B4800688742F5DD1AA0D2
:1018E000FEF782FC02A9284600F038F8064617A049
:1018F000FEF77AFC1EE0002712E00620009018F8A0
:101900000700334602AA294600F042F830B1601EB3
:10191000C0B2041E02D10BB0BDE8F083781CC7B280
:101920004F45EADB691CC9B20D46084602A900F022
:1019300015F80646002EDED160B2ECE71801002053
:1019400025642000340000200D0A00005B4D554C3A
:1019500054495F484F505D0D0A00000010B5024623
:101960000B46002100200DE0084C04EBC00494F964
:101970000340944205D1054C14F830405C544C1C93
:10198000E1B2401C0528EFDB084610BDF000002046
:101990002DE9F04F89B00646894617469A4670A051
:1019A000FEF722FCB3460024D4E0385DB04200D1FB
:1019B000CEE0385D7149085C00B9C9E07048067036
:1019C000385D00F041FA45784FF4FA6014216C4A12
:1019D0000023CDE90432CDE906101298CDE90003C9
:1019E000029303933B5D674802782946007800F034
:1019F0002BFC78B9002061494855FF2062494855C1
:101A0000284600F021FA90F8038041462846FFF767
:101A10009FFA9DE0642001F009FC03F05FF85B4948
:101A2000086082E000F016F900F096F900287CD0FA
:101A3000534800F083FB002877D05548007851497F
:101A40000978884271D1534800784E490978884214
:101A50006BD100F045FA1420494900220392CDE9E8
:101A600004210690104611460E22CDE90021029075
:101A7000494803784348027847480178414800784C
:101A800000F0A0FB45480078B0422CD144480078D3
:101A9000072803D042480078092824D13E4800781E
:101AA000A84220D103F01AF8804600903D48007803
:101AB000401CC3B20222384801783848007800F050
:101AC000CDF82F48007840B22F4901F80B000120D3
:101AD0002A4901F80B0000F0BDFA00F003FB0120D9
:101AE00009B0BDE8F08F2E4800780F2818D12EA03D
:101AF000FEF77AFB224890F8008000201F4901F889
:101B00000800FF20204901F80800404600F09CF939
:101B1000C078014608904046FFF71AFA0020DFE738
:101B20002548007800B911E0FFE702F0D7FF174918
:101B30000968411A09F10100800000EB400040F201
:101B4000A9125043B1EB800FFFF46CAF00BF00BF90
:101B5000601CC4B25445FFF628AF0020C0E7000067
:101B6000475F726571756573745F706174685F6FEC
:101B70006E655F62795F6F6E650D0A001801002067
:101B80007E010020380000203A010020480000209B
:101B9000390000203C0000203A0000203B000020DB
:101BA0003D00002041000020726563656976652074
:101BB0004E41434B0D0A00003E00002070B5054623
:101BC0000E4614461748067017480570022017493C
:101BD00008600020164908701649087016490870F8
:101BE00011490870154816490860002009E00021D5
:101BF000144A1154FF21144A11540021134A11545C
:101C0000401C2228F3DB00F0EFF8FF201049087099
:101C10000448007800F078FC204601F05DFB00BF2E
:101C200070BD00003800002051000020340000206A
:101C3000420000204300002044000020A015FFFFC8
:101C400054000020180100203A0100205C0100200F
:101C50005000002010B501F023FF10BD2DE9F04722
:101C600005460E4617469846DDF82090002423E0EE
:101C7000384800EBC40090F90000A8421AD168B2BD
:101C8000344901F8340070B201EBC40148704FFAD6
:101C900088F0304901EBC401C87078B22D4901EBDE
:101CA000C401887002F01AFF2A4901EBC4014860A0
:101CB000BDE8F087601CC4B2052CD9DB002420E00D
:101CC000244800EBC4008078C8B968B2214901F803
:101CD000340070B201EBC40148704FFA88F01D491E
:101CE00001EBC401C87078B21A4901EBC4018870D5
:101CF00002F0F4FE174901EBC4014860D8E7601C0C
:101D0000C4B2052CDCDB00241FE0124800EBC40049
:101D10008078C0B968B20F4901F8340070B201EBA5
:101D2000C40148704FFA88F00A4901EBC401C87039
:101D300078B2084901EBC401887002F0CFFE054972
:101D400001EBC4014860601CC4B2052CDDDB00BFA0
:101D5000AEE70000F000002010B501F073FA08B102
:101D6000012010BD0020FCE72DE9F84305460E4692
:101D7000012428E017480057A84223D1E0B200F020
:101D800063F890F903703A46314613A0FEF72CFA37
:101D900002F0A4FE0746E0B200F056F8C078801BBF
:101DA00000F0FF08284600F04FF890F80190E0B2EC
:101DB0004346012249460097FFF750FFE0B2314603
:101DC000FFF7D2FF641C074800688442D2DDBDE8FB
:101DD000F88300003A01002025640D0A25640D0AED
:101DE0000000000034000020002012E000210A4A18
:101DF00002EBC0029170FF21074A02EBC002517052
:101E0000054A02F83010002102EBC0025160411C6B
:101E1000C8B20528EADB7047F000002070B5024622
:101E20000B461046002406E02546661CF4B25855C1
:101E30000146034D685C034D2D78A842F4D170BD76
:101E40003A0100203800002070B50546002417E054
:101E50000D4800EBC40090F90000A8420ED10A48DA
:101E600000EBC400807848B102F038FE064901EB6F
:101E7000C4014860044800EBC40070BD601CC4B2DB
:101E8000052CE5DB0020F8E7F00000200148007891
:101E9000704700003800002010B501F06FFF10BD42
:101EA00010B501F071FF10BD10B501F073FF10BD4A
:101EB00010B501F075FF10BD10B501F077FF10BD32
:101EC00010B501F079FF10BD10B501F07BFF10BD1A
:101ED00010B501F07DFF10BD10B501F07FFF10BD02
:101EE00010B51848FEF780F91748017817A0FEF7DB
:101EF0007BF91C4801781CA0FEF776F92048017890
:101F000020A0FEF771F92648017826A0FEF76CF9AB
:101F10002C4801782CA0FEF767F93148017831A0F0
:101F2000FEF762F93548017835A0FEF75DF93A48C9
:101F300001783AA0FEF758F93F4801783FA0FEF734
:101F400053F910BDD85600083A00002044475F728C
:101F50007848656164657246726F6D203A20256429
:101F60000D0A00003900002044475F72784865611F
:101F7000646572546F203A2025640D0A0000000049
:101F80003B00002044475F72784865616465725386
:101F90006F75726365203A2025640D0A0000000009
:101FA0003C00002044475F72784865616465724474
:101FB000657374696E6174696F6E203A2025640DD3
:101FC0000A0000003D00002044475F7278486561C8
:101FD00064657254797065203A2025640D0A00000A
:101FE0003E00002044475F72784865616465724432
:101FF000617461203A2025640D0A00003F00002032
:1020000044475F7278486561646572466C616773C6
:10201000203A2025640D0A004000002044475F72EA
:10202000784865616465725365714E756D203A201C
:1020300025640D0A000000004100002044475F7243
:1020400078486561646572486F70203A2025640D98
:102050000A0000003EB5002420E0124800EBC40056
:102060004068104901EBC40191F903100D4A02EBDD
:10207000C40292F90220CDE900210290094800EB48
:10208000C40090F90130074800EBC40090F900202B
:10209000214605A0FEF7A8F8601CC4B2052CDCDBC5
:1020A0003EBD0000F0000020256420446573743AB2
:1020B000202564204E65787420486F703A2025648E
:1020C0002053746174653A20256420486F703A206B
:1020D0002564204C6173742054696D653A20256431
:1020E0000D0A000010B500210AA0FEF77DF80124BA
:1020F0000AE00B48005D28B10A48015722460AA0B1
:10210000FEF772F8601CC4B20B4800688442F0DD30
:1021100010BD000061626364652025640D0A000043
:10212000180100203A010020656463626120256483
:102130002025640D0A0000003400002070B504461C
:10214000204601F02FF9051E27D0FFF7B1FE1449F4
:102150000870FFF7BDFE13490870FFF7B5FE12497E
:102160000870FFF79DFE11490870FFF7B5FE104992
:102170000870FFF791FE0F490870FFF795FE0E49B2
:102180000870FFF79DFE0D490870FFF795FE0C499A
:102190000870A5F10900C0B270BD0020FCE7000086
:1021A0003A000020390000203B0000203C000020C5
:1021B0003D0000203E0000203F00002040000020A5
:1021C000410000202DE9F05F80460C4615461E4672
:1021D0000AAF97E8800E0A2F05DB3046FFF734FE82
:1021E00008B9BDE8F09F00BF02F078FC1549096806
:1021F000401AB0F57A7FF7D3404600F061F92046E7
:1022000000F076F9284600F06DF9304600F04CF900
:10221000384600F073F9484600F040F9504600F0A7
:1022200049F9584600F058F90E9800F04FF9DDE9E9
:102230000F0101F00BFB02F051FC0249086000BFE6
:10224000CFE70000540000202DE9FF4F8BB00E4671
:1022500017469846DDE91D59189C0B2C07DB4046B4
:10226000FFF7F2FD18B900200FB0BDE8F08F4FF076
:10227000000A0B9800F024F9304600F039F938468E
:1022800000F030F9404600F00FF9204600F036F932
:10229000199800F003F91B9800F01EF91C9800F043
:1022A00015F9CDF82890002003E0295C6F4A1154FD
:1022B000401C4845F9DB4FF0000BD0E000BF02F0B6
:1022C0000DFC6B490968401AB0F57A7FF7D359467F
:1022D00068A0FDF789FF65480A9901F0B7FA02F096
:1022E000FDFB6349086002F0F9FB8246A9E0FFF7B5
:1022F000B1FCFFF731FD0028F8D02846FFF71EFF9C
:102300000028F3D05E480078B042EFD15D480078F5
:102310005D490978884224D15C4800780E280FD0A6
:102320005A48007802280BD058480078052807D072
:1023300056480078072803D054480078092810D15F
:10234000524800780E280AD002F0C8FB09900123F9
:10235000022200904A4801780078FFF77FFC0120B4
:1023600082E7032C05D149480078042801D10120D7
:102370007AE7062C05D145480078062801D10120CE
:1023800072E7424800780C2803D0404800781328B0
:1023900042D10B2C40D13C4800783B490978C9B365
:1023A0000420002103910E22CDE90415CDE900217E
:1023B0000291069032480378334802783048017819
:1023C00031480078FFF7FEFE31480078FFF73CFD0A
:1023D00000B32F480078FFF737FD40784FF4FA61DB
:1023E000042209902B480078401CC0B2CDE9055268
:1023F000079104900020254B1B78CDE90030029016
:10240000039023480378244802781F4800780999EC
:10241000FFF71AFF012027E70B2C0AD11B48007891
:102420000B2804D0194800780D2800D000BF0120E7
:102430001AE7112C05D115480078122801D1012086
:1024400012E702F04BFBA0EB0A0040F2A4618842C5
:10245000FFF44DAF1F9800F0E9FE0BF1010BBBF14B
:10246000030FFFF62BAF0020FEE6000092010020D4
:10247000540000207265747279203A2025640000AF
:102480003A00002039000020380000203D000020E4
:102490003C000020410000203B00002010B5044615
:1024A000204601F0A1FC10BD10B50446204601F005
:1024B000A1FC10BD10B50446204601F0A1FC10BDE2
:1024C00010B50446204601F0A1FC10BD10B504462D
:1024D000204601F0A1FC10BD10B50446204601F0D5
:1024E000A1FC10BD10B50446204601F0A1FC10BDB2
:1024F00010B50446204601F0A1FC10BD10B50446FD
:10250000204601F0A1FC10BD10B50446204601F0A4
:10251000A1FC2046FFF7D4FF0148047010BD000065
:10252000380000207047000010B50548006800F032
:102530000F04034844602046FFF7F4FF10BD00007D
:10254000000002407047000010B505480068C0F365
:1025500003142001024948602046FFF7F3FF10BD35
:10256000000002407047000010B505480068C0F345
:1025700003242002024948602046FFF7F3FF10BD04
:10258000000002407047000010B505480068C0F325
:1025900003342003024948602046FFF7F3FF10BDD3
:1025A000000002407047000010B505480068C0F305
:1025B00003442004024948602046FFF7F3FF10BDA2
:1025C000000002407047000010B505480068C0F3E5
:1025D00003542005024948602046FFF7F3FF10BD71
:1025E000000002407047000010B505480068C0F3C5
:1025F00003642006024948602046FFF7F3FF10BD40
:102600000000024008B50420ADF8000003208DF85A
:10261000020018208DF8030069460D4800F01AF8F2
:102620000820ADF8000004208DF803006946084832
:1026300000F010F80220ADF8000003208DF8020031
:1026400010208DF803006946014800F003F808BD2A
:10265000000801402DE9F041024600250026002037
:1026600000230024002791F803C00CF00F0591F817
:1026700003C00CF0100CBCF1000F03D091F802C0A5
:102680004CEA050591F800C0BCF1000F31D0146888
:1026900000202BE04FF0010C0CFA00F3B1F800C061
:1026A0000CEA03069E4220D183004FF00F0C0CFA77
:1026B00003F7BC4305FA03FC4CEA040491F803C099
:1026C000BCF1280F06D14FF0010C0CFA00FCC2F847
:1026D00014C00AE091F803C0BCF1480F05D14FF0D7
:1026E000010C0CFA00FCC2F810C0401C0828D1D321
:1026F0001460B1F800C0BCF1FF0F34DD5468002055
:102700002EE000F1080C4FF0010808FA0CF3B1F8C4
:1027100000C00CEA03069E4221D183004FF00F0C4B
:102720000CFA03F7BC4305FA03FC4CEA040491F8E5
:1027300003C0BCF1280F05D100F1080C08FA0CF811
:10274000C2F8148091F803C0BCF1480F07D100F122
:10275000080C4FF0010808FA0CF8C2F81080401C71
:102760000828CED35460BDE8F0810246002093686B
:102770000B400BB1012000E0002070474161704721
:10278000016170470A49096801F0010171B1084906
:102790008039096801F0010141B100BF4FF060418B
:1027A00009680029FAD04FF06042107070470000AD
:1027B000800E00E030B5144800684FF47A72B0FB28
:1027C000F2F1481EB0F1807F00D31BE0481E4FF0AD
:1027D000E022506150170F22002804DB13071C0E63
:1027E0000A4B1C5406E013071D0E094B00F00F04A2
:1027F000241F1D5500BF00204FF0E02290610720EC
:10280000106100BF30BD0000D000002000E400E0F7
:1028100018ED00E008B54FF4E06000F045F8262020
:102820008DF8000000208DF8020001208DF80300D3
:10283000684600F001F808BD70B5002100230F22A2
:10284000C47804B3154C246804F4E064C4F5E0646F
:10285000210AC1F10403CA40447804FA03F18478E0
:102860001440214309010E4C0678A155047804F068
:102870001F050124AC4005786D11AD0005F1E02580
:10288000C5F8004109E0047804F01F050124AC40BC
:10289000044D0678761145F8264070BD0CED00E039
:1028A00000E400E080E100E002490143024A1160D7
:1028B000704700000000FA050CED00E000B585B09F
:1028C00000F0E2F90121042000F04AF80121880318
:1028D00000F046F84FF40070ADF8100003208DF8BA
:1028E000120018208DF8130004A91348FFF7B2FE58
:1028F0004FF48060ADF8100004208DF8130004A997
:102900000D48FFF7A7FE4FF4165000900020ADF8D9
:102910000400ADF80600ADF80800ADF80C000C207E
:10292000ADF80A006946054800F05EFB0121034846
:1029300000F0F1FA05B000BD000801400038014088
:1029400029B1064AD2690243044BDA6104E0034A22
:10295000D2698243014BDA617047000000100240E7
:1029600029B1064A92690243044B9A6104E0034A82
:1029700092698243014B9A61704700000010024047
:1029800010B501214804FFF7DBFF10BD30B5002171
:102990000022002400232D4D6D6805F00C0121B1AB
:1029A000042905D0082923D105E0294D056022E03E
:1029B000274D05601FE0254D6D6805F47012234D0D
:1029C0006D6805F48034022505EB92421CB9214D57
:1029D000554305600BE01D4D6D6805F400351DB1D4
:1029E0001C4D5543056002E0194D5543056002E05A
:1029F000174D056000BF00BF144D6D6805F0F00174
:102A00000909154D6B5C0568DD4045600F4D6D682B
:102A100005F4E061090A104D6B5C4568DD40856096
:102A20000A4D6D6805F46051C90A0B4D6B5C456831
:102A3000DD40C560054D6D6805F44041890B074DCB
:102A40006B5CC568B5FBF3F5056130BD0010024055
:102A500000127A0000093D00BC000020CC000020DC
:102A600021B1028842F04002028004E002884FF661
:102A7000BF731A400280704710B50022028802F42A
:102A800041520B884C8823438C882343CC882343B2
:102A90000C8923434C8923438C892343CC892343CA
:102AA0001A430280838B4FF2FF74234083830B8A87
:102AB000038210BD102001490860704710080140D2
:102AC00000B587B001210803FFF74AFF3020ADF8B9
:102AD00014000020ADF81000ADF80E00ADF80C00A9
:102AE000ADF80800ADF816004FF48270ADF80A009A
:102AF0004FF44070ADF8120002A91448FFF7BCFF74
:102B000001211248FFF7ACFF01210420FFF728FF45
:102B1000E020ADF8040018208DF8070003208DF8A0
:102B2000060001A90A48FFF795FD1020ADF8040042
:102B30008DF8070003208DF8060001A90448FFF76F
:102B400089FDFFF7B7FF07B000BD0000003001406E
:102B50000008014001460D48818100BF0B480089F3
:102B600000F002000028F9D000BF0848008900F0FA
:102B700001000028F9D000BF0448008900F080005F
:102B80000028F9D101488089C0B270470030014067
:102B900010B500F001F810BD0CB5002001900090B8
:102BA0003348006840F480303149086000BF304845
:102BB000006800F4003000900198401C01900098DB
:102BC00018B90198B0F5A06FF1D12948006800F458
:102BD000003010B10120009001E00020009000982A
:102BE000012843D12348006840F0100021490860C3
:102BF0000846006820F0030008600846006840F0BE
:102C0000020008601A484068194948600846406850
:102C100048600846406840F4806048600846406864
:102C200020F47C1048600846406840F4E810486092
:102C30000846006840F08070086000BF0C480068DB
:102C400000F000700028F9D00948406820F0030027
:102C5000074948600846406840F00200486000BFED
:102C60000348406800F00C000828F9D10CBD0000B2
:102C7000001002400020024002480068401C014948
:102C8000086070475800002010B51348006840F0F5
:102C900001001149086008464068104908400E4983
:102CA0004860084600680E4908400B49086008461D
:102CB000006820F4802008600846406820F4FE0088
:102CC00048604FF41F008860FFF762FF4FF000601C
:102CD0000449086010BD0000001002400000FFF829
:102CE000FFFFF6FE08ED00E010B50121880700F0B7
:102CF00009F818B10121880700F001F810BDCA4396
:102D00000282704730B50246002000230024158A55
:102D100005EA0103958905EA010413B10CB101200C
:102D200000E0002030BD00001FB54FF416500090A9
:102D30000020ADF80400ADF80600ADF80800ADF8CD
:102D40000C000C20ADF80A006946094800F04CF967
:102D5000012240F22551064800F020F901210448E3
:102D600000F0D9F802210348FFF708FD1FBD00005D
:102D7000004400400008014070B540F2255153481E
:102D800000F0E2F820B340F22551504800F0B4F8CA
:102D90004F48007880B94D4800F092F9C4B2D52C64
:102DA00001D0C52C07D14A4801780078401C484A18
:102DB0001070484844540BE0444800F081F9C1B217
:102DC000434802780078401C414B187041488154B8
:102DD0003F4800780A2878D1002505E03D48415D4C
:102DE0003DA0FDF701FA6D1C0A2DF7DB3BA0FDF7B6
:102DF000FBF9384880783A490870002240F22551A2
:102E0000324800F0CBF802213648FFF7B9FC002524
:102E100012E03348007800EB8000334A02EB4000B8
:102E2000415D2A4800F051F900BF4021274800F0D9
:102E30007EF80028F9D06D1C0A2DEADB0221294812
:102E4000FFF79CFC012240F22551204800F0A6F833
:102E50000024002003E01F49095C4C40401C092865
:102E6000F9DB1C48407AA0422BD11A480078BD28D3
:102E70000FD100200AE01749095C194A127802EBC9
:102E800082021A4B03EB42021154401C0A28F2DB67
:102E900017E010480078BE2813D100200AE00D4941
:102EA000095C0F4A127802EB8202114B03EB4202DB
:102EB0001154401C0A28F2DB01200E49084A1278FE
:102EC000885400200249087000BF70BD00440040D3
:102ED000AF000020C0060020257820000D0A000069
:102EE000B0000020000801405E0200209E03002088
:102EF000FE040020DE04002010B50022002340F66E
:102F00006A14A14200D100BF0A1201249440A3B266
:102F1000DC43048010BD21B1828942F400528281D9
:102F200004E082894DF6FF731A40828170470246A1
:102F30000020B1F5007F00D100BF13880B400BB11A
:102F4000012000E00020704770B5024600240023F5
:102F50000025002040F66A16B14200D100BFC1F33F
:102F6000421501F01F03012606FA03F3012D02D1D9
:102F70009689334006E0022D02D1168A334001E0E3
:102F8000968A33400C12012606FA04F4168834405F
:102F900013B10CB1012000E0002070BDF0B5034674
:102FA000002400260025002040F66A17B94200D10F
:102FB00000BF1846C1F3421401F01F06012707FAAB
:102FC00006F5012C01D10C3004E0022C01D11030A7
:102FD00000E014301AB107682F43076002E0076869
:102FE000AF430760F0BD00002DE9F04786B005460D
:102FF0000E460024A24600BFA1460027B08900B1BA
:1030000000BF2F462C8A4CF6FF700440F088044322
:103010002C82AC894EF6F3100440B0883189084305
:10302000718908430443AC81AC8A4FF6FF400440E9
:10303000B0890443AC8201A8FFF7A8FC1F4887426F
:1030400002D1DDF810A001E0DDF80CA0A88900F4A1
:10305000004040B10AEBCA0000EB0A103168490099
:10306000B0FBF1F807E00AEBCA0000EB0A10316888
:103070008900B0FBF1F86420B8FBF0F004012009EE
:10308000642101FB1089A88900F4004040B132207E
:1030900000EBC900B0FBF1F000F00700044308E0CA
:1030A000322000EB09106421B0FBF1F000F00F00BA
:1030B00004432C8106B0BDE8F087000000380140D1
:1030C00001468888C0F308007047C1F30802828077
:1030D000704701466FF40040084420B1012804D035
:1030E000022806D103E0002070470020FCE7002002
:1030F000FAE74FF0FF30F7E701466FF4004008446D
:1031000020B1012804D0022806D103E00020704736
:103110000020FCE70020FAE70020F8E701466FF402
:103120000040084420B1012804D0022806D103E061
:10313000012070470120FCE70120FAE70020F8E7B2
:1031400070B504460D4614B94FF0FF3070BD2078BD
:103150003A281AD10EA12046FDF75AF910B948F2C3
:103160000100F3E70CA12046FDF752F910B948F22F
:103170000200EBE70AA12046FDF74AF910B948F230
:103180000300E3E74FF0FF30E0E74FF0FF30DDE70B
:103190003A535444494E00003A5354444F55540056
:1031A0003A5354444552520002466FF400401044D2
:1031B00020B1012805D0022809D105E04FF0FF30E9
:1031C00070474FF0FF30FBE74FF0FF30F8E74FF06C
:1031D000FF30F5E72DE9F04107460C4615469846C5
:1031E0006FF40040384420B1012806D002281AD1DB
:1031F0000EE04FF0FF30BDE8F08105E014F8016B00
:10320000304601F08BFC6D1E002DF7D10020F2E757
:1032100005E014F8016B304601F07AFC6D1E002DBC
:10322000F7D10020E7E74FF0FF30E4E700B50146B3
:1032300001F054FC024600BF01F050FC801A8842A5
:10324000FAD300BD70B5BD2000F01AFD044604F0AD
:103250000F0501210748FFF788FA40B100BF01219F
:103260000448FFF782FA0028F9D1012070BD002040
:10327000FCE70000000C014010B540210348FFF7B7
:103280007DFA80210148FFF779FA10BD000C01405A
:1032900010B540210348FFF771FA80210148FFF77C
:1032A0006FFA10BD000C014008B541F20100ADF805
:1032B000000004208DF8030069460648FFF7CAF9AC
:1032C00001210448FFF75CFA4FF480510148FFF7F1
:1032D00057FA08BD000C014010B5044600201B49F8
:1032E0000870AA201A490870BB201A490870CC201F
:1032F00019490870DD2019490870EE201849087036
:10330000DD2018490870FF20174908700020174970
:103310000870FFF7D3FAFFF74DFA00F0E3FBFFF771
:10332000C3FF10211248FFF72BFA20211048FFF7A6
:1033300027FA80210E48FFF721FAFFF7A9FF00F0D6
:1033400049FA204600F084F910BD00000400002076
:103350000E0000200F0000201000002011000020AF
:10336000120000201300002014000020150000208F
:10337000000801402DE9F041662742F6727000F026
:103380003BFC064606F0010048B142F6717000F0C1
:1033900033FC0446E01BC5B22846BDE8F08100209E
:1033A000FBE700002DE9F04F9FB0804670A0FCF7CE
:1033B0001BFF42F6D77000F01FFC041E02D11FB0A5
:1033C000BDE8F08FC3E0BF2000F016FC0446092CD6
:1033D00001DB322C0EDD67A0FCF706FF214675A04D
:1033E000FCF702FF6420FFF721FF3A2000F048FCC1
:1033F0000020E4E7E01C864207D070A0FCF7F4FE52
:103400003A2000F03DFC0020D9E722466946FF2023
:1034100000F09EFB02221EA9FF2000F099FB9DF800
:10342000780001F061FB694908709DF8790000F0AF
:103430007F099DF8790000F0800A0027002504E04C
:103440001DF805004740681CC5B2601EA842F7DCA5
:103450001DF80000B8420AD05D48FCF7C5FE6420A4
:10346000FFF7E4FE3A2000F00BFC0020A7E7FFF78F
:1034700081FF40B255490870084690F9000010F1EC
:10348000780F0ADA53A0FCF7AFFE6420FFF7CEFEF8
:103490003A2000F0F5FB002091E75DA0FCF7A4FEC8
:1034A00001F01CFB4FF47A71B0FBF1FB594641A0CF
:1034B000FCF79AFE002509E01DF8051059A0FCF75D
:1034C00093FE59A0FCF790FE681CC5B2A542F3DB41
:1034D00027A0FCF789FE9DF80000544908709DF86C
:1034E0000100534908709DF80200524908709DF888
:1034F0000300514908709DF80400504908709DF878
:1035000005004F4908709DF806004E4908709DF867
:1035100007004D4908709DF808004C490870A4F157
:103520000A020DF109014046FCF706FF002504E000
:1035300000200DF80500681CC5B2782DF8DB64206A
:10354000FFF774FE3A2000F09BFB204637E742F677
:10355000D77000F051FB064609283FF734AF6420CE
:10356000FFF764FE3A2000F08BFB002027E7000005
:103570000D0A00002A2A2A2A2A2A2A2A2A2A2A2A3C
:103580002A2053697A65204552524F52203A2054DE
:103590006F6F2073686F7274206F7220546F6F208A
:1035A0006C61726765202A2A2A2A2A2A2A2A2A2056
:1035B0000000000025640D0A0000000073697A65B0
:1035C000206D69736D617463680D0A001700002037
:1035D000305600082A2A2A2A2A2A2A2A2A2A2A2A65
:1035E0002A207765616B207369676E616C2872733E
:1035F00073692062656C6F77207468726573686F99
:103600006C64292A2A2A2A2A2A2A2A2A0D0A000030
:103610002D2D2D2D2D726563656976652D2D2D2D32
:103620002D0000002578000020202000050000204B
:1036300006000020070000200800002009000020EC
:103640000A0000200B0000200C0000200D000020CC
:1036500010B504460621002000F052FB062101208F
:1036600000F04EFBB021022000F04AFB4021032075
:1036700000F046FB0B21082000F042FB89210A20C4
:1036800000F03EFB02210B2000F03AFB1C210C2035
:1036900000F036FB18210D2000F032FBC62110206F
:1036A00000F02EFB1821112000F02AFB0521132029
:1036B00000F026FB5321142000F022FB20211720CC
:1036C00000F01EFB1921182000F01AFBA9211C2074
:1036D00000F016FBCF211D2000F012FB00211E2060
:1036E00000F00EFB1421212000F00AFB20212820ED
:1036F00000F006FB4F212B2000F002FBFF212E20C3
:1037000000F0FEFA00214FF43C5000F0F9FA2221BB
:1037100042F6017000F0F4FA6A2142F60C7000F0F3
:10372000EFFA2D2142F60D7000F0EAFA992142F6E7
:103730000E7000F0E5FA002142F6127000F0E0FA97
:103740005F2142F6137000F0DBFA402142F616705A
:1037500000F0D6FA0E2142F6177000F0D1FA0321DC
:1037600042F6197000F0CCFA332142F61B7000F0DB
:10377000C7FA172142F61D7000F0C2FA502142F636
:103780001F7000F0BDFA6E2142F6207000F0B8FA0A
:10379000142142F6217000F0B3FAAC2142F62270F7
:1037A00000F0AEFAB42142F6277000F0A9FA0E211B
:1037B00042F6327000F0A4FA032142F6367000F0AF
:1037C0009FFA1021262000F09BFA204600F000F915
:1037D00010BD000010B502211648FEF7CFFF64208F
:1037E000FFF724FD02211348FEF7CAFF6420FFF70C
:1037F0001DFD10211048FEF7C1FF02E00FA0FCF7ED
:10380000F3FC40210C48FEF7B0FF0028F6D1302031
:10381000FFF7A0F902E00CA0FCF7E6FC4021064807
:10382000FEF7A3FF0028F6D110210348FEF7A8FFFA
:1038300010BD0000000C0140000801404D49534FED
:1038400020310D0A00000000320D0A0070B58AB068
:1038500006460D4649A0FCF7C7FC322D01DD0AB033
:1038600070BD474800788DF80000464800788DF814
:103870000100454800788DF80200444800788DF832
:103880000300434800788DF80400424800788DF822
:103890000500414800788DF8060040490878411C31
:1038A0003E4A11708DF807003D4800788DF80800F9
:1038B000092406E0A4F10900305C0DF80400601C46
:1038C000C4B205F109008442F4DB00210DF80010B8
:1038D00000240CE005F109001DF800001DF804109B
:1038E000484005F109010DF80100601CC4B205F162
:1038F00009008442EEDB2B48FCF776FC2AA0FCF79B
:1039000073FCFFF7B9FC002409E01DF8041029A09E
:10391000FCF76AFC28A0FCF767FC601CC4B205F148
:103920000A00A042F1DC25A0FCF75EFC05F10A00CC
:10393000C1B23F2000F0E4F905F10A00C2B26946C5
:103940007F2000F0B7F9352000F09AF900BF01217F
:103950001E48FEF70AFF0028F9D000BF01211B48CE
:10396000FEF703FF0028F9D16420FFF75FFC3B203E
:1039700000F086F9FFF78CFC00BF70E70D0A00002D
:103980000E0000200F000020100000201100002079
:103990001200002013000020140000201500002059
:1039A00016000020E855000820202020202020209C
:1039B000202000002564000020202000202020205E
:1039C0002020202020200D0A00000000000C0140D3
:1039D0002DE9F14F88B02F480490089801F08AF93A
:1039E00006462D4A2D4B01F0EBF904460D4604988E
:1039F00001F004FC22462B46CDE9000101F0C6F897
:103A0000804601F091F803904FF08240039901F055
:103A1000FFFC02904FF08F41029801F0F9FC05463F
:103A20004FF0844101F016FC044601F0D5FC8346BA
:103A300058464FEAEB710BEB1141091407914FEA1D
:103A4000EB710BEB11410914ABEB014A50464FEA05
:103A5000EA710AEB1161091206914FEAEA710AEB69
:103A600011610912AAEB012105910798C1B242F632
:103A70000C7000F045F90698C1B242F60D7000F0E6
:103A80003FF90598C1B242F60E7000F039F909B05D
:103A9000BDE8F08F335BD4439A9999999999893FFE
:103AA00070B5BD2000F0ECF8044604F0700514B9C0
:103AB000342000F0E5F804F00F0010B13A2000F0D7
:103AC000DFF8202D02D1342000F0DAF8602D02D189
:103AD0003A2000F0D5F8702D02D13B2000F0D0F84C
:103AE00070BD000008B501210920FEF739FFFEF77F
:103AF000E7FFC220ADF8000010208DF8030003207E
:103B00008DF8020069460A48FEF7A4FD6420FFF71D
:103B10008DFB08A0FCF768FB102108A0FCF764FBF4
:103B200007A0FCF761FB012107A0FCF75DFB08BDC6
:103B3000000C014053535F50494E200025640000A3
:103B40000947444F3020000025640D0A00000000A2
:103B50002DE9F04705460E4617464FEA252905F0A0
:103B6000FF0AB9F1000F1ED110212248FEF706FE10
:103B700000BF40211F48FEF7F8FD0028F9D14AF0A8
:103B8000C0084046FEF7E6FF002405E00020FEF7EF
:103B9000E1FF3055601CC4B2BC42F7DB1021154870
:103BA000FEF7EEFD23E0B9F12F0F20D110211148CF
:103BB000FEF7E4FD00BF40210E48FEF7D6FD0028C9
:103BC000F9D1D04649F0C000FEF7C4FF4046FEF7E9
:103BD000C1FF002405E00020FEF7BCFF3055601C4B
:103BE000C4B2BC42F7DB10210248FEF7C9FDBDE8B4
:103BF000F0870000000801402DE9F041044625123D
:103C0000E0B20746D5B910211C48FEF7B7FD00BF4A
:103C100040211A48FEF7A9FD0028F9D147F0800697
:103C20003046FEF797FF0120FEF794FF80461021F3
:103C30001248FEF7A5FD4046BDE8F0812F2D1BD1AF
:103C400010210E48FEF79AFD00BF40210B48FEF7F9
:103C50008CFD0028F9D145F08000FEF77BFF384647
:103C6000FEF778FF0120FEF775FF8046102103481C
:103C7000FEF786FD4046DFE700BFDDE700080140B4
:103C800070B5044610210A48FEF778FD00BF4021B8
:103C90000748FEF76AFD0028F9D12046FEF75AFFD3
:103CA000054610210248FEF76BFD284670BD000056
:103CB000000801402DE9F04105460E46174645F043
:103CC000400810210D48FEF759FD00BF40210B4868
:103CD000FEF74BFD0028F9D14046FEF73BFF0024DC
:103CE00004E0305DFEF736FF601CC4B2BC42F8DB76
:103CF00010210248FEF744FDBDE8F08100080140B4
:103D00002DE9F04104460E462512E7B2C5B910214F
:103D10001948FEF733FD6420FFF788FA00BF402101
:103D20001548FEF722FD0028F9D13846FEF712FFAC
:103D30003046FEF70FFF10210F48FEF721FD19E076
:103D40002F2D17D110210C48FEF718FD00BF402180
:103D50000948FEF70AFD0028F9D12846FEF7FAFEC9
:103D60003846FEF7F7FE3046FEF7F4FE1021024813
:103D7000FEF706FDBDE8F08100080140014800782B
:103D8000704700000A0000200148007870470000DA
:103D90000800002001480078704700000B00002058
:103DA00001480078704700000500002001480078B5
:103DB000704700000D0000200148007870470000A7
:103DC0000C00002001480078704700000700002028
:103DD0000148007870470000060000200148007884
:103DE000704700000900002001490870704700007A
:103DF00013000020014908707047000011000020E6
:103E00000149087070470000140000200149087043
:103E1000704700000E000020014908707047000044
:103E200016000020014908707047000015000020AE
:103E30000149087070470000100000200149087017
:103E4000704700000F000020014908707047000013
:103E50001200002001490870704700000400002093
:103E600070B504460D46E1B20548FFF72EF900BFD4
:103E700040210348FFF75BF80028F9D0204670BDC9
:103E8000003801408AB00F2200210846FDF796FE57
:103E9000FCF7A0FFFDF7FAFFFE490870FDF7DAFE18
:103EA000FEF76EFDFEF7B6FCFEF7ACFBFEF73CFF3F
:103EB000FCF790FFF9E3FEF715F900F00FFEF64965
:103EC0000968F64A114488420CD90120F449087067
:103ED000F4480078401CC0B2F2490870202801DD87
:103EE000012008700020EE49087009903EE1EE497B
:103EF0000998085C002868D00998401CEB490870B4
:103F0000002008900CE0099800EB8000E84901EBE4
:103F100040010898095CE74A11540898401C089031
:103F200008980A28EFDB00F0D9FDE3490860E34870
:103F3000DE490978405C0028DDD0DC480078FDF7D8
:103F400083FF407808904FF4FA601421D94A002387
:103F5000CDE90432CDE90610184619461A46142355
:103F6000CDE90032CDE90210D0480378C948027883
:103F700000780899FEF768F940BBCC480078FDF757
:103F800063FF40780890CE490898085C411CCAB28B
:103F9000CB4B079008995A54022816DD0021C74AD6
:103FA00008981154FF21C74A089811540898FDF742
:103FB0004BFFC078014607900898FCF7C9FF002125
:103FC000BF4A08981154FEF78DF8CCE00120BE4995
:103FD000087000F083FDBD490860A1E0FDF73AFEDE
:103FE000FDF7BAFE0028F8D0B248FEF7A7F800287F
:103FF000F3D0FDF76DFFA74909788842EDD1FDF7B1
:1040000067FFB3490870FDF753FFB2490870FDF729
:104010005BFFB1490870FDF743FFB0490870FDF739
:104020005BFFAF490870FDF737FFAE490870FDF739
:104030003BFFAD490870FDF743FFAC490870FDF741
:104040003BFFAB49087000209F4908701420994934
:1040500000220392CDE904210690104611460E225B
:10406000CDE9002102909B4803788A48027899485C
:10407000017888480078FEF7A5F8994800780F285D
:1040800028D19CA0FCF7B0F88A48007808908C49A9
:104090000898085C411CCAB2894B079008995A5489
:1040A000022816DD0021854A08981154FF21854A0F
:1040B000089811540898FDF7C7FEC078014607908C
:1040C0000898FCF745FF00217D4A08981154FEF737
:1040D00009F824E082480078152820D187490998FA
:1040E00051F8200074490968884203D200216E4AC1
:1040F00009981154002008900EE06E490898095C58
:10410000099800EB80007E4A02EB400208981154A7
:104110000898401CC0B2089008980A28EDDB17E008
:1041200000F0DCFC69490968441A60480078FDF732
:104130008BFE90F9030000EB4000800040F2A911D3
:10414000484341F2883101EB80008442FFF446AFDE
:1041500000BF5D48007830B16AA0FCF745F85348CD
:104160000078FDF77FFA0998401C099009982028EB
:104170007FF7BDAE4A480078002858D064A0FCF70D
:1041800033F84848017864A0FCF72EF845480078D9
:104190004649087049480978405C0028EDD04348FA
:1041A0000078FDF751FE407809904FF4FA60142131
:1041B000404A0023CDE90432CDE9061018461946DD
:1041C0001A461123CDE90032CDE9021037480378B1
:1041D0003048027800780999FEF736F840BB33483A
:1041E0000078FDF731FE4078099035490998085C60
:1041F000411CCAB2324B089009995A54022816DD64
:1042000000212E4A09981154FF212E4A0998115471
:104210000998FDF719FEC078014608900998FCF747
:1042200097FE0021264A09981154FDF75BFF4DE1E6
:104230001E480078FDF708FEC078012870D1FDF710
:1042400047FE23490870FDF733FE22490870FDF749
:104250003BFE21490870FDF723FE20490870FDF759
:104260003BFE1F490870FDF717FE1E490870FDF759
:104270001BFE1D490870FDF723FE1C490870FDF761
:104280001BFE1B49087014200A4900220392CDE945
:10429000042146E09C000020B4000020C027090053
:1042A000AE000020AD000020DE040020A7000020AA
:1042B000FE04002036020020B8000020D0010020BB
:1042C00014020020F2010020AC000020A800002011
:1042D0009D0000209E0000209F000020A0000020E4
:1042E000A1000020A2000020A3000020A4000020C4
:1042F000A50000204E41434B0D0A0000400600205F
:104300005E02002074696D656F7574210D0A0000EE
:104310005343414E0D0A000025640D0A00000000C1
:1043200018E00690104611460E22CDE900210290B9
:10433000FE480378FE480278FC480178FC48007883
:10434000FDF740FF0020FB49087000F0C7FBFA4969
:104350000860BBE0F9480078FDF776FDC0780128D9
:10436000F7D00120F649087000F0B8FBF549086065
:104370008BE0FDF76FFCFDF7EFFC002878D0F248EA
:10438000FDF7DCFE002873D0FDF7A2FDE8490978AF
:1043900088427AD1FDF79CFDEC490870FDF788FD55
:1043A000E2490870FDF790FDE9490870FDF778FDD6
:1043B000E8490870FDF790FDE7490870FDF76CFDCE
:1043C000E6490870FDF770FDE5490870FDF778FDD6
:1043D000E4490870FDF770FDE3490870FDF780FDC2
:1043E0000020D74908701420D74900220392CDE954
:1043F00004210690104611460E22CDE900210290BC
:10440000CA480378CA480278C8480178C848007882
:10441000FDF7D8FED04800780F282AD1AFF22C1033
:10442000FBF7E2FEC84800780990D0490998085C7B
:10443000411CCAB2CD4B089009995A54022816DD86
:104440000021CB4A09981154FF21CA4A09981154F6
:104450000998FDF7F9FCC078014608900998FCF727
:1044600077FD0021C14A09981154FDF73BFE0BE08E
:104470000BE0B9480078122806D100F02FFBAE49B6
:1044800008600020AB49087014E000F027FBAD493C
:104490000968441AA9480078FDF7D6FC90F9030092
:1044A00000EB4000800040F2A9114843B4EB800FBC
:1044B000FFF45FAF00BFA248007838B1AFF2BC1084
:1044C000FBF792FE9D480078FDF7CCF8AA480078EB
:1044D0009A490870002009900EE0A7480078401E15
:1044E00000EB8000A54901EB40010998095C964A60
:1044F00011540998401C099009980A28EDDB9C4842
:104500008E490978405C00287DD08C480078FDF702
:104510009BFC407809904FF4FA6014218A4A0023EA
:10452000CDE90432CDE90610184619461A460B2388
:10453000CDE90032CDE90210804803787C4802784A
:1045400000780999FDF780FE40BB7C480078FDF7B4
:104550007BFC4078099085490998085C411CCAB2E7
:10456000824B089009995A54022816DD0021804A8E
:1045700009981154FF217F4A099811540998FDF7B1
:1045800063FCC078014608900998FCF7E1FC002123
:10459000764A09981154FDF7A5FD68E2674800784E
:1045A000FDF752FCC07801287ED000F097FA6549EB
:1045B00008600120624908704BE1FDF74BFBFDF7F5
:1045C000CBFB0028F8D06048FDF7B8FD0028F3D0F9
:1045D000FDF77EFC564909788842EDD1FDF778FC5D
:1045E0005A490870FDF764FC50490870FDF76CFCEF
:1045F00057490870FDF754FC56490870FDF76CFCEC
:104600005549087000E01DE2FDF746FC534908706B
:10461000FDF74AFC52490870FDF752FC51490870F9
:10462000FDF74AFC50490870FDF75AFC0020444948
:1046300008701420444900220392CDE90421069019
:10464000104611460E22CDE900210290374803782A
:10465000374802783548017835480078FDF7B2FDD3
:104660003D4800780F282CD1AFF27830FBF7BCFD25
:104670003548007809903D490998085C411CCAB248
:104680003A4B089009995A54022819DD0021384AFA
:1046900009981154FF21374A099811540998FDF7D8
:1046A000D3FBC078014601E0F6E0EAE10890099802
:1046B000FCF74EFC00212D4A09981154FDF712FD1C
:1046C000C6E0002009900FE01F490998095C2A48BC
:1046D0000078401E00EB8000294A02EB4002099856
:1046E00011540998401C099009980A28ECDB1A48D3
:1046F00000780C2869D10020099060E000F0EEF904
:10470000089013480078FDF79FFBC078401CC0B2AA
:1047100007900898009009980A300B49085C0690A9
:10472000022202480178DDE906032BE09E0000200A
:104730009C000020AE000020B4000020A700002054
:10474000AC000020A8000020360200209D000020C0
:104750009F000020A0000020A1000020A200002057
:10476000A3000020A4000020A500002014020020C7
:10477000D0010020F2010020A60000209E030020AE
:104780005E020020FDF76AFA012109980A30BE4A4C
:10479000105CBE4A1154BE48007841B209980A30F4
:1047A000B94A125CBB488154BB480068401CBA49F6
:1047B0000860FDF74FFC0998401CC0B20990B7494A
:1047C00009780998884299DB42E0B54800780D28BD
:1047D0002DD1AF480078FDF737FB90F90300099021
:1047E00000F07CF908900090AE480078401CC0B200
:1047F000034602220790AC480178A5480078FDF7EF
:104800002DFAA8490978491C0998401AC0B20146F6
:1048100008909F480078FDF7A7FA9B48807A40B23D
:104820009C499B4A12788854FDF714FC10E09C4880
:10483000007813280CD19D480078401CC0B29B49D9
:104840000870202801DD01200870012098490870B7
:1048500014E000F043F997490968441A9648007833
:10486000FDF7F2FA90F9030000EB4000800040F2FF
:10487000A9114843B4EB800FFFF49FAE00BF8F48EF
:104880000078002807D0AFF28450FBF7ADFC8A48CF
:104890000078FCF7E7FEEAE0FDF71AFB88490870AC
:1048A000FDF706FB80490870FDF70EFB784908709C
:1048B000FDF7F6FA83490870FDF70EFB784908709A
:1048C000FDF7EAFA75490870FDF7EEFA7E490870BF
:1048D000FDF7F6FA7D490870FDF7EEFA71490870A8
:1048E0001420694900220392CDE904210690104664
:1048F00011460E22CDE9002102906B4803787448DE
:1049000002786948017872480078FDF75BFC002066
:1049100009900FE05C490998095C6E480078401ED8
:1049200000EB80006C4A02EB400209981154099890
:10493000401C099009980A28ECDB594800780C289B
:104940003CD10020099033E000F0C8F808905048AE
:104950000078FDF779FAC078401CC0B2079008983B
:10496000009009980A304849085C069002224E4897
:104970000178DDE90603FDF771F9012109980A3094
:10498000414A105C414A11544148007841B20998AB
:104990000A303D4A105C3F4A1154FDF75BFB3E482C
:1049A0000068401C3C4908600998401CC0B209904E
:1049B0003A49097809988842C6DB58E038480078B7
:1049C0000D282DD132480078FDF73EFA90F903000A
:1049D000099000F083F80890009032480078401C5D
:1049E000C0B20346022207902F4801782848007879
:1049F000FDF734F92B490978491C0998401AC0B2CF
:104A00000146089022480078FDF7AEF91E48807AEA
:104A100040B220491E4A12788854FDF71BFB26E05D
:104A20001F480078132822D120480078401CC0B2CB
:104A30001E490870202801DD0120087001201C4952
:104A4000087014E0002009900EE000212148007851
:104A5000401E00EB8000204A02EB400209981154EE
:104A60000998401CC0B2099009980A28EDDB194842
:104A70000078401CC0B217490870202801DD0120D1
:104A80000870FFF718BA000036020020D00100209D
:104A90009F000020F201002078000020A2000020EA
:104AA000A1000020A50000209E000020AD000020F5
:104AB000AE000020A8000020A7000020AC000020CD
:104AC0009D000020A0000020A3000020A4000020E2
:104AD0009C000020A60000205E0200200148006823
:104AE000704700005800002001460022802907DBA3
:104AF000A1F5807000EBD0735B10663B1AB205E045
:104B0000084601EBD0735B10663B1AB250B2704797
:104B100000B503461846FDF735FE00BD00B5034657
:104B20001846FDF72FFE00BD21F00042A2F16052B1
:104B3000B2F5801F01F0004328BFD2F17F6C0BD982
:104B40005FEA001C43EAC20242EB507018BF704794
:104B500028BF20F001007047B2F5801FBCBF184687
:104B600070474FEA410C1CF5001F02D2084600F0C6
:104B700016BD70B500F0CEF900000089FFF7F6BF52
:104B80004FF00040A0F580007047000010B591EA9A
:104B9000030F48BF83F0004300F14E82841A71EB8B
:104BA000030C05D2121943EB0C03001B61EB0C0143
:104BB000DFF824E14FEA1154A4EB135C1EEA430F23
:104BC00018BF9EEA445F73D023EA0E03DCF1200E87
:104BD00021EA045143F4801332D322FA0CFE10EB85
:104BE0000E0023FA0CFE41EB0E01CCF1200E03FA6D
:104BF0000EFE10EB0E0051F10001B1F5801FCCF15B
:104C0000200E32D201EB045112FA0EF2BDE8104030
:104C100058BF7047401C38BF5FEA420218BF704758
:104C2000002814BF20F0010041F100014FEA4103C8
:104C300013F5001F38BF7047A1F1C04100F0B8B9AB
:104C4000012A43EB0302ACF1200CDCF11F0E32BF52
:104C50004FF0000E23FA0CF310EB030041EB04516C
:104C6000B4EB115FD0D0A1EB045101F580114908DC
:104C70005FEA300001EB04510ED350F1000038BF61
:104C800012FA0EFE08D1BDE81040C9E7401C38BF3B
:104C90005FEA4202CAD1C3E7BDE810404FEA4103D0
:104CA00013F5001F38BF7047A1F1C04100F080B973
:104CB0009EEA445F08D011EA5E0FBDE8104004BFD1
:104CC00001F0004100207047BDE8104070B500F0D1
:104CD00021F900BF64FBBE3E0000E0FF491058BF51
:104CE000C1F140415B1058BFC3F140438B42EFF329
:104CF0000080704710F0004248BF4042B0FA80F395
:104D000010FA03F10AD0C3F11D0303F580634FEAE3
:104D1000415002EB035202EBD12170474FF00000EB
:104D20007047B0FA80F310FA03F10AD0C3F11D0303
:104D300003F580634FEA41504FEA035202EBD12161
:104D400070474FF00000704751EA030C17D41CF570
:104D5000801F58BFBCF5801F00F10680994218BF24
:104D6000704708BF9042704707D711F5801F58BFA2
:104D700013F5801F19D499427047894270471CF57A
:104D8000801F08D5BCF5801FF7D58B4218BF704730
:104D900008BF824270474FF4001C1CEB410F38BF24
:104DA0001CEB430F01D28B42704770B500F0B2F894
:104DB000922449004FF000514FF08053FFF78EBF0F
:104DC000DFF848C170B51CEA111E1EBF1CEA13159E
:104DD0009EEA0C0F95EA0C0F00F06F8081EA030445
:104DE00023EA4C134EEAD47E21EA4C1141F480119F
:104DF00043F48013AE44A1FB024CA0FB0365AEF16B
:104E00007F7E361955EB0C05A1FB034C4CF10003DA
:104E1000A0FB021C16EB0C06654153F1000309428E
:104E200018BF46F0010613F4007F0BD14FEA03319F
:104E30004FEA0530340341EA155140EA16506FF04D
:104E400003020AE04FEAC3214FEAC520F40241EA17
:104E5000555140EA56506FF0020202EB2E4201EB30
:104E6000025585EACE710AD05FEA440C18BF24F0DF
:104E7000004450F1000041F1000120EAD47040F2FA
:104E8000FE7C624500D270BDA84214BF4FF0804442
:104E90004FF04044002E08BF0024BEF1806FA8BF31
:104EA000A1F1C041BDE8704080F282804FF0000067
:104EB00001F1C04101F0004170479EEA0C0F0CEA7D
:104EC000131518BF95EA0C0F06D04FF0000081EAC9
:104ED000030E0EF0004170BD00F01CF88900013E89
:104EE00000F007B800F009B84FEA430C5FEA5C5CD9
:104EF00008D081EA030100F05BB84FEA410C5FEA99
:104F00005C5CF6D14FF00000014970470000FF07DC
:104F10000000F87F0EF1020E2EF0030E5EF8046B17
:104F2000364205D4012A43EB030515F5001F12D8BC
:104F3000012841EB010C1CF5001F0CD80ED14FEAE3
:104F4000D17C15F5001F0CEB4C0C0CF1020C08BFCA
:104F50004CEBD37C04E04FF0080C01E04FEAD37C2B
:104F60000CEB4C0526FA05F606F00706B6F1040C24
:104F700006D20EEB860CBDE870404CF0010C604789
:104F8000DFE80CF0090B02024FF000414FF0000087
:104F9000A1F5002170BD19461046012851EB01040E
:104FA00018BFD4F5001484BF002001F0004170BD8B
:104FB0000808A0F500114FEA3101704753EA010CCF
:104FC00017D41CF5801F58BFBCF5801F00F1068068
:104FD0008B4218BF704708BF8242704707D713F54E
:104FE000801F58BF11F5801F19D48B4270479B4218
:104FF00070471CF5801F08D5BCF5801FF7D5994276
:1050000018BF704708BF904270474FF4001C1CEB5C
:10501000430F38BF1CEB410F01D2994270470FB4C8
:105020000CBC03BCFFF7C1BE10B591EA030F48BF2B
:1050300083F000433FF5B2AD841A71EB030C07D245
:1050400012198CF0004C43EB0C03001B61EB0C01BC
:10505000DFF8A4E14FEA1154A4EB135C1EEA430FFE
:1050600018BF9EEA445F00F0B08023EA6E0352420C
:1050700021EA0451C3EB6E0338BF5B1EDCF1200E46
:1050800025D322FA0CFE10EB0E0043FA0CFE41EB86
:105090000E01CCF1200E03FA0EFE10EB0E0051F1C2
:1050A0000001CCF1200E29D412FA0EF201EB0451CA
:1050B000BDE8104058BF7047401C1CBFB2F1004F04
:1050C000704700280CBF491C20F00100704712EB0C
:1050D000020E43EB030218BF4FF0010E4EEA4202EC
:1050E000ACF1200CDCF11E0E54D943FA0CFE10EB8F
:1050F0000E0051F1FF31CCF11E0ED5D50EF1010E8F
:1051000012FA0EFE404141EB010101EB445C5FEA03
:105110005C5C10D910EBDE7001EB045138BFBEF1BE
:10512000004FBDE8104018BF704700280CBF491C55
:1051300020F00100704730D24FEAD42C11F5001155
:1051400024F400641BD0B1FA81F20B3AA41AA41E15
:10515000D2F12003914030FA03F31943904001EB60
:10516000CC71002C01EB0451BDE81040A8BF704782
:1051700001F1C0414FF0000001F000417047B0FA6A
:1051800080F310FA03F100D110BDE41A173C480572
:10519000C90AE4E701EB045110BD491001EB0451C9
:1051A000BDE810404FEA300002E04FF000017047C8
:1051B0004A0008BF0042F8D0B2F5001F28BF704770
:1051C00001F000414FF0000070479EEA445F07D0B5
:1051D00011EA5E0FBDE8104004BF002100207047B7
:1051E000BDE8104070B5FFF795FE00BF40DFF63E0A
:1051F00083F00041104670470000E0FF43004FEA93
:10520000D30C4FEA3C0C43401FBF40070CF16051E8
:1052100013F0FE4F70471CF0006F03D100200CF01C
:10522000004170470CF0004343EA507010B540EA6B
:10523000CC0000F06EF900BF000000924FEA0001C0
:10524000FFF7B6BE4FF000414FF00000A1F500217E
:10525000704700004FF47F0C1CEAD0121EBF1CEAFE
:10526000D11392EA0C0F93EA0C0F00F0858090EABC
:10527000010F48BF42F4807240F4000C41F400007A
:105280002CF07F4120F07F4000B58142A2EB030269
:105290000FF2081CACEB504EC0F100009EF800E08D
:1052A0004FEA4E0E00FB0EFC38BF49004FEA2C1CA3
:1052B00002F5FA020CFB0EF34FEACE1E4FEA112C58
:1052C0004FEAC1210EEB635E42EB22420EFB0CFC67
:1052D0004FEA1C5300FB03114FEA112C4FEA013136
:1052E0000EFB0CFC4FEADC4C00FB0C11C14228BF4A
:1052F00009184CEB03335DF804EB10EB410143EB71
:10530000C250B2F57C0F38BF704729D512F0F00FAC
:105310001CBF00F1C04000F0004070470081828354
:105320008485868788898B8C8D8E8F9192939596B4
:1053300097999A9C9D9FA0A2A3A5A7A8AAACAEB03E
:10534000B2B3B5B7B9BCBEC0C2C5C7C9CCCED1D443
:10535000D7D9DCDFE2E6E9ECF0F3F7FAFE00000073
:105360004FEA400C0CF1807CBCF17E4F28BF7047A7
:10537000B0F1C04000F013B990EA010F0CEAD1136C
:1053800048BF42F48072624538BF634507D213F4C8
:105390007F0F16D080EA010000F00040704710B582
:1053A00000F0B7F8097EFC3E00F005B880EA010085
:1053B00000F00040704780EA010000F0004000F07B
:1053C000EEB812F47F0F04BF0248704780EA010074
:1053D00000F0E5B80000C07F41000B0ED3F19E0243
:1053E00008D950F400034FEA032323FA02F048BF20
:1053F0004042704710B500F08CF800BF49922480FD
:10540000002070476FF0004282EA200070470000E1
:105410004FF47F0C1CEAD0121EBF1CEAD11392EA93
:105420000C0F93EA0C0F00F0478090EA010F48BF81
:1054300042F480724FF0004C4CEA00204CEA01210B
:1054400002EB0302A0FB0113A2F50002002918BF22
:1054500043F001035B0028BF4FEA330342EB2242D3
:105460005FEA132C4CEBC2502EBFBCEB436FB2F57E
:105470007C0F70474FEA036CBCF1004F08BF20F06F
:105480000100B2F57C0F38BF70470BD582F0FF02E8
:1054900012F5803FC8BF704700F1C040D8BF00F090
:1054A0000040704700F5000C5FEA4C0C48BF7047A5
:1054B000B0F1C04000F073B890EA010F0CEAD113CC
:1054C00048BF42F48072624538BF634504D280EA27
:1054D000010000F00040704710B500F01AF800BF5E
:1054E0008900013E00F007B800F009B85FEA410CFE
:1054F0005FEA1C6C08D080EA010000F050B85FEA57
:10550000400C5FEA1C6CF6D14FF00040A0F5800023
:1055100070470EF1020E2EF0030E5EF8044B24428B
:1055200004D44FEA4102B2F17F4F11D84FEA400351
:10553000B3F17F4F0CD80ED14FEAD07CB2F17F4F40
:105540000CEB4C0C0CF1020C08BF4CEBD17C04E0D2
:105550004FF0080C01E04FEAD17C0CEB4C0324FA2D
:1055600003F404F00704B4F1040C06D20EEB840C2F
:10557000BDE810404CF0010C6047DFE80CF0070874
:1055800002024FF00040A0F5800010BD0846420026
:1055900018BFD2F1807288BF00F0004010BDFF211B
:1055A00041EAD050C00570473A535444494E003A3E
:1055B0005354444F5554003A5354444552520030CA
:1055C0003132333435363738394142434445464029
:1055D0003058003031323334353637383961626310
:1055E000646566403078000053656E64696E6720BC
:1055F0003A2046726F6D202020546F2020202053C7
:105600006F757263652020446573742054797065EA
:10561000204461746120466C6167205365712320CA
:10562000205061796C6F61642E2E2E2E200D0A00A1
:105630002A2A2A2A2A2A2A2A2A2A2A2A2A2A2A2ACA
:105640002A2A2A2A2A636865636B73756D2045527E
:10565000524F522A2A2A2A2A2A2A2A2A2A2A2A2A35
:105660002A2A2A2A2A2A2A2A2A2A2A2A2A2A2A0DB7
:105670000A0000002323232323232323232323237C
:1056800023232323232323232323232323232323EA
:105690002323232323232323232323726F75746956
:1056A0006E67206661696C2323232323232323232E
:1056B00023232323232323232323232323232323BA
:1056C00023232323232323232323232323232323AA
:1056D00023230D0A000000002D2D2D2D2D2D2D2D05
:1056E0002D2D2D2D2D2D2D2D2D2D2D2D2D2D2D2DEA
:1056F0002D2D2D2D2D2D2D2D2D2D2D2D2D2D2D2DDA
:105700002D2D2D2D2D2D2D2D2D2D2D2D2D2D2D2DC9
:105710002D2D2D2D2D2D2D2D2D2D2D2D2D2D2D2DB9
:105720002D2D2D2D2D0D0A004857000800000020BA
:10573000F00000002801000838580008F0000020A0
:10574000380D0000440100080000000000000000C7
:105750000000000000000000000000000000000049
:105760000000000000000000000000000000000039
:105770000000000000000000000000000000000029
:105780000000000000000000000000000000000019
:105790000000000000000000000000000000000009
:1057A00000000000000000000000000000000000F9
:1057B00000000000000000000000000000000000E9
:1057C00000000000000000000000000000000000D9
:1057D00000000000000000000000000000000000C9
:1057E00000000000000000000000000000000100B8
:1057F00000000000010101000000000000000000A6
:105800000000000000000000010203040102030484
:10581000060708090204060800A24A040000000066
:105820000000000001020304060708090000000050
:08583000000000000000000070
:04000005080001A945
:00000001FF
